{
  "_format": "hh-sol-artifact-1",
  "contractName": "MonkeyContract",
  "sourceName": "contracts/MonkeyContract.sol",
  "abi": [
    {
      "inputs": [],
      "stateMutability": "nonpayable",
      "type": "constructor"
    },
    {
      "anonymous": false,
      "inputs": [
        {
          "indexed": true,
          "internalType": "address",
          "name": "owner",
          "type": "address"
        },
        {
          "indexed": true,
          "internalType": "address",
          "name": "approved",
          "type": "address"
        },
        {
          "indexed": true,
          "internalType": "uint256",
          "name": "tokenId",
          "type": "uint256"
        }
      ],
      "name": "Approval",
      "type": "event"
    },
    {
      "anonymous": false,
      "inputs": [
        {
          "indexed": true,
          "internalType": "address",
          "name": "owner",
          "type": "address"
        },
        {
          "indexed": true,
          "internalType": "address",
          "name": "operator",
          "type": "address"
        },
        {
          "indexed": false,
          "internalType": "bool",
          "name": "approved",
          "type": "bool"
        }
      ],
      "name": "ApprovalForAll",
      "type": "event"
    },
    {
      "anonymous": false,
      "inputs": [
        {
          "indexed": false,
          "internalType": "uint256",
          "name": "tokenId",
          "type": "uint256"
        },
        {
          "indexed": false,
          "internalType": "uint256",
          "name": "genes",
          "type": "uint256"
        },
        {
          "indexed": false,
          "internalType": "uint256",
          "name": "birthtime",
          "type": "uint256"
        },
        {
          "indexed": false,
          "internalType": "uint256",
          "name": "parent1Id",
          "type": "uint256"
        },
        {
          "indexed": false,
          "internalType": "uint256",
          "name": "parent2Id",
          "type": "uint256"
        },
        {
          "indexed": false,
          "internalType": "uint256",
          "name": "generation",
          "type": "uint256"
        },
        {
          "indexed": false,
          "internalType": "address",
          "name": "owner",
          "type": "address"
        }
      ],
      "name": "BreedingSuccessful",
      "type": "event"
    },
    {
      "anonymous": false,
      "inputs": [
        {
          "indexed": false,
          "internalType": "address",
          "name": "owner",
          "type": "address"
        },
        {
          "indexed": false,
          "internalType": "uint256",
          "name": "tokenId",
          "type": "uint256"
        },
        {
          "indexed": false,
          "internalType": "uint256",
          "name": "parent1Id",
          "type": "uint256"
        },
        {
          "indexed": false,
          "internalType": "uint256",
          "name": "parent2Id",
          "type": "uint256"
        },
        {
          "indexed": false,
          "internalType": "uint256",
          "name": "genes",
          "type": "uint256"
        }
      ],
      "name": "MonkeyCreated",
      "type": "event"
    },
    {
      "anonymous": false,
      "inputs": [
        {
          "indexed": true,
          "internalType": "address",
          "name": "previousOwner",
          "type": "address"
        },
        {
          "indexed": true,
          "internalType": "address",
          "name": "newOwner",
          "type": "address"
        }
      ],
      "name": "OwnershipTransferred",
      "type": "event"
    },
    {
      "anonymous": false,
      "inputs": [
        {
          "indexed": false,
          "internalType": "address",
          "name": "account",
          "type": "address"
        }
      ],
      "name": "Paused",
      "type": "event"
    },
    {
      "anonymous": false,
      "inputs": [
        {
          "indexed": true,
          "internalType": "address",
          "name": "from",
          "type": "address"
        },
        {
          "indexed": true,
          "internalType": "address",
          "name": "to",
          "type": "address"
        },
        {
          "indexed": true,
          "internalType": "uint256",
          "name": "tokenId",
          "type": "uint256"
        }
      ],
      "name": "Transfer",
      "type": "event"
    },
    {
      "anonymous": false,
      "inputs": [
        {
          "indexed": false,
          "internalType": "address",
          "name": "account",
          "type": "address"
        }
      ],
      "name": "Unpaused",
      "type": "event"
    },
    {
      "inputs": [],
      "name": "GEN0_Limit",
      "outputs": [
        {
          "internalType": "uint256",
          "name": "",
          "type": "uint256"
        }
      ],
      "stateMutability": "view",
      "type": "function"
    },
    {
      "inputs": [
        {
          "internalType": "uint256",
          "name": "",
          "type": "uint256"
        }
      ],
      "name": "allMonkeysArray",
      "outputs": [
        {
          "internalType": "uint256",
          "name": "parent1Id",
          "type": "uint256"
        },
        {
          "internalType": "uint256",
          "name": "parent2Id",
          "type": "uint256"
        },
        {
          "internalType": "uint256",
          "name": "generation",
          "type": "uint256"
        },
        {
          "internalType": "uint256",
          "name": "genes",
          "type": "uint256"
        },
        {
          "internalType": "uint256",
          "name": "birthtime",
          "type": "uint256"
        }
      ],
      "stateMutability": "view",
      "type": "function"
    },
    {
      "inputs": [
        {
          "internalType": "address",
          "name": "to",
          "type": "address"
        },
        {
          "internalType": "uint256",
          "name": "tokenId",
          "type": "uint256"
        }
      ],
      "name": "approve",
      "outputs": [],
      "stateMutability": "nonpayable",
      "type": "function"
    },
    {
      "inputs": [
        {
          "internalType": "address",
          "name": "owner",
          "type": "address"
        }
      ],
      "name": "balanceOf",
      "outputs": [
        {
          "internalType": "uint256",
          "name": "",
          "type": "uint256"
        }
      ],
      "stateMutability": "view",
      "type": "function"
    },
    {
      "inputs": [
        {
          "internalType": "uint256",
          "name": "_parent1Id",
          "type": "uint256"
        },
        {
          "internalType": "uint256",
          "name": "_parent2Id",
          "type": "uint256"
        }
      ],
      "name": "breed",
      "outputs": [
        {
          "internalType": "uint256",
          "name": "",
          "type": "uint256"
        }
      ],
      "stateMutability": "nonpayable",
      "type": "function"
    },
    {
      "inputs": [
        {
          "internalType": "uint256",
          "name": "_genes",
          "type": "uint256"
        }
      ],
      "name": "createGen0Monkey",
      "outputs": [],
      "stateMutability": "nonpayable",
      "type": "function"
    },
    {
      "inputs": [
        {
          "internalType": "uint256",
          "name": "_parent1Id",
          "type": "uint256"
        },
        {
          "internalType": "uint256",
          "name": "_parent2Id",
          "type": "uint256"
        },
        {
          "internalType": "uint256",
          "name": "_generation",
          "type": "uint256"
        },
        {
          "internalType": "uint256",
          "name": "_genes",
          "type": "uint256"
        },
        {
          "internalType": "address",
          "name": "_owner",
          "type": "address"
        }
      ],
      "name": "createMonkey",
      "outputs": [
        {
          "internalType": "uint256",
          "name": "",
          "type": "uint256"
        }
      ],
      "stateMutability": "nonpayable",
      "type": "function"
    },
    {
      "inputs": [
        {
          "internalType": "address",
          "name": "owner",
          "type": "address"
        }
      ],
      "name": "findMonkeyIdsOfAddress",
      "outputs": [
        {
          "internalType": "uint256[]",
          "name": "",
          "type": "uint256[]"
        }
      ],
      "stateMutability": "view",
      "type": "function"
    },
    {
      "inputs": [],
      "name": "gen0amountTotal",
      "outputs": [
        {
          "internalType": "uint256",
          "name": "",
          "type": "uint256"
        }
      ],
      "stateMutability": "view",
      "type": "function"
    },
    {
      "inputs": [
        {
          "internalType": "uint256",
          "name": "tokenId",
          "type": "uint256"
        }
      ],
      "name": "getApproved",
      "outputs": [
        {
          "internalType": "address",
          "name": "",
          "type": "address"
        }
      ],
      "stateMutability": "view",
      "type": "function"
    },
    {
      "inputs": [],
      "name": "getMonkeyContractAddress",
      "outputs": [
        {
          "internalType": "address",
          "name": "",
          "type": "address"
        }
      ],
      "stateMutability": "view",
      "type": "function"
    },
    {
      "inputs": [
        {
          "internalType": "uint256",
          "name": "tokenId",
          "type": "uint256"
        }
      ],
      "name": "getMonkeyDetails",
      "outputs": [
        {
          "internalType": "uint256",
          "name": "genes",
          "type": "uint256"
        },
        {
          "internalType": "uint256",
          "name": "birthtime",
          "type": "uint256"
        },
        {
          "internalType": "uint256",
          "name": "parent1Id",
          "type": "uint256"
        },
        {
          "internalType": "uint256",
          "name": "parent2Id",
          "type": "uint256"
        },
        {
          "internalType": "uint256",
          "name": "generation",
          "type": "uint256"
        },
        {
          "internalType": "address",
          "name": "owner",
          "type": "address"
        },
        {
          "internalType": "address",
          "name": "approvedAddress",
          "type": "address"
        }
      ],
      "stateMutability": "view",
      "type": "function"
    },
    {
      "inputs": [
        {
          "internalType": "address",
          "name": "owner",
          "type": "address"
        },
        {
          "internalType": "address",
          "name": "operator",
          "type": "address"
        }
      ],
      "name": "isApprovedForAll",
      "outputs": [
        {
          "internalType": "bool",
          "name": "",
          "type": "bool"
        }
      ],
      "stateMutability": "view",
      "type": "function"
    },
    {
      "inputs": [],
      "name": "name",
      "outputs": [
        {
          "internalType": "string",
          "name": "",
          "type": "string"
        }
      ],
      "stateMutability": "view",
      "type": "function"
    },
    {
      "inputs": [],
      "name": "owner",
      "outputs": [
        {
          "internalType": "address",
          "name": "",
          "type": "address"
        }
      ],
      "stateMutability": "view",
      "type": "function"
    },
    {
      "inputs": [
        {
          "internalType": "uint256",
          "name": "tokenId",
          "type": "uint256"
        }
      ],
      "name": "ownerOf",
      "outputs": [
        {
          "internalType": "address",
          "name": "",
          "type": "address"
        }
      ],
      "stateMutability": "view",
      "type": "function"
    },
    {
      "inputs": [],
      "name": "paused",
      "outputs": [
        {
          "internalType": "bool",
          "name": "",
          "type": "bool"
        }
      ],
      "stateMutability": "view",
      "type": "function"
    },
    {
      "inputs": [],
      "name": "renounceOwnership",
      "outputs": [],
      "stateMutability": "nonpayable",
      "type": "function"
    },
    {
      "inputs": [
        {
          "internalType": "address",
          "name": "from",
          "type": "address"
        },
        {
          "internalType": "address",
          "name": "to",
          "type": "address"
        },
        {
          "internalType": "uint256",
          "name": "tokenId",
          "type": "uint256"
        }
      ],
      "name": "safeTransferFrom",
      "outputs": [],
      "stateMutability": "nonpayable",
      "type": "function"
    },
    {
      "inputs": [
        {
          "internalType": "address",
          "name": "from",
          "type": "address"
        },
        {
          "internalType": "address",
          "name": "to",
          "type": "address"
        },
        {
          "internalType": "uint256",
          "name": "tokenId",
          "type": "uint256"
        },
        {
          "internalType": "bytes",
          "name": "_data",
          "type": "bytes"
        }
      ],
      "name": "safeTransferFrom",
      "outputs": [],
      "stateMutability": "nonpayable",
      "type": "function"
    },
    {
      "inputs": [
        {
          "internalType": "address",
          "name": "operator",
          "type": "address"
        },
        {
          "internalType": "bool",
          "name": "approved",
          "type": "bool"
        }
      ],
      "name": "setApprovalForAll",
      "outputs": [],
      "stateMutability": "nonpayable",
      "type": "function"
    },
    {
      "inputs": [
        {
          "internalType": "bytes4",
          "name": "interfaceId",
          "type": "bytes4"
        }
      ],
      "name": "supportsInterface",
      "outputs": [
        {
          "internalType": "bool",
          "name": "",
          "type": "bool"
        }
      ],
      "stateMutability": "view",
      "type": "function"
    },
    {
      "inputs": [],
      "name": "symbol",
      "outputs": [
        {
          "internalType": "string",
          "name": "",
          "type": "string"
        }
      ],
      "stateMutability": "view",
      "type": "function"
    },
    {
      "inputs": [
        {
          "internalType": "uint256",
          "name": "index",
          "type": "uint256"
        }
      ],
      "name": "tokenByIndex",
      "outputs": [
        {
          "internalType": "uint256",
          "name": "",
          "type": "uint256"
        }
      ],
      "stateMutability": "view",
      "type": "function"
    },
    {
      "inputs": [
        {
          "internalType": "address",
          "name": "owner",
          "type": "address"
        },
        {
          "internalType": "uint256",
          "name": "index",
          "type": "uint256"
        }
      ],
      "name": "tokenOfOwnerByIndex",
      "outputs": [
        {
          "internalType": "uint256",
          "name": "",
          "type": "uint256"
        }
      ],
      "stateMutability": "view",
      "type": "function"
    },
    {
      "inputs": [
        {
          "internalType": "uint256",
          "name": "tokenId",
          "type": "uint256"
        }
      ],
      "name": "tokenURI",
      "outputs": [
        {
          "internalType": "string",
          "name": "",
          "type": "string"
        }
      ],
      "stateMutability": "view",
      "type": "function"
    },
    {
      "inputs": [],
      "name": "totalSupply",
      "outputs": [
        {
          "internalType": "uint256",
          "name": "",
          "type": "uint256"
        }
      ],
      "stateMutability": "view",
      "type": "function"
    },
    {
      "inputs": [
        {
          "internalType": "address",
          "name": "_from",
          "type": "address"
        },
        {
          "internalType": "address",
          "name": "_to",
          "type": "address"
        },
        {
          "internalType": "uint256",
          "name": "_tokenId",
          "type": "uint256"
        }
      ],
      "name": "transfer",
      "outputs": [],
      "stateMutability": "nonpayable",
      "type": "function"
    },
    {
      "inputs": [
        {
          "internalType": "address",
          "name": "from",
          "type": "address"
        },
        {
          "internalType": "address",
          "name": "to",
          "type": "address"
        },
        {
          "internalType": "uint256",
          "name": "tokenId",
          "type": "uint256"
        }
      ],
      "name": "transferFrom",
      "outputs": [],
      "stateMutability": "nonpayable",
      "type": "function"
    },
    {
      "inputs": [
        {
          "internalType": "address",
          "name": "newOwner",
          "type": "address"
        }
      ],
      "name": "transferOwnership",
      "outputs": [],
      "stateMutability": "nonpayable",
      "type": "function"
    }
  ],
  "bytecode": "0x6080604052600c600d553480156200001657600080fd5b506040518060400160405280600e81526020017f43727970746f204d6f6e6b6579730000000000000000000000000000000000008152506040518060400160405280600681526020017f4d4f4e4b4559000000000000000000000000000000000000000000000000000081525081600090805190602001906200009b929190620001da565b508060019080519060200190620000b4929190620001da565b5050506000620000c9620001d260201b60201c565b905080600a60006101000a81548173ffffffffffffffffffffffffffffffffffffffff021916908373ffffffffffffffffffffffffffffffffffffffff1602179055508073ffffffffffffffffffffffffffffffffffffffff16600073ffffffffffffffffffffffffffffffffffffffff167f8be0079c531659141344cd1fd0a4f28419497f9722a3daafe3b4186f6b6457e060405160405180910390a3506001600b819055506000600c60006101000a81548160ff02191690831515021790555030600c60016101000a81548173ffffffffffffffffffffffffffffffffffffffff021916908373ffffffffffffffffffffffffffffffffffffffff160217905550620002ef565b600033905090565b828054620001e8906200028a565b90600052602060002090601f0160209004810192826200020c576000855562000258565b82601f106200022757805160ff191683800117855562000258565b8280016001018555821562000258579182015b82811115620002575782518255916020019190600101906200023a565b5b5090506200026791906200026b565b5090565b5b80821115620002865760008160009055506001016200026c565b5090565b60006002820490506001821680620002a357607f821691505b60208210811415620002ba57620002b9620002c0565b5b50919050565b7f4e487b7100000000000000000000000000000000000000000000000000000000600052602260045260246000fd5b614bde80620002ff6000396000f3fe608060405234801561001057600080fd5b50600436106101da5760003560e01c806370a0823111610104578063beabacc8116100a2578063e985e9c511610071578063e985e9c5146105ad578063ef742fc1146105dd578063f2fde38b146105f9578063f91ba67414610615576101da565b8063beabacc814610513578063c87b56dd1461052f578063d9ecad7b1461055f578063daa97fae1461058f576101da565b806390ba3485116100de57806390ba34851461048d57806395d89b41146104bd578063a22cb465146104db578063b88d4fde146104f7576101da565b806370a0823114610435578063715018a6146104655780638da5cb5b1461046f576101da565b80631b4172781161017c57806342842e0e1161014b57806342842e0e1461039b5780634f6ccce7146103b75780635c975abb146103e75780636352211e14610405576101da565b80631b417278146102e557806323b872dd146103195780632558e25f146103355780632f745c591461036b576101da565b80630917cffe116101b85780630917cffe1461025d578063095ea7b31461027b57806318160ddd146102975780631b0a1aed146102b5576101da565b806301ffc9a7146101df57806306fdde031461020f578063081812fc1461022d575b600080fd5b6101f960048036038101906101f491906135fd565b610633565b604051610206919061425a565b60405180910390f35b6102176106ad565b6040516102249190614275565b60405180910390f35b6102476004803603810190610242919061364f565b61073f565b604051610254919061417e565b60405180910390f35b6102656107c4565b60405161027291906145d5565b60405180910390f35b610295600480360381019061029091906135c1565b6107ca565b005b61029f6108e2565b6040516102ac91906145d5565b60405180910390f35b6102cf60048036038101906102ca9190613456565b6108ef565b6040516102dc9190614238565b60405180910390f35b6102ff60048036038101906102fa919061364f565b610a3a565b6040516103109594939291906145f0565b60405180910390f35b610333600480360381019061032e91906134bb565b610a80565b005b61034f600480360381019061034a919061364f565b610ae0565b6040516103629796959493929190614643565b60405180910390f35b610385600480360381019061038091906135c1565b610c92565b60405161039291906145d5565b60405180910390f35b6103b560048036038101906103b091906134bb565b610d37565b005b6103d160048036038101906103cc919061364f565b610d57565b6040516103de91906145d5565b60405180910390f35b6103ef610dee565b6040516103fc919061425a565b60405180910390f35b61041f600480360381019061041a919061364f565b610e05565b60405161042c919061417e565b60405180910390f35b61044f600480360381019061044a9190613456565b610eb7565b60405161045c91906145d5565b60405180910390f35b61046d610f6f565b005b6104776110ac565b604051610484919061417e565b60405180910390f35b6104a760048036038101906104a291906136b4565b6110d6565b6040516104b491906145d5565b60405180910390f35b6104c56110f5565b6040516104d29190614275565b60405180910390f35b6104f560048036038101906104f09190613585565b611187565b005b610511600480360381019061050c919061350a565b611308565b005b61052d600480360381019061052891906134bb565b61136a565b005b6105496004803603810190610544919061364f565b611518565b6040516105569190614275565b60405180910390f35b61057960048036038101906105749190613678565b6115bf565b60405161058691906145d5565b60405180910390f35b61059761196f565b6040516105a4919061417e565b60405180910390f35b6105c760048036038101906105c2919061347f565b611999565b6040516105d4919061425a565b60405180910390f35b6105f760048036038101906105f2919061364f565b611a2d565b005b610613600480360381019061060e9190613456565b611b21565b005b61061d611ccd565b60405161062a91906145d5565b60405180910390f35b60007f780e9d63000000000000000000000000000000000000000000000000000000007bffffffffffffffffffffffffffffffffffffffffffffffffffffffff1916827bffffffffffffffffffffffffffffffffffffffffffffffffffffffff191614806106a657506106a582611cd3565b5b9050919050565b6060600080546106bc906149c9565b80601f01602080910402602001604051908101604052809291908181526020018280546106e8906149c9565b80156107355780601f1061070a57610100808354040283529160200191610735565b820191906000526020600020905b81548152906001019060200180831161071857829003601f168201915b5050505050905090565b600061074a82611db5565b610789576040517f08c379a0000000000000000000000000000000000000000000000000000000008152600401610780906144b5565b60405180910390fd5b6004600083815260200190815260200160002060009054906101000a900473ffffffffffffffffffffffffffffffffffffffff169050919050565b600e5481565b60006107d582610e05565b90508073ffffffffffffffffffffffffffffffffffffffff168373ffffffffffffffffffffffffffffffffffffffff161415610846576040517f08c379a000000000000000000000000000000000000000000000000000000000815260040161083d90614535565b60405180910390fd5b8073ffffffffffffffffffffffffffffffffffffffff16610865611e21565b73ffffffffffffffffffffffffffffffffffffffff16148061089457506108938161088e611e21565b611999565b5b6108d3576040517f08c379a00000000000000000000000000000000000000000000000000000000081526004016108ca90614415565b60405180910390fd5b6108dd8383611e29565b505050565b6000600880549050905090565b606060006108fc83610eb7565b90506000806109096108e2565b905060008367ffffffffffffffff81111561094d577f4e487b7100000000000000000000000000000000000000000000000000000000600052604160045260246000fd5b60405190808252806020026020018201604052801561097b5781602001602082028036833780820191505090505b50905060005b82811015610a2d578673ffffffffffffffffffffffffffffffffffffffff166109a982610e05565b73ffffffffffffffffffffffffffffffffffffffff161415610a1a57808285815181106109ff577f4e487b7100000000000000000000000000000000000000000000000000000000600052603260045260246000fd5b6020026020010181815250508380610a16906149fb565b9450505b8080610a25906149fb565b915050610981565b5080945050505050919050565b600f8181548110610a4a57600080fd5b90600052602060002090600502016000915090508060000154908060010154908060020154908060030154908060040154905085565b610a91610a8b611e21565b82611ee2565b610ad0576040517f08c379a0000000000000000000000000000000000000000000000000000000008152600401610ac790614555565b60405180910390fd5b610adb838383611fc0565b505050565b6000806000806000806000600f8881548110610b25577f4e487b7100000000000000000000000000000000000000000000000000000000600052603260045260246000fd5b906000526020600020906005020160030154600f8981548110610b71577f4e487b7100000000000000000000000000000000000000000000000000000000600052603260045260246000fd5b906000526020600020906005020160040154600f8a81548110610bbd577f4e487b7100000000000000000000000000000000000000000000000000000000600052603260045260246000fd5b906000526020600020906005020160000154600f8b81548110610c09577f4e487b7100000000000000000000000000000000000000000000000000000000600052603260045260246000fd5b906000526020600020906005020160010154600f8c81548110610c55577f4e487b7100000000000000000000000000000000000000000000000000000000600052603260045260246000fd5b906000526020600020906005020160020154610c708d610e05565b610c798e61073f565b9650965096509650965096509650919395979092949650565b6000610c9d83610eb7565b8210610cde576040517f08c379a0000000000000000000000000000000000000000000000000000000008152600401610cd5906142f5565b60405180910390fd5b600660008473ffffffffffffffffffffffffffffffffffffffff1673ffffffffffffffffffffffffffffffffffffffff168152602001908152602001600020600083815260200190815260200160002054905092915050565b610d5283838360405180602001604052806000815250611308565b505050565b6000610d616108e2565b8210610da2576040517f08c379a0000000000000000000000000000000000000000000000000000000008152600401610d9990614575565b60405180910390fd5b60088281548110610ddc577f4e487b7100000000000000000000000000000000000000000000000000000000600052603260045260246000fd5b90600052602060002001549050919050565b6000600c60009054906101000a900460ff16905090565b6000806002600084815260200190815260200160002060009054906101000a900473ffffffffffffffffffffffffffffffffffffffff169050600073ffffffffffffffffffffffffffffffffffffffff168173ffffffffffffffffffffffffffffffffffffffff161415610eae576040517f08c379a0000000000000000000000000000000000000000000000000000000008152600401610ea590614455565b60405180910390fd5b80915050919050565b60008073ffffffffffffffffffffffffffffffffffffffff168273ffffffffffffffffffffffffffffffffffffffff161415610f28576040517f08c379a0000000000000000000000000000000000000000000000000000000008152600401610f1f90614435565b60405180910390fd5b600360008373ffffffffffffffffffffffffffffffffffffffff1673ffffffffffffffffffffffffffffffffffffffff168152602001908152602001600020549050919050565b610f77611e21565b73ffffffffffffffffffffffffffffffffffffffff16610f956110ac565b73ffffffffffffffffffffffffffffffffffffffff1614610feb576040517f08c379a0000000000000000000000000000000000000000000000000000000008152600401610fe2906144d5565b60405180910390fd5b600073ffffffffffffffffffffffffffffffffffffffff16600a60009054906101000a900473ffffffffffffffffffffffffffffffffffffffff1673ffffffffffffffffffffffffffffffffffffffff167f8be0079c531659141344cd1fd0a4f28419497f9722a3daafe3b4186f6b6457e060405160405180910390a36000600a60006101000a81548173ffffffffffffffffffffffffffffffffffffffff021916908373ffffffffffffffffffffffffffffffffffffffff160217905550565b6000600a60009054906101000a900473ffffffffffffffffffffffffffffffffffffffff16905090565b6000806110e6878787878761221c565b90508091505095945050505050565b606060018054611104906149c9565b80601f0160208091040260200160405190810160405280929190818152602001828054611130906149c9565b801561117d5780601f106111525761010080835404028352916020019161117d565b820191906000526020600020905b81548152906001019060200180831161116057829003601f168201915b5050505050905090565b61118f611e21565b73ffffffffffffffffffffffffffffffffffffffff168273ffffffffffffffffffffffffffffffffffffffff1614156111fd576040517f08c379a00000000000000000000000000000000000000000000000000000000081526004016111f4906143b5565b60405180910390fd5b806005600061120a611e21565b73ffffffffffffffffffffffffffffffffffffffff1673ffffffffffffffffffffffffffffffffffffffff16815260200190815260200160002060008473ffffffffffffffffffffffffffffffffffffffff1673ffffffffffffffffffffffffffffffffffffffff16815260200190815260200160002060006101000a81548160ff0219169083151502179055508173ffffffffffffffffffffffffffffffffffffffff166112b7611e21565b73ffffffffffffffffffffffffffffffffffffffff167f17307eab39ab6107e8899845ad3d59bd9653f200f220920489ca2b5937696c31836040516112fc919061425a565b60405180910390a35050565b611319611313611e21565b83611ee2565b611358576040517f08c379a000000000000000000000000000000000000000000000000000000000815260040161134f90614555565b60405180910390fd5b611364848484846123a5565b50505050565b6002600b5414156113b0576040517f08c379a00000000000000000000000000000000000000000000000000000000081526004016113a790614595565b60405180910390fd5b6002600b819055506113c0610dee565b15611400576040517f08c379a00000000000000000000000000000000000000000000000000000000081526004016113f7906143f5565b60405180910390fd5b600073ffffffffffffffffffffffffffffffffffffffff168273ffffffffffffffffffffffffffffffffffffffff161415611470576040517f08c379a000000000000000000000000000000000000000000000000000000000815260040161146790614355565b60405180910390fd5b3073ffffffffffffffffffffffffffffffffffffffff168273ffffffffffffffffffffffffffffffffffffffff1614156114df576040517f08c379a00000000000000000000000000000000000000000000000000000000081526004016114d6906142d5565b60405180910390fd5b600115156114f46114ee611e21565b83611ee2565b15151461150057600080fd5b61150b838383610d37565b6001600b81905550505050565b606061152382611db5565b611562576040517f08c379a000000000000000000000000000000000000000000000000000000000815260040161155990614515565b60405180910390fd5b600061156c612401565b9050600081511161158c57604051806020016040528060008152506115b7565b8061159684612418565b6040516020016115a792919061411d565b6040516020818303038152906040525b915050919050565b60006115c9610dee565b15611609576040517f08c379a0000000000000000000000000000000000000000000000000000000008152600401611600906143f5565b60405180910390fd5b611611611e21565b73ffffffffffffffffffffffffffffffffffffffff1661163084610e05565b73ffffffffffffffffffffffffffffffffffffffff1614801561168d5750611656611e21565b73ffffffffffffffffffffffffffffffffffffffff1661167583610e05565b73ffffffffffffffffffffffffffffffffffffffff16145b6116cc576040517f08c379a00000000000000000000000000000000000000000000000000000000081526004016116c390614495565b60405180910390fd5b6000600f8481548110611708577f4e487b7100000000000000000000000000000000000000000000000000000000600052603260045260246000fd5b90600052602060002090600502016003015490506000600f8481548110611758577f4e487b7100000000000000000000000000000000000000000000000000000000600052603260045260246000fd5b9060005260206000209060050201600301549050600061177883836125c5565b90506000611786878761286d565b9050600061179e88888486611799611e21565b61221c565b90507f8e3541d6cb6a06d3a1785ca3c18fa6ca7b39a6278433734c442e2ebfe623e2ea81600f83815481106117fc577f4e487b7100000000000000000000000000000000000000000000000000000000600052603260045260246000fd5b906000526020600020906005020160030154600f8481548110611848577f4e487b7100000000000000000000000000000000000000000000000000000000600052603260045260246000fd5b906000526020600020906005020160040154600f8581548110611894577f4e487b7100000000000000000000000000000000000000000000000000000000600052603260045260246000fd5b906000526020600020906005020160000154600f86815481106118e0577f4e487b7100000000000000000000000000000000000000000000000000000000600052603260045260246000fd5b906000526020600020906005020160010154600f878154811061192c577f4e487b7100000000000000000000000000000000000000000000000000000000600052603260045260246000fd5b906000526020600020906005020160020154611946611e21565b60405161195997969594939291906146b2565b60405180910390a1809550505050505092915050565b6000600c60019054906101000a900473ffffffffffffffffffffffffffffffffffffffff16905090565b6000600560008473ffffffffffffffffffffffffffffffffffffffff1673ffffffffffffffffffffffffffffffffffffffff16815260200190815260200160002060008373ffffffffffffffffffffffffffffffffffffffff1673ffffffffffffffffffffffffffffffffffffffff16815260200190815260200160002060009054906101000a900460ff16905092915050565b611a35611e21565b73ffffffffffffffffffffffffffffffffffffffff16611a536110ac565b73ffffffffffffffffffffffffffffffffffffffff1614611aa9576040517f08c379a0000000000000000000000000000000000000000000000000000000008152600401611aa0906144d5565b60405180910390fd5b600d54600e5410611aef576040517f08c379a0000000000000000000000000000000000000000000000000000000008152600401611ae6906145b5565b60405180910390fd5b600e6000815480929190611b02906149fb565b9190505550611b1d600080600084611b18611e21565b61221c565b5050565b611b29611e21565b73ffffffffffffffffffffffffffffffffffffffff16611b476110ac565b73ffffffffffffffffffffffffffffffffffffffff1614611b9d576040517f08c379a0000000000000000000000000000000000000000000000000000000008152600401611b94906144d5565b60405180910390fd5b600073ffffffffffffffffffffffffffffffffffffffff168173ffffffffffffffffffffffffffffffffffffffff161415611c0d576040517f08c379a0000000000000000000000000000000000000000000000000000000008152600401611c0490614335565b60405180910390fd5b8073ffffffffffffffffffffffffffffffffffffffff16600a60009054906101000a900473ffffffffffffffffffffffffffffffffffffffff1673ffffffffffffffffffffffffffffffffffffffff167f8be0079c531659141344cd1fd0a4f28419497f9722a3daafe3b4186f6b6457e060405160405180910390a380600a60006101000a81548173ffffffffffffffffffffffffffffffffffffffff021916908373ffffffffffffffffffffffffffffffffffffffff16021790555050565b600d5481565b60007f80ac58cd000000000000000000000000000000000000000000000000000000007bffffffffffffffffffffffffffffffffffffffffffffffffffffffff1916827bffffffffffffffffffffffffffffffffffffffffffffffffffffffff19161480611d9e57507f5b5e139f000000000000000000000000000000000000000000000000000000007bffffffffffffffffffffffffffffffffffffffffffffffffffffffff1916827bffffffffffffffffffffffffffffffffffffffffffffffffffffffff1916145b80611dae5750611dad82612984565b5b9050919050565b60008073ffffffffffffffffffffffffffffffffffffffff166002600084815260200190815260200160002060009054906101000a900473ffffffffffffffffffffffffffffffffffffffff1673ffffffffffffffffffffffffffffffffffffffff1614159050919050565b600033905090565b816004600083815260200190815260200160002060006101000a81548173ffffffffffffffffffffffffffffffffffffffff021916908373ffffffffffffffffffffffffffffffffffffffff160217905550808273ffffffffffffffffffffffffffffffffffffffff16611e9c83610e05565b73ffffffffffffffffffffffffffffffffffffffff167f8c5be1e5ebec7d5bd14f71427d1e84f3dd0314c0f7b2291e5b200ac8c7c3b92560405160405180910390a45050565b6000611eed82611db5565b611f2c576040517f08c379a0000000000000000000000000000000000000000000000000000000008152600401611f23906143d5565b60405180910390fd5b6000611f3783610e05565b90508073ffffffffffffffffffffffffffffffffffffffff168473ffffffffffffffffffffffffffffffffffffffff161480611fa657508373ffffffffffffffffffffffffffffffffffffffff16611f8e8461073f565b73ffffffffffffffffffffffffffffffffffffffff16145b80611fb75750611fb68185611999565b5b91505092915050565b8273ffffffffffffffffffffffffffffffffffffffff16611fe082610e05565b73ffffffffffffffffffffffffffffffffffffffff1614612036576040517f08c379a000000000000000000000000000000000000000000000000000000000815260040161202d906144f5565b60405180910390fd5b600073ffffffffffffffffffffffffffffffffffffffff168273ffffffffffffffffffffffffffffffffffffffff1614156120a6576040517f08c379a000000000000000000000000000000000000000000000000000000000815260040161209d90614395565b60405180910390fd5b6120b18383836129ee565b6120bc600082611e29565b6001600360008573ffffffffffffffffffffffffffffffffffffffff1673ffffffffffffffffffffffffffffffffffffffff168152602001908152602001600020600082825461210c91906148df565b925050819055506001600360008473ffffffffffffffffffffffffffffffffffffffff1673ffffffffffffffffffffffffffffffffffffffff168152602001908152602001600020600082825461216391906147fe565b92505081905550816002600083815260200190815260200160002060006101000a81548173ffffffffffffffffffffffffffffffffffffffff021916908373ffffffffffffffffffffffffffffffffffffffff160217905550808273ffffffffffffffffffffffffffffffffffffffff168473ffffffffffffffffffffffffffffffffffffffff167fddf252ad1be2c89b69c2b068fc378daa952ba7f163c4a11628f55a4df523b3ef60405160405180910390a4505050565b6000612226610dee565b15612266576040517f08c379a000000000000000000000000000000000000000000000000000000000815260040161225d906143f5565b60405180910390fd5b60006040518060a00160405280888152602001878152602001868152602001858152602001428152509050600f81908060018154018082558091505060019003906000526020600020906005020160009091909190915060008201518160000155602082015181600101556040820151816002015560608201518160030155608082015181600401555050600061230c6001600f80549050612b0290919063ffffffff16565b90506123188482612b18565b7f0b1e9a74eeaae184646d7a35062426460c8c9364005c6d441cce036dd9c655d584828a8a8960405161234f9594939291906141e5565b60405180910390a16123976040518060400160405280601981526020017f546f6b656e204944202573206861732067656e65733a202573000000000000008152508287612b36565b809250505095945050505050565b6123b0848484611fc0565b6123bc84848484612bd5565b6123fb576040517f08c379a00000000000000000000000000000000000000000000000000000000081526004016123f290614315565b60405180910390fd5b50505050565b606060405180602001604052806000815250905090565b60606000821415612460576040518060400160405280600181526020017f300000000000000000000000000000000000000000000000000000000000000081525090506125c0565b600082905060005b6000821461249257808061247b906149fb565b915050600a8261248b9190614854565b9150612468565b60008167ffffffffffffffff8111156124d4577f4e487b7100000000000000000000000000000000000000000000000000000000600052604160045260246000fd5b6040519080825280601f01601f1916602001820160405280156125065781602001600182028036833780820191505090505b5090505b600085146125b95760018261251f91906148df565b9150600a8561252e9190614a4e565b603061253a91906147fe565b60f81b818381518110612576577f4e487b7100000000000000000000000000000000000000000000000000000000600052603260045260246000fd5b60200101907effffffffffffffffffffffffffffffffffffffffffffffffffffffffffffff1916908160001a905350600a856125b29190614854565b945061250a565b8093505050505b919050565b60006125cf613362565b60006125d9612d6c565b90506000600790506000600190505b604081116126ef576000818460ff1616146126545760648761260a9190614a4e565b60ff16848360088110612646577f4e487b7100000000000000000000000000000000000000000000000000000000600052603260045260246000fd5b6020020181815250506126a7565b6064866126619190614a4e565b60ff1684836008811061269d577f4e487b7100000000000000000000000000000000000000000000000000000000600052603260045260246000fd5b6020020181815250505b6064876126b49190614854565b96506064866126c39190614854565b95506126d9600183612b0290919063ffffffff16565b91506002816126e89190614885565b90506125e8565b5060008260ff166126fe6108e2565b600f600081548110612739577f4e487b7100000000000000000000000000000000000000000000000000000000600052603260045260246000fd5b90600052602060002090600502016003015460405160200161275d93929190614141565b6040516020818303038152906040528051906020012060001c9050600a6059826127879190614a4e565b61279191906147fe565b905080846000600881106127ce577f4e487b7100000000000000000000000000000000000000000000000000000000600052603260045260246000fd5b602002018181525050600080600090505b600881101561285e57858160088110612821577f4e487b7100000000000000000000000000000000000000000000000000000000600052603260045260246000fd5b60200201518261283191906147fe565b91506007811461284b576064826128489190614885565b91505b8080612856906149fb565b9150506127df565b50809550505050505092915050565b600080600f84815481106128aa577f4e487b7100000000000000000000000000000000000000000000000000000000600052603260045260246000fd5b90600052602060002090600502016002015490506000600f84815481106128fa577f4e487b7100000000000000000000000000000000000000000000000000000000600052603260045260246000fd5b906000526020600020906005020160020154905060006002600a838561292091906147fe565b61292a9190614885565b6129349190614854565b90506000600a826129459190614a4e565b111561295a5760058161295891906147fe565b505b60006001600a8361296b9190614854565b61297591906147fe565b90508094505050505092915050565b60007f01ffc9a7000000000000000000000000000000000000000000000000000000007bffffffffffffffffffffffffffffffffffffffffffffffffffffffff1916827bffffffffffffffffffffffffffffffffffffffffffffffffffffffff1916149050919050565b6129f9838383612d80565b600073ffffffffffffffffffffffffffffffffffffffff168373ffffffffffffffffffffffffffffffffffffffff161415612a3c57612a3781612d85565b612a7b565b8173ffffffffffffffffffffffffffffffffffffffff168373ffffffffffffffffffffffffffffffffffffffff1614612a7a57612a798382612dce565b5b5b600073ffffffffffffffffffffffffffffffffffffffff168273ffffffffffffffffffffffffffffffffffffffff161415612abe57612ab981612f3b565b612afd565b8273ffffffffffffffffffffffffffffffffffffffff168273ffffffffffffffffffffffffffffffffffffffff1614612afc57612afb828261307e565b5b5b505050565b60008183612b1091906148df565b905092915050565b612b328282604051806020016040528060008152506130fd565b5050565b612bd0838383604051602401612b4e93929190614297565b6040516020818303038152906040527f969cdd03000000000000000000000000000000000000000000000000000000007bffffffffffffffffffffffffffffffffffffffffffffffffffffffff19166020820180517bffffffffffffffffffffffffffffffffffffffffffffffffffffffff8381831617835250505050613158565b505050565b6000612bf68473ffffffffffffffffffffffffffffffffffffffff16613181565b15612d5f578373ffffffffffffffffffffffffffffffffffffffff1663150b7a02612c1f611e21565b8786866040518563ffffffff1660e01b8152600401612c419493929190614199565b602060405180830381600087803b158015612c5b57600080fd5b505af1925050508015612c8c57506040513d601f19601f82011682018060405250810190612c899190613626565b60015b612d0f573d8060008114612cbc576040519150601f19603f3d011682016040523d82523d6000602084013e612cc1565b606091505b50600081511415612d07576040517f08c379a0000000000000000000000000000000000000000000000000000000008152600401612cfe90614315565b60405180910390fd5b805181602001fd5b63150b7a0260e01b7bffffffffffffffffffffffffffffffffffffffffffffffffffffffff1916817bffffffffffffffffffffffffffffffffffffffffffffffffffffffff191614915050612d64565b600190505b949350505050565b600060ff42612d7b9190614a4e565b905090565b505050565b6008805490506009600083815260200190815260200160002081905550600881908060018154018082558091505060019003906000526020600020016000909190919091505550565b60006001612ddb84610eb7565b612de591906148df565b9050600060076000848152602001908152602001600020549050818114612eca576000600660008673ffffffffffffffffffffffffffffffffffffffff1673ffffffffffffffffffffffffffffffffffffffff168152602001908152602001600020600084815260200190815260200160002054905080600660008773ffffffffffffffffffffffffffffffffffffffff1673ffffffffffffffffffffffffffffffffffffffff168152602001908152602001600020600084815260200190815260200160002081905550816007600083815260200190815260200160002081905550505b6007600084815260200190815260200160002060009055600660008573ffffffffffffffffffffffffffffffffffffffff1673ffffffffffffffffffffffffffffffffffffffff16815260200190815260200160002060008381526020019081526020016000206000905550505050565b60006001600880549050612f4f91906148df565b9050600060096000848152602001908152602001600020549050600060088381548110612fa5577f4e487b7100000000000000000000000000000000000000000000000000000000600052603260045260246000fd5b906000526020600020015490508060088381548110612fed577f4e487b7100000000000000000000000000000000000000000000000000000000600052603260045260246000fd5b906000526020600020018190555081600960008381526020019081526020016000208190555060096000858152602001908152602001600020600090556008805480613062577f4e487b7100000000000000000000000000000000000000000000000000000000600052603160045260246000fd5b6001900381819060005260206000200160009055905550505050565b600061308983610eb7565b905081600660008573ffffffffffffffffffffffffffffffffffffffff1673ffffffffffffffffffffffffffffffffffffffff168152602001908152602001600020600083815260200190815260200160002081905550806007600084815260200190815260200160002081905550505050565b6131078383613194565b6131146000848484612bd5565b613153576040517f08c379a000000000000000000000000000000000000000000000000000000000815260040161314a90614315565b60405180910390fd5b505050565b60008151905060006a636f6e736f6c652e6c6f679050602083016000808483855afa5050505050565b600080823b905060008111915050919050565b600073ffffffffffffffffffffffffffffffffffffffff168273ffffffffffffffffffffffffffffffffffffffff161415613204576040517f08c379a00000000000000000000000000000000000000000000000000000000081526004016131fb90614475565b60405180910390fd5b61320d81611db5565b1561324d576040517f08c379a000000000000000000000000000000000000000000000000000000000815260040161324490614375565b60405180910390fd5b613259600083836129ee565b6001600360008473ffffffffffffffffffffffffffffffffffffffff1673ffffffffffffffffffffffffffffffffffffffff16815260200190815260200160002060008282546132a991906147fe565b92505081905550816002600083815260200190815260200160002060006101000a81548173ffffffffffffffffffffffffffffffffffffffff021916908373ffffffffffffffffffffffffffffffffffffffff160217905550808273ffffffffffffffffffffffffffffffffffffffff16600073ffffffffffffffffffffffffffffffffffffffff167fddf252ad1be2c89b69c2b068fc378daa952ba7f163c4a11628f55a4df523b3ef60405160405180910390a45050565b604051806101000160405280600890602082028036833780820191505090505090565b600061339861339384614752565b614721565b9050828152602081018484840111156133b057600080fd5b6133bb848285614987565b509392505050565b6000813590506133d281614b4c565b92915050565b6000813590506133e781614b63565b92915050565b6000813590506133fc81614b7a565b92915050565b60008151905061341181614b7a565b92915050565b600082601f83011261342857600080fd5b8135613438848260208601613385565b91505092915050565b60008135905061345081614b91565b92915050565b60006020828403121561346857600080fd5b6000613476848285016133c3565b91505092915050565b6000806040838503121561349257600080fd5b60006134a0858286016133c3565b92505060206134b1858286016133c3565b9150509250929050565b6000806000606084860312156134d057600080fd5b60006134de868287016133c3565b93505060206134ef868287016133c3565b925050604061350086828701613441565b9150509250925092565b6000806000806080858703121561352057600080fd5b600061352e878288016133c3565b945050602061353f878288016133c3565b935050604061355087828801613441565b925050606085013567ffffffffffffffff81111561356d57600080fd5b61357987828801613417565b91505092959194509250565b6000806040838503121561359857600080fd5b60006135a6858286016133c3565b92505060206135b7858286016133d8565b9150509250929050565b600080604083850312156135d457600080fd5b60006135e2858286016133c3565b92505060206135f385828601613441565b9150509250929050565b60006020828403121561360f57600080fd5b600061361d848285016133ed565b91505092915050565b60006020828403121561363857600080fd5b600061364684828501613402565b91505092915050565b60006020828403121561366157600080fd5b600061366f84828501613441565b91505092915050565b6000806040838503121561368b57600080fd5b600061369985828601613441565b92505060206136aa85828601613441565b9150509250929050565b600080600080600060a086880312156136cc57600080fd5b60006136da88828901613441565b95505060206136eb88828901613441565b94505060406136fc88828901613441565b935050606061370d88828901613441565b925050608061371e888289016133c3565b9150509295509295909350565b600061373783836140e8565b60208301905092915050565b61374c81614913565b82525050565b600061375d82614792565b61376781856147c0565b935061377283614782565b8060005b838110156137a357815161378a888261372b565b9750613795836147b3565b925050600181019050613776565b5085935050505092915050565b6137b981614925565b82525050565b60006137ca8261479d565b6137d481856147d1565b93506137e4818560208601614996565b6137ed81614b3b565b840191505092915050565b6000613803826147a8565b61380d81856147e2565b935061381d818560208601614996565b61382681614b3b565b840191505092915050565b600061383c826147a8565b61384681856147f3565b9350613856818560208601614996565b80840191505092915050565b600061386f6024836147e2565b91507f43616e2774207472616e73666572204e46547320746f207468697320636f6e7460008301527f72616374000000000000000000000000000000000000000000000000000000006020830152604082019050919050565b60006138d5602b836147e2565b91507f455243373231456e756d657261626c653a206f776e657220696e646578206f7560008301527f74206f6620626f756e64730000000000000000000000000000000000000000006020830152604082019050919050565b600061393b6032836147e2565b91507f4552433732313a207472616e7366657220746f206e6f6e20455243373231526560008301527f63656976657220696d706c656d656e74657200000000000000000000000000006020830152604082019050919050565b60006139a16026836147e2565b91507f4f776e61626c653a206e6577206f776e657220697320746865207a65726f206160008301527f64647265737300000000000000000000000000000000000000000000000000006020830152604082019050919050565b6000613a07601c836147e2565b91507f7472616e7366657220746f20746865207a65726f2061646472657373000000006000830152602082019050919050565b6000613a47601c836147e2565b91507f4552433732313a20746f6b656e20616c7265616479206d696e746564000000006000830152602082019050919050565b6000613a876024836147e2565b91507f4552433732313a207472616e7366657220746f20746865207a65726f2061646460008301527f72657373000000000000000000000000000000000000000000000000000000006020830152604082019050919050565b6000613aed6019836147e2565b91507f4552433732313a20617070726f766520746f2063616c6c6572000000000000006000830152602082019050919050565b6000613b2d602c836147e2565b91507f4552433732313a206f70657261746f7220717565727920666f72206e6f6e657860008301527f697374656e7420746f6b656e00000000000000000000000000000000000000006020830152604082019050919050565b6000613b936010836147e2565b91507f5061757361626c653a20706175736564000000000000000000000000000000006000830152602082019050919050565b6000613bd36038836147e2565b91507f4552433732313a20617070726f76652063616c6c6572206973206e6f74206f7760008301527f6e6572206e6f7220617070726f76656420666f7220616c6c00000000000000006020830152604082019050919050565b6000613c39602a836147e2565b91507f4552433732313a2062616c616e636520717565727920666f7220746865207a6560008301527f726f2061646472657373000000000000000000000000000000000000000000006020830152604082019050919050565b6000613c9f6029836147e2565b91507f4552433732313a206f776e657220717565727920666f72206e6f6e657869737460008301527f656e7420746f6b656e00000000000000000000000000000000000000000000006020830152604082019050919050565b6000613d056020836147e2565b91507f4552433732313a206d696e7420746f20746865207a65726f20616464726573736000830152602082019050919050565b6000613d456023836147e2565b91507f6d757374206265206f776e6572206f6620626f746820706172656e7420746f6b60008301527f656e7300000000000000000000000000000000000000000000000000000000006020830152604082019050919050565b6000613dab602c836147e2565b91507f4552433732313a20617070726f76656420717565727920666f72206e6f6e657860008301527f697374656e7420746f6b656e00000000000000000000000000000000000000006020830152604082019050919050565b6000613e116020836147e2565b91507f4f776e61626c653a2063616c6c6572206973206e6f7420746865206f776e65726000830152602082019050919050565b6000613e516029836147e2565b91507f4552433732313a207472616e73666572206f6620746f6b656e2074686174206960008301527f73206e6f74206f776e00000000000000000000000000000000000000000000006020830152604082019050919050565b6000613eb7602f836147e2565b91507f4552433732314d657461646174613a2055524920717565727920666f72206e6f60008301527f6e6578697374656e7420746f6b656e00000000000000000000000000000000006020830152604082019050919050565b6000613f1d6021836147e2565b91507f4552433732313a20617070726f76616c20746f2063757272656e74206f776e6560008301527f72000000000000000000000000000000000000000000000000000000000000006020830152604082019050919050565b6000613f836031836147e2565b91507f4552433732313a207472616e736665722063616c6c6572206973206e6f74206f60008301527f776e6572206e6f7220617070726f7665640000000000000000000000000000006020830152604082019050919050565b6000613fe9602c836147e2565b91507f455243373231456e756d657261626c653a20676c6f62616c20696e646578206f60008301527f7574206f6620626f756e647300000000000000000000000000000000000000006020830152604082019050919050565b600061404f601f836147e2565b91507f5265656e7472616e637947756172643a207265656e7472616e742063616c6c006000830152602082019050919050565b600061408f6027836147e2565b91507f4d6178696d756d20616d6f756e74206f662067656e2030206d6f6e6b6579732060008301527f72656163686564000000000000000000000000000000000000000000000000006020830152604082019050919050565b6140f18161497d565b82525050565b6141008161497d565b82525050565b6141176141128261497d565b614a44565b82525050565b60006141298285613831565b91506141358284613831565b91508190509392505050565b600061414d8286614106565b60208201915061415d8285614106565b60208201915061416d8284614106565b602082019150819050949350505050565b60006020820190506141936000830184613743565b92915050565b60006080820190506141ae6000830187613743565b6141bb6020830186613743565b6141c860408301856140f7565b81810360608301526141da81846137bf565b905095945050505050565b600060a0820190506141fa6000830188613743565b61420760208301876140f7565b61421460408301866140f7565b61422160608301856140f7565b61422e60808301846140f7565b9695505050505050565b600060208201905081810360008301526142528184613752565b905092915050565b600060208201905061426f60008301846137b0565b92915050565b6000602082019050818103600083015261428f81846137f8565b905092915050565b600060608201905081810360008301526142b181866137f8565b90506142c060208301856140f7565b6142cd60408301846140f7565b949350505050565b600060208201905081810360008301526142ee81613862565b9050919050565b6000602082019050818103600083015261430e816138c8565b9050919050565b6000602082019050818103600083015261432e8161392e565b9050919050565b6000602082019050818103600083015261434e81613994565b9050919050565b6000602082019050818103600083015261436e816139fa565b9050919050565b6000602082019050818103600083015261438e81613a3a565b9050919050565b600060208201905081810360008301526143ae81613a7a565b9050919050565b600060208201905081810360008301526143ce81613ae0565b9050919050565b600060208201905081810360008301526143ee81613b20565b9050919050565b6000602082019050818103600083015261440e81613b86565b9050919050565b6000602082019050818103600083015261442e81613bc6565b9050919050565b6000602082019050818103600083015261444e81613c2c565b9050919050565b6000602082019050818103600083015261446e81613c92565b9050919050565b6000602082019050818103600083015261448e81613cf8565b9050919050565b600060208201905081810360008301526144ae81613d38565b9050919050565b600060208201905081810360008301526144ce81613d9e565b9050919050565b600060208201905081810360008301526144ee81613e04565b9050919050565b6000602082019050818103600083015261450e81613e44565b9050919050565b6000602082019050818103600083015261452e81613eaa565b9050919050565b6000602082019050818103600083015261454e81613f10565b9050919050565b6000602082019050818103600083015261456e81613f76565b9050919050565b6000602082019050818103600083015261458e81613fdc565b9050919050565b600060208201905081810360008301526145ae81614042565b9050919050565b600060208201905081810360008301526145ce81614082565b9050919050565b60006020820190506145ea60008301846140f7565b92915050565b600060a08201905061460560008301886140f7565b61461260208301876140f7565b61461f60408301866140f7565b61462c60608301856140f7565b61463960808301846140f7565b9695505050505050565b600060e082019050614658600083018a6140f7565b61466560208301896140f7565b61467260408301886140f7565b61467f60608301876140f7565b61468c60808301866140f7565b61469960a0830185613743565b6146a660c0830184613743565b98975050505050505050565b600060e0820190506146c7600083018a6140f7565b6146d460208301896140f7565b6146e160408301886140f7565b6146ee60608301876140f7565b6146fb60808301866140f7565b61470860a08301856140f7565b61471560c0830184613743565b98975050505050505050565b6000604051905081810181811067ffffffffffffffff8211171561474857614747614b0c565b5b8060405250919050565b600067ffffffffffffffff82111561476d5761476c614b0c565b5b601f19601f8301169050602081019050919050565b6000819050602082019050919050565b600081519050919050565b600081519050919050565b600081519050919050565b6000602082019050919050565b600082825260208201905092915050565b600082825260208201905092915050565b600082825260208201905092915050565b600081905092915050565b60006148098261497d565b91506148148361497d565b9250827fffffffffffffffffffffffffffffffffffffffffffffffffffffffffffffffff0382111561484957614848614a7f565b5b828201905092915050565b600061485f8261497d565b915061486a8361497d565b92508261487a57614879614aae565b5b828204905092915050565b60006148908261497d565b915061489b8361497d565b9250817fffffffffffffffffffffffffffffffffffffffffffffffffffffffffffffffff04831182151516156148d4576148d3614a7f565b5b828202905092915050565b60006148ea8261497d565b91506148f58361497d565b92508282101561490857614907614a7f565b5b828203905092915050565b600061491e8261495d565b9050919050565b60008115159050919050565b60007fffffffff0000000000000000000000000000000000000000000000000000000082169050919050565b600073ffffffffffffffffffffffffffffffffffffffff82169050919050565b6000819050919050565b82818337600083830152505050565b60005b838110156149b4578082015181840152602081019050614999565b838111156149c3576000848401525b50505050565b600060028204905060018216806149e157607f821691505b602082108114156149f5576149f4614add565b5b50919050565b6000614a068261497d565b91507fffffffffffffffffffffffffffffffffffffffffffffffffffffffffffffffff821415614a3957614a38614a7f565b5b600182019050919050565b6000819050919050565b6000614a598261497d565b9150614a648361497d565b925082614a7457614a73614aae565b5b828206905092915050565b7f4e487b7100000000000000000000000000000000000000000000000000000000600052601160045260246000fd5b7f4e487b7100000000000000000000000000000000000000000000000000000000600052601260045260246000fd5b7f4e487b7100000000000000000000000000000000000000000000000000000000600052602260045260246000fd5b7f4e487b7100000000000000000000000000000000000000000000000000000000600052604160045260246000fd5b6000601f19601f8301169050919050565b614b5581614913565b8114614b6057600080fd5b50565b614b6c81614925565b8114614b7757600080fd5b50565b614b8381614931565b8114614b8e57600080fd5b50565b614b9a8161497d565b8114614ba557600080fd5b5056fea26469706673582212205bfeda69ac6fceba5ecb60c3703215f809145453ed3f0e7ea40464ddec5ef6a364736f6c63430008000033",
  "linkReferences": {},
  "deployedLinkReferences": {}
}