{
  "_format": "hh-sol-artifact-1",
  "contractName": "MonkeyContract",
  "sourceName": "contracts/MonkeyContract.sol",
  "abi": [
    {
      "inputs": [
        {
          "internalType": "address[]",
          "name": "_addressesArray",
          "type": "address[]"
        }
      ],
      "stateMutability": "nonpayable",
      "type": "constructor"
    },
    {
      "anonymous": false,
      "inputs": [
        {
          "indexed": true,
          "internalType": "address",
          "name": "owner",
          "type": "address"
        },
        {
          "indexed": true,
          "internalType": "address",
          "name": "approved",
          "type": "address"
        },
        {
          "indexed": true,
          "internalType": "uint256",
          "name": "tokenId",
          "type": "uint256"
        }
      ],
      "name": "Approval",
      "type": "event"
    },
    {
      "anonymous": false,
      "inputs": [
        {
          "indexed": true,
          "internalType": "address",
          "name": "owner",
          "type": "address"
        },
        {
          "indexed": true,
          "internalType": "address",
          "name": "operator",
          "type": "address"
        },
        {
          "indexed": false,
          "internalType": "bool",
          "name": "approved",
          "type": "bool"
        }
      ],
      "name": "ApprovalForAll",
      "type": "event"
    },
    {
      "anonymous": false,
      "inputs": [
        {
          "indexed": false,
          "internalType": "uint256",
          "name": "tokenId",
          "type": "uint256"
        },
        {
          "indexed": false,
          "internalType": "uint256",
          "name": "genes",
          "type": "uint256"
        },
        {
          "indexed": false,
          "internalType": "uint256",
          "name": "birthtime",
          "type": "uint256"
        },
        {
          "indexed": false,
          "internalType": "uint256",
          "name": "parent1Id",
          "type": "uint256"
        },
        {
          "indexed": false,
          "internalType": "uint256",
          "name": "parent2Id",
          "type": "uint256"
        },
        {
          "indexed": false,
          "internalType": "uint256",
          "name": "generation",
          "type": "uint256"
        },
        {
          "indexed": false,
          "internalType": "address",
          "name": "owner",
          "type": "address"
        }
      ],
      "name": "BreedingSuccessful",
      "type": "event"
    },
    {
      "anonymous": false,
      "inputs": [
        {
          "indexed": false,
          "internalType": "address",
          "name": "owner",
          "type": "address"
        },
        {
          "indexed": false,
          "internalType": "uint256",
          "name": "tokenId",
          "type": "uint256"
        },
        {
          "indexed": false,
          "internalType": "uint256",
          "name": "parent1Id",
          "type": "uint256"
        },
        {
          "indexed": false,
          "internalType": "uint256",
          "name": "parent2Id",
          "type": "uint256"
        },
        {
          "indexed": false,
          "internalType": "uint256",
          "name": "genes",
          "type": "uint256"
        }
      ],
      "name": "MonkeyCreated",
      "type": "event"
    },
    {
      "anonymous": false,
      "inputs": [
        {
          "indexed": true,
          "internalType": "address",
          "name": "previousOwner",
          "type": "address"
        },
        {
          "indexed": true,
          "internalType": "address",
          "name": "newOwner",
          "type": "address"
        }
      ],
      "name": "OwnershipTransferred",
      "type": "event"
    },
    {
      "anonymous": false,
      "inputs": [
        {
          "indexed": false,
          "internalType": "address",
          "name": "account",
          "type": "address"
        }
      ],
      "name": "Paused",
      "type": "event"
    },
    {
      "anonymous": false,
      "inputs": [
        {
          "indexed": true,
          "internalType": "address",
          "name": "from",
          "type": "address"
        },
        {
          "indexed": true,
          "internalType": "address",
          "name": "to",
          "type": "address"
        },
        {
          "indexed": true,
          "internalType": "uint256",
          "name": "tokenId",
          "type": "uint256"
        }
      ],
      "name": "Transfer",
      "type": "event"
    },
    {
      "anonymous": false,
      "inputs": [
        {
          "indexed": false,
          "internalType": "address",
          "name": "account",
          "type": "address"
        }
      ],
      "name": "Unpaused",
      "type": "event"
    },
    {
      "inputs": [],
      "name": "GEN0_Limit",
      "outputs": [
        {
          "internalType": "uint256",
          "name": "",
          "type": "uint256"
        }
      ],
      "stateMutability": "view",
      "type": "function"
    },
    {
      "inputs": [
        {
          "internalType": "uint256",
          "name": "",
          "type": "uint256"
        }
      ],
      "name": "allMonkeysArray",
      "outputs": [
        {
          "internalType": "uint256",
          "name": "parent1Id",
          "type": "uint256"
        },
        {
          "internalType": "uint256",
          "name": "parent2Id",
          "type": "uint256"
        },
        {
          "internalType": "uint256",
          "name": "generation",
          "type": "uint256"
        },
        {
          "internalType": "uint256",
          "name": "genes",
          "type": "uint256"
        },
        {
          "internalType": "uint256",
          "name": "birthtime",
          "type": "uint256"
        }
      ],
      "stateMutability": "view",
      "type": "function"
    },
    {
      "inputs": [
        {
          "internalType": "address",
          "name": "to",
          "type": "address"
        },
        {
          "internalType": "uint256",
          "name": "tokenId",
          "type": "uint256"
        }
      ],
      "name": "approve",
      "outputs": [],
      "stateMutability": "nonpayable",
      "type": "function"
    },
    {
      "inputs": [
        {
          "internalType": "address",
          "name": "owner",
          "type": "address"
        }
      ],
      "name": "balanceOf",
      "outputs": [
        {
          "internalType": "uint256",
          "name": "",
          "type": "uint256"
        }
      ],
      "stateMutability": "view",
      "type": "function"
    },
    {
      "inputs": [
        {
          "internalType": "uint256",
          "name": "_parent1Id",
          "type": "uint256"
        },
        {
          "internalType": "uint256",
          "name": "_parent2Id",
          "type": "uint256"
        }
      ],
      "name": "breed",
      "outputs": [
        {
          "internalType": "uint256",
          "name": "",
          "type": "uint256"
        }
      ],
      "stateMutability": "nonpayable",
      "type": "function"
    },
    {
      "inputs": [
        {
          "internalType": "uint256",
          "name": "_genes",
          "type": "uint256"
        },
        {
          "internalType": "address",
          "name": "_owner",
          "type": "address"
        }
      ],
      "name": "createDemoMonkey",
      "outputs": [
        {
          "internalType": "uint256",
          "name": "",
          "type": "uint256"
        }
      ],
      "stateMutability": "nonpayable",
      "type": "function"
    },
    {
      "inputs": [
        {
          "internalType": "uint256",
          "name": "_genes",
          "type": "uint256"
        }
      ],
      "name": "createGen0Monkey",
      "outputs": [],
      "stateMutability": "nonpayable",
      "type": "function"
    },
    {
      "inputs": [
        {
          "internalType": "address",
          "name": "owner",
          "type": "address"
        }
      ],
      "name": "findMonkeyIdsOfAddress",
      "outputs": [
        {
          "internalType": "uint256[]",
          "name": "",
          "type": "uint256[]"
        }
      ],
      "stateMutability": "view",
      "type": "function"
    },
    {
      "inputs": [],
      "name": "gen0amountTotal",
      "outputs": [
        {
          "internalType": "uint256",
          "name": "",
          "type": "uint256"
        }
      ],
      "stateMutability": "view",
      "type": "function"
    },
    {
      "inputs": [
        {
          "internalType": "uint256",
          "name": "tokenId",
          "type": "uint256"
        }
      ],
      "name": "getApproved",
      "outputs": [
        {
          "internalType": "address",
          "name": "",
          "type": "address"
        }
      ],
      "stateMutability": "view",
      "type": "function"
    },
    {
      "inputs": [],
      "name": "getMonkeyContractAddress",
      "outputs": [
        {
          "internalType": "address",
          "name": "",
          "type": "address"
        }
      ],
      "stateMutability": "view",
      "type": "function"
    },
    {
      "inputs": [
        {
          "internalType": "uint256",
          "name": "tokenId",
          "type": "uint256"
        }
      ],
      "name": "getMonkeyDetails",
      "outputs": [
        {
          "internalType": "uint256",
          "name": "genes",
          "type": "uint256"
        },
        {
          "internalType": "uint256",
          "name": "birthtime",
          "type": "uint256"
        },
        {
          "internalType": "uint256",
          "name": "parent1Id",
          "type": "uint256"
        },
        {
          "internalType": "uint256",
          "name": "parent2Id",
          "type": "uint256"
        },
        {
          "internalType": "uint256",
          "name": "generation",
          "type": "uint256"
        },
        {
          "internalType": "address",
          "name": "owner",
          "type": "address"
        },
        {
          "internalType": "address",
          "name": "approvedAddress",
          "type": "address"
        }
      ],
      "stateMutability": "view",
      "type": "function"
    },
    {
      "inputs": [
        {
          "internalType": "address",
          "name": "owner",
          "type": "address"
        },
        {
          "internalType": "address",
          "name": "operator",
          "type": "address"
        }
      ],
      "name": "isApprovedForAll",
      "outputs": [
        {
          "internalType": "bool",
          "name": "",
          "type": "bool"
        }
      ],
      "stateMutability": "view",
      "type": "function"
    },
    {
      "inputs": [],
      "name": "name",
      "outputs": [
        {
          "internalType": "string",
          "name": "",
          "type": "string"
        }
      ],
      "stateMutability": "view",
      "type": "function"
    },
    {
      "inputs": [],
      "name": "owner",
      "outputs": [
        {
          "internalType": "address",
          "name": "",
          "type": "address"
        }
      ],
      "stateMutability": "view",
      "type": "function"
    },
    {
      "inputs": [
        {
          "internalType": "uint256",
          "name": "tokenId",
          "type": "uint256"
        }
      ],
      "name": "ownerOf",
      "outputs": [
        {
          "internalType": "address",
          "name": "",
          "type": "address"
        }
      ],
      "stateMutability": "view",
      "type": "function"
    },
    {
      "inputs": [],
      "name": "paused",
      "outputs": [
        {
          "internalType": "bool",
          "name": "",
          "type": "bool"
        }
      ],
      "stateMutability": "view",
      "type": "function"
    },
    {
      "inputs": [],
      "name": "renounceOwnership",
      "outputs": [],
      "stateMutability": "nonpayable",
      "type": "function"
    },
    {
      "inputs": [
        {
          "internalType": "address",
          "name": "from",
          "type": "address"
        },
        {
          "internalType": "address",
          "name": "to",
          "type": "address"
        },
        {
          "internalType": "uint256",
          "name": "tokenId",
          "type": "uint256"
        }
      ],
      "name": "safeTransferFrom",
      "outputs": [],
      "stateMutability": "nonpayable",
      "type": "function"
    },
    {
      "inputs": [
        {
          "internalType": "address",
          "name": "from",
          "type": "address"
        },
        {
          "internalType": "address",
          "name": "to",
          "type": "address"
        },
        {
          "internalType": "uint256",
          "name": "tokenId",
          "type": "uint256"
        },
        {
          "internalType": "bytes",
          "name": "_data",
          "type": "bytes"
        }
      ],
      "name": "safeTransferFrom",
      "outputs": [],
      "stateMutability": "nonpayable",
      "type": "function"
    },
    {
      "inputs": [
        {
          "internalType": "address",
          "name": "operator",
          "type": "address"
        },
        {
          "internalType": "bool",
          "name": "approved",
          "type": "bool"
        }
      ],
      "name": "setApprovalForAll",
      "outputs": [],
      "stateMutability": "nonpayable",
      "type": "function"
    },
    {
      "inputs": [
        {
          "internalType": "address",
          "name": "addressToLookup",
          "type": "address"
        }
      ],
      "name": "showAccountForAddress",
      "outputs": [],
      "stateMutability": "view",
      "type": "function"
    },
    {
      "inputs": [
        {
          "internalType": "bytes4",
          "name": "interfaceId",
          "type": "bytes4"
        }
      ],
      "name": "supportsInterface",
      "outputs": [
        {
          "internalType": "bool",
          "name": "",
          "type": "bool"
        }
      ],
      "stateMutability": "view",
      "type": "function"
    },
    {
      "inputs": [],
      "name": "symbol",
      "outputs": [
        {
          "internalType": "string",
          "name": "",
          "type": "string"
        }
      ],
      "stateMutability": "view",
      "type": "function"
    },
    {
      "inputs": [
        {
          "internalType": "uint256",
          "name": "index",
          "type": "uint256"
        }
      ],
      "name": "tokenByIndex",
      "outputs": [
        {
          "internalType": "uint256",
          "name": "",
          "type": "uint256"
        }
      ],
      "stateMutability": "view",
      "type": "function"
    },
    {
      "inputs": [
        {
          "internalType": "address",
          "name": "owner",
          "type": "address"
        },
        {
          "internalType": "uint256",
          "name": "index",
          "type": "uint256"
        }
      ],
      "name": "tokenOfOwnerByIndex",
      "outputs": [
        {
          "internalType": "uint256",
          "name": "",
          "type": "uint256"
        }
      ],
      "stateMutability": "view",
      "type": "function"
    },
    {
      "inputs": [
        {
          "internalType": "uint256",
          "name": "tokenId",
          "type": "uint256"
        }
      ],
      "name": "tokenURI",
      "outputs": [
        {
          "internalType": "string",
          "name": "",
          "type": "string"
        }
      ],
      "stateMutability": "view",
      "type": "function"
    },
    {
      "inputs": [],
      "name": "totalSupply",
      "outputs": [
        {
          "internalType": "uint256",
          "name": "",
          "type": "uint256"
        }
      ],
      "stateMutability": "view",
      "type": "function"
    },
    {
      "inputs": [
        {
          "internalType": "address",
          "name": "_from",
          "type": "address"
        },
        {
          "internalType": "address",
          "name": "_to",
          "type": "address"
        },
        {
          "internalType": "uint256",
          "name": "_tokenId",
          "type": "uint256"
        }
      ],
      "name": "transfer",
      "outputs": [],
      "stateMutability": "nonpayable",
      "type": "function"
    },
    {
      "inputs": [
        {
          "internalType": "address",
          "name": "from",
          "type": "address"
        },
        {
          "internalType": "address",
          "name": "to",
          "type": "address"
        },
        {
          "internalType": "uint256",
          "name": "tokenId",
          "type": "uint256"
        }
      ],
      "name": "transferFrom",
      "outputs": [],
      "stateMutability": "nonpayable",
      "type": "function"
    },
    {
      "inputs": [
        {
          "internalType": "address",
          "name": "newOwner",
          "type": "address"
        }
      ],
      "name": "transferOwnership",
      "outputs": [],
      "stateMutability": "nonpayable",
      "type": "function"
    }
  ],
  "bytecode": "0x6080604052600c600f553480156200001657600080fd5b5060405162006ecd38038062006ecd83398181016040528101906200003c919062001619565b6040518060400160405280600e81526020017f43727970746f204d6f6e6b6579730000000000000000000000000000000000008152506040518060400160405280600681526020017f4d4f4e4b455900000000000000000000000000000000000000000000000000008152508160009080519060200190620000c09291906200140a565b508060019080519060200190620000d99291906200140a565b5050506000620000ee6200025160201b60201c565b905080600a60006101000a81548173ffffffffffffffffffffffffffffffffffffffff021916908373ffffffffffffffffffffffffffffffffffffffff1602179055508073ffffffffffffffffffffffffffffffffffffffff16600073ffffffffffffffffffffffffffffffffffffffff167f8be0079c531659141344cd1fd0a4f28419497f9722a3daafe3b4186f6b6457e060405160405180910390a3506001600b819055506000600c60006101000a81548160ff02191690831515021790555080600d9080519060200190620001c89291906200149b565b5030600e60006101000a81548173ffffffffffffffffffffffffffffffffffffffff021916908373ffffffffffffffffffffffffffffffffffffffff1602179055506200023760008060006604503ef19324976200022b6200025160201b60201c565b6200025960201b60201c565b506200024a6000620003be60201b60201c565b5062001eb0565b600033905090565b60006200026b620004b060201b60201c565b15620002ae576040517f08c379a0000000000000000000000000000000000000000000000000000000008152600401620002a59062001b14565b60405180910390fd5b60006040518060a0016040528088815260200187815260200186815260200185815260200142815250905060118190806001815401808255809150506001900390600052602060002090600502016000909190919091506000820151816000015560208201518160010155604082015181600201556060820151816003015560808201518160040155505060006200035b6001601180549050620004c760201b62001eab1790919060201c565b90506200036f8482620004df60201b60201c565b7f0b1e9a74eeaae184646d7a35062426460c8c9364005c6d441cce036dd9c655d584828a8a89604051620003a895949392919062001a51565b60405180910390a1809250505095945050505050565b6002600b54141562000407576040517f08c379a0000000000000000000000000000000000000000000000000000000008152600401620003fe9062001bbe565b60405180910390fd5b6002600b819055506200041f620004b060201b60201c565b1562000462576040517f08c379a0000000000000000000000000000000000000000000000000000000008152600401620004599062001b14565b60405180910390fd5b60011515620004876200047a6200025160201b60201c565b836200050560201b60201c565b1515146200049457600080fd5b620004a5816200060d60201b60201c565b6001600b8190555050565b6000600c60009054906101000a900460ff16905090565b60008183620004d7919062001ccd565b905092915050565b620005018282604051806020016040528060008152506200073d60201b60201c565b5050565b60006200051882620007ab60201b60201c565b6200055a576040517f08c379a0000000000000000000000000000000000000000000000000000000008152600401620005519062001af2565b60405180910390fd5b600062000572836200081760201b62000e4d1760201c565b90508073ffffffffffffffffffffffffffffffffffffffff168473ffffffffffffffffffffffffffffffffffffffff161480620005ea57508373ffffffffffffffffffffffffffffffffffffffff16620005d284620008cc60201b60201c565b73ffffffffffffffffffffffffffffffffffffffff16145b806200060457506200060381856200095c60201b60201c565b5b91505092915050565b600062000625826200081760201b62000e4d1760201c565b90506200063b81600084620009f060201b60201c565b6200064e60008362000b3760201b60201c565b6001600360008373ffffffffffffffffffffffffffffffffffffffff1673ffffffffffffffffffffffffffffffffffffffff1681526020019081526020016000206000828254620006a0919062001ccd565b925050819055506002600083815260200190815260200160002060006101000a81549073ffffffffffffffffffffffffffffffffffffffff021916905581600073ffffffffffffffffffffffffffffffffffffffff168273ffffffffffffffffffffffffffffffffffffffff167fddf252ad1be2c89b69c2b068fc378daa952ba7f163c4a11628f55a4df523b3ef60405160405180910390a45050565b6200074f838362000bfd60201b60201c565b62000764600084848462000de360201b60201c565b620007a6576040517f08c379a00000000000000000000000000000000000000000000000000000000081526004016200079d9062001aae565b60405180910390fd5b505050565b60008073ffffffffffffffffffffffffffffffffffffffff166002600084815260200190815260200160002060009054906101000a900473ffffffffffffffffffffffffffffffffffffffff1673ffffffffffffffffffffffffffffffffffffffff1614159050919050565b6000806002600084815260200190815260200160002060009054906101000a900473ffffffffffffffffffffffffffffffffffffffff169050600073ffffffffffffffffffffffffffffffffffffffff168173ffffffffffffffffffffffffffffffffffffffff161415620008c3576040517f08c379a0000000000000000000000000000000000000000000000000000000008152600401620008ba9062001b58565b60405180910390fd5b80915050919050565b6000620008df82620007ab60201b60201c565b62000921576040517f08c379a0000000000000000000000000000000000000000000000000000000008152600401620009189062001b9c565b60405180910390fd5b6004600083815260200190815260200160002060009054906101000a900473ffffffffffffffffffffffffffffffffffffffff169050919050565b6000600560008473ffffffffffffffffffffffffffffffffffffffff1673ffffffffffffffffffffffffffffffffffffffff16815260200190815260200160002060008373ffffffffffffffffffffffffffffffffffffffff1673ffffffffffffffffffffffffffffffffffffffff16815260200190815260200160002060009054906101000a900460ff16905092915050565b62000a0883838362000f9d60201b62001ec11760201c565b600073ffffffffffffffffffffffffffffffffffffffff168373ffffffffffffffffffffffffffffffffffffffff16141562000a555762000a4f8162000fa260201b60201c565b62000a9d565b8173ffffffffffffffffffffffffffffffffffffffff168373ffffffffffffffffffffffffffffffffffffffff161462000a9c5762000a9b838262000feb60201b60201c565b5b5b600073ffffffffffffffffffffffffffffffffffffffff168273ffffffffffffffffffffffffffffffffffffffff16141562000aea5762000ae4816200116860201b60201c565b62000b32565b8273ffffffffffffffffffffffffffffffffffffffff168273ffffffffffffffffffffffffffffffffffffffff161462000b315762000b308282620012b060201b60201c565b5b5b505050565b816004600083815260200190815260200160002060006101000a81548173ffffffffffffffffffffffffffffffffffffffff021916908373ffffffffffffffffffffffffffffffffffffffff160217905550808273ffffffffffffffffffffffffffffffffffffffff1662000bb7836200081760201b62000e4d1760201c565b73ffffffffffffffffffffffffffffffffffffffff167f8c5be1e5ebec7d5bd14f71427d1e84f3dd0314c0f7b2291e5b200ac8c7c3b92560405160405180910390a45050565b600073ffffffffffffffffffffffffffffffffffffffff168273ffffffffffffffffffffffffffffffffffffffff16141562000c70576040517f08c379a000000000000000000000000000000000000000000000000000000000815260040162000c679062001b7a565b60405180910390fd5b62000c8181620007ab60201b60201c565b1562000cc4576040517f08c379a000000000000000000000000000000000000000000000000000000000815260040162000cbb9062001ad0565b60405180910390fd5b62000cd860008383620009f060201b60201c565b6001600360008473ffffffffffffffffffffffffffffffffffffffff1673ffffffffffffffffffffffffffffffffffffffff168152602001908152602001600020600082825462000d2a919062001c70565b92505081905550816002600083815260200190815260200160002060006101000a81548173ffffffffffffffffffffffffffffffffffffffff021916908373ffffffffffffffffffffffffffffffffffffffff160217905550808273ffffffffffffffffffffffffffffffffffffffff16600073ffffffffffffffffffffffffffffffffffffffff167fddf252ad1be2c89b69c2b068fc378daa952ba7f163c4a11628f55a4df523b3ef60405160405180910390a45050565b600062000e118473ffffffffffffffffffffffffffffffffffffffff166200133c60201b62001ec61760201c565b1562000f90578373ffffffffffffffffffffffffffffffffffffffff1663150b7a0262000e436200025160201b60201c565b8786866040518563ffffffff1660e01b815260040162000e679493929190620019fd565b602060405180830381600087803b15801562000e8257600080fd5b505af192505050801562000eb657506040513d601f19601f8201168201806040525081019062000eb391906200165e565b60015b62000f3f573d806000811462000ee9576040519150601f19603f3d011682016040523d82523d6000602084013e62000eee565b606091505b5060008151141562000f37576040517f08c379a000000000000000000000000000000000000000000000000000000000815260040162000f2e9062001aae565b60405180910390fd5b805181602001fd5b63150b7a0260e01b7bffffffffffffffffffffffffffffffffffffffffffffffffffffffff1916817bffffffffffffffffffffffffffffffffffffffffffffffffffffffff19161491505062000f95565b600190505b949350505050565b505050565b6008805490506009600083815260200190815260200160002081905550600881908060018154018082558091505060019003906000526020600020016000909190919091505550565b6000600162001005846200134f60201b62000eff1760201c565b62001011919062001ccd565b9050600060076000848152602001908152602001600020549050818114620010f7576000600660008673ffffffffffffffffffffffffffffffffffffffff1673ffffffffffffffffffffffffffffffffffffffff168152602001908152602001600020600084815260200190815260200160002054905080600660008773ffffffffffffffffffffffffffffffffffffffff1673ffffffffffffffffffffffffffffffffffffffff168152602001908152602001600020600084815260200190815260200160002081905550816007600083815260200190815260200160002081905550505b6007600084815260200190815260200160002060009055600660008573ffffffffffffffffffffffffffffffffffffffff1673ffffffffffffffffffffffffffffffffffffffff16815260200190815260200160002060008381526020019081526020016000206000905550505050565b600060016008805490506200117e919062001ccd565b9050600060096000848152602001908152602001600020549050600060088381548110620011d5577f4e487b7100000000000000000000000000000000000000000000000000000000600052603260045260246000fd5b9060005260206000200154905080600883815481106200121e577f4e487b7100000000000000000000000000000000000000000000000000000000600052603260045260246000fd5b90600052602060002001819055508160096000838152602001908152602001600020819055506009600085815260200190815260200160002060009055600880548062001294577f4e487b7100000000000000000000000000000000000000000000000000000000600052603160045260246000fd5b6001900381819060005260206000200160009055905550505050565b6000620012c8836200134f60201b62000eff1760201c565b905081600660008573ffffffffffffffffffffffffffffffffffffffff1673ffffffffffffffffffffffffffffffffffffffff168152602001908152602001600020600083815260200190815260200160002081905550806007600084815260200190815260200160002081905550505050565b600080823b905060008111915050919050565b60008073ffffffffffffffffffffffffffffffffffffffff168273ffffffffffffffffffffffffffffffffffffffff161415620013c3576040517f08c379a0000000000000000000000000000000000000000000000000000000008152600401620013ba9062001b36565b60405180910390fd5b600360008373ffffffffffffffffffffffffffffffffffffffff1673ffffffffffffffffffffffffffffffffffffffff168152602001908152602001600020549050919050565b828054620014189062001da8565b90600052602060002090601f0160209004810192826200143c576000855562001488565b82601f106200145757805160ff191683800117855562001488565b8280016001018555821562001488579182015b82811115620014875782518255916020019190600101906200146a565b5b5090506200149791906200152a565b5090565b82805482825590600052602060002090810192821562001517579160200282015b82811115620015165782518260006101000a81548173ffffffffffffffffffffffffffffffffffffffff021916908373ffffffffffffffffffffffffffffffffffffffff16021790555091602001919060010190620014bc565b5b5090506200152691906200152a565b5090565b5b80821115620015455760008160009055506001016200152b565b5090565b6000620015606200155a8462001c14565b62001be0565b905080838252602082019050828560208602820111156200158057600080fd5b60005b85811015620015b45781620015998882620015be565b84526020840193506020830192505060018101905062001583565b5050509392505050565b600081519050620015cf8162001e7c565b92915050565b600082601f830112620015e757600080fd5b8151620015f984826020860162001549565b91505092915050565b600081519050620016138162001e96565b92915050565b6000602082840312156200162c57600080fd5b600082015167ffffffffffffffff8111156200164757600080fd5b6200165584828501620015d5565b91505092915050565b6000602082840312156200167157600080fd5b6000620016818482850162001602565b91505092915050565b620016958162001d08565b82525050565b6000620016a88262001c43565b620016b4818562001c4e565b9350620016c681856020860162001d72565b620016d18162001e6b565b840191505092915050565b6000620016eb60328362001c5f565b91507f4552433732313a207472616e7366657220746f206e6f6e20455243373231526560008301527f63656976657220696d706c656d656e74657200000000000000000000000000006020830152604082019050919050565b600062001753601c8362001c5f565b91507f4552433732313a20746f6b656e20616c7265616479206d696e746564000000006000830152602082019050919050565b600062001795602c8362001c5f565b91507f4552433732313a206f70657261746f7220717565727920666f72206e6f6e657860008301527f697374656e7420746f6b656e00000000000000000000000000000000000000006020830152604082019050919050565b6000620017fd60108362001c5f565b91507f5061757361626c653a20706175736564000000000000000000000000000000006000830152602082019050919050565b60006200183f602a8362001c5f565b91507f4552433732313a2062616c616e636520717565727920666f7220746865207a6560008301527f726f2061646472657373000000000000000000000000000000000000000000006020830152604082019050919050565b6000620018a760298362001c5f565b91507f4552433732313a206f776e657220717565727920666f72206e6f6e657869737460008301527f656e7420746f6b656e00000000000000000000000000000000000000000000006020830152604082019050919050565b60006200190f60208362001c5f565b91507f4552433732313a206d696e7420746f20746865207a65726f20616464726573736000830152602082019050919050565b600062001951602c8362001c5f565b91507f4552433732313a20617070726f76656420717565727920666f72206e6f6e657860008301527f697374656e7420746f6b656e00000000000000000000000000000000000000006020830152604082019050919050565b6000620019b9601f8362001c5f565b91507f5265656e7472616e637947756172643a207265656e7472616e742063616c6c006000830152602082019050919050565b620019f78162001d68565b82525050565b600060808201905062001a1460008301876200168a565b62001a2360208301866200168a565b62001a326040830185620019ec565b818103606083015262001a4681846200169b565b905095945050505050565b600060a08201905062001a6860008301886200168a565b62001a776020830187620019ec565b62001a866040830186620019ec565b62001a956060830185620019ec565b62001aa46080830184620019ec565b9695505050505050565b6000602082019050818103600083015262001ac981620016dc565b9050919050565b6000602082019050818103600083015262001aeb8162001744565b9050919050565b6000602082019050818103600083015262001b0d8162001786565b9050919050565b6000602082019050818103600083015262001b2f81620017ee565b9050919050565b6000602082019050818103600083015262001b518162001830565b9050919050565b6000602082019050818103600083015262001b738162001898565b9050919050565b6000602082019050818103600083015262001b958162001900565b9050919050565b6000602082019050818103600083015262001bb78162001942565b9050919050565b6000602082019050818103600083015262001bd981620019aa565b9050919050565b6000604051905081810181811067ffffffffffffffff8211171562001c0a5762001c0962001e3c565b5b8060405250919050565b600067ffffffffffffffff82111562001c325762001c3162001e3c565b5b602082029050602081019050919050565b600081519050919050565b600082825260208201905092915050565b600082825260208201905092915050565b600062001c7d8262001d68565b915062001c8a8362001d68565b9250827fffffffffffffffffffffffffffffffffffffffffffffffffffffffffffffffff0382111562001cc25762001cc162001dde565b5b828201905092915050565b600062001cda8262001d68565b915062001ce78362001d68565b92508282101562001cfd5762001cfc62001dde565b5b828203905092915050565b600062001d158262001d48565b9050919050565b60007fffffffff0000000000000000000000000000000000000000000000000000000082169050919050565b600073ffffffffffffffffffffffffffffffffffffffff82169050919050565b6000819050919050565b60005b8381101562001d9257808201518184015260208101905062001d75565b8381111562001da2576000848401525b50505050565b6000600282049050600182168062001dc157607f821691505b6020821081141562001dd85762001dd762001e0d565b5b50919050565b7f4e487b7100000000000000000000000000000000000000000000000000000000600052601160045260246000fd5b7f4e487b7100000000000000000000000000000000000000000000000000000000600052602260045260246000fd5b7f4e487b7100000000000000000000000000000000000000000000000000000000600052604160045260246000fd5b6000601f19601f8301169050919050565b62001e878162001d08565b811462001e9357600080fd5b50565b62001ea18162001d1c565b811462001ead57600080fd5b50565b61500d8062001ec06000396000f3fe608060405234801561001057600080fd5b50600436106101e55760003560e01c806370a082311161010f578063cc5739e0116100a2578063e985e9c511610071578063e985e9c5146105d4578063ef742fc114610604578063f2fde38b14610620578063f91ba6741461063c576101e5565b8063cc5739e01461053a578063d9ecad7b14610556578063daa97fae14610586578063db002794146105a4576101e5565b8063a22cb465116100de578063a22cb465146104b6578063b88d4fde146104d2578063beabacc8146104ee578063c87b56dd1461050a576101e5565b806370a0823114610440578063715018a6146104705780638da5cb5b1461047a57806395d89b4114610498576101e5565b80631b4172781161018757806342842e0e1161015657806342842e0e146103a65780634f6ccce7146103c25780635c975abb146103f25780636352211e14610410576101e5565b80631b417278146102f057806323b872dd146103245780632558e25f146103405780632f745c5914610376576101e5565b80630917cffe116101c35780630917cffe14610268578063095ea7b31461028657806318160ddd146102a25780631b0a1aed146102c0576101e5565b806301ffc9a7146101ea57806306fdde031461021a578063081812fc14610238575b600080fd5b61020460048036038101906101ff91906138ca565b61065a565b60405161021191906145c4565b60405180910390f35b6102226106d4565b60405161022f91906145df565b60405180910390f35b610252600480360381019061024d919061391c565b610766565b60405161025f91906144e8565b60405180910390f35b6102706107eb565b60405161027d919061498f565b60405180910390f35b6102a0600480360381019061029b919061388e565b6107f1565b005b6102aa610909565b6040516102b7919061498f565b60405180910390f35b6102da60048036038101906102d59190613723565b610916565b6040516102e791906145a2565b60405180910390f35b61030a6004803603810190610305919061391c565b610a82565b60405161031b9594939291906149aa565b60405180910390f35b61033e60048036038101906103399190613788565b610ac8565b005b61035a6004803603810190610355919061391c565b610b28565b60405161036d97969594939291906149fd565b60405180910390f35b610390600480360381019061038b919061388e565b610cda565b60405161039d919061498f565b60405180910390f35b6103c060048036038101906103bb9190613788565b610d7f565b005b6103dc60048036038101906103d7919061391c565b610d9f565b6040516103e9919061498f565b60405180910390f35b6103fa610e36565b60405161040791906145c4565b60405180910390f35b61042a6004803603810190610425919061391c565b610e4d565b60405161043791906144e8565b60405180910390f35b61045a60048036038101906104559190613723565b610eff565b604051610467919061498f565b60405180910390f35b610478610fb7565b005b6104826110f4565b60405161048f91906144e8565b60405180910390f35b6104a061111e565b6040516104ad91906145df565b60405180910390f35b6104d060048036038101906104cb9190613852565b6111b0565b005b6104ec60048036038101906104e791906137d7565b611331565b005b61050860048036038101906105039190613788565b611393565b005b610524600480360381019061051f919061391c565b611577565b60405161053191906145df565b60405180910390f35b610554600480360381019061054f9190613723565b61161e565b005b610570600480360381019061056b9190613981565b611779565b60405161057d919061498f565b60405180910390f35b61058e611b29565b60405161059b91906144e8565b60405180910390f35b6105be60048036038101906105b99190613945565b611b53565b6040516105cb919061498f565b60405180910390f35b6105ee60048036038101906105e9919061374c565b611b71565b6040516105fb91906145c4565b60405180910390f35b61061e6004803603810190610619919061391c565b611c05565b005b61063a60048036038101906106359190613723565b611cf9565b005b610644611ea5565b604051610651919061498f565b60405180910390f35b60007f780e9d63000000000000000000000000000000000000000000000000000000007bffffffffffffffffffffffffffffffffffffffffffffffffffffffff1916827bffffffffffffffffffffffffffffffffffffffffffffffffffffffff191614806106cd57506106cc82611ed9565b5b9050919050565b6060600080546106e390614d83565b80601f016020809104026020016040519081016040528092919081815260200182805461070f90614d83565b801561075c5780601f106107315761010080835404028352916020019161075c565b820191906000526020600020905b81548152906001019060200180831161073f57829003601f168201915b5050505050905090565b600061077182611fbb565b6107b0576040517f08c379a00000000000000000000000000000000000000000000000000000000081526004016107a79061482f565b60405180910390fd5b6004600083815260200190815260200160002060009054906101000a900473ffffffffffffffffffffffffffffffffffffffff169050919050565b60105481565b60006107fc82610e4d565b90508073ffffffffffffffffffffffffffffffffffffffff168373ffffffffffffffffffffffffffffffffffffffff16141561086d576040517f08c379a0000000000000000000000000000000000000000000000000000000008152600401610864906148af565b60405180910390fd5b8073ffffffffffffffffffffffffffffffffffffffff1661088c612027565b73ffffffffffffffffffffffffffffffffffffffff1614806108bb57506108ba816108b5612027565b611b71565b5b6108fa576040517f08c379a00000000000000000000000000000000000000000000000000000000081526004016108f19061476f565b60405180910390fd5b610904838361202f565b505050565b6000600880549050905090565b6060600061092383610eff565b905061092e8361161e565b60008167ffffffffffffffff811115610970577f4e487b7100000000000000000000000000000000000000000000000000000000600052604160045260246000fd5b60405190808252806020026020018201604052801561099e5781602001602082028036833780820191505090505b50905060005b82811015610a775760006109b88683610cda565b9050808383815181106109f4577f4e487b7100000000000000000000000000000000000000000000000000000000600052603260045260246000fd5b602002602001018181525050610a63604051806060016040528060288152602001614f636028913983858581518110610a56577f4e487b7100000000000000000000000000000000000000000000000000000000600052603260045260246000fd5b60200260200101516120e8565b508080610a6f90614db5565b9150506109a4565b508092505050919050565b60118181548110610a9257600080fd5b90600052602060002090600502016000915090508060000154908060010154908060020154908060030154908060040154905085565b610ad9610ad3612027565b82612187565b610b18576040517f08c379a0000000000000000000000000000000000000000000000000000000008152600401610b0f906148ef565b60405180910390fd5b610b23838383612265565b505050565b600080600080600080600060118881548110610b6d577f4e487b7100000000000000000000000000000000000000000000000000000000600052603260045260246000fd5b90600052602060002090600502016003015460118981548110610bb9577f4e487b7100000000000000000000000000000000000000000000000000000000600052603260045260246000fd5b90600052602060002090600502016004015460118a81548110610c05577f4e487b7100000000000000000000000000000000000000000000000000000000600052603260045260246000fd5b90600052602060002090600502016000015460118b81548110610c51577f4e487b7100000000000000000000000000000000000000000000000000000000600052603260045260246000fd5b90600052602060002090600502016001015460118c81548110610c9d577f4e487b7100000000000000000000000000000000000000000000000000000000600052603260045260246000fd5b906000526020600020906005020160020154610cb88d610e4d565b610cc18e610766565b9650965096509650965096509650919395979092949650565b6000610ce583610eff565b8210610d26576040517f08c379a0000000000000000000000000000000000000000000000000000000008152600401610d1d9061466f565b60405180910390fd5b600660008473ffffffffffffffffffffffffffffffffffffffff1673ffffffffffffffffffffffffffffffffffffffff168152602001908152602001600020600083815260200190815260200160002054905092915050565b610d9a83838360405180602001604052806000815250611331565b505050565b6000610da9610909565b8210610dea576040517f08c379a0000000000000000000000000000000000000000000000000000000008152600401610de19061490f565b60405180910390fd5b60088281548110610e24577f4e487b7100000000000000000000000000000000000000000000000000000000600052603260045260246000fd5b90600052602060002001549050919050565b6000600c60009054906101000a900460ff16905090565b6000806002600084815260200190815260200160002060009054906101000a900473ffffffffffffffffffffffffffffffffffffffff169050600073ffffffffffffffffffffffffffffffffffffffff168173ffffffffffffffffffffffffffffffffffffffff161415610ef6576040517f08c379a0000000000000000000000000000000000000000000000000000000008152600401610eed906147af565b60405180910390fd5b80915050919050565b60008073ffffffffffffffffffffffffffffffffffffffff168273ffffffffffffffffffffffffffffffffffffffff161415610f70576040517f08c379a0000000000000000000000000000000000000000000000000000000008152600401610f679061478f565b60405180910390fd5b600360008373ffffffffffffffffffffffffffffffffffffffff1673ffffffffffffffffffffffffffffffffffffffff168152602001908152602001600020549050919050565b610fbf612027565b73ffffffffffffffffffffffffffffffffffffffff16610fdd6110f4565b73ffffffffffffffffffffffffffffffffffffffff1614611033576040517f08c379a000000000000000000000000000000000000000000000000000000000815260040161102a9061484f565b60405180910390fd5b600073ffffffffffffffffffffffffffffffffffffffff16600a60009054906101000a900473ffffffffffffffffffffffffffffffffffffffff1673ffffffffffffffffffffffffffffffffffffffff167f8be0079c531659141344cd1fd0a4f28419497f9722a3daafe3b4186f6b6457e060405160405180910390a36000600a60006101000a81548173ffffffffffffffffffffffffffffffffffffffff021916908373ffffffffffffffffffffffffffffffffffffffff160217905550565b6000600a60009054906101000a900473ffffffffffffffffffffffffffffffffffffffff16905090565b60606001805461112d90614d83565b80601f016020809104026020016040519081016040528092919081815260200182805461115990614d83565b80156111a65780601f1061117b576101008083540402835291602001916111a6565b820191906000526020600020905b81548152906001019060200180831161118957829003601f168201915b5050505050905090565b6111b8612027565b73ffffffffffffffffffffffffffffffffffffffff168273ffffffffffffffffffffffffffffffffffffffff161415611226576040517f08c379a000000000000000000000000000000000000000000000000000000000815260040161121d9061470f565b60405180910390fd5b8060056000611233612027565b73ffffffffffffffffffffffffffffffffffffffff1673ffffffffffffffffffffffffffffffffffffffff16815260200190815260200160002060008473ffffffffffffffffffffffffffffffffffffffff1673ffffffffffffffffffffffffffffffffffffffff16815260200190815260200160002060006101000a81548160ff0219169083151502179055508173ffffffffffffffffffffffffffffffffffffffff166112e0612027565b73ffffffffffffffffffffffffffffffffffffffff167f17307eab39ab6107e8899845ad3d59bd9653f200f220920489ca2b5937696c318360405161132591906145c4565b60405180910390a35050565b61134261133c612027565b83612187565b611381576040517f08c379a0000000000000000000000000000000000000000000000000000000008152600401611378906148ef565b60405180910390fd5b61138d848484846124c1565b50505050565b6002600b5414156113d9576040517f08c379a00000000000000000000000000000000000000000000000000000000081526004016113d09061494f565b60405180910390fd5b6002600b819055506113e9610e36565b15611429576040517f08c379a00000000000000000000000000000000000000000000000000000000081526004016114209061474f565b60405180910390fd5b600073ffffffffffffffffffffffffffffffffffffffff168273ffffffffffffffffffffffffffffffffffffffff161415611499576040517f08c379a0000000000000000000000000000000000000000000000000000000008152600401611490906147cf565b60405180910390fd5b3073ffffffffffffffffffffffffffffffffffffffff168273ffffffffffffffffffffffffffffffffffffffff161415611508576040517f08c379a00000000000000000000000000000000000000000000000000000000081526004016114ff906148cf565b60405180910390fd5b6001151561151d611517612027565b83612187565b15151461155f576040517f08c379a00000000000000000000000000000000000000000000000000000000081526004016115569061492f565b60405180910390fd5b61156a838383610d7f565b6001600b81905550505050565b606061158282611fbb565b6115c1576040517f08c379a00000000000000000000000000000000000000000000000000000000081526004016115b89061488f565b60405180910390fd5b60006115cb61251d565b905060008151116115eb5760405180602001604052806000815250611616565b806115f584612534565b604051602001611606929190614487565b6040516020818303038152906040525b915050919050565b60005b600d80549050811015611775578173ffffffffffffffffffffffffffffffffffffffff16600d828154811061167f577f4e487b7100000000000000000000000000000000000000000000000000000000600052603260045260246000fd5b9060005260206000200160009054906101000a900473ffffffffffffffffffffffffffffffffffffffff1673ffffffffffffffffffffffffffffffffffffffff16141561170a576117056040518060400160405280600c81526020017f6163636f756e74735b25735d0000000000000000000000000000000000000000815250826126e1565b611762565b600073ffffffffffffffffffffffffffffffffffffffff168273ffffffffffffffffffffffffffffffffffffffff161415611761576117606040518060800160405280604d8152602001614f8b604d913961277d565b5b5b808061176d90614db5565b915050611621565b5050565b6000611783610e36565b156117c3576040517f08c379a00000000000000000000000000000000000000000000000000000000081526004016117ba9061474f565b60405180910390fd5b6117cb612027565b73ffffffffffffffffffffffffffffffffffffffff166117ea84610e4d565b73ffffffffffffffffffffffffffffffffffffffff161480156118475750611810612027565b73ffffffffffffffffffffffffffffffffffffffff1661182f83610e4d565b73ffffffffffffffffffffffffffffffffffffffff16145b611886576040517f08c379a000000000000000000000000000000000000000000000000000000000815260040161187d9061480f565b60405180910390fd5b6000601184815481106118c2577f4e487b7100000000000000000000000000000000000000000000000000000000600052603260045260246000fd5b9060005260206000209060050201600301549050600060118481548110611912577f4e487b7100000000000000000000000000000000000000000000000000000000600052603260045260246000fd5b906000526020600020906005020160030154905060006119328383612816565b905060006119408787612abe565b9050600061195888888486611953612027565b612bd5565b90507f8e3541d6cb6a06d3a1785ca3c18fa6ca7b39a6278433734c442e2ebfe623e2ea81601183815481106119b6577f4e487b7100000000000000000000000000000000000000000000000000000000600052603260045260246000fd5b90600052602060002090600502016003015460118481548110611a02577f4e487b7100000000000000000000000000000000000000000000000000000000600052603260045260246000fd5b90600052602060002090600502016004015460118581548110611a4e577f4e487b7100000000000000000000000000000000000000000000000000000000600052603260045260246000fd5b90600052602060002090600502016000015460118681548110611a9a577f4e487b7100000000000000000000000000000000000000000000000000000000600052603260045260246000fd5b90600052602060002090600502016001015460118781548110611ae6577f4e487b7100000000000000000000000000000000000000000000000000000000600052603260045260246000fd5b906000526020600020906005020160020154611b00612027565b604051611b139796959493929190614a6c565b60405180910390a1809550505050505092915050565b6000600e60009054906101000a900473ffffffffffffffffffffffffffffffffffffffff16905090565b600080611b6560638060638787612bd5565b90508091505092915050565b6000600560008473ffffffffffffffffffffffffffffffffffffffff1673ffffffffffffffffffffffffffffffffffffffff16815260200190815260200160002060008373ffffffffffffffffffffffffffffffffffffffff1673ffffffffffffffffffffffffffffffffffffffff16815260200190815260200160002060009054906101000a900460ff16905092915050565b611c0d612027565b73ffffffffffffffffffffffffffffffffffffffff16611c2b6110f4565b73ffffffffffffffffffffffffffffffffffffffff1614611c81576040517f08c379a0000000000000000000000000000000000000000000000000000000008152600401611c789061484f565b60405180910390fd5b600f5460105410611cc7576040517f08c379a0000000000000000000000000000000000000000000000000000000008152600401611cbe9061496f565b60405180910390fd5b60106000815480929190611cda90614db5565b9190505550611cf5600080600084611cf0612027565b612bd5565b5050565b611d01612027565b73ffffffffffffffffffffffffffffffffffffffff16611d1f6110f4565b73ffffffffffffffffffffffffffffffffffffffff1614611d75576040517f08c379a0000000000000000000000000000000000000000000000000000000008152600401611d6c9061484f565b60405180910390fd5b600073ffffffffffffffffffffffffffffffffffffffff168173ffffffffffffffffffffffffffffffffffffffff161415611de5576040517f08c379a0000000000000000000000000000000000000000000000000000000008152600401611ddc906146af565b60405180910390fd5b8073ffffffffffffffffffffffffffffffffffffffff16600a60009054906101000a900473ffffffffffffffffffffffffffffffffffffffff1673ffffffffffffffffffffffffffffffffffffffff167f8be0079c531659141344cd1fd0a4f28419497f9722a3daafe3b4186f6b6457e060405160405180910390a380600a60006101000a81548173ffffffffffffffffffffffffffffffffffffffff021916908373ffffffffffffffffffffffffffffffffffffffff16021790555050565b600f5481565b60008183611eb99190614c99565b905092915050565b505050565b600080823b905060008111915050919050565b60007f80ac58cd000000000000000000000000000000000000000000000000000000007bffffffffffffffffffffffffffffffffffffffffffffffffffffffff1916827bffffffffffffffffffffffffffffffffffffffffffffffffffffffff19161480611fa457507f5b5e139f000000000000000000000000000000000000000000000000000000007bffffffffffffffffffffffffffffffffffffffffffffffffffffffff1916827bffffffffffffffffffffffffffffffffffffffffffffffffffffffff1916145b80611fb45750611fb382612d1e565b5b9050919050565b60008073ffffffffffffffffffffffffffffffffffffffff166002600084815260200190815260200160002060009054906101000a900473ffffffffffffffffffffffffffffffffffffffff1673ffffffffffffffffffffffffffffffffffffffff1614159050919050565b600033905090565b816004600083815260200190815260200160002060006101000a81548173ffffffffffffffffffffffffffffffffffffffff021916908373ffffffffffffffffffffffffffffffffffffffff160217905550808273ffffffffffffffffffffffffffffffffffffffff166120a283610e4d565b73ffffffffffffffffffffffffffffffffffffffff167f8c5be1e5ebec7d5bd14f71427d1e84f3dd0314c0f7b2291e5b200ac8c7c3b92560405160405180910390a45050565b61218283838360405160240161210093929190614631565b6040516020818303038152906040527f969cdd03000000000000000000000000000000000000000000000000000000007bffffffffffffffffffffffffffffffffffffffffffffffffffffffff19166020820180517bffffffffffffffffffffffffffffffffffffffffffffffffffffffff8381831617835250505050612d88565b505050565b600061219282611fbb565b6121d1576040517f08c379a00000000000000000000000000000000000000000000000000000000081526004016121c89061472f565b60405180910390fd5b60006121dc83610e4d565b90508073ffffffffffffffffffffffffffffffffffffffff168473ffffffffffffffffffffffffffffffffffffffff16148061224b57508373ffffffffffffffffffffffffffffffffffffffff1661223384610766565b73ffffffffffffffffffffffffffffffffffffffff16145b8061225c575061225b8185611b71565b5b91505092915050565b8273ffffffffffffffffffffffffffffffffffffffff1661228582610e4d565b73ffffffffffffffffffffffffffffffffffffffff16146122db576040517f08c379a00000000000000000000000000000000000000000000000000000000081526004016122d29061486f565b60405180910390fd5b600073ffffffffffffffffffffffffffffffffffffffff168273ffffffffffffffffffffffffffffffffffffffff16141561234b576040517f08c379a0000000000000000000000000000000000000000000000000000000008152600401612342906146ef565b60405180910390fd5b612356838383612db1565b61236160008261202f565b6001600360008573ffffffffffffffffffffffffffffffffffffffff1673ffffffffffffffffffffffffffffffffffffffff16815260200190815260200160002060008282546123b19190614c99565b925050819055506001600360008473ffffffffffffffffffffffffffffffffffffffff1673ffffffffffffffffffffffffffffffffffffffff16815260200190815260200160002060008282546124089190614bb8565b92505081905550816002600083815260200190815260200160002060006101000a81548173ffffffffffffffffffffffffffffffffffffffff021916908373ffffffffffffffffffffffffffffffffffffffff160217905550808273ffffffffffffffffffffffffffffffffffffffff168473ffffffffffffffffffffffffffffffffffffffff167fddf252ad1be2c89b69c2b068fc378daa952ba7f163c4a11628f55a4df523b3ef60405160405180910390a4505050565b6124cc848484612265565b6124d884848484612ec5565b612517576040517f08c379a000000000000000000000000000000000000000000000000000000000815260040161250e9061468f565b60405180910390fd5b50505050565b606060405180602001604052806000815250905090565b6060600082141561257c576040518060400160405280600181526020017f300000000000000000000000000000000000000000000000000000000000000081525090506126dc565b600082905060005b600082146125ae57808061259790614db5565b915050600a826125a79190614c0e565b9150612584565b60008167ffffffffffffffff8111156125f0577f4e487b7100000000000000000000000000000000000000000000000000000000600052604160045260246000fd5b6040519080825280601f01601f1916602001820160405280156126225781602001600182028036833780820191505090505b5090505b600085146126d55760018261263b9190614c99565b9150600a8561264a9190614e08565b60306126569190614bb8565b60f81b818381518110612692577f4e487b7100000000000000000000000000000000000000000000000000000000600052603260045260246000fd5b60200101907effffffffffffffffffffffffffffffffffffffffffffffffffffffffffffff1916908160001a905350600a856126ce9190614c0e565b9450612626565b8093505050505b919050565b61277982826040516024016126f7929190614601565b6040516020818303038152906040527f9710a9d0000000000000000000000000000000000000000000000000000000007bffffffffffffffffffffffffffffffffffffffffffffffffffffffff19166020820180517bffffffffffffffffffffffffffffffffffffffffffffffffffffffff8381831617835250505050612d88565b5050565b6128138160405160240161279191906145df565b6040516020818303038152906040527f41304fac000000000000000000000000000000000000000000000000000000007bffffffffffffffffffffffffffffffffffffffffffffffffffffffff19166020820180517bffffffffffffffffffffffffffffffffffffffffffffffffffffffff8381831617835250505050612d88565b50565b600061282061362f565b600061282a61305c565b90506000600790506000600190505b60408111612940576000818460ff1616146128a55760648761285b9190614e08565b60ff16848360088110612897577f4e487b7100000000000000000000000000000000000000000000000000000000600052603260045260246000fd5b6020020181815250506128f8565b6064866128b29190614e08565b60ff168483600881106128ee577f4e487b7100000000000000000000000000000000000000000000000000000000600052603260045260246000fd5b6020020181815250505b6064876129059190614c0e565b96506064866129149190614c0e565b955061292a600183611eab90919063ffffffff16565b91506002816129399190614c3f565b9050612839565b5060008260ff1661294f610909565b601160008154811061298a577f4e487b7100000000000000000000000000000000000000000000000000000000600052603260045260246000fd5b9060005260206000209060050201600301546040516020016129ae939291906144ab565b6040516020818303038152906040528051906020012060001c9050600a6059826129d89190614e08565b6129e29190614bb8565b90508084600060088110612a1f577f4e487b7100000000000000000000000000000000000000000000000000000000600052603260045260246000fd5b602002018181525050600080600090505b6008811015612aaf57858160088110612a72577f4e487b7100000000000000000000000000000000000000000000000000000000600052603260045260246000fd5b602002015182612a829190614bb8565b915060078114612a9c57606482612a999190614c3f565b91505b8080612aa790614db5565b915050612a30565b50809550505050505092915050565b60008060118481548110612afb577f4e487b7100000000000000000000000000000000000000000000000000000000600052603260045260246000fd5b9060005260206000209060050201600201549050600060118481548110612b4b577f4e487b7100000000000000000000000000000000000000000000000000000000600052603260045260246000fd5b906000526020600020906005020160020154905060006002600a8385612b719190614bb8565b612b7b9190614c3f565b612b859190614c0e565b90506000600a82612b969190614e08565b1115612bab57600581612ba99190614bb8565b505b60006001600a83612bbc9190614c0e565b612bc69190614bb8565b90508094505050505092915050565b6000612bdf610e36565b15612c1f576040517f08c379a0000000000000000000000000000000000000000000000000000000008152600401612c169061474f565b60405180910390fd5b60006040518060a001604052808881526020018781526020018681526020018581526020014281525090506011819080600181540180825580915050600190039060005260206000209060050201600090919091909150600082015181600001556020820151816001015560408201518160020155606082015181600301556080820151816004015550506000612cc56001601180549050611eab90919063ffffffff16565b9050612cd18482613070565b7f0b1e9a74eeaae184646d7a35062426460c8c9364005c6d441cce036dd9c655d584828a8a89604051612d0895949392919061454f565b60405180910390a1809250505095945050505050565b60007f01ffc9a7000000000000000000000000000000000000000000000000000000007bffffffffffffffffffffffffffffffffffffffffffffffffffffffff1916827bffffffffffffffffffffffffffffffffffffffffffffffffffffffff1916149050919050565b60008151905060006a636f6e736f6c652e6c6f679050602083016000808483855afa5050505050565b612dbc838383611ec1565b600073ffffffffffffffffffffffffffffffffffffffff168373ffffffffffffffffffffffffffffffffffffffff161415612dff57612dfa8161308e565b612e3e565b8173ffffffffffffffffffffffffffffffffffffffff168373ffffffffffffffffffffffffffffffffffffffff1614612e3d57612e3c83826130d7565b5b5b600073ffffffffffffffffffffffffffffffffffffffff168273ffffffffffffffffffffffffffffffffffffffff161415612e8157612e7c81613244565b612ec0565b8273ffffffffffffffffffffffffffffffffffffffff168273ffffffffffffffffffffffffffffffffffffffff1614612ebf57612ebe8282613387565b5b5b505050565b6000612ee68473ffffffffffffffffffffffffffffffffffffffff16611ec6565b1561304f578373ffffffffffffffffffffffffffffffffffffffff1663150b7a02612f0f612027565b8786866040518563ffffffff1660e01b8152600401612f319493929190614503565b602060405180830381600087803b158015612f4b57600080fd5b505af1925050508015612f7c57506040513d601f19601f82011682018060405250810190612f7991906138f3565b60015b612fff573d8060008114612fac576040519150601f19603f3d011682016040523d82523d6000602084013e612fb1565b606091505b50600081511415612ff7576040517f08c379a0000000000000000000000000000000000000000000000000000000008152600401612fee9061468f565b60405180910390fd5b805181602001fd5b63150b7a0260e01b7bffffffffffffffffffffffffffffffffffffffffffffffffffffffff1916817bffffffffffffffffffffffffffffffffffffffffffffffffffffffff191614915050613054565b600190505b949350505050565b600060ff4261306b9190614e08565b905090565b61308a828260405180602001604052806000815250613406565b5050565b6008805490506009600083815260200190815260200160002081905550600881908060018154018082558091505060019003906000526020600020016000909190919091505550565b600060016130e484610eff565b6130ee9190614c99565b90506000600760008481526020019081526020016000205490508181146131d3576000600660008673ffffffffffffffffffffffffffffffffffffffff1673ffffffffffffffffffffffffffffffffffffffff168152602001908152602001600020600084815260200190815260200160002054905080600660008773ffffffffffffffffffffffffffffffffffffffff1673ffffffffffffffffffffffffffffffffffffffff168152602001908152602001600020600084815260200190815260200160002081905550816007600083815260200190815260200160002081905550505b6007600084815260200190815260200160002060009055600660008573ffffffffffffffffffffffffffffffffffffffff1673ffffffffffffffffffffffffffffffffffffffff16815260200190815260200160002060008381526020019081526020016000206000905550505050565b600060016008805490506132589190614c99565b90506000600960008481526020019081526020016000205490506000600883815481106132ae577f4e487b7100000000000000000000000000000000000000000000000000000000600052603260045260246000fd5b9060005260206000200154905080600883815481106132f6577f4e487b7100000000000000000000000000000000000000000000000000000000600052603260045260246000fd5b90600052602060002001819055508160096000838152602001908152602001600020819055506009600085815260200190815260200160002060009055600880548061336b577f4e487b7100000000000000000000000000000000000000000000000000000000600052603160045260246000fd5b6001900381819060005260206000200160009055905550505050565b600061339283610eff565b905081600660008573ffffffffffffffffffffffffffffffffffffffff1673ffffffffffffffffffffffffffffffffffffffff168152602001908152602001600020600083815260200190815260200160002081905550806007600084815260200190815260200160002081905550505050565b6134108383613461565b61341d6000848484612ec5565b61345c576040517f08c379a00000000000000000000000000000000000000000000000000000000081526004016134539061468f565b60405180910390fd5b505050565b600073ffffffffffffffffffffffffffffffffffffffff168273ffffffffffffffffffffffffffffffffffffffff1614156134d1576040517f08c379a00000000000000000000000000000000000000000000000000000000081526004016134c8906147ef565b60405180910390fd5b6134da81611fbb565b1561351a576040517f08c379a0000000000000000000000000000000000000000000000000000000008152600401613511906146cf565b60405180910390fd5b61352660008383612db1565b6001600360008473ffffffffffffffffffffffffffffffffffffffff1673ffffffffffffffffffffffffffffffffffffffff16815260200190815260200160002060008282546135769190614bb8565b92505081905550816002600083815260200190815260200160002060006101000a81548173ffffffffffffffffffffffffffffffffffffffff021916908373ffffffffffffffffffffffffffffffffffffffff160217905550808273ffffffffffffffffffffffffffffffffffffffff16600073ffffffffffffffffffffffffffffffffffffffff167fddf252ad1be2c89b69c2b068fc378daa952ba7f163c4a11628f55a4df523b3ef60405160405180910390a45050565b604051806101000160405280600890602082028036833780820191505090505090565b600061366561366084614b0c565b614adb565b90508281526020810184848401111561367d57600080fd5b613688848285614d41565b509392505050565b60008135905061369f81614f06565b92915050565b6000813590506136b481614f1d565b92915050565b6000813590506136c981614f34565b92915050565b6000815190506136de81614f34565b92915050565b600082601f8301126136f557600080fd5b8135613705848260208601613652565b91505092915050565b60008135905061371d81614f4b565b92915050565b60006020828403121561373557600080fd5b600061374384828501613690565b91505092915050565b6000806040838503121561375f57600080fd5b600061376d85828601613690565b925050602061377e85828601613690565b9150509250929050565b60008060006060848603121561379d57600080fd5b60006137ab86828701613690565b93505060206137bc86828701613690565b92505060406137cd8682870161370e565b9150509250925092565b600080600080608085870312156137ed57600080fd5b60006137fb87828801613690565b945050602061380c87828801613690565b935050604061381d8782880161370e565b925050606085013567ffffffffffffffff81111561383a57600080fd5b613846878288016136e4565b91505092959194509250565b6000806040838503121561386557600080fd5b600061387385828601613690565b9250506020613884858286016136a5565b9150509250929050565b600080604083850312156138a157600080fd5b60006138af85828601613690565b92505060206138c08582860161370e565b9150509250929050565b6000602082840312156138dc57600080fd5b60006138ea848285016136ba565b91505092915050565b60006020828403121561390557600080fd5b6000613913848285016136cf565b91505092915050565b60006020828403121561392e57600080fd5b600061393c8482850161370e565b91505092915050565b6000806040838503121561395857600080fd5b60006139668582860161370e565b925050602061397785828601613690565b9150509250929050565b6000806040838503121561399457600080fd5b60006139a28582860161370e565b92505060206139b38582860161370e565b9150509250929050565b60006139c98383614452565b60208301905092915050565b6139de81614ccd565b82525050565b60006139ef82614b4c565b6139f98185614b7a565b9350613a0483614b3c565b8060005b83811015613a35578151613a1c88826139bd565b9750613a2783614b6d565b925050600181019050613a08565b5085935050505092915050565b613a4b81614cdf565b82525050565b6000613a5c82614b57565b613a668185614b8b565b9350613a76818560208601614d50565b613a7f81614ef5565b840191505092915050565b6000613a9582614b62565b613a9f8185614b9c565b9350613aaf818560208601614d50565b613ab881614ef5565b840191505092915050565b6000613ace82614b62565b613ad88185614bad565b9350613ae8818560208601614d50565b80840191505092915050565b6000613b01602b83614b9c565b91507f455243373231456e756d657261626c653a206f776e657220696e646578206f7560008301527f74206f6620626f756e64730000000000000000000000000000000000000000006020830152604082019050919050565b6000613b67603283614b9c565b91507f4552433732313a207472616e7366657220746f206e6f6e20455243373231526560008301527f63656976657220696d706c656d656e74657200000000000000000000000000006020830152604082019050919050565b6000613bcd602683614b9c565b91507f4f776e61626c653a206e6577206f776e657220697320746865207a65726f206160008301527f64647265737300000000000000000000000000000000000000000000000000006020830152604082019050919050565b6000613c33601c83614b9c565b91507f4552433732313a20746f6b656e20616c7265616479206d696e746564000000006000830152602082019050919050565b6000613c73602483614b9c565b91507f4552433732313a207472616e7366657220746f20746865207a65726f2061646460008301527f72657373000000000000000000000000000000000000000000000000000000006020830152604082019050919050565b6000613cd9601983614b9c565b91507f4552433732313a20617070726f766520746f2063616c6c6572000000000000006000830152602082019050919050565b6000613d19602c83614b9c565b91507f4552433732313a206f70657261746f7220717565727920666f72206e6f6e657860008301527f697374656e7420746f6b656e00000000000000000000000000000000000000006020830152604082019050919050565b6000613d7f601083614b9c565b91507f5061757361626c653a20706175736564000000000000000000000000000000006000830152602082019050919050565b6000613dbf603883614b9c565b91507f4552433732313a20617070726f76652063616c6c6572206973206e6f74206f7760008301527f6e6572206e6f7220617070726f76656420666f7220616c6c00000000000000006020830152604082019050919050565b6000613e25602a83614b9c565b91507f4552433732313a2062616c616e636520717565727920666f7220746865207a6560008301527f726f2061646472657373000000000000000000000000000000000000000000006020830152604082019050919050565b6000613e8b602983614b9c565b91507f4552433732313a206f776e657220717565727920666f72206e6f6e657869737460008301527f656e7420746f6b656e00000000000000000000000000000000000000000000006020830152604082019050919050565b6000613ef1604a83614b9c565b91507f4d6f6e6b6579436f6e74726163743a207472616e7366657220746f207468652060008301527f7a65726f2061646472657373206e6f7420616c6c6f7765642c206275726e204e60208301527f465420696e7374656164000000000000000000000000000000000000000000006040830152606082019050919050565b6000613f7d602083614b9c565b91507f4552433732313a206d696e7420746f20746865207a65726f20616464726573736000830152602082019050919050565b6000613fbd602383614b9c565b91507f6d757374206265206f776e6572206f6620626f746820706172656e7420746f6b60008301527f656e7300000000000000000000000000000000000000000000000000000000006020830152604082019050919050565b6000614023602c83614b9c565b91507f4552433732313a20617070726f76656420717565727920666f72206e6f6e657860008301527f697374656e7420746f6b656e00000000000000000000000000000000000000006020830152604082019050919050565b6000614089602083614b9c565b91507f4f776e61626c653a2063616c6c6572206973206e6f7420746865206f776e65726000830152602082019050919050565b60006140c9602983614b9c565b91507f4552433732313a207472616e73666572206f6620746f6b656e2074686174206960008301527f73206e6f74206f776e00000000000000000000000000000000000000000000006020830152604082019050919050565b600061412f602f83614b9c565b91507f4552433732314d657461646174613a2055524920717565727920666f72206e6f60008301527f6e6578697374656e7420746f6b656e00000000000000000000000000000000006020830152604082019050919050565b6000614195602183614b9c565b91507f4552433732313a20617070726f76616c20746f2063757272656e74206f776e6560008301527f72000000000000000000000000000000000000000000000000000000000000006020830152604082019050919050565b60006141fb603483614b9c565b91507f4d6f6e6b6579436f6e74726163743a2043616e2774207472616e73666572204e60008301527f46547320746f207468697320636f6e74726163740000000000000000000000006020830152604082019050919050565b6000614261603183614b9c565b91507f4552433732313a207472616e736665722063616c6c6572206973206e6f74206f60008301527f776e6572206e6f7220617070726f7665640000000000000000000000000000006020830152604082019050919050565b60006142c7602c83614b9c565b91507f455243373231456e756d657261626c653a20676c6f62616c20696e646578206f60008301527f7574206f6620626f756e647300000000000000000000000000000000000000006020830152604082019050919050565b600061432d605183614b9c565b91507f4d6f6e6b6579436f6e74726163743a2043616e2774207472616e73666572207460008301527f686973204e465420776974686f7574206265696e67206f776e65722c2061707060208301527f726f766564206f72206f70657261746f720000000000000000000000000000006040830152606082019050919050565b60006143b9601f83614b9c565b91507f5265656e7472616e637947756172643a207265656e7472616e742063616c6c006000830152602082019050919050565b60006143f9602783614b9c565b91507f4d6178696d756d20616d6f756e74206f662067656e2030206d6f6e6b6579732060008301527f72656163686564000000000000000000000000000000000000000000000000006020830152604082019050919050565b61445b81614d37565b82525050565b61446a81614d37565b82525050565b61448161447c82614d37565b614dfe565b82525050565b60006144938285613ac3565b915061449f8284613ac3565b91508190509392505050565b60006144b78286614470565b6020820191506144c78285614470565b6020820191506144d78284614470565b602082019150819050949350505050565b60006020820190506144fd60008301846139d5565b92915050565b600060808201905061451860008301876139d5565b61452560208301866139d5565b6145326040830185614461565b81810360608301526145448184613a51565b905095945050505050565b600060a08201905061456460008301886139d5565b6145716020830187614461565b61457e6040830186614461565b61458b6060830185614461565b6145986080830184614461565b9695505050505050565b600060208201905081810360008301526145bc81846139e4565b905092915050565b60006020820190506145d96000830184613a42565b92915050565b600060208201905081810360008301526145f98184613a8a565b905092915050565b6000604082019050818103600083015261461b8185613a8a565b905061462a6020830184614461565b9392505050565b6000606082019050818103600083015261464b8186613a8a565b905061465a6020830185614461565b6146676040830184614461565b949350505050565b6000602082019050818103600083015261468881613af4565b9050919050565b600060208201905081810360008301526146a881613b5a565b9050919050565b600060208201905081810360008301526146c881613bc0565b9050919050565b600060208201905081810360008301526146e881613c26565b9050919050565b6000602082019050818103600083015261470881613c66565b9050919050565b6000602082019050818103600083015261472881613ccc565b9050919050565b6000602082019050818103600083015261474881613d0c565b9050919050565b6000602082019050818103600083015261476881613d72565b9050919050565b6000602082019050818103600083015261478881613db2565b9050919050565b600060208201905081810360008301526147a881613e18565b9050919050565b600060208201905081810360008301526147c881613e7e565b9050919050565b600060208201905081810360008301526147e881613ee4565b9050919050565b6000602082019050818103600083015261480881613f70565b9050919050565b6000602082019050818103600083015261482881613fb0565b9050919050565b6000602082019050818103600083015261484881614016565b9050919050565b600060208201905081810360008301526148688161407c565b9050919050565b60006020820190508181036000830152614888816140bc565b9050919050565b600060208201905081810360008301526148a881614122565b9050919050565b600060208201905081810360008301526148c881614188565b9050919050565b600060208201905081810360008301526148e8816141ee565b9050919050565b6000602082019050818103600083015261490881614254565b9050919050565b60006020820190508181036000830152614928816142ba565b9050919050565b6000602082019050818103600083015261494881614320565b9050919050565b60006020820190508181036000830152614968816143ac565b9050919050565b60006020820190508181036000830152614988816143ec565b9050919050565b60006020820190506149a46000830184614461565b92915050565b600060a0820190506149bf6000830188614461565b6149cc6020830187614461565b6149d96040830186614461565b6149e66060830185614461565b6149f36080830184614461565b9695505050505050565b600060e082019050614a12600083018a614461565b614a1f6020830189614461565b614a2c6040830188614461565b614a396060830187614461565b614a466080830186614461565b614a5360a08301856139d5565b614a6060c08301846139d5565b98975050505050505050565b600060e082019050614a81600083018a614461565b614a8e6020830189614461565b614a9b6040830188614461565b614aa86060830187614461565b614ab56080830186614461565b614ac260a0830185614461565b614acf60c08301846139d5565b98975050505050505050565b6000604051905081810181811067ffffffffffffffff82111715614b0257614b01614ec6565b5b8060405250919050565b600067ffffffffffffffff821115614b2757614b26614ec6565b5b601f19601f8301169050602081019050919050565b6000819050602082019050919050565b600081519050919050565b600081519050919050565b600081519050919050565b6000602082019050919050565b600082825260208201905092915050565b600082825260208201905092915050565b600082825260208201905092915050565b600081905092915050565b6000614bc382614d37565b9150614bce83614d37565b9250827fffffffffffffffffffffffffffffffffffffffffffffffffffffffffffffffff03821115614c0357614c02614e39565b5b828201905092915050565b6000614c1982614d37565b9150614c2483614d37565b925082614c3457614c33614e68565b5b828204905092915050565b6000614c4a82614d37565b9150614c5583614d37565b9250817fffffffffffffffffffffffffffffffffffffffffffffffffffffffffffffffff0483118215151615614c8e57614c8d614e39565b5b828202905092915050565b6000614ca482614d37565b9150614caf83614d37565b925082821015614cc257614cc1614e39565b5b828203905092915050565b6000614cd882614d17565b9050919050565b60008115159050919050565b60007fffffffff0000000000000000000000000000000000000000000000000000000082169050919050565b600073ffffffffffffffffffffffffffffffffffffffff82169050919050565b6000819050919050565b82818337600083830152505050565b60005b83811015614d6e578082015181840152602081019050614d53565b83811115614d7d576000848401525b50505050565b60006002820490506001821680614d9b57607f821691505b60208210811415614daf57614dae614e97565b5b50919050565b6000614dc082614d37565b91507fffffffffffffffffffffffffffffffffffffffffffffffffffffffffffffffff821415614df357614df2614e39565b5b600182019050919050565b6000819050919050565b6000614e1382614d37565b9150614e1e83614d37565b925082614e2e57614e2d614e68565b5b828206905092915050565b7f4e487b7100000000000000000000000000000000000000000000000000000000600052601160045260246000fd5b7f4e487b7100000000000000000000000000000000000000000000000000000000600052601260045260246000fd5b7f4e487b7100000000000000000000000000000000000000000000000000000000600052602260045260246000fd5b7f4e487b7100000000000000000000000000000000000000000000000000000000600052604160045260246000fd5b6000601f19601f8301169050919050565b614f0f81614ccd565b8114614f1a57600080fd5b50565b614f2681614cdf565b8114614f3157600080fd5b50565b614f3d81614ceb565b8114614f4857600080fd5b50565b614f5481614d37565b8114614f5f57600080fd5b5056fe696e6465783a2025732c206f776e6564546f6b656e49447320617272617920656e7472793a2025735a65726f20616464726573733a20307830303030303030303030303030303030303030303030303030303030303030303030303030303030203d3e20692e652e20697420776173206275726e74a2646970667358221220865bca661bf8407b9144e7fa704deb3965bd6553ce4953766b93d9e9f4ae912464736f6c63430008000033",
  "linkReferences": {},
  "deployedLinkReferences": {}
}