{
  "_format": "hh-sol-artifact-1",
  "contractName": "MonkeyContract",
  "sourceName": "contracts/MonkeyContract.sol",
  "abi": [
    {
      "inputs": [
        {
          "internalType": "address[]",
          "name": "_addressesArray",
          "type": "address[]"
        }
      ],
      "stateMutability": "nonpayable",
      "type": "constructor"
    },
    {
      "anonymous": false,
      "inputs": [
        {
          "indexed": true,
          "internalType": "address",
          "name": "owner",
          "type": "address"
        },
        {
          "indexed": true,
          "internalType": "address",
          "name": "approved",
          "type": "address"
        },
        {
          "indexed": true,
          "internalType": "uint256",
          "name": "tokenId",
          "type": "uint256"
        }
      ],
      "name": "Approval",
      "type": "event"
    },
    {
      "anonymous": false,
      "inputs": [
        {
          "indexed": true,
          "internalType": "address",
          "name": "owner",
          "type": "address"
        },
        {
          "indexed": true,
          "internalType": "address",
          "name": "operator",
          "type": "address"
        },
        {
          "indexed": false,
          "internalType": "bool",
          "name": "approved",
          "type": "bool"
        }
      ],
      "name": "ApprovalForAll",
      "type": "event"
    },
    {
      "anonymous": false,
      "inputs": [
        {
          "indexed": false,
          "internalType": "uint256",
          "name": "tokenId",
          "type": "uint256"
        },
        {
          "indexed": false,
          "internalType": "uint256",
          "name": "genes",
          "type": "uint256"
        },
        {
          "indexed": false,
          "internalType": "uint256",
          "name": "birthtime",
          "type": "uint256"
        },
        {
          "indexed": false,
          "internalType": "uint256",
          "name": "parent1Id",
          "type": "uint256"
        },
        {
          "indexed": false,
          "internalType": "uint256",
          "name": "parent2Id",
          "type": "uint256"
        },
        {
          "indexed": false,
          "internalType": "uint256",
          "name": "generation",
          "type": "uint256"
        },
        {
          "indexed": false,
          "internalType": "address",
          "name": "owner",
          "type": "address"
        }
      ],
      "name": "BreedingSuccessful",
      "type": "event"
    },
    {
      "anonymous": false,
      "inputs": [
        {
          "indexed": false,
          "internalType": "address",
          "name": "owner",
          "type": "address"
        },
        {
          "indexed": false,
          "internalType": "uint256",
          "name": "tokenId",
          "type": "uint256"
        },
        {
          "indexed": false,
          "internalType": "uint256",
          "name": "parent1Id",
          "type": "uint256"
        },
        {
          "indexed": false,
          "internalType": "uint256",
          "name": "parent2Id",
          "type": "uint256"
        },
        {
          "indexed": false,
          "internalType": "uint256",
          "name": "genes",
          "type": "uint256"
        }
      ],
      "name": "MonkeyCreated",
      "type": "event"
    },
    {
      "anonymous": false,
      "inputs": [
        {
          "indexed": true,
          "internalType": "address",
          "name": "previousOwner",
          "type": "address"
        },
        {
          "indexed": true,
          "internalType": "address",
          "name": "newOwner",
          "type": "address"
        }
      ],
      "name": "OwnershipTransferred",
      "type": "event"
    },
    {
      "anonymous": false,
      "inputs": [
        {
          "indexed": false,
          "internalType": "address",
          "name": "account",
          "type": "address"
        }
      ],
      "name": "Paused",
      "type": "event"
    },
    {
      "anonymous": false,
      "inputs": [
        {
          "indexed": true,
          "internalType": "address",
          "name": "from",
          "type": "address"
        },
        {
          "indexed": true,
          "internalType": "address",
          "name": "to",
          "type": "address"
        },
        {
          "indexed": true,
          "internalType": "uint256",
          "name": "tokenId",
          "type": "uint256"
        }
      ],
      "name": "Transfer",
      "type": "event"
    },
    {
      "anonymous": false,
      "inputs": [
        {
          "indexed": false,
          "internalType": "address",
          "name": "account",
          "type": "address"
        }
      ],
      "name": "Unpaused",
      "type": "event"
    },
    {
      "inputs": [],
      "name": "GEN0_Limit",
      "outputs": [
        {
          "internalType": "uint256",
          "name": "",
          "type": "uint256"
        }
      ],
      "stateMutability": "view",
      "type": "function"
    },
    {
      "inputs": [
        {
          "internalType": "uint256",
          "name": "",
          "type": "uint256"
        }
      ],
      "name": "allMonkeysArray",
      "outputs": [
        {
          "internalType": "uint256",
          "name": "parent1Id",
          "type": "uint256"
        },
        {
          "internalType": "uint256",
          "name": "parent2Id",
          "type": "uint256"
        },
        {
          "internalType": "uint256",
          "name": "generation",
          "type": "uint256"
        },
        {
          "internalType": "uint256",
          "name": "genes",
          "type": "uint256"
        },
        {
          "internalType": "uint256",
          "name": "birthtime",
          "type": "uint256"
        }
      ],
      "stateMutability": "view",
      "type": "function"
    },
    {
      "inputs": [
        {
          "internalType": "address",
          "name": "to",
          "type": "address"
        },
        {
          "internalType": "uint256",
          "name": "tokenId",
          "type": "uint256"
        }
      ],
      "name": "approve",
      "outputs": [],
      "stateMutability": "nonpayable",
      "type": "function"
    },
    {
      "inputs": [
        {
          "internalType": "address",
          "name": "owner",
          "type": "address"
        }
      ],
      "name": "balanceOf",
      "outputs": [
        {
          "internalType": "uint256",
          "name": "",
          "type": "uint256"
        }
      ],
      "stateMutability": "view",
      "type": "function"
    },
    {
      "inputs": [
        {
          "internalType": "uint256",
          "name": "_parent1Id",
          "type": "uint256"
        },
        {
          "internalType": "uint256",
          "name": "_parent2Id",
          "type": "uint256"
        }
      ],
      "name": "breed",
      "outputs": [
        {
          "internalType": "uint256",
          "name": "",
          "type": "uint256"
        }
      ],
      "stateMutability": "nonpayable",
      "type": "function"
    },
    {
      "inputs": [
        {
          "internalType": "uint256",
          "name": "_genes",
          "type": "uint256"
        },
        {
          "internalType": "address",
          "name": "_owner",
          "type": "address"
        }
      ],
      "name": "createDemoMonkey",
      "outputs": [
        {
          "internalType": "uint256",
          "name": "",
          "type": "uint256"
        }
      ],
      "stateMutability": "nonpayable",
      "type": "function"
    },
    {
      "inputs": [
        {
          "internalType": "uint256",
          "name": "_genes",
          "type": "uint256"
        }
      ],
      "name": "createGen0Monkey",
      "outputs": [],
      "stateMutability": "nonpayable",
      "type": "function"
    },
    {
      "inputs": [
        {
          "internalType": "address",
          "name": "owner",
          "type": "address"
        }
      ],
      "name": "findMonkeyIdsOfAddress",
      "outputs": [
        {
          "internalType": "uint256[]",
          "name": "",
          "type": "uint256[]"
        }
      ],
      "stateMutability": "view",
      "type": "function"
    },
    {
      "inputs": [],
      "name": "gen0amountTotal",
      "outputs": [
        {
          "internalType": "uint256",
          "name": "",
          "type": "uint256"
        }
      ],
      "stateMutability": "view",
      "type": "function"
    },
    {
      "inputs": [
        {
          "internalType": "uint256",
          "name": "tokenId",
          "type": "uint256"
        }
      ],
      "name": "getApproved",
      "outputs": [
        {
          "internalType": "address",
          "name": "",
          "type": "address"
        }
      ],
      "stateMutability": "view",
      "type": "function"
    },
    {
      "inputs": [],
      "name": "getMonkeyContractAddress",
      "outputs": [
        {
          "internalType": "address",
          "name": "",
          "type": "address"
        }
      ],
      "stateMutability": "view",
      "type": "function"
    },
    {
      "inputs": [
        {
          "internalType": "uint256",
          "name": "tokenId",
          "type": "uint256"
        }
      ],
      "name": "getMonkeyDetails",
      "outputs": [
        {
          "internalType": "uint256",
          "name": "genes",
          "type": "uint256"
        },
        {
          "internalType": "uint256",
          "name": "birthtime",
          "type": "uint256"
        },
        {
          "internalType": "uint256",
          "name": "parent1Id",
          "type": "uint256"
        },
        {
          "internalType": "uint256",
          "name": "parent2Id",
          "type": "uint256"
        },
        {
          "internalType": "uint256",
          "name": "generation",
          "type": "uint256"
        },
        {
          "internalType": "address",
          "name": "owner",
          "type": "address"
        },
        {
          "internalType": "address",
          "name": "approvedAddress",
          "type": "address"
        }
      ],
      "stateMutability": "view",
      "type": "function"
    },
    {
      "inputs": [
        {
          "internalType": "address",
          "name": "owner",
          "type": "address"
        },
        {
          "internalType": "address",
          "name": "operator",
          "type": "address"
        }
      ],
      "name": "isApprovedForAll",
      "outputs": [
        {
          "internalType": "bool",
          "name": "",
          "type": "bool"
        }
      ],
      "stateMutability": "view",
      "type": "function"
    },
    {
      "inputs": [],
      "name": "name",
      "outputs": [
        {
          "internalType": "string",
          "name": "",
          "type": "string"
        }
      ],
      "stateMutability": "view",
      "type": "function"
    },
    {
      "inputs": [],
      "name": "owner",
      "outputs": [
        {
          "internalType": "address",
          "name": "",
          "type": "address"
        }
      ],
      "stateMutability": "view",
      "type": "function"
    },
    {
      "inputs": [
        {
          "internalType": "uint256",
          "name": "tokenId",
          "type": "uint256"
        }
      ],
      "name": "ownerOf",
      "outputs": [
        {
          "internalType": "address",
          "name": "",
          "type": "address"
        }
      ],
      "stateMutability": "view",
      "type": "function"
    },
    {
      "inputs": [],
      "name": "paused",
      "outputs": [
        {
          "internalType": "bool",
          "name": "",
          "type": "bool"
        }
      ],
      "stateMutability": "view",
      "type": "function"
    },
    {
      "inputs": [],
      "name": "renounceOwnership",
      "outputs": [],
      "stateMutability": "nonpayable",
      "type": "function"
    },
    {
      "inputs": [
        {
          "internalType": "address",
          "name": "from",
          "type": "address"
        },
        {
          "internalType": "address",
          "name": "to",
          "type": "address"
        },
        {
          "internalType": "uint256",
          "name": "tokenId",
          "type": "uint256"
        }
      ],
      "name": "safeTransferFrom",
      "outputs": [],
      "stateMutability": "nonpayable",
      "type": "function"
    },
    {
      "inputs": [
        {
          "internalType": "address",
          "name": "from",
          "type": "address"
        },
        {
          "internalType": "address",
          "name": "to",
          "type": "address"
        },
        {
          "internalType": "uint256",
          "name": "tokenId",
          "type": "uint256"
        },
        {
          "internalType": "bytes",
          "name": "_data",
          "type": "bytes"
        }
      ],
      "name": "safeTransferFrom",
      "outputs": [],
      "stateMutability": "nonpayable",
      "type": "function"
    },
    {
      "inputs": [
        {
          "internalType": "address",
          "name": "operator",
          "type": "address"
        },
        {
          "internalType": "bool",
          "name": "approved",
          "type": "bool"
        }
      ],
      "name": "setApprovalForAll",
      "outputs": [],
      "stateMutability": "nonpayable",
      "type": "function"
    },
    {
      "inputs": [
        {
          "internalType": "address",
          "name": "addressToLookup",
          "type": "address"
        }
      ],
      "name": "showAccountForAddress",
      "outputs": [],
      "stateMutability": "view",
      "type": "function"
    },
    {
      "inputs": [
        {
          "internalType": "bytes4",
          "name": "interfaceId",
          "type": "bytes4"
        }
      ],
      "name": "supportsInterface",
      "outputs": [
        {
          "internalType": "bool",
          "name": "",
          "type": "bool"
        }
      ],
      "stateMutability": "view",
      "type": "function"
    },
    {
      "inputs": [],
      "name": "symbol",
      "outputs": [
        {
          "internalType": "string",
          "name": "",
          "type": "string"
        }
      ],
      "stateMutability": "view",
      "type": "function"
    },
    {
      "inputs": [
        {
          "internalType": "uint256",
          "name": "index",
          "type": "uint256"
        }
      ],
      "name": "tokenByIndex",
      "outputs": [
        {
          "internalType": "uint256",
          "name": "",
          "type": "uint256"
        }
      ],
      "stateMutability": "view",
      "type": "function"
    },
    {
      "inputs": [
        {
          "internalType": "address",
          "name": "owner",
          "type": "address"
        },
        {
          "internalType": "uint256",
          "name": "index",
          "type": "uint256"
        }
      ],
      "name": "tokenOfOwnerByIndex",
      "outputs": [
        {
          "internalType": "uint256",
          "name": "",
          "type": "uint256"
        }
      ],
      "stateMutability": "view",
      "type": "function"
    },
    {
      "inputs": [
        {
          "internalType": "uint256",
          "name": "tokenId",
          "type": "uint256"
        }
      ],
      "name": "tokenURI",
      "outputs": [
        {
          "internalType": "string",
          "name": "",
          "type": "string"
        }
      ],
      "stateMutability": "view",
      "type": "function"
    },
    {
      "inputs": [],
      "name": "totalSupply",
      "outputs": [
        {
          "internalType": "uint256",
          "name": "",
          "type": "uint256"
        }
      ],
      "stateMutability": "view",
      "type": "function"
    },
    {
      "inputs": [
        {
          "internalType": "address",
          "name": "_from",
          "type": "address"
        },
        {
          "internalType": "address",
          "name": "_to",
          "type": "address"
        },
        {
          "internalType": "uint256",
          "name": "_tokenId",
          "type": "uint256"
        }
      ],
      "name": "transfer",
      "outputs": [],
      "stateMutability": "nonpayable",
      "type": "function"
    },
    {
      "inputs": [
        {
          "internalType": "address",
          "name": "from",
          "type": "address"
        },
        {
          "internalType": "address",
          "name": "to",
          "type": "address"
        },
        {
          "internalType": "uint256",
          "name": "tokenId",
          "type": "uint256"
        }
      ],
      "name": "transferFrom",
      "outputs": [],
      "stateMutability": "nonpayable",
      "type": "function"
    },
    {
      "inputs": [
        {
          "internalType": "address",
          "name": "newOwner",
          "type": "address"
        }
      ],
      "name": "transferOwnership",
      "outputs": [],
      "stateMutability": "nonpayable",
      "type": "function"
    }
  ],
  "bytecode": "0x6080604052600c600f553480156200001657600080fd5b5060405162006fd738038062006fd783398181016040528101906200003c919062001619565b6040518060400160405280600e81526020017f43727970746f204d6f6e6b6579730000000000000000000000000000000000008152506040518060400160405280600681526020017f4d4f4e4b455900000000000000000000000000000000000000000000000000008152508160009080519060200190620000c09291906200140a565b508060019080519060200190620000d99291906200140a565b5050506000620000ee6200025160201b60201c565b905080600a60006101000a81548173ffffffffffffffffffffffffffffffffffffffff021916908373ffffffffffffffffffffffffffffffffffffffff1602179055508073ffffffffffffffffffffffffffffffffffffffff16600073ffffffffffffffffffffffffffffffffffffffff167f8be0079c531659141344cd1fd0a4f28419497f9722a3daafe3b4186f6b6457e060405160405180910390a3506001600b819055506000600c60006101000a81548160ff02191690831515021790555080600d9080519060200190620001c89291906200149b565b5030600e60006101000a81548173ffffffffffffffffffffffffffffffffffffffff021916908373ffffffffffffffffffffffffffffffffffffffff1602179055506200023760008060006604503ef19324976200022b6200025160201b60201c565b6200025960201b60201c565b506200024a6000620003be60201b60201c565b5062001eb0565b600033905090565b60006200026b620004b060201b60201c565b15620002ae576040517f08c379a0000000000000000000000000000000000000000000000000000000008152600401620002a59062001b14565b60405180910390fd5b60006040518060a0016040528088815260200187815260200186815260200185815260200142815250905060118190806001815401808255809150506001900390600052602060002090600502016000909190919091506000820151816000015560208201518160010155604082015181600201556060820151816003015560808201518160040155505060006200035b6001601180549050620004c760201b62001eab1790919060201c565b90506200036f8482620004df60201b60201c565b7f0b1e9a74eeaae184646d7a35062426460c8c9364005c6d441cce036dd9c655d584828a8a89604051620003a895949392919062001a51565b60405180910390a1809250505095945050505050565b6002600b54141562000407576040517f08c379a0000000000000000000000000000000000000000000000000000000008152600401620003fe9062001bbe565b60405180910390fd5b6002600b819055506200041f620004b060201b60201c565b1562000462576040517f08c379a0000000000000000000000000000000000000000000000000000000008152600401620004599062001b14565b60405180910390fd5b60011515620004876200047a6200025160201b60201c565b836200050560201b60201c565b1515146200049457600080fd5b620004a5816200060d60201b60201c565b6001600b8190555050565b6000600c60009054906101000a900460ff16905090565b60008183620004d7919062001ccd565b905092915050565b620005018282604051806020016040528060008152506200073d60201b60201c565b5050565b60006200051882620007ab60201b60201c565b6200055a576040517f08c379a0000000000000000000000000000000000000000000000000000000008152600401620005519062001af2565b60405180910390fd5b600062000572836200081760201b62000e4d1760201c565b90508073ffffffffffffffffffffffffffffffffffffffff168473ffffffffffffffffffffffffffffffffffffffff161480620005ea57508373ffffffffffffffffffffffffffffffffffffffff16620005d284620008cc60201b60201c565b73ffffffffffffffffffffffffffffffffffffffff16145b806200060457506200060381856200095c60201b60201c565b5b91505092915050565b600062000625826200081760201b62000e4d1760201c565b90506200063b81600084620009f060201b60201c565b6200064e60008362000b3760201b60201c565b6001600360008373ffffffffffffffffffffffffffffffffffffffff1673ffffffffffffffffffffffffffffffffffffffff1681526020019081526020016000206000828254620006a0919062001ccd565b925050819055506002600083815260200190815260200160002060006101000a81549073ffffffffffffffffffffffffffffffffffffffff021916905581600073ffffffffffffffffffffffffffffffffffffffff168273ffffffffffffffffffffffffffffffffffffffff167fddf252ad1be2c89b69c2b068fc378daa952ba7f163c4a11628f55a4df523b3ef60405160405180910390a45050565b6200074f838362000bfd60201b60201c565b62000764600084848462000de360201b60201c565b620007a6576040517f08c379a00000000000000000000000000000000000000000000000000000000081526004016200079d9062001aae565b60405180910390fd5b505050565b60008073ffffffffffffffffffffffffffffffffffffffff166002600084815260200190815260200160002060009054906101000a900473ffffffffffffffffffffffffffffffffffffffff1673ffffffffffffffffffffffffffffffffffffffff1614159050919050565b6000806002600084815260200190815260200160002060009054906101000a900473ffffffffffffffffffffffffffffffffffffffff169050600073ffffffffffffffffffffffffffffffffffffffff168173ffffffffffffffffffffffffffffffffffffffff161415620008c3576040517f08c379a0000000000000000000000000000000000000000000000000000000008152600401620008ba9062001b58565b60405180910390fd5b80915050919050565b6000620008df82620007ab60201b60201c565b62000921576040517f08c379a0000000000000000000000000000000000000000000000000000000008152600401620009189062001b9c565b60405180910390fd5b6004600083815260200190815260200160002060009054906101000a900473ffffffffffffffffffffffffffffffffffffffff169050919050565b6000600560008473ffffffffffffffffffffffffffffffffffffffff1673ffffffffffffffffffffffffffffffffffffffff16815260200190815260200160002060008373ffffffffffffffffffffffffffffffffffffffff1673ffffffffffffffffffffffffffffffffffffffff16815260200190815260200160002060009054906101000a900460ff16905092915050565b62000a0883838362000f9d60201b62001ec11760201c565b600073ffffffffffffffffffffffffffffffffffffffff168373ffffffffffffffffffffffffffffffffffffffff16141562000a555762000a4f8162000fa260201b60201c565b62000a9d565b8173ffffffffffffffffffffffffffffffffffffffff168373ffffffffffffffffffffffffffffffffffffffff161462000a9c5762000a9b838262000feb60201b60201c565b5b5b600073ffffffffffffffffffffffffffffffffffffffff168273ffffffffffffffffffffffffffffffffffffffff16141562000aea5762000ae4816200116860201b60201c565b62000b32565b8273ffffffffffffffffffffffffffffffffffffffff168273ffffffffffffffffffffffffffffffffffffffff161462000b315762000b308282620012b060201b60201c565b5b5b505050565b816004600083815260200190815260200160002060006101000a81548173ffffffffffffffffffffffffffffffffffffffff021916908373ffffffffffffffffffffffffffffffffffffffff160217905550808273ffffffffffffffffffffffffffffffffffffffff1662000bb7836200081760201b62000e4d1760201c565b73ffffffffffffffffffffffffffffffffffffffff167f8c5be1e5ebec7d5bd14f71427d1e84f3dd0314c0f7b2291e5b200ac8c7c3b92560405160405180910390a45050565b600073ffffffffffffffffffffffffffffffffffffffff168273ffffffffffffffffffffffffffffffffffffffff16141562000c70576040517f08c379a000000000000000000000000000000000000000000000000000000000815260040162000c679062001b7a565b60405180910390fd5b62000c8181620007ab60201b60201c565b1562000cc4576040517f08c379a000000000000000000000000000000000000000000000000000000000815260040162000cbb9062001ad0565b60405180910390fd5b62000cd860008383620009f060201b60201c565b6001600360008473ffffffffffffffffffffffffffffffffffffffff1673ffffffffffffffffffffffffffffffffffffffff168152602001908152602001600020600082825462000d2a919062001c70565b92505081905550816002600083815260200190815260200160002060006101000a81548173ffffffffffffffffffffffffffffffffffffffff021916908373ffffffffffffffffffffffffffffffffffffffff160217905550808273ffffffffffffffffffffffffffffffffffffffff16600073ffffffffffffffffffffffffffffffffffffffff167fddf252ad1be2c89b69c2b068fc378daa952ba7f163c4a11628f55a4df523b3ef60405160405180910390a45050565b600062000e118473ffffffffffffffffffffffffffffffffffffffff166200133c60201b62001ec61760201c565b1562000f90578373ffffffffffffffffffffffffffffffffffffffff1663150b7a0262000e436200025160201b60201c565b8786866040518563ffffffff1660e01b815260040162000e679493929190620019fd565b602060405180830381600087803b15801562000e8257600080fd5b505af192505050801562000eb657506040513d601f19601f8201168201806040525081019062000eb391906200165e565b60015b62000f3f573d806000811462000ee9576040519150601f19603f3d011682016040523d82523d6000602084013e62000eee565b606091505b5060008151141562000f37576040517f08c379a000000000000000000000000000000000000000000000000000000000815260040162000f2e9062001aae565b60405180910390fd5b805181602001fd5b63150b7a0260e01b7bffffffffffffffffffffffffffffffffffffffffffffffffffffffff1916817bffffffffffffffffffffffffffffffffffffffffffffffffffffffff19161491505062000f95565b600190505b949350505050565b505050565b6008805490506009600083815260200190815260200160002081905550600881908060018154018082558091505060019003906000526020600020016000909190919091505550565b6000600162001005846200134f60201b62000eff1760201c565b62001011919062001ccd565b9050600060076000848152602001908152602001600020549050818114620010f7576000600660008673ffffffffffffffffffffffffffffffffffffffff1673ffffffffffffffffffffffffffffffffffffffff168152602001908152602001600020600084815260200190815260200160002054905080600660008773ffffffffffffffffffffffffffffffffffffffff1673ffffffffffffffffffffffffffffffffffffffff168152602001908152602001600020600084815260200190815260200160002081905550816007600083815260200190815260200160002081905550505b6007600084815260200190815260200160002060009055600660008573ffffffffffffffffffffffffffffffffffffffff1673ffffffffffffffffffffffffffffffffffffffff16815260200190815260200160002060008381526020019081526020016000206000905550505050565b600060016008805490506200117e919062001ccd565b9050600060096000848152602001908152602001600020549050600060088381548110620011d5577f4e487b7100000000000000000000000000000000000000000000000000000000600052603260045260246000fd5b9060005260206000200154905080600883815481106200121e577f4e487b7100000000000000000000000000000000000000000000000000000000600052603260045260246000fd5b90600052602060002001819055508160096000838152602001908152602001600020819055506009600085815260200190815260200160002060009055600880548062001294577f4e487b7100000000000000000000000000000000000000000000000000000000600052603160045260246000fd5b6001900381819060005260206000200160009055905550505050565b6000620012c8836200134f60201b62000eff1760201c565b905081600660008573ffffffffffffffffffffffffffffffffffffffff1673ffffffffffffffffffffffffffffffffffffffff168152602001908152602001600020600083815260200190815260200160002081905550806007600084815260200190815260200160002081905550505050565b600080823b905060008111915050919050565b60008073ffffffffffffffffffffffffffffffffffffffff168273ffffffffffffffffffffffffffffffffffffffff161415620013c3576040517f08c379a0000000000000000000000000000000000000000000000000000000008152600401620013ba9062001b36565b60405180910390fd5b600360008373ffffffffffffffffffffffffffffffffffffffff1673ffffffffffffffffffffffffffffffffffffffff168152602001908152602001600020549050919050565b828054620014189062001da8565b90600052602060002090601f0160209004810192826200143c576000855562001488565b82601f106200145757805160ff191683800117855562001488565b8280016001018555821562001488579182015b82811115620014875782518255916020019190600101906200146a565b5b5090506200149791906200152a565b5090565b82805482825590600052602060002090810192821562001517579160200282015b82811115620015165782518260006101000a81548173ffffffffffffffffffffffffffffffffffffffff021916908373ffffffffffffffffffffffffffffffffffffffff16021790555091602001919060010190620014bc565b5b5090506200152691906200152a565b5090565b5b80821115620015455760008160009055506001016200152b565b5090565b6000620015606200155a8462001c14565b62001be0565b905080838252602082019050828560208602820111156200158057600080fd5b60005b85811015620015b45781620015998882620015be565b84526020840193506020830192505060018101905062001583565b5050509392505050565b600081519050620015cf8162001e7c565b92915050565b600082601f830112620015e757600080fd5b8151620015f984826020860162001549565b91505092915050565b600081519050620016138162001e96565b92915050565b6000602082840312156200162c57600080fd5b600082015167ffffffffffffffff8111156200164757600080fd5b6200165584828501620015d5565b91505092915050565b6000602082840312156200167157600080fd5b6000620016818482850162001602565b91505092915050565b620016958162001d08565b82525050565b6000620016a88262001c43565b620016b4818562001c4e565b9350620016c681856020860162001d72565b620016d18162001e6b565b840191505092915050565b6000620016eb60328362001c5f565b91507f4552433732313a207472616e7366657220746f206e6f6e20455243373231526560008301527f63656976657220696d706c656d656e74657200000000000000000000000000006020830152604082019050919050565b600062001753601c8362001c5f565b91507f4552433732313a20746f6b656e20616c7265616479206d696e746564000000006000830152602082019050919050565b600062001795602c8362001c5f565b91507f4552433732313a206f70657261746f7220717565727920666f72206e6f6e657860008301527f697374656e7420746f6b656e00000000000000000000000000000000000000006020830152604082019050919050565b6000620017fd60108362001c5f565b91507f5061757361626c653a20706175736564000000000000000000000000000000006000830152602082019050919050565b60006200183f602a8362001c5f565b91507f4552433732313a2062616c616e636520717565727920666f7220746865207a6560008301527f726f2061646472657373000000000000000000000000000000000000000000006020830152604082019050919050565b6000620018a760298362001c5f565b91507f4552433732313a206f776e657220717565727920666f72206e6f6e657869737460008301527f656e7420746f6b656e00000000000000000000000000000000000000000000006020830152604082019050919050565b60006200190f60208362001c5f565b91507f4552433732313a206d696e7420746f20746865207a65726f20616464726573736000830152602082019050919050565b600062001951602c8362001c5f565b91507f4552433732313a20617070726f76656420717565727920666f72206e6f6e657860008301527f697374656e7420746f6b656e00000000000000000000000000000000000000006020830152604082019050919050565b6000620019b9601f8362001c5f565b91507f5265656e7472616e637947756172643a207265656e7472616e742063616c6c006000830152602082019050919050565b620019f78162001d68565b82525050565b600060808201905062001a1460008301876200168a565b62001a2360208301866200168a565b62001a326040830185620019ec565b818103606083015262001a4681846200169b565b905095945050505050565b600060a08201905062001a6860008301886200168a565b62001a776020830187620019ec565b62001a866040830186620019ec565b62001a956060830185620019ec565b62001aa46080830184620019ec565b9695505050505050565b6000602082019050818103600083015262001ac981620016dc565b9050919050565b6000602082019050818103600083015262001aeb8162001744565b9050919050565b6000602082019050818103600083015262001b0d8162001786565b9050919050565b6000602082019050818103600083015262001b2f81620017ee565b9050919050565b6000602082019050818103600083015262001b518162001830565b9050919050565b6000602082019050818103600083015262001b738162001898565b9050919050565b6000602082019050818103600083015262001b958162001900565b9050919050565b6000602082019050818103600083015262001bb78162001942565b9050919050565b6000602082019050818103600083015262001bd981620019aa565b9050919050565b6000604051905081810181811067ffffffffffffffff8211171562001c0a5762001c0962001e3c565b5b8060405250919050565b600067ffffffffffffffff82111562001c325762001c3162001e3c565b5b602082029050602081019050919050565b600081519050919050565b600082825260208201905092915050565b600082825260208201905092915050565b600062001c7d8262001d68565b915062001c8a8362001d68565b9250827fffffffffffffffffffffffffffffffffffffffffffffffffffffffffffffffff0382111562001cc25762001cc162001dde565b5b828201905092915050565b600062001cda8262001d68565b915062001ce78362001d68565b92508282101562001cfd5762001cfc62001dde565b5b828203905092915050565b600062001d158262001d48565b9050919050565b60007fffffffff0000000000000000000000000000000000000000000000000000000082169050919050565b600073ffffffffffffffffffffffffffffffffffffffff82169050919050565b6000819050919050565b60005b8381101562001d9257808201518184015260208101905062001d75565b8381111562001da2576000848401525b50505050565b6000600282049050600182168062001dc157607f821691505b6020821081141562001dd85762001dd762001e0d565b5b50919050565b7f4e487b7100000000000000000000000000000000000000000000000000000000600052601160045260246000fd5b7f4e487b7100000000000000000000000000000000000000000000000000000000600052602260045260246000fd5b7f4e487b7100000000000000000000000000000000000000000000000000000000600052604160045260246000fd5b6000601f19601f8301169050919050565b62001e878162001d08565b811462001e9357600080fd5b50565b62001ea18162001d1c565b811462001ead57600080fd5b50565b6151178062001ec06000396000f3fe608060405234801561001057600080fd5b50600436106101e55760003560e01c806370a082311161010f578063cc5739e0116100a2578063e985e9c511610071578063e985e9c5146105d4578063ef742fc114610604578063f2fde38b14610620578063f91ba6741461063c576101e5565b8063cc5739e01461053a578063d9ecad7b14610556578063daa97fae14610586578063db002794146105a4576101e5565b8063a22cb465116100de578063a22cb465146104b6578063b88d4fde146104d2578063beabacc8146104ee578063c87b56dd1461050a576101e5565b806370a0823114610440578063715018a6146104705780638da5cb5b1461047a57806395d89b4114610498576101e5565b80631b4172781161018757806342842e0e1161015657806342842e0e146103a65780634f6ccce7146103c25780635c975abb146103f25780636352211e14610410576101e5565b80631b417278146102f057806323b872dd146103245780632558e25f146103405780632f745c5914610376576101e5565b80630917cffe116101c35780630917cffe14610268578063095ea7b31461028657806318160ddd146102a25780631b0a1aed146102c0576101e5565b806301ffc9a7146101ea57806306fdde031461021a578063081812fc14610238575b600080fd5b61020460048036038101906101ff919061394e565b61065a565b60405161021191906146ae565b60405180910390f35b6102226106d4565b60405161022f91906146c9565b60405180910390f35b610252600480360381019061024d91906139a0565b610766565b60405161025f91906145d2565b60405180910390f35b6102706107eb565b60405161027d9190614a99565b60405180910390f35b6102a0600480360381019061029b9190613912565b6107f1565b005b6102aa610909565b6040516102b79190614a99565b60405180910390f35b6102da60048036038101906102d591906137a7565b610916565b6040516102e7919061468c565b60405180910390f35b61030a600480360381019061030591906139a0565b610a82565b60405161031b959493929190614ab4565b60405180910390f35b61033e6004803603810190610339919061380c565b610ac8565b005b61035a600480360381019061035591906139a0565b610b28565b60405161036d9796959493929190614b07565b60405180910390f35b610390600480360381019061038b9190613912565b610cda565b60405161039d9190614a99565b60405180910390f35b6103c060048036038101906103bb919061380c565b610d7f565b005b6103dc60048036038101906103d791906139a0565b610d9f565b6040516103e99190614a99565b60405180910390f35b6103fa610e36565b60405161040791906146ae565b60405180910390f35b61042a600480360381019061042591906139a0565b610e4d565b60405161043791906145d2565b60405180910390f35b61045a600480360381019061045591906137a7565b610eff565b6040516104679190614a99565b60405180910390f35b610478610fb7565b005b6104826110f4565b60405161048f91906145d2565b60405180910390f35b6104a061111e565b6040516104ad91906146c9565b60405180910390f35b6104d060048036038101906104cb91906138d6565b6111b0565b005b6104ec60048036038101906104e7919061385b565b611331565b005b6105086004803603810190610503919061380c565b611393565b005b610524600480360381019061051f91906139a0565b611577565b60405161053191906146c9565b60405180910390f35b610554600480360381019061054f91906137a7565b61161e565b005b610570600480360381019061056b9190613a05565b611779565b60405161057d9190614a99565b60405180910390f35b61058e611b29565b60405161059b91906145d2565b60405180910390f35b6105be60048036038101906105b991906139c9565b611b53565b6040516105cb9190614a99565b60405180910390f35b6105ee60048036038101906105e991906137d0565b611b71565b6040516105fb91906146ae565b60405180910390f35b61061e600480360381019061061991906139a0565b611c05565b005b61063a600480360381019061063591906137a7565b611cf9565b005b610644611ea5565b6040516106519190614a99565b60405180910390f35b60007f780e9d63000000000000000000000000000000000000000000000000000000007bffffffffffffffffffffffffffffffffffffffffffffffffffffffff1916827bffffffffffffffffffffffffffffffffffffffffffffffffffffffff191614806106cd57506106cc82611ed9565b5b9050919050565b6060600080546106e390614e8d565b80601f016020809104026020016040519081016040528092919081815260200182805461070f90614e8d565b801561075c5780601f106107315761010080835404028352916020019161075c565b820191906000526020600020905b81548152906001019060200180831161073f57829003601f168201915b5050505050905090565b600061077182611fbb565b6107b0576040517f08c379a00000000000000000000000000000000000000000000000000000000081526004016107a790614939565b60405180910390fd5b6004600083815260200190815260200160002060009054906101000a900473ffffffffffffffffffffffffffffffffffffffff169050919050565b60105481565b60006107fc82610e4d565b90508073ffffffffffffffffffffffffffffffffffffffff168373ffffffffffffffffffffffffffffffffffffffff16141561086d576040517f08c379a0000000000000000000000000000000000000000000000000000000008152600401610864906149b9565b60405180910390fd5b8073ffffffffffffffffffffffffffffffffffffffff1661088c612027565b73ffffffffffffffffffffffffffffffffffffffff1614806108bb57506108ba816108b5612027565b611b71565b5b6108fa576040517f08c379a00000000000000000000000000000000000000000000000000000000081526004016108f190614859565b60405180910390fd5b610904838361202f565b505050565b6000600880549050905090565b6060600061092383610eff565b905061092e8361161e565b60008167ffffffffffffffff811115610970577f4e487b7100000000000000000000000000000000000000000000000000000000600052604160045260246000fd5b60405190808252806020026020018201604052801561099e5781602001602082028036833780820191505090505b50905060005b82811015610a775760006109b88683610cda565b9050808383815181106109f4577f4e487b7100000000000000000000000000000000000000000000000000000000600052603260045260246000fd5b602002602001018181525050610a6360405180606001604052806028815260200161506d6028913983858581518110610a56577f4e487b7100000000000000000000000000000000000000000000000000000000600052603260045260246000fd5b60200260200101516120e8565b508080610a6f90614ebf565b9150506109a4565b508092505050919050565b60118181548110610a9257600080fd5b90600052602060002090600502016000915090508060000154908060010154908060020154908060030154908060040154905085565b610ad9610ad3612027565b82612187565b610b18576040517f08c379a0000000000000000000000000000000000000000000000000000000008152600401610b0f906149f9565b60405180910390fd5b610b23838383612265565b505050565b600080600080600080600060118881548110610b6d577f4e487b7100000000000000000000000000000000000000000000000000000000600052603260045260246000fd5b90600052602060002090600502016003015460118981548110610bb9577f4e487b7100000000000000000000000000000000000000000000000000000000600052603260045260246000fd5b90600052602060002090600502016004015460118a81548110610c05577f4e487b7100000000000000000000000000000000000000000000000000000000600052603260045260246000fd5b90600052602060002090600502016000015460118b81548110610c51577f4e487b7100000000000000000000000000000000000000000000000000000000600052603260045260246000fd5b90600052602060002090600502016001015460118c81548110610c9d577f4e487b7100000000000000000000000000000000000000000000000000000000600052603260045260246000fd5b906000526020600020906005020160020154610cb88d610e4d565b610cc18e610766565b9650965096509650965096509650919395979092949650565b6000610ce583610eff565b8210610d26576040517f08c379a0000000000000000000000000000000000000000000000000000000008152600401610d1d90614759565b60405180910390fd5b600660008473ffffffffffffffffffffffffffffffffffffffff1673ffffffffffffffffffffffffffffffffffffffff168152602001908152602001600020600083815260200190815260200160002054905092915050565b610d9a83838360405180602001604052806000815250611331565b505050565b6000610da9610909565b8210610dea576040517f08c379a0000000000000000000000000000000000000000000000000000000008152600401610de190614a19565b60405180910390fd5b60088281548110610e24577f4e487b7100000000000000000000000000000000000000000000000000000000600052603260045260246000fd5b90600052602060002001549050919050565b6000600c60009054906101000a900460ff16905090565b6000806002600084815260200190815260200160002060009054906101000a900473ffffffffffffffffffffffffffffffffffffffff169050600073ffffffffffffffffffffffffffffffffffffffff168173ffffffffffffffffffffffffffffffffffffffff161415610ef6576040517f08c379a0000000000000000000000000000000000000000000000000000000008152600401610eed906148b9565b60405180910390fd5b80915050919050565b60008073ffffffffffffffffffffffffffffffffffffffff168273ffffffffffffffffffffffffffffffffffffffff161415610f70576040517f08c379a0000000000000000000000000000000000000000000000000000000008152600401610f6790614899565b60405180910390fd5b600360008373ffffffffffffffffffffffffffffffffffffffff1673ffffffffffffffffffffffffffffffffffffffff168152602001908152602001600020549050919050565b610fbf612027565b73ffffffffffffffffffffffffffffffffffffffff16610fdd6110f4565b73ffffffffffffffffffffffffffffffffffffffff1614611033576040517f08c379a000000000000000000000000000000000000000000000000000000000815260040161102a90614959565b60405180910390fd5b600073ffffffffffffffffffffffffffffffffffffffff16600a60009054906101000a900473ffffffffffffffffffffffffffffffffffffffff1673ffffffffffffffffffffffffffffffffffffffff167f8be0079c531659141344cd1fd0a4f28419497f9722a3daafe3b4186f6b6457e060405160405180910390a36000600a60006101000a81548173ffffffffffffffffffffffffffffffffffffffff021916908373ffffffffffffffffffffffffffffffffffffffff160217905550565b6000600a60009054906101000a900473ffffffffffffffffffffffffffffffffffffffff16905090565b60606001805461112d90614e8d565b80601f016020809104026020016040519081016040528092919081815260200182805461115990614e8d565b80156111a65780601f1061117b576101008083540402835291602001916111a6565b820191906000526020600020905b81548152906001019060200180831161118957829003601f168201915b5050505050905090565b6111b8612027565b73ffffffffffffffffffffffffffffffffffffffff168273ffffffffffffffffffffffffffffffffffffffff161415611226576040517f08c379a000000000000000000000000000000000000000000000000000000000815260040161121d906147f9565b60405180910390fd5b8060056000611233612027565b73ffffffffffffffffffffffffffffffffffffffff1673ffffffffffffffffffffffffffffffffffffffff16815260200190815260200160002060008473ffffffffffffffffffffffffffffffffffffffff1673ffffffffffffffffffffffffffffffffffffffff16815260200190815260200160002060006101000a81548160ff0219169083151502179055508173ffffffffffffffffffffffffffffffffffffffff166112e0612027565b73ffffffffffffffffffffffffffffffffffffffff167f17307eab39ab6107e8899845ad3d59bd9653f200f220920489ca2b5937696c318360405161132591906146ae565b60405180910390a35050565b61134261133c612027565b83612187565b611381576040517f08c379a0000000000000000000000000000000000000000000000000000000008152600401611378906149f9565b60405180910390fd5b61138d848484846124c1565b50505050565b6002600b5414156113d9576040517f08c379a00000000000000000000000000000000000000000000000000000000081526004016113d090614a59565b60405180910390fd5b6002600b819055506113e9610e36565b15611429576040517f08c379a000000000000000000000000000000000000000000000000000000000815260040161142090614839565b60405180910390fd5b600073ffffffffffffffffffffffffffffffffffffffff168273ffffffffffffffffffffffffffffffffffffffff161415611499576040517f08c379a0000000000000000000000000000000000000000000000000000000008152600401611490906148d9565b60405180910390fd5b3073ffffffffffffffffffffffffffffffffffffffff168273ffffffffffffffffffffffffffffffffffffffff161415611508576040517f08c379a00000000000000000000000000000000000000000000000000000000081526004016114ff906149d9565b60405180910390fd5b6001151561151d611517612027565b83612187565b15151461155f576040517f08c379a000000000000000000000000000000000000000000000000000000000815260040161155690614a39565b60405180910390fd5b61156a838383610d7f565b6001600b81905550505050565b606061158282611fbb565b6115c1576040517f08c379a00000000000000000000000000000000000000000000000000000000081526004016115b890614999565b60405180910390fd5b60006115cb61251d565b905060008151116115eb5760405180602001604052806000815250611616565b806115f584612534565b604051602001611606929190614571565b6040516020818303038152906040525b915050919050565b60005b600d80549050811015611775578173ffffffffffffffffffffffffffffffffffffffff16600d828154811061167f577f4e487b7100000000000000000000000000000000000000000000000000000000600052603260045260246000fd5b9060005260206000200160009054906101000a900473ffffffffffffffffffffffffffffffffffffffff1673ffffffffffffffffffffffffffffffffffffffff16141561170a576117056040518060400160405280600c81526020017f6163636f756e74735b25735d0000000000000000000000000000000000000000815250826126e1565b611762565b600073ffffffffffffffffffffffffffffffffffffffff168273ffffffffffffffffffffffffffffffffffffffff161415611761576117606040518060800160405280604d8152602001615095604d913961277d565b5b5b808061176d90614ebf565b915050611621565b5050565b6000611783610e36565b156117c3576040517f08c379a00000000000000000000000000000000000000000000000000000000081526004016117ba90614839565b60405180910390fd5b6117cb612027565b73ffffffffffffffffffffffffffffffffffffffff166117ea84610e4d565b73ffffffffffffffffffffffffffffffffffffffff161480156118475750611810612027565b73ffffffffffffffffffffffffffffffffffffffff1661182f83610e4d565b73ffffffffffffffffffffffffffffffffffffffff16145b611886576040517f08c379a000000000000000000000000000000000000000000000000000000000815260040161187d90614919565b60405180910390fd5b6000601184815481106118c2577f4e487b7100000000000000000000000000000000000000000000000000000000600052603260045260246000fd5b9060005260206000209060050201600301549050600060118481548110611912577f4e487b7100000000000000000000000000000000000000000000000000000000600052603260045260246000fd5b906000526020600020906005020160030154905060006119328383612816565b905060006119408787612abe565b9050600061195888888486611953612027565b612c59565b90507f8e3541d6cb6a06d3a1785ca3c18fa6ca7b39a6278433734c442e2ebfe623e2ea81601183815481106119b6577f4e487b7100000000000000000000000000000000000000000000000000000000600052603260045260246000fd5b90600052602060002090600502016003015460118481548110611a02577f4e487b7100000000000000000000000000000000000000000000000000000000600052603260045260246000fd5b90600052602060002090600502016004015460118581548110611a4e577f4e487b7100000000000000000000000000000000000000000000000000000000600052603260045260246000fd5b90600052602060002090600502016000015460118681548110611a9a577f4e487b7100000000000000000000000000000000000000000000000000000000600052603260045260246000fd5b90600052602060002090600502016001015460118781548110611ae6577f4e487b7100000000000000000000000000000000000000000000000000000000600052603260045260246000fd5b906000526020600020906005020160020154611b00612027565b604051611b139796959493929190614b76565b60405180910390a1809550505050505092915050565b6000600e60009054906101000a900473ffffffffffffffffffffffffffffffffffffffff16905090565b600080611b6560638060638787612c59565b90508091505092915050565b6000600560008473ffffffffffffffffffffffffffffffffffffffff1673ffffffffffffffffffffffffffffffffffffffff16815260200190815260200160002060008373ffffffffffffffffffffffffffffffffffffffff1673ffffffffffffffffffffffffffffffffffffffff16815260200190815260200160002060009054906101000a900460ff16905092915050565b611c0d612027565b73ffffffffffffffffffffffffffffffffffffffff16611c2b6110f4565b73ffffffffffffffffffffffffffffffffffffffff1614611c81576040517f08c379a0000000000000000000000000000000000000000000000000000000008152600401611c7890614959565b60405180910390fd5b600f5460105410611cc7576040517f08c379a0000000000000000000000000000000000000000000000000000000008152600401611cbe90614a79565b60405180910390fd5b60106000815480929190611cda90614ebf565b9190505550611cf5600080600084611cf0612027565b612c59565b5050565b611d01612027565b73ffffffffffffffffffffffffffffffffffffffff16611d1f6110f4565b73ffffffffffffffffffffffffffffffffffffffff1614611d75576040517f08c379a0000000000000000000000000000000000000000000000000000000008152600401611d6c90614959565b60405180910390fd5b600073ffffffffffffffffffffffffffffffffffffffff168173ffffffffffffffffffffffffffffffffffffffff161415611de5576040517f08c379a0000000000000000000000000000000000000000000000000000000008152600401611ddc90614799565b60405180910390fd5b8073ffffffffffffffffffffffffffffffffffffffff16600a60009054906101000a900473ffffffffffffffffffffffffffffffffffffffff1673ffffffffffffffffffffffffffffffffffffffff167f8be0079c531659141344cd1fd0a4f28419497f9722a3daafe3b4186f6b6457e060405160405180910390a380600a60006101000a81548173ffffffffffffffffffffffffffffffffffffffff021916908373ffffffffffffffffffffffffffffffffffffffff16021790555050565b600f5481565b60008183611eb99190614da3565b905092915050565b505050565b600080823b905060008111915050919050565b60007f80ac58cd000000000000000000000000000000000000000000000000000000007bffffffffffffffffffffffffffffffffffffffffffffffffffffffff1916827bffffffffffffffffffffffffffffffffffffffffffffffffffffffff19161480611fa457507f5b5e139f000000000000000000000000000000000000000000000000000000007bffffffffffffffffffffffffffffffffffffffffffffffffffffffff1916827bffffffffffffffffffffffffffffffffffffffffffffffffffffffff1916145b80611fb45750611fb382612da2565b5b9050919050565b60008073ffffffffffffffffffffffffffffffffffffffff166002600084815260200190815260200160002060009054906101000a900473ffffffffffffffffffffffffffffffffffffffff1673ffffffffffffffffffffffffffffffffffffffff1614159050919050565b600033905090565b816004600083815260200190815260200160002060006101000a81548173ffffffffffffffffffffffffffffffffffffffff021916908373ffffffffffffffffffffffffffffffffffffffff160217905550808273ffffffffffffffffffffffffffffffffffffffff166120a283610e4d565b73ffffffffffffffffffffffffffffffffffffffff167f8c5be1e5ebec7d5bd14f71427d1e84f3dd0314c0f7b2291e5b200ac8c7c3b92560405160405180910390a45050565b6121828383836040516024016121009392919061471b565b6040516020818303038152906040527f969cdd03000000000000000000000000000000000000000000000000000000007bffffffffffffffffffffffffffffffffffffffffffffffffffffffff19166020820180517bffffffffffffffffffffffffffffffffffffffffffffffffffffffff8381831617835250505050612e0c565b505050565b600061219282611fbb565b6121d1576040517f08c379a00000000000000000000000000000000000000000000000000000000081526004016121c890614819565b60405180910390fd5b60006121dc83610e4d565b90508073ffffffffffffffffffffffffffffffffffffffff168473ffffffffffffffffffffffffffffffffffffffff16148061224b57508373ffffffffffffffffffffffffffffffffffffffff1661223384610766565b73ffffffffffffffffffffffffffffffffffffffff16145b8061225c575061225b8185611b71565b5b91505092915050565b8273ffffffffffffffffffffffffffffffffffffffff1661228582610e4d565b73ffffffffffffffffffffffffffffffffffffffff16146122db576040517f08c379a00000000000000000000000000000000000000000000000000000000081526004016122d290614979565b60405180910390fd5b600073ffffffffffffffffffffffffffffffffffffffff168273ffffffffffffffffffffffffffffffffffffffff16141561234b576040517f08c379a0000000000000000000000000000000000000000000000000000000008152600401612342906147d9565b60405180910390fd5b612356838383612e35565b61236160008261202f565b6001600360008573ffffffffffffffffffffffffffffffffffffffff1673ffffffffffffffffffffffffffffffffffffffff16815260200190815260200160002060008282546123b19190614da3565b925050819055506001600360008473ffffffffffffffffffffffffffffffffffffffff1673ffffffffffffffffffffffffffffffffffffffff16815260200190815260200160002060008282546124089190614cc2565b92505081905550816002600083815260200190815260200160002060006101000a81548173ffffffffffffffffffffffffffffffffffffffff021916908373ffffffffffffffffffffffffffffffffffffffff160217905550808273ffffffffffffffffffffffffffffffffffffffff168473ffffffffffffffffffffffffffffffffffffffff167fddf252ad1be2c89b69c2b068fc378daa952ba7f163c4a11628f55a4df523b3ef60405160405180910390a4505050565b6124cc848484612265565b6124d884848484612f49565b612517576040517f08c379a000000000000000000000000000000000000000000000000000000000815260040161250e90614779565b60405180910390fd5b50505050565b606060405180602001604052806000815250905090565b6060600082141561257c576040518060400160405280600181526020017f300000000000000000000000000000000000000000000000000000000000000081525090506126dc565b600082905060005b600082146125ae57808061259790614ebf565b915050600a826125a79190614d18565b9150612584565b60008167ffffffffffffffff8111156125f0577f4e487b7100000000000000000000000000000000000000000000000000000000600052604160045260246000fd5b6040519080825280601f01601f1916602001820160405280156126225781602001600182028036833780820191505090505b5090505b600085146126d55760018261263b9190614da3565b9150600a8561264a9190614f12565b60306126569190614cc2565b60f81b818381518110612692577f4e487b7100000000000000000000000000000000000000000000000000000000600052603260045260246000fd5b60200101907effffffffffffffffffffffffffffffffffffffffffffffffffffffffffffff1916908160001a905350600a856126ce9190614d18565b9450612626565b8093505050505b919050565b61277982826040516024016126f79291906146eb565b6040516020818303038152906040527f9710a9d0000000000000000000000000000000000000000000000000000000007bffffffffffffffffffffffffffffffffffffffffffffffffffffffff19166020820180517bffffffffffffffffffffffffffffffffffffffffffffffffffffffff8381831617835250505050612e0c565b5050565b6128138160405160240161279191906146c9565b6040516020818303038152906040527f41304fac000000000000000000000000000000000000000000000000000000007bffffffffffffffffffffffffffffffffffffffffffffffffffffffff19166020820180517bffffffffffffffffffffffffffffffffffffffffffffffffffffffff8381831617835250505050612e0c565b50565b60006128206136b3565b600061282a6130e0565b90506000600790506000600190505b60408111612940576000818460ff1616146128a55760648761285b9190614f12565b60ff16848360088110612897577f4e487b7100000000000000000000000000000000000000000000000000000000600052603260045260246000fd5b6020020181815250506128f8565b6064866128b29190614f12565b60ff168483600881106128ee577f4e487b7100000000000000000000000000000000000000000000000000000000600052603260045260246000fd5b6020020181815250505b6064876129059190614d18565b96506064866129149190614d18565b955061292a600183611eab90919063ffffffff16565b91506002816129399190614d49565b9050612839565b5060008260ff1661294f610909565b601160008154811061298a577f4e487b7100000000000000000000000000000000000000000000000000000000600052603260045260246000fd5b9060005260206000209060050201600301546040516020016129ae93929190614595565b6040516020818303038152906040528051906020012060001c9050600a6059826129d89190614f12565b6129e29190614cc2565b90508084600060088110612a1f577f4e487b7100000000000000000000000000000000000000000000000000000000600052603260045260246000fd5b602002018181525050600080600090505b6008811015612aaf57858160088110612a72577f4e487b7100000000000000000000000000000000000000000000000000000000600052603260045260246000fd5b602002015182612a829190614cc2565b915060078114612a9c57606482612a999190614d49565b91505b8080612aa790614ebf565b915050612a30565b50809550505050505092915050565b60008060118481548110612afb577f4e487b7100000000000000000000000000000000000000000000000000000000600052603260045260246000fd5b9060005260206000209060050201600201549050600060118481548110612b4b577f4e487b7100000000000000000000000000000000000000000000000000000000600052603260045260246000fd5b90600052602060002090600502016002015490506103e882108015612b7157506103e881105b612bb0576040517f08c379a0000000000000000000000000000000000000000000000000000000008152600401612ba790614879565b60405180910390fd5b6000818314612c265760006002600a8486612bcb9190614cc2565b612bd59190614d49565b612bdf9190614d18565b90506000600a82612bf09190614f12565b1115612c0557600581612c039190614da3565b505b6002600a82612c149190614d18565b612c1e9190614cc2565b915050612c4d565b600160028385612c369190614cc2565b612c409190614d18565b612c4a9190614cc2565b90505b80935050505092915050565b6000612c63610e36565b15612ca3576040517f08c379a0000000000000000000000000000000000000000000000000000000008152600401612c9a90614839565b60405180910390fd5b60006040518060a001604052808881526020018781526020018681526020018581526020014281525090506011819080600181540180825580915050600190039060005260206000209060050201600090919091909150600082015181600001556020820151816001015560408201518160020155606082015181600301556080820151816004015550506000612d496001601180549050611eab90919063ffffffff16565b9050612d5584826130f4565b7f0b1e9a74eeaae184646d7a35062426460c8c9364005c6d441cce036dd9c655d584828a8a89604051612d8c959493929190614639565b60405180910390a1809250505095945050505050565b60007f01ffc9a7000000000000000000000000000000000000000000000000000000007bffffffffffffffffffffffffffffffffffffffffffffffffffffffff1916827bffffffffffffffffffffffffffffffffffffffffffffffffffffffff1916149050919050565b60008151905060006a636f6e736f6c652e6c6f679050602083016000808483855afa5050505050565b612e40838383611ec1565b600073ffffffffffffffffffffffffffffffffffffffff168373ffffffffffffffffffffffffffffffffffffffff161415612e8357612e7e81613112565b612ec2565b8173ffffffffffffffffffffffffffffffffffffffff168373ffffffffffffffffffffffffffffffffffffffff1614612ec157612ec0838261315b565b5b5b600073ffffffffffffffffffffffffffffffffffffffff168273ffffffffffffffffffffffffffffffffffffffff161415612f0557612f00816132c8565b612f44565b8273ffffffffffffffffffffffffffffffffffffffff168273ffffffffffffffffffffffffffffffffffffffff1614612f4357612f42828261340b565b5b5b505050565b6000612f6a8473ffffffffffffffffffffffffffffffffffffffff16611ec6565b156130d3578373ffffffffffffffffffffffffffffffffffffffff1663150b7a02612f93612027565b8786866040518563ffffffff1660e01b8152600401612fb594939291906145ed565b602060405180830381600087803b158015612fcf57600080fd5b505af192505050801561300057506040513d601f19601f82011682018060405250810190612ffd9190613977565b60015b613083573d8060008114613030576040519150601f19603f3d011682016040523d82523d6000602084013e613035565b606091505b5060008151141561307b576040517f08c379a000000000000000000000000000000000000000000000000000000000815260040161307290614779565b60405180910390fd5b805181602001fd5b63150b7a0260e01b7bffffffffffffffffffffffffffffffffffffffffffffffffffffffff1916817bffffffffffffffffffffffffffffffffffffffffffffffffffffffff1916149150506130d8565b600190505b949350505050565b600060ff426130ef9190614f12565b905090565b61310e82826040518060200160405280600081525061348a565b5050565b6008805490506009600083815260200190815260200160002081905550600881908060018154018082558091505060019003906000526020600020016000909190919091505550565b6000600161316884610eff565b6131729190614da3565b9050600060076000848152602001908152602001600020549050818114613257576000600660008673ffffffffffffffffffffffffffffffffffffffff1673ffffffffffffffffffffffffffffffffffffffff168152602001908152602001600020600084815260200190815260200160002054905080600660008773ffffffffffffffffffffffffffffffffffffffff1673ffffffffffffffffffffffffffffffffffffffff168152602001908152602001600020600084815260200190815260200160002081905550816007600083815260200190815260200160002081905550505b6007600084815260200190815260200160002060009055600660008573ffffffffffffffffffffffffffffffffffffffff1673ffffffffffffffffffffffffffffffffffffffff16815260200190815260200160002060008381526020019081526020016000206000905550505050565b600060016008805490506132dc9190614da3565b9050600060096000848152602001908152602001600020549050600060088381548110613332577f4e487b7100000000000000000000000000000000000000000000000000000000600052603260045260246000fd5b90600052602060002001549050806008838154811061337a577f4e487b7100000000000000000000000000000000000000000000000000000000600052603260045260246000fd5b9060005260206000200181905550816009600083815260200190815260200160002081905550600960008581526020019081526020016000206000905560088054806133ef577f4e487b7100000000000000000000000000000000000000000000000000000000600052603160045260246000fd5b6001900381819060005260206000200160009055905550505050565b600061341683610eff565b905081600660008573ffffffffffffffffffffffffffffffffffffffff1673ffffffffffffffffffffffffffffffffffffffff168152602001908152602001600020600083815260200190815260200160002081905550806007600084815260200190815260200160002081905550505050565b61349483836134e5565b6134a16000848484612f49565b6134e0576040517f08c379a00000000000000000000000000000000000000000000000000000000081526004016134d790614779565b60405180910390fd5b505050565b600073ffffffffffffffffffffffffffffffffffffffff168273ffffffffffffffffffffffffffffffffffffffff161415613555576040517f08c379a000000000000000000000000000000000000000000000000000000000815260040161354c906148f9565b60405180910390fd5b61355e81611fbb565b1561359e576040517f08c379a0000000000000000000000000000000000000000000000000000000008152600401613595906147b9565b60405180910390fd5b6135aa60008383612e35565b6001600360008473ffffffffffffffffffffffffffffffffffffffff1673ffffffffffffffffffffffffffffffffffffffff16815260200190815260200160002060008282546135fa9190614cc2565b92505081905550816002600083815260200190815260200160002060006101000a81548173ffffffffffffffffffffffffffffffffffffffff021916908373ffffffffffffffffffffffffffffffffffffffff160217905550808273ffffffffffffffffffffffffffffffffffffffff16600073ffffffffffffffffffffffffffffffffffffffff167fddf252ad1be2c89b69c2b068fc378daa952ba7f163c4a11628f55a4df523b3ef60405160405180910390a45050565b604051806101000160405280600890602082028036833780820191505090505090565b60006136e96136e484614c16565b614be5565b90508281526020810184848401111561370157600080fd5b61370c848285614e4b565b509392505050565b60008135905061372381615010565b92915050565b60008135905061373881615027565b92915050565b60008135905061374d8161503e565b92915050565b6000815190506137628161503e565b92915050565b600082601f83011261377957600080fd5b81356137898482602086016136d6565b91505092915050565b6000813590506137a181615055565b92915050565b6000602082840312156137b957600080fd5b60006137c784828501613714565b91505092915050565b600080604083850312156137e357600080fd5b60006137f185828601613714565b925050602061380285828601613714565b9150509250929050565b60008060006060848603121561382157600080fd5b600061382f86828701613714565b935050602061384086828701613714565b925050604061385186828701613792565b9150509250925092565b6000806000806080858703121561387157600080fd5b600061387f87828801613714565b945050602061389087828801613714565b93505060406138a187828801613792565b925050606085013567ffffffffffffffff8111156138be57600080fd5b6138ca87828801613768565b91505092959194509250565b600080604083850312156138e957600080fd5b60006138f785828601613714565b925050602061390885828601613729565b9150509250929050565b6000806040838503121561392557600080fd5b600061393385828601613714565b925050602061394485828601613792565b9150509250929050565b60006020828403121561396057600080fd5b600061396e8482850161373e565b91505092915050565b60006020828403121561398957600080fd5b600061399784828501613753565b91505092915050565b6000602082840312156139b257600080fd5b60006139c084828501613792565b91505092915050565b600080604083850312156139dc57600080fd5b60006139ea85828601613792565b92505060206139fb85828601613714565b9150509250929050565b60008060408385031215613a1857600080fd5b6000613a2685828601613792565b9250506020613a3785828601613792565b9150509250929050565b6000613a4d838361453c565b60208301905092915050565b613a6281614dd7565b82525050565b6000613a7382614c56565b613a7d8185614c84565b9350613a8883614c46565b8060005b83811015613ab9578151613aa08882613a41565b9750613aab83614c77565b925050600181019050613a8c565b5085935050505092915050565b613acf81614de9565b82525050565b6000613ae082614c61565b613aea8185614c95565b9350613afa818560208601614e5a565b613b0381614fff565b840191505092915050565b6000613b1982614c6c565b613b238185614ca6565b9350613b33818560208601614e5a565b613b3c81614fff565b840191505092915050565b6000613b5282614c6c565b613b5c8185614cb7565b9350613b6c818560208601614e5a565b80840191505092915050565b6000613b85602b83614ca6565b91507f455243373231456e756d657261626c653a206f776e657220696e646578206f7560008301527f74206f6620626f756e64730000000000000000000000000000000000000000006020830152604082019050919050565b6000613beb603283614ca6565b91507f4552433732313a207472616e7366657220746f206e6f6e20455243373231526560008301527f63656976657220696d706c656d656e74657200000000000000000000000000006020830152604082019050919050565b6000613c51602683614ca6565b91507f4f776e61626c653a206e6577206f776e657220697320746865207a65726f206160008301527f64647265737300000000000000000000000000000000000000000000000000006020830152604082019050919050565b6000613cb7601c83614ca6565b91507f4552433732313a20746f6b656e20616c7265616479206d696e746564000000006000830152602082019050919050565b6000613cf7602483614ca6565b91507f4552433732313a207472616e7366657220746f20746865207a65726f2061646460008301527f72657373000000000000000000000000000000000000000000000000000000006020830152604082019050919050565b6000613d5d601983614ca6565b91507f4552433732313a20617070726f766520746f2063616c6c6572000000000000006000830152602082019050919050565b6000613d9d602c83614ca6565b91507f4552433732313a206f70657261746f7220717565727920666f72206e6f6e657860008301527f697374656e7420746f6b656e00000000000000000000000000000000000000006020830152604082019050919050565b6000613e03601083614ca6565b91507f5061757361626c653a20706175736564000000000000000000000000000000006000830152602082019050919050565b6000613e43603883614ca6565b91507f4552433732313a20617070726f76652063616c6c6572206973206e6f74206f7760008301527f6e6572206e6f7220617070726f76656420666f7220616c6c00000000000000006020830152604082019050919050565b6000613ea9602183614ca6565b91507f506172656e74732063616e6e6f742062726565642061626f76652067656e393960008301527f39000000000000000000000000000000000000000000000000000000000000006020830152604082019050919050565b6000613f0f602a83614ca6565b91507f4552433732313a2062616c616e636520717565727920666f7220746865207a6560008301527f726f2061646472657373000000000000000000000000000000000000000000006020830152604082019050919050565b6000613f75602983614ca6565b91507f4552433732313a206f776e657220717565727920666f72206e6f6e657869737460008301527f656e7420746f6b656e00000000000000000000000000000000000000000000006020830152604082019050919050565b6000613fdb604a83614ca6565b91507f4d6f6e6b6579436f6e74726163743a207472616e7366657220746f207468652060008301527f7a65726f2061646472657373206e6f7420616c6c6f7765642c206275726e204e60208301527f465420696e7374656164000000000000000000000000000000000000000000006040830152606082019050919050565b6000614067602083614ca6565b91507f4552433732313a206d696e7420746f20746865207a65726f20616464726573736000830152602082019050919050565b60006140a7602383614ca6565b91507f6d757374206265206f776e6572206f6620626f746820706172656e7420746f6b60008301527f656e7300000000000000000000000000000000000000000000000000000000006020830152604082019050919050565b600061410d602c83614ca6565b91507f4552433732313a20617070726f76656420717565727920666f72206e6f6e657860008301527f697374656e7420746f6b656e00000000000000000000000000000000000000006020830152604082019050919050565b6000614173602083614ca6565b91507f4f776e61626c653a2063616c6c6572206973206e6f7420746865206f776e65726000830152602082019050919050565b60006141b3602983614ca6565b91507f4552433732313a207472616e73666572206f6620746f6b656e2074686174206960008301527f73206e6f74206f776e00000000000000000000000000000000000000000000006020830152604082019050919050565b6000614219602f83614ca6565b91507f4552433732314d657461646174613a2055524920717565727920666f72206e6f60008301527f6e6578697374656e7420746f6b656e00000000000000000000000000000000006020830152604082019050919050565b600061427f602183614ca6565b91507f4552433732313a20617070726f76616c20746f2063757272656e74206f776e6560008301527f72000000000000000000000000000000000000000000000000000000000000006020830152604082019050919050565b60006142e5603483614ca6565b91507f4d6f6e6b6579436f6e74726163743a2043616e2774207472616e73666572204e60008301527f46547320746f207468697320636f6e74726163740000000000000000000000006020830152604082019050919050565b600061434b603183614ca6565b91507f4552433732313a207472616e736665722063616c6c6572206973206e6f74206f60008301527f776e6572206e6f7220617070726f7665640000000000000000000000000000006020830152604082019050919050565b60006143b1602c83614ca6565b91507f455243373231456e756d657261626c653a20676c6f62616c20696e646578206f60008301527f7574206f6620626f756e647300000000000000000000000000000000000000006020830152604082019050919050565b6000614417605183614ca6565b91507f4d6f6e6b6579436f6e74726163743a2043616e2774207472616e73666572207460008301527f686973204e465420776974686f7574206265696e67206f776e65722c2061707060208301527f726f766564206f72206f70657261746f720000000000000000000000000000006040830152606082019050919050565b60006144a3601f83614ca6565b91507f5265656e7472616e637947756172643a207265656e7472616e742063616c6c006000830152602082019050919050565b60006144e3602783614ca6565b91507f4d6178696d756d20616d6f756e74206f662067656e2030206d6f6e6b6579732060008301527f72656163686564000000000000000000000000000000000000000000000000006020830152604082019050919050565b61454581614e41565b82525050565b61455481614e41565b82525050565b61456b61456682614e41565b614f08565b82525050565b600061457d8285613b47565b91506145898284613b47565b91508190509392505050565b60006145a1828661455a565b6020820191506145b1828561455a565b6020820191506145c1828461455a565b602082019150819050949350505050565b60006020820190506145e76000830184613a59565b92915050565b60006080820190506146026000830187613a59565b61460f6020830186613a59565b61461c604083018561454b565b818103606083015261462e8184613ad5565b905095945050505050565b600060a08201905061464e6000830188613a59565b61465b602083018761454b565b614668604083018661454b565b614675606083018561454b565b614682608083018461454b565b9695505050505050565b600060208201905081810360008301526146a68184613a68565b905092915050565b60006020820190506146c36000830184613ac6565b92915050565b600060208201905081810360008301526146e38184613b0e565b905092915050565b600060408201905081810360008301526147058185613b0e565b9050614714602083018461454b565b9392505050565b600060608201905081810360008301526147358186613b0e565b9050614744602083018561454b565b614751604083018461454b565b949350505050565b6000602082019050818103600083015261477281613b78565b9050919050565b6000602082019050818103600083015261479281613bde565b9050919050565b600060208201905081810360008301526147b281613c44565b9050919050565b600060208201905081810360008301526147d281613caa565b9050919050565b600060208201905081810360008301526147f281613cea565b9050919050565b6000602082019050818103600083015261481281613d50565b9050919050565b6000602082019050818103600083015261483281613d90565b9050919050565b6000602082019050818103600083015261485281613df6565b9050919050565b6000602082019050818103600083015261487281613e36565b9050919050565b6000602082019050818103600083015261489281613e9c565b9050919050565b600060208201905081810360008301526148b281613f02565b9050919050565b600060208201905081810360008301526148d281613f68565b9050919050565b600060208201905081810360008301526148f281613fce565b9050919050565b600060208201905081810360008301526149128161405a565b9050919050565b600060208201905081810360008301526149328161409a565b9050919050565b6000602082019050818103600083015261495281614100565b9050919050565b6000602082019050818103600083015261497281614166565b9050919050565b60006020820190508181036000830152614992816141a6565b9050919050565b600060208201905081810360008301526149b28161420c565b9050919050565b600060208201905081810360008301526149d281614272565b9050919050565b600060208201905081810360008301526149f2816142d8565b9050919050565b60006020820190508181036000830152614a128161433e565b9050919050565b60006020820190508181036000830152614a32816143a4565b9050919050565b60006020820190508181036000830152614a528161440a565b9050919050565b60006020820190508181036000830152614a7281614496565b9050919050565b60006020820190508181036000830152614a92816144d6565b9050919050565b6000602082019050614aae600083018461454b565b92915050565b600060a082019050614ac9600083018861454b565b614ad6602083018761454b565b614ae3604083018661454b565b614af0606083018561454b565b614afd608083018461454b565b9695505050505050565b600060e082019050614b1c600083018a61454b565b614b29602083018961454b565b614b36604083018861454b565b614b43606083018761454b565b614b50608083018661454b565b614b5d60a0830185613a59565b614b6a60c0830184613a59565b98975050505050505050565b600060e082019050614b8b600083018a61454b565b614b98602083018961454b565b614ba5604083018861454b565b614bb2606083018761454b565b614bbf608083018661454b565b614bcc60a083018561454b565b614bd960c0830184613a59565b98975050505050505050565b6000604051905081810181811067ffffffffffffffff82111715614c0c57614c0b614fd0565b5b8060405250919050565b600067ffffffffffffffff821115614c3157614c30614fd0565b5b601f19601f8301169050602081019050919050565b6000819050602082019050919050565b600081519050919050565b600081519050919050565b600081519050919050565b6000602082019050919050565b600082825260208201905092915050565b600082825260208201905092915050565b600082825260208201905092915050565b600081905092915050565b6000614ccd82614e41565b9150614cd883614e41565b9250827fffffffffffffffffffffffffffffffffffffffffffffffffffffffffffffffff03821115614d0d57614d0c614f43565b5b828201905092915050565b6000614d2382614e41565b9150614d2e83614e41565b925082614d3e57614d3d614f72565b5b828204905092915050565b6000614d5482614e41565b9150614d5f83614e41565b9250817fffffffffffffffffffffffffffffffffffffffffffffffffffffffffffffffff0483118215151615614d9857614d97614f43565b5b828202905092915050565b6000614dae82614e41565b9150614db983614e41565b925082821015614dcc57614dcb614f43565b5b828203905092915050565b6000614de282614e21565b9050919050565b60008115159050919050565b60007fffffffff0000000000000000000000000000000000000000000000000000000082169050919050565b600073ffffffffffffffffffffffffffffffffffffffff82169050919050565b6000819050919050565b82818337600083830152505050565b60005b83811015614e78578082015181840152602081019050614e5d565b83811115614e87576000848401525b50505050565b60006002820490506001821680614ea557607f821691505b60208210811415614eb957614eb8614fa1565b5b50919050565b6000614eca82614e41565b91507fffffffffffffffffffffffffffffffffffffffffffffffffffffffffffffffff821415614efd57614efc614f43565b5b600182019050919050565b6000819050919050565b6000614f1d82614e41565b9150614f2883614e41565b925082614f3857614f37614f72565b5b828206905092915050565b7f4e487b7100000000000000000000000000000000000000000000000000000000600052601160045260246000fd5b7f4e487b7100000000000000000000000000000000000000000000000000000000600052601260045260246000fd5b7f4e487b7100000000000000000000000000000000000000000000000000000000600052602260045260246000fd5b7f4e487b7100000000000000000000000000000000000000000000000000000000600052604160045260246000fd5b6000601f19601f8301169050919050565b61501981614dd7565b811461502457600080fd5b50565b61503081614de9565b811461503b57600080fd5b50565b61504781614df5565b811461505257600080fd5b50565b61505e81614e41565b811461506957600080fd5b5056fe696e6465783a2025732c206f776e6564546f6b656e49447320617272617920656e7472793a2025735a65726f20616464726573733a20307830303030303030303030303030303030303030303030303030303030303030303030303030303030203d3e20692e652e20697420776173206275726e74a2646970667358221220b0e9a1182d8b9e95bc50c8439086d8f4f372d67679772b60b060b0ba096c074964736f6c63430008000033",
  "linkReferences": {},
  "deployedLinkReferences": {}
}