{
  "_format": "hh-sol-artifact-1",
  "contractName": "MonkeyContract",
  "sourceName": "contracts/MonkeyContract.sol",
  "abi": [
    {
      "inputs": [
        {
          "internalType": "address[]",
          "name": "_addressesArray",
          "type": "address[]"
        }
      ],
      "stateMutability": "nonpayable",
      "type": "constructor"
    },
    {
      "anonymous": false,
      "inputs": [
        {
          "indexed": true,
          "internalType": "address",
          "name": "owner",
          "type": "address"
        },
        {
          "indexed": true,
          "internalType": "address",
          "name": "approved",
          "type": "address"
        },
        {
          "indexed": true,
          "internalType": "uint256",
          "name": "tokenId",
          "type": "uint256"
        }
      ],
      "name": "Approval",
      "type": "event"
    },
    {
      "anonymous": false,
      "inputs": [
        {
          "indexed": true,
          "internalType": "address",
          "name": "owner",
          "type": "address"
        },
        {
          "indexed": true,
          "internalType": "address",
          "name": "operator",
          "type": "address"
        },
        {
          "indexed": false,
          "internalType": "bool",
          "name": "approved",
          "type": "bool"
        }
      ],
      "name": "ApprovalForAll",
      "type": "event"
    },
    {
      "anonymous": false,
      "inputs": [
        {
          "indexed": false,
          "internalType": "uint256",
          "name": "tokenId",
          "type": "uint256"
        },
        {
          "indexed": false,
          "internalType": "uint256",
          "name": "genes",
          "type": "uint256"
        },
        {
          "indexed": false,
          "internalType": "uint256",
          "name": "birthtime",
          "type": "uint256"
        },
        {
          "indexed": false,
          "internalType": "uint256",
          "name": "parent1Id",
          "type": "uint256"
        },
        {
          "indexed": false,
          "internalType": "uint256",
          "name": "parent2Id",
          "type": "uint256"
        },
        {
          "indexed": false,
          "internalType": "uint256",
          "name": "generation",
          "type": "uint256"
        },
        {
          "indexed": false,
          "internalType": "address",
          "name": "owner",
          "type": "address"
        }
      ],
      "name": "BreedingSuccessful",
      "type": "event"
    },
    {
      "anonymous": false,
      "inputs": [
        {
          "indexed": false,
          "internalType": "address",
          "name": "owner",
          "type": "address"
        },
        {
          "indexed": false,
          "internalType": "uint256",
          "name": "tokenId",
          "type": "uint256"
        },
        {
          "indexed": false,
          "internalType": "uint256",
          "name": "parent1Id",
          "type": "uint256"
        },
        {
          "indexed": false,
          "internalType": "uint256",
          "name": "parent2Id",
          "type": "uint256"
        },
        {
          "indexed": false,
          "internalType": "uint256",
          "name": "genes",
          "type": "uint256"
        }
      ],
      "name": "MonkeyCreated",
      "type": "event"
    },
    {
      "anonymous": false,
      "inputs": [
        {
          "indexed": true,
          "internalType": "address",
          "name": "previousOwner",
          "type": "address"
        },
        {
          "indexed": true,
          "internalType": "address",
          "name": "newOwner",
          "type": "address"
        }
      ],
      "name": "OwnershipTransferred",
      "type": "event"
    },
    {
      "anonymous": false,
      "inputs": [
        {
          "indexed": false,
          "internalType": "address",
          "name": "account",
          "type": "address"
        }
      ],
      "name": "Paused",
      "type": "event"
    },
    {
      "anonymous": false,
      "inputs": [
        {
          "indexed": true,
          "internalType": "address",
          "name": "from",
          "type": "address"
        },
        {
          "indexed": true,
          "internalType": "address",
          "name": "to",
          "type": "address"
        },
        {
          "indexed": true,
          "internalType": "uint256",
          "name": "tokenId",
          "type": "uint256"
        }
      ],
      "name": "Transfer",
      "type": "event"
    },
    {
      "anonymous": false,
      "inputs": [
        {
          "indexed": false,
          "internalType": "address",
          "name": "account",
          "type": "address"
        }
      ],
      "name": "Unpaused",
      "type": "event"
    },
    {
      "inputs": [],
      "name": "GEN0_Limit",
      "outputs": [
        {
          "internalType": "uint256",
          "name": "",
          "type": "uint256"
        }
      ],
      "stateMutability": "view",
      "type": "function"
    },
    {
      "inputs": [
        {
          "internalType": "uint256",
          "name": "",
          "type": "uint256"
        }
      ],
      "name": "allMonkeysArray",
      "outputs": [
        {
          "internalType": "uint256",
          "name": "parent1Id",
          "type": "uint256"
        },
        {
          "internalType": "uint256",
          "name": "parent2Id",
          "type": "uint256"
        },
        {
          "internalType": "uint256",
          "name": "generation",
          "type": "uint256"
        },
        {
          "internalType": "uint256",
          "name": "genes",
          "type": "uint256"
        },
        {
          "internalType": "uint256",
          "name": "birthtime",
          "type": "uint256"
        }
      ],
      "stateMutability": "view",
      "type": "function"
    },
    {
      "inputs": [
        {
          "internalType": "address",
          "name": "to",
          "type": "address"
        },
        {
          "internalType": "uint256",
          "name": "tokenId",
          "type": "uint256"
        }
      ],
      "name": "approve",
      "outputs": [],
      "stateMutability": "nonpayable",
      "type": "function"
    },
    {
      "inputs": [
        {
          "internalType": "address",
          "name": "owner",
          "type": "address"
        }
      ],
      "name": "balanceOf",
      "outputs": [
        {
          "internalType": "uint256",
          "name": "",
          "type": "uint256"
        }
      ],
      "stateMutability": "view",
      "type": "function"
    },
    {
      "inputs": [
        {
          "internalType": "uint256",
          "name": "_parent1Id",
          "type": "uint256"
        },
        {
          "internalType": "uint256",
          "name": "_parent2Id",
          "type": "uint256"
        }
      ],
      "name": "breed",
      "outputs": [
        {
          "internalType": "uint256",
          "name": "",
          "type": "uint256"
        }
      ],
      "stateMutability": "nonpayable",
      "type": "function"
    },
    {
      "inputs": [
        {
          "internalType": "uint256",
          "name": "_genes",
          "type": "uint256"
        },
        {
          "internalType": "address",
          "name": "_owner",
          "type": "address"
        }
      ],
      "name": "createDemoMonkey",
      "outputs": [
        {
          "internalType": "uint256",
          "name": "",
          "type": "uint256"
        }
      ],
      "stateMutability": "nonpayable",
      "type": "function"
    },
    {
      "inputs": [
        {
          "internalType": "uint256",
          "name": "_genes",
          "type": "uint256"
        }
      ],
      "name": "createGen0Monkey",
      "outputs": [],
      "stateMutability": "nonpayable",
      "type": "function"
    },
    {
      "inputs": [
        {
          "internalType": "address",
          "name": "owner",
          "type": "address"
        }
      ],
      "name": "findMonkeyIdsOfAddress",
      "outputs": [
        {
          "internalType": "uint256[]",
          "name": "",
          "type": "uint256[]"
        }
      ],
      "stateMutability": "view",
      "type": "function"
    },
    {
      "inputs": [],
      "name": "gen0amountTotal",
      "outputs": [
        {
          "internalType": "uint256",
          "name": "",
          "type": "uint256"
        }
      ],
      "stateMutability": "view",
      "type": "function"
    },
    {
      "inputs": [
        {
          "internalType": "uint256",
          "name": "tokenId",
          "type": "uint256"
        }
      ],
      "name": "getApproved",
      "outputs": [
        {
          "internalType": "address",
          "name": "",
          "type": "address"
        }
      ],
      "stateMutability": "view",
      "type": "function"
    },
    {
      "inputs": [],
      "name": "getMonkeyContractAddress",
      "outputs": [
        {
          "internalType": "address",
          "name": "",
          "type": "address"
        }
      ],
      "stateMutability": "view",
      "type": "function"
    },
    {
      "inputs": [
        {
          "internalType": "uint256",
          "name": "tokenId",
          "type": "uint256"
        }
      ],
      "name": "getMonkeyDetails",
      "outputs": [
        {
          "internalType": "uint256",
          "name": "genes",
          "type": "uint256"
        },
        {
          "internalType": "uint256",
          "name": "birthtime",
          "type": "uint256"
        },
        {
          "internalType": "uint256",
          "name": "parent1Id",
          "type": "uint256"
        },
        {
          "internalType": "uint256",
          "name": "parent2Id",
          "type": "uint256"
        },
        {
          "internalType": "uint256",
          "name": "generation",
          "type": "uint256"
        },
        {
          "internalType": "address",
          "name": "owner",
          "type": "address"
        },
        {
          "internalType": "address",
          "name": "approvedAddress",
          "type": "address"
        }
      ],
      "stateMutability": "view",
      "type": "function"
    },
    {
      "inputs": [
        {
          "internalType": "address",
          "name": "owner",
          "type": "address"
        },
        {
          "internalType": "address",
          "name": "operator",
          "type": "address"
        }
      ],
      "name": "isApprovedForAll",
      "outputs": [
        {
          "internalType": "bool",
          "name": "",
          "type": "bool"
        }
      ],
      "stateMutability": "view",
      "type": "function"
    },
    {
      "inputs": [],
      "name": "name",
      "outputs": [
        {
          "internalType": "string",
          "name": "",
          "type": "string"
        }
      ],
      "stateMutability": "view",
      "type": "function"
    },
    {
      "inputs": [],
      "name": "owner",
      "outputs": [
        {
          "internalType": "address",
          "name": "",
          "type": "address"
        }
      ],
      "stateMutability": "view",
      "type": "function"
    },
    {
      "inputs": [
        {
          "internalType": "uint256",
          "name": "tokenId",
          "type": "uint256"
        }
      ],
      "name": "ownerOf",
      "outputs": [
        {
          "internalType": "address",
          "name": "",
          "type": "address"
        }
      ],
      "stateMutability": "view",
      "type": "function"
    },
    {
      "inputs": [],
      "name": "pause",
      "outputs": [],
      "stateMutability": "nonpayable",
      "type": "function"
    },
    {
      "inputs": [],
      "name": "paused",
      "outputs": [
        {
          "internalType": "bool",
          "name": "",
          "type": "bool"
        }
      ],
      "stateMutability": "view",
      "type": "function"
    },
    {
      "inputs": [],
      "name": "renounceOwnership",
      "outputs": [],
      "stateMutability": "nonpayable",
      "type": "function"
    },
    {
      "inputs": [
        {
          "internalType": "address",
          "name": "from",
          "type": "address"
        },
        {
          "internalType": "address",
          "name": "to",
          "type": "address"
        },
        {
          "internalType": "uint256",
          "name": "tokenId",
          "type": "uint256"
        }
      ],
      "name": "safeTransferFrom",
      "outputs": [],
      "stateMutability": "nonpayable",
      "type": "function"
    },
    {
      "inputs": [
        {
          "internalType": "address",
          "name": "from",
          "type": "address"
        },
        {
          "internalType": "address",
          "name": "to",
          "type": "address"
        },
        {
          "internalType": "uint256",
          "name": "tokenId",
          "type": "uint256"
        },
        {
          "internalType": "bytes",
          "name": "_data",
          "type": "bytes"
        }
      ],
      "name": "safeTransferFrom",
      "outputs": [],
      "stateMutability": "nonpayable",
      "type": "function"
    },
    {
      "inputs": [
        {
          "internalType": "address",
          "name": "operator",
          "type": "address"
        },
        {
          "internalType": "bool",
          "name": "approved",
          "type": "bool"
        }
      ],
      "name": "setApprovalForAll",
      "outputs": [],
      "stateMutability": "nonpayable",
      "type": "function"
    },
    {
      "inputs": [
        {
          "internalType": "address",
          "name": "addressToLookup",
          "type": "address"
        }
      ],
      "name": "showAccountForAddress",
      "outputs": [],
      "stateMutability": "view",
      "type": "function"
    },
    {
      "inputs": [
        {
          "internalType": "bytes4",
          "name": "interfaceId",
          "type": "bytes4"
        }
      ],
      "name": "supportsInterface",
      "outputs": [
        {
          "internalType": "bool",
          "name": "",
          "type": "bool"
        }
      ],
      "stateMutability": "view",
      "type": "function"
    },
    {
      "inputs": [],
      "name": "symbol",
      "outputs": [
        {
          "internalType": "string",
          "name": "",
          "type": "string"
        }
      ],
      "stateMutability": "view",
      "type": "function"
    },
    {
      "inputs": [
        {
          "internalType": "uint256",
          "name": "index",
          "type": "uint256"
        }
      ],
      "name": "tokenByIndex",
      "outputs": [
        {
          "internalType": "uint256",
          "name": "",
          "type": "uint256"
        }
      ],
      "stateMutability": "view",
      "type": "function"
    },
    {
      "inputs": [
        {
          "internalType": "address",
          "name": "owner",
          "type": "address"
        },
        {
          "internalType": "uint256",
          "name": "index",
          "type": "uint256"
        }
      ],
      "name": "tokenOfOwnerByIndex",
      "outputs": [
        {
          "internalType": "uint256",
          "name": "",
          "type": "uint256"
        }
      ],
      "stateMutability": "view",
      "type": "function"
    },
    {
      "inputs": [
        {
          "internalType": "uint256",
          "name": "tokenId",
          "type": "uint256"
        }
      ],
      "name": "tokenURI",
      "outputs": [
        {
          "internalType": "string",
          "name": "",
          "type": "string"
        }
      ],
      "stateMutability": "view",
      "type": "function"
    },
    {
      "inputs": [],
      "name": "totalSupply",
      "outputs": [
        {
          "internalType": "uint256",
          "name": "",
          "type": "uint256"
        }
      ],
      "stateMutability": "view",
      "type": "function"
    },
    {
      "inputs": [
        {
          "internalType": "address",
          "name": "from",
          "type": "address"
        },
        {
          "internalType": "address",
          "name": "to",
          "type": "address"
        },
        {
          "internalType": "uint256",
          "name": "tokenId",
          "type": "uint256"
        }
      ],
      "name": "transferFrom",
      "outputs": [],
      "stateMutability": "nonpayable",
      "type": "function"
    },
    {
      "inputs": [
        {
          "internalType": "address",
          "name": "_from",
          "type": "address"
        },
        {
          "internalType": "address",
          "name": "_to",
          "type": "address"
        },
        {
          "internalType": "uint256",
          "name": "_tokenId",
          "type": "uint256"
        }
      ],
      "name": "transferNFT",
      "outputs": [],
      "stateMutability": "nonpayable",
      "type": "function"
    },
    {
      "inputs": [
        {
          "internalType": "address",
          "name": "newOwner",
          "type": "address"
        }
      ],
      "name": "transferOwnership",
      "outputs": [],
      "stateMutability": "nonpayable",
      "type": "function"
    },
    {
      "inputs": [],
      "name": "unpause",
      "outputs": [],
      "stateMutability": "nonpayable",
      "type": "function"
    }
  ],
  "bytecode": "0x6080604052600c600f553480156200001657600080fd5b50604051620073013803806200730183398181016040528101906200003c919062001651565b6040518060400160405280600e81526020017f43727970746f204d6f6e6b6579730000000000000000000000000000000000008152506040518060400160405280600681526020017f4d4f4e4b455900000000000000000000000000000000000000000000000000008152508160009080519060200190620000c092919062001442565b508060019080519060200190620000d992919062001442565b5050506000620000ee6200025160201b60201c565b905080600a60006101000a81548173ffffffffffffffffffffffffffffffffffffffff021916908373ffffffffffffffffffffffffffffffffffffffff1602179055508073ffffffffffffffffffffffffffffffffffffffff16600073ffffffffffffffffffffffffffffffffffffffff167f8be0079c531659141344cd1fd0a4f28419497f9722a3daafe3b4186f6b6457e060405160405180910390a3506001600b819055506000600c60006101000a81548160ff02191690831515021790555080600d9080519060200190620001c8929190620014d3565b5030600e60006101000a81548173ffffffffffffffffffffffffffffffffffffffff021916908373ffffffffffffffffffffffffffffffffffffffff1602179055506200023760008060006604503ef19324976200022b6200025160201b60201c565b6200025960201b60201c565b506200024a6000620003be60201b60201c565b5062001f98565b600033905090565b60006200026b620004e860201b60201c565b15620002ae576040517f08c379a0000000000000000000000000000000000000000000000000000000008152600401620002a59062001bfc565b60405180910390fd5b60006040518060a0016040528088815260200187815260200186815260200185815260200142815250905060118190806001815401808255809150506001900390600052602060002090600502016000909190919091506000820151816000015560208201518160010155604082015181600201556060820151816003015560808201518160040155505060006200035b6001601180549050620004ff60201b6200204d1790919060201c565b90506200036f84826200051760201b60201c565b7f0b1e9a74eeaae184646d7a35062426460c8c9364005c6d441cce036dd9c655d584828a8a89604051620003a895949392919062001b17565b60405180910390a1809250505095945050505050565b6002600b54141562000407576040517f08c379a0000000000000000000000000000000000000000000000000000000008152600401620003fe9062001ca6565b60405180910390fd5b6002600b819055506200041f620004e860201b60201c565b1562000462576040517f08c379a0000000000000000000000000000000000000000000000000000000008152600401620004599062001bfc565b60405180910390fd5b60011515620004876200047a6200025160201b60201c565b836200053d60201b60201c565b151514620004cc576040517f08c379a0000000000000000000000000000000000000000000000000000000008152600401620004c39062001b74565b60405180910390fd5b620004dd816200064560201b60201c565b6001600b8190555050565b6000600c60009054906101000a900460ff16905090565b600081836200050f919062001db5565b905092915050565b620005398282604051806020016040528060008152506200077560201b60201c565b5050565b60006200055082620007e360201b60201c565b62000592576040517f08c379a0000000000000000000000000000000000000000000000000000000008152600401620005899062001bda565b60405180910390fd5b6000620005aa836200084f60201b62000f211760201c565b90508073ffffffffffffffffffffffffffffffffffffffff168473ffffffffffffffffffffffffffffffffffffffff1614806200062257508373ffffffffffffffffffffffffffffffffffffffff166200060a846200090460201b60201c565b73ffffffffffffffffffffffffffffffffffffffff16145b806200063c57506200063b81856200099460201b60201c565b5b91505092915050565b60006200065d826200084f60201b62000f211760201c565b9050620006738160008462000a2860201b60201c565b6200068660008362000b6f60201b60201c565b6001600360008373ffffffffffffffffffffffffffffffffffffffff1673ffffffffffffffffffffffffffffffffffffffff1681526020019081526020016000206000828254620006d8919062001db5565b925050819055506002600083815260200190815260200160002060006101000a81549073ffffffffffffffffffffffffffffffffffffffff021916905581600073ffffffffffffffffffffffffffffffffffffffff168273ffffffffffffffffffffffffffffffffffffffff167fddf252ad1be2c89b69c2b068fc378daa952ba7f163c4a11628f55a4df523b3ef60405160405180910390a45050565b62000787838362000c3560201b60201c565b6200079c600084848462000e1b60201b60201c565b620007de576040517f08c379a0000000000000000000000000000000000000000000000000000000008152600401620007d59062001b96565b60405180910390fd5b505050565b60008073ffffffffffffffffffffffffffffffffffffffff166002600084815260200190815260200160002060009054906101000a900473ffffffffffffffffffffffffffffffffffffffff1673ffffffffffffffffffffffffffffffffffffffff1614159050919050565b6000806002600084815260200190815260200160002060009054906101000a900473ffffffffffffffffffffffffffffffffffffffff169050600073ffffffffffffffffffffffffffffffffffffffff168173ffffffffffffffffffffffffffffffffffffffff161415620008fb576040517f08c379a0000000000000000000000000000000000000000000000000000000008152600401620008f29062001c40565b60405180910390fd5b80915050919050565b60006200091782620007e360201b60201c565b62000959576040517f08c379a0000000000000000000000000000000000000000000000000000000008152600401620009509062001c84565b60405180910390fd5b6004600083815260200190815260200160002060009054906101000a900473ffffffffffffffffffffffffffffffffffffffff169050919050565b6000600560008473ffffffffffffffffffffffffffffffffffffffff1673ffffffffffffffffffffffffffffffffffffffff16815260200190815260200160002060008373ffffffffffffffffffffffffffffffffffffffff1673ffffffffffffffffffffffffffffffffffffffff16815260200190815260200160002060009054906101000a900460ff16905092915050565b62000a4083838362000fd560201b620020631760201c565b600073ffffffffffffffffffffffffffffffffffffffff168373ffffffffffffffffffffffffffffffffffffffff16141562000a8d5762000a878162000fda60201b60201c565b62000ad5565b8173ffffffffffffffffffffffffffffffffffffffff168373ffffffffffffffffffffffffffffffffffffffff161462000ad45762000ad383826200102360201b60201c565b5b5b600073ffffffffffffffffffffffffffffffffffffffff168273ffffffffffffffffffffffffffffffffffffffff16141562000b225762000b1c81620011a060201b60201c565b62000b6a565b8273ffffffffffffffffffffffffffffffffffffffff168273ffffffffffffffffffffffffffffffffffffffff161462000b695762000b688282620012e860201b60201c565b5b5b505050565b816004600083815260200190815260200160002060006101000a81548173ffffffffffffffffffffffffffffffffffffffff021916908373ffffffffffffffffffffffffffffffffffffffff160217905550808273ffffffffffffffffffffffffffffffffffffffff1662000bef836200084f60201b62000f211760201c565b73ffffffffffffffffffffffffffffffffffffffff167f8c5be1e5ebec7d5bd14f71427d1e84f3dd0314c0f7b2291e5b200ac8c7c3b92560405160405180910390a45050565b600073ffffffffffffffffffffffffffffffffffffffff168273ffffffffffffffffffffffffffffffffffffffff16141562000ca8576040517f08c379a000000000000000000000000000000000000000000000000000000000815260040162000c9f9062001c62565b60405180910390fd5b62000cb981620007e360201b60201c565b1562000cfc576040517f08c379a000000000000000000000000000000000000000000000000000000000815260040162000cf39062001bb8565b60405180910390fd5b62000d106000838362000a2860201b60201c565b6001600360008473ffffffffffffffffffffffffffffffffffffffff1673ffffffffffffffffffffffffffffffffffffffff168152602001908152602001600020600082825462000d62919062001d58565b92505081905550816002600083815260200190815260200160002060006101000a81548173ffffffffffffffffffffffffffffffffffffffff021916908373ffffffffffffffffffffffffffffffffffffffff160217905550808273ffffffffffffffffffffffffffffffffffffffff16600073ffffffffffffffffffffffffffffffffffffffff167fddf252ad1be2c89b69c2b068fc378daa952ba7f163c4a11628f55a4df523b3ef60405160405180910390a45050565b600062000e498473ffffffffffffffffffffffffffffffffffffffff166200137460201b620020681760201c565b1562000fc8578373ffffffffffffffffffffffffffffffffffffffff1663150b7a0262000e7b6200025160201b60201c565b8786866040518563ffffffff1660e01b815260040162000e9f949392919062001ac3565b602060405180830381600087803b15801562000eba57600080fd5b505af192505050801562000eee57506040513d601f19601f8201168201806040525081019062000eeb919062001696565b60015b62000f77573d806000811462000f21576040519150601f19603f3d011682016040523d82523d6000602084013e62000f26565b606091505b5060008151141562000f6f576040517f08c379a000000000000000000000000000000000000000000000000000000000815260040162000f669062001b96565b60405180910390fd5b805181602001fd5b63150b7a0260e01b7bffffffffffffffffffffffffffffffffffffffffffffffffffffffff1916817bffffffffffffffffffffffffffffffffffffffffffffffffffffffff19161491505062000fcd565b600190505b949350505050565b505050565b6008805490506009600083815260200190815260200160002081905550600881908060018154018082558091505060019003906000526020600020016000909190919091505550565b600060016200103d846200138760201b620011b71760201c565b62001049919062001db5565b90506000600760008481526020019081526020016000205490508181146200112f576000600660008673ffffffffffffffffffffffffffffffffffffffff1673ffffffffffffffffffffffffffffffffffffffff168152602001908152602001600020600084815260200190815260200160002054905080600660008773ffffffffffffffffffffffffffffffffffffffff1673ffffffffffffffffffffffffffffffffffffffff168152602001908152602001600020600084815260200190815260200160002081905550816007600083815260200190815260200160002081905550505b6007600084815260200190815260200160002060009055600660008573ffffffffffffffffffffffffffffffffffffffff1673ffffffffffffffffffffffffffffffffffffffff16815260200190815260200160002060008381526020019081526020016000206000905550505050565b60006001600880549050620011b6919062001db5565b90506000600960008481526020019081526020016000205490506000600883815481106200120d577f4e487b7100000000000000000000000000000000000000000000000000000000600052603260045260246000fd5b90600052602060002001549050806008838154811062001256577f4e487b7100000000000000000000000000000000000000000000000000000000600052603260045260246000fd5b906000526020600020018190555081600960008381526020019081526020016000208190555060096000858152602001908152602001600020600090556008805480620012cc577f4e487b7100000000000000000000000000000000000000000000000000000000600052603160045260246000fd5b6001900381819060005260206000200160009055905550505050565b600062001300836200138760201b620011b71760201c565b905081600660008573ffffffffffffffffffffffffffffffffffffffff1673ffffffffffffffffffffffffffffffffffffffff168152602001908152602001600020600083815260200190815260200160002081905550806007600084815260200190815260200160002081905550505050565b600080823b905060008111915050919050565b60008073ffffffffffffffffffffffffffffffffffffffff168273ffffffffffffffffffffffffffffffffffffffff161415620013fb576040517f08c379a0000000000000000000000000000000000000000000000000000000008152600401620013f29062001c1e565b60405180910390fd5b600360008373ffffffffffffffffffffffffffffffffffffffff1673ffffffffffffffffffffffffffffffffffffffff168152602001908152602001600020549050919050565b828054620014509062001e90565b90600052602060002090601f016020900481019282620014745760008555620014c0565b82601f106200148f57805160ff1916838001178555620014c0565b82800160010185558215620014c0579182015b82811115620014bf578251825591602001919060010190620014a2565b5b509050620014cf919062001562565b5090565b8280548282559060005260206000209081019282156200154f579160200282015b828111156200154e5782518260006101000a81548173ffffffffffffffffffffffffffffffffffffffff021916908373ffffffffffffffffffffffffffffffffffffffff16021790555091602001919060010190620014f4565b5b5090506200155e919062001562565b5090565b5b808211156200157d57600081600090555060010162001563565b5090565b600062001598620015928462001cfc565b62001cc8565b90508083825260208201905082856020860282011115620015b857600080fd5b60005b85811015620015ec5781620015d18882620015f6565b845260208401935060208301925050600181019050620015bb565b5050509392505050565b600081519050620016078162001f64565b92915050565b600082601f8301126200161f57600080fd5b81516200163184826020860162001581565b91505092915050565b6000815190506200164b8162001f7e565b92915050565b6000602082840312156200166457600080fd5b600082015167ffffffffffffffff8111156200167f57600080fd5b6200168d848285016200160d565b91505092915050565b600060208284031215620016a957600080fd5b6000620016b9848285016200163a565b91505092915050565b620016cd8162001df0565b82525050565b6000620016e08262001d2b565b620016ec818562001d36565b9350620016fe81856020860162001e5a565b620017098162001f53565b840191505092915050565b600062001723604d8362001d47565b91507f4d6f6e6b6579436f6e74726163743a2043616e2774206275726e20746869732060008301527f4e465420776974686f7574206265696e67206f776e65722c20617070726f766560208301527f64206f72206f70657261746f72000000000000000000000000000000000000006040830152606082019050919050565b6000620017b160328362001d47565b91507f4552433732313a207472616e7366657220746f206e6f6e20455243373231526560008301527f63656976657220696d706c656d656e74657200000000000000000000000000006020830152604082019050919050565b600062001819601c8362001d47565b91507f4552433732313a20746f6b656e20616c7265616479206d696e746564000000006000830152602082019050919050565b60006200185b602c8362001d47565b91507f4552433732313a206f70657261746f7220717565727920666f72206e6f6e657860008301527f697374656e7420746f6b656e00000000000000000000000000000000000000006020830152604082019050919050565b6000620018c360108362001d47565b91507f5061757361626c653a20706175736564000000000000000000000000000000006000830152602082019050919050565b600062001905602a8362001d47565b91507f4552433732313a2062616c616e636520717565727920666f7220746865207a6560008301527f726f2061646472657373000000000000000000000000000000000000000000006020830152604082019050919050565b60006200196d60298362001d47565b91507f4552433732313a206f776e657220717565727920666f72206e6f6e657869737460008301527f656e7420746f6b656e00000000000000000000000000000000000000000000006020830152604082019050919050565b6000620019d560208362001d47565b91507f4552433732313a206d696e7420746f20746865207a65726f20616464726573736000830152602082019050919050565b600062001a17602c8362001d47565b91507f4552433732313a20617070726f76656420717565727920666f72206e6f6e657860008301527f697374656e7420746f6b656e00000000000000000000000000000000000000006020830152604082019050919050565b600062001a7f601f8362001d47565b91507f5265656e7472616e637947756172643a207265656e7472616e742063616c6c006000830152602082019050919050565b62001abd8162001e50565b82525050565b600060808201905062001ada6000830187620016c2565b62001ae96020830186620016c2565b62001af8604083018562001ab2565b818103606083015262001b0c8184620016d3565b905095945050505050565b600060a08201905062001b2e6000830188620016c2565b62001b3d602083018762001ab2565b62001b4c604083018662001ab2565b62001b5b606083018562001ab2565b62001b6a608083018462001ab2565b9695505050505050565b6000602082019050818103600083015262001b8f8162001714565b9050919050565b6000602082019050818103600083015262001bb181620017a2565b9050919050565b6000602082019050818103600083015262001bd3816200180a565b9050919050565b6000602082019050818103600083015262001bf5816200184c565b9050919050565b6000602082019050818103600083015262001c1781620018b4565b9050919050565b6000602082019050818103600083015262001c3981620018f6565b9050919050565b6000602082019050818103600083015262001c5b816200195e565b9050919050565b6000602082019050818103600083015262001c7d81620019c6565b9050919050565b6000602082019050818103600083015262001c9f8162001a08565b9050919050565b6000602082019050818103600083015262001cc18162001a70565b9050919050565b6000604051905081810181811067ffffffffffffffff8211171562001cf25762001cf162001f24565b5b8060405250919050565b600067ffffffffffffffff82111562001d1a5762001d1962001f24565b5b602082029050602081019050919050565b600081519050919050565b600082825260208201905092915050565b600082825260208201905092915050565b600062001d658262001e50565b915062001d728362001e50565b9250827fffffffffffffffffffffffffffffffffffffffffffffffffffffffffffffffff0382111562001daa5762001da962001ec6565b5b828201905092915050565b600062001dc28262001e50565b915062001dcf8362001e50565b92508282101562001de55762001de462001ec6565b5b828203905092915050565b600062001dfd8262001e30565b9050919050565b60007fffffffff0000000000000000000000000000000000000000000000000000000082169050919050565b600073ffffffffffffffffffffffffffffffffffffffff82169050919050565b6000819050919050565b60005b8381101562001e7a57808201518184015260208101905062001e5d565b8381111562001e8a576000848401525b50505050565b6000600282049050600182168062001ea957607f821691505b6020821081141562001ec05762001ebf62001ef5565b5b50919050565b7f4e487b7100000000000000000000000000000000000000000000000000000000600052601160045260246000fd5b7f4e487b7100000000000000000000000000000000000000000000000000000000600052602260045260246000fd5b7f4e487b7100000000000000000000000000000000000000000000000000000000600052604160045260246000fd5b6000601f19601f8301169050919050565b62001f6f8162001df0565b811462001f7b57600080fd5b50565b62001f898162001e04565b811462001f9557600080fd5b50565b6153598062001fa86000396000f3fe608060405234801561001057600080fd5b50600436106101fb5760003560e01c806369e9cae11161011a578063c87b56dd116100ad578063db0027941161007c578063db002794146105ce578063e985e9c5146105fe578063ef742fc11461062e578063f2fde38b1461064a578063f91ba67414610666576101fb565b8063c87b56dd14610534578063cc5739e014610564578063d9ecad7b14610580578063daa97fae146105b0576101fb565b80638da5cb5b116100e95780638da5cb5b146104c057806395d89b41146104de578063a22cb465146104fc578063b88d4fde14610518576101fb565b806369e9cae11461046057806370a082311461047c578063715018a6146104ac5780638456cb59146104b6576101fb565b806323b872dd1161019257806342842e0e1161016157806342842e0e146103c65780634f6ccce7146103e25780635c975abb146104125780636352211e14610430576101fb565b806323b872dd1461033a5780632558e25f146103565780632f745c591461038c5780633f4ba83a146103bc576101fb565b8063095ea7b3116101ce578063095ea7b31461029c57806318160ddd146102b85780631b0a1aed146102d65780631b41727814610306576101fb565b806301ffc9a71461020057806306fdde0314610230578063081812fc1461024e5780630917cffe1461027e575b600080fd5b61021a60048036038101906102159190613b96565b610684565b6040516102279190614936565b60405180910390f35b6102386106fe565b6040516102459190614951565b60405180910390f35b61026860048036038101906102639190613be8565b610790565b604051610275919061485a565b60405180910390f35b610286610815565b6040516102939190614d03565b60405180910390f35b6102b660048036038101906102b19190613b5a565b61081b565b005b6102c0610933565b6040516102cd9190614d03565b60405180910390f35b6102f060048036038101906102eb91906139ef565b610940565b6040516102fd9190614914565b60405180910390f35b610320600480360381019061031b9190613be8565b610a40565b604051610331959493929190614d1e565b60405180910390f35b610354600480360381019061034f9190613a54565b610a86565b005b610370600480360381019061036b9190613be8565b610b2e565b6040516103839796959493929190614d71565b60405180910390f35b6103a660048036038101906103a19190613b5a565b610ce0565b6040516103b39190614d03565b60405180910390f35b6103c4610d85565b005b6103e060048036038101906103db9190613a54565b610e0b565b005b6103fc60048036038101906103f79190613be8565b610e73565b6040516104099190614d03565b60405180910390f35b61041a610f0a565b6040516104279190614936565b60405180910390f35b61044a60048036038101906104459190613be8565b610f21565b604051610457919061485a565b60405180910390f35b61047a60048036038101906104759190613a54565b610fd3565b005b610496600480360381019061049191906139ef565b6111b7565b6040516104a39190614d03565b60405180910390f35b6104b461126f565b005b6104be6113ac565b005b6104c8611432565b6040516104d5919061485a565b60405180910390f35b6104e661145c565b6040516104f39190614951565b60405180910390f35b61051660048036038101906105119190613b1e565b6114ee565b005b610532600480360381019061052d9190613aa3565b61166f565b005b61054e60048036038101906105499190613be8565b611719565b60405161055b9190614951565b60405180910390f35b61057e600480360381019061057991906139ef565b6117c0565b005b61059a60048036038101906105959190613c4d565b61191b565b6040516105a79190614d03565b60405180910390f35b6105b8611ccb565b6040516105c5919061485a565b60405180910390f35b6105e860048036038101906105e39190613c11565b611cf5565b6040516105f59190614d03565b60405180910390f35b61061860048036038101906106139190613a18565b611d13565b6040516106259190614936565b60405180910390f35b61064860048036038101906106439190613be8565b611da7565b005b610664600480360381019061065f91906139ef565b611e9b565b005b61066e612047565b60405161067b9190614d03565b60405180910390f35b60007f780e9d63000000000000000000000000000000000000000000000000000000007bffffffffffffffffffffffffffffffffffffffffffffffffffffffff1916827bffffffffffffffffffffffffffffffffffffffffffffffffffffffff191614806106f757506106f68261207b565b5b9050919050565b60606000805461070d906150f7565b80601f0160208091040260200160405190810160405280929190818152602001828054610739906150f7565b80156107865780601f1061075b57610100808354040283529160200191610786565b820191906000526020600020905b81548152906001019060200180831161076957829003601f168201915b5050505050905090565b600061079b8261215d565b6107da576040517f08c379a00000000000000000000000000000000000000000000000000000000081526004016107d190614ba3565b60405180910390fd5b6004600083815260200190815260200160002060009054906101000a900473ffffffffffffffffffffffffffffffffffffffff169050919050565b60105481565b600061082682610f21565b90508073ffffffffffffffffffffffffffffffffffffffff168373ffffffffffffffffffffffffffffffffffffffff161415610897576040517f08c379a000000000000000000000000000000000000000000000000000000000815260040161088e90614c23565b60405180910390fd5b8073ffffffffffffffffffffffffffffffffffffffff166108b66121c9565b73ffffffffffffffffffffffffffffffffffffffff1614806108e557506108e4816108df6121c9565b611d13565b5b610924576040517f08c379a000000000000000000000000000000000000000000000000000000000815260040161091b90614ae3565b60405180910390fd5b61092e83836121d1565b505050565b6000600880549050905090565b6060600061094d836111b7565b905060008167ffffffffffffffff811115610991577f4e487b7100000000000000000000000000000000000000000000000000000000600052604160045260246000fd5b6040519080825280602002602001820160405280156109bf5781602001602082028036833780820191505090505b50905060005b82811015610a355760006109d98683610ce0565b905080838381518110610a15577f4e487b7100000000000000000000000000000000000000000000000000000000600052603260045260246000fd5b602002602001018181525050508080610a2d90615129565b9150506109c5565b508092505050919050565b60118181548110610a5057600080fd5b90600052602060002090600502016000915090508060000154908060010154908060020154908060030154908060040154905085565b610a8e610f0a565b15610ace576040517f08c379a0000000000000000000000000000000000000000000000000000000008152600401610ac590614ac3565b60405180910390fd5b610adf610ad96121c9565b8261228a565b610b1e576040517f08c379a0000000000000000000000000000000000000000000000000000000008152600401610b1590614c63565b60405180910390fd5b610b29838383612368565b505050565b600080600080600080600060118881548110610b73577f4e487b7100000000000000000000000000000000000000000000000000000000600052603260045260246000fd5b90600052602060002090600502016003015460118981548110610bbf577f4e487b7100000000000000000000000000000000000000000000000000000000600052603260045260246000fd5b90600052602060002090600502016004015460118a81548110610c0b577f4e487b7100000000000000000000000000000000000000000000000000000000600052603260045260246000fd5b90600052602060002090600502016000015460118b81548110610c57577f4e487b7100000000000000000000000000000000000000000000000000000000600052603260045260246000fd5b90600052602060002090600502016001015460118c81548110610ca3577f4e487b7100000000000000000000000000000000000000000000000000000000600052603260045260246000fd5b906000526020600020906005020160020154610cbe8d610f21565b610cc78e610790565b9650965096509650965096509650919395979092949650565b6000610ceb836111b7565b8210610d2c576040517f08c379a0000000000000000000000000000000000000000000000000000000008152600401610d23906149e3565b60405180910390fd5b600660008473ffffffffffffffffffffffffffffffffffffffff1673ffffffffffffffffffffffffffffffffffffffff168152602001908152602001600020600083815260200190815260200160002054905092915050565b610d8d6121c9565b73ffffffffffffffffffffffffffffffffffffffff16610dab611432565b73ffffffffffffffffffffffffffffffffffffffff1614610e01576040517f08c379a0000000000000000000000000000000000000000000000000000000008152600401610df890614bc3565b60405180910390fd5b610e096125c4565b565b610e13610f0a565b15610e53576040517f08c379a0000000000000000000000000000000000000000000000000000000008152600401610e4a90614ac3565b60405180910390fd5b610e6e8383836040518060200160405280600081525061166f565b505050565b6000610e7d610933565b8210610ebe576040517f08c379a0000000000000000000000000000000000000000000000000000000008152600401610eb590614c83565b60405180910390fd5b60088281548110610ef8577f4e487b7100000000000000000000000000000000000000000000000000000000600052603260045260246000fd5b90600052602060002001549050919050565b6000600c60009054906101000a900460ff16905090565b6000806002600084815260200190815260200160002060009054906101000a900473ffffffffffffffffffffffffffffffffffffffff169050600073ffffffffffffffffffffffffffffffffffffffff168173ffffffffffffffffffffffffffffffffffffffff161415610fca576040517f08c379a0000000000000000000000000000000000000000000000000000000008152600401610fc190614b43565b60405180910390fd5b80915050919050565b6002600b541415611019576040517f08c379a000000000000000000000000000000000000000000000000000000000815260040161101090614cc3565b60405180910390fd5b6002600b81905550611029610f0a565b15611069576040517f08c379a000000000000000000000000000000000000000000000000000000000815260040161106090614ac3565b60405180910390fd5b600073ffffffffffffffffffffffffffffffffffffffff168273ffffffffffffffffffffffffffffffffffffffff1614156110d9576040517f08c379a00000000000000000000000000000000000000000000000000000000081526004016110d0906149c3565b60405180910390fd5b3073ffffffffffffffffffffffffffffffffffffffff168273ffffffffffffffffffffffffffffffffffffffff161415611148576040517f08c379a000000000000000000000000000000000000000000000000000000000815260040161113f90614c43565b60405180910390fd5b6001151561115d6111576121c9565b8361228a565b15151461119f576040517f08c379a000000000000000000000000000000000000000000000000000000000815260040161119690614ca3565b60405180910390fd5b6111aa838383610e0b565b6001600b81905550505050565b60008073ffffffffffffffffffffffffffffffffffffffff168273ffffffffffffffffffffffffffffffffffffffff161415611228576040517f08c379a000000000000000000000000000000000000000000000000000000000815260040161121f90614b23565b60405180910390fd5b600360008373ffffffffffffffffffffffffffffffffffffffff1673ffffffffffffffffffffffffffffffffffffffff168152602001908152602001600020549050919050565b6112776121c9565b73ffffffffffffffffffffffffffffffffffffffff16611295611432565b73ffffffffffffffffffffffffffffffffffffffff16146112eb576040517f08c379a00000000000000000000000000000000000000000000000000000000081526004016112e290614bc3565b60405180910390fd5b600073ffffffffffffffffffffffffffffffffffffffff16600a60009054906101000a900473ffffffffffffffffffffffffffffffffffffffff1673ffffffffffffffffffffffffffffffffffffffff167f8be0079c531659141344cd1fd0a4f28419497f9722a3daafe3b4186f6b6457e060405160405180910390a36000600a60006101000a81548173ffffffffffffffffffffffffffffffffffffffff021916908373ffffffffffffffffffffffffffffffffffffffff160217905550565b6113b46121c9565b73ffffffffffffffffffffffffffffffffffffffff166113d2611432565b73ffffffffffffffffffffffffffffffffffffffff1614611428576040517f08c379a000000000000000000000000000000000000000000000000000000000815260040161141f90614bc3565b60405180910390fd5b611430612666565b565b6000600a60009054906101000a900473ffffffffffffffffffffffffffffffffffffffff16905090565b60606001805461146b906150f7565b80601f0160208091040260200160405190810160405280929190818152602001828054611497906150f7565b80156114e45780601f106114b9576101008083540402835291602001916114e4565b820191906000526020600020905b8154815290600101906020018083116114c757829003601f168201915b5050505050905090565b6114f66121c9565b73ffffffffffffffffffffffffffffffffffffffff168273ffffffffffffffffffffffffffffffffffffffff161415611564576040517f08c379a000000000000000000000000000000000000000000000000000000000815260040161155b90614a83565b60405180910390fd5b80600560006115716121c9565b73ffffffffffffffffffffffffffffffffffffffff1673ffffffffffffffffffffffffffffffffffffffff16815260200190815260200160002060008473ffffffffffffffffffffffffffffffffffffffff1673ffffffffffffffffffffffffffffffffffffffff16815260200190815260200160002060006101000a81548160ff0219169083151502179055508173ffffffffffffffffffffffffffffffffffffffff1661161e6121c9565b73ffffffffffffffffffffffffffffffffffffffff167f17307eab39ab6107e8899845ad3d59bd9653f200f220920489ca2b5937696c31836040516116639190614936565b60405180910390a35050565b611677610f0a565b156116b7576040517f08c379a00000000000000000000000000000000000000000000000000000000081526004016116ae90614ac3565b60405180910390fd5b6116c86116c26121c9565b8361228a565b611707576040517f08c379a00000000000000000000000000000000000000000000000000000000081526004016116fe90614c63565b60405180910390fd5b61171384848484612709565b50505050565b60606117248261215d565b611763576040517f08c379a000000000000000000000000000000000000000000000000000000000815260040161175a90614c03565b60405180910390fd5b600061176d612765565b9050600081511161178d57604051806020016040528060008152506117b8565b806117978461277c565b6040516020016117a89291906147f9565b6040516020818303038152906040525b915050919050565b60005b600d80549050811015611917578173ffffffffffffffffffffffffffffffffffffffff16600d8281548110611821577f4e487b7100000000000000000000000000000000000000000000000000000000600052603260045260246000fd5b9060005260206000200160009054906101000a900473ffffffffffffffffffffffffffffffffffffffff1673ffffffffffffffffffffffffffffffffffffffff1614156118ac576118a76040518060400160405280600c81526020017f6163636f756e74735b25735d000000000000000000000000000000000000000081525082612929565b611904565b600073ffffffffffffffffffffffffffffffffffffffff168273ffffffffffffffffffffffffffffffffffffffff161415611903576119026040518060800160405280604d81526020016152d7604d91396129c5565b5b5b808061190f90615129565b9150506117c3565b5050565b6000611925610f0a565b15611965576040517f08c379a000000000000000000000000000000000000000000000000000000000815260040161195c90614ac3565b60405180910390fd5b61196d6121c9565b73ffffffffffffffffffffffffffffffffffffffff1661198c84610f21565b73ffffffffffffffffffffffffffffffffffffffff161480156119e957506119b26121c9565b73ffffffffffffffffffffffffffffffffffffffff166119d183610f21565b73ffffffffffffffffffffffffffffffffffffffff16145b611a28576040517f08c379a0000000000000000000000000000000000000000000000000000000008152600401611a1f90614b83565b60405180910390fd5b600060118481548110611a64577f4e487b7100000000000000000000000000000000000000000000000000000000600052603260045260246000fd5b9060005260206000209060050201600301549050600060118481548110611ab4577f4e487b7100000000000000000000000000000000000000000000000000000000600052603260045260246000fd5b90600052602060002090600502016003015490506000611ad48383612a5e565b90506000611ae28787612d06565b90506000611afa88888486611af56121c9565b612ea1565b90507f8e3541d6cb6a06d3a1785ca3c18fa6ca7b39a6278433734c442e2ebfe623e2ea8160118381548110611b58577f4e487b7100000000000000000000000000000000000000000000000000000000600052603260045260246000fd5b90600052602060002090600502016003015460118481548110611ba4577f4e487b7100000000000000000000000000000000000000000000000000000000600052603260045260246000fd5b90600052602060002090600502016004015460118581548110611bf0577f4e487b7100000000000000000000000000000000000000000000000000000000600052603260045260246000fd5b90600052602060002090600502016000015460118681548110611c3c577f4e487b7100000000000000000000000000000000000000000000000000000000600052603260045260246000fd5b90600052602060002090600502016001015460118781548110611c88577f4e487b7100000000000000000000000000000000000000000000000000000000600052603260045260246000fd5b906000526020600020906005020160020154611ca26121c9565b604051611cb59796959493929190614de0565b60405180910390a1809550505050505092915050565b6000600e60009054906101000a900473ffffffffffffffffffffffffffffffffffffffff16905090565b600080611d0760638060638787612ea1565b90508091505092915050565b6000600560008473ffffffffffffffffffffffffffffffffffffffff1673ffffffffffffffffffffffffffffffffffffffff16815260200190815260200160002060008373ffffffffffffffffffffffffffffffffffffffff1673ffffffffffffffffffffffffffffffffffffffff16815260200190815260200160002060009054906101000a900460ff16905092915050565b611daf6121c9565b73ffffffffffffffffffffffffffffffffffffffff16611dcd611432565b73ffffffffffffffffffffffffffffffffffffffff1614611e23576040517f08c379a0000000000000000000000000000000000000000000000000000000008152600401611e1a90614bc3565b60405180910390fd5b600f5460105410611e69576040517f08c379a0000000000000000000000000000000000000000000000000000000008152600401611e6090614ce3565b60405180910390fd5b60106000815480929190611e7c90615129565b9190505550611e97600080600084611e926121c9565b612ea1565b5050565b611ea36121c9565b73ffffffffffffffffffffffffffffffffffffffff16611ec1611432565b73ffffffffffffffffffffffffffffffffffffffff1614611f17576040517f08c379a0000000000000000000000000000000000000000000000000000000008152600401611f0e90614bc3565b60405180910390fd5b600073ffffffffffffffffffffffffffffffffffffffff168173ffffffffffffffffffffffffffffffffffffffff161415611f87576040517f08c379a0000000000000000000000000000000000000000000000000000000008152600401611f7e90614a23565b60405180910390fd5b8073ffffffffffffffffffffffffffffffffffffffff16600a60009054906101000a900473ffffffffffffffffffffffffffffffffffffffff1673ffffffffffffffffffffffffffffffffffffffff167f8be0079c531659141344cd1fd0a4f28419497f9722a3daafe3b4186f6b6457e060405160405180910390a380600a60006101000a81548173ffffffffffffffffffffffffffffffffffffffff021916908373ffffffffffffffffffffffffffffffffffffffff16021790555050565b600f5481565b6000818361205b919061500d565b905092915050565b505050565b600080823b905060008111915050919050565b60007f80ac58cd000000000000000000000000000000000000000000000000000000007bffffffffffffffffffffffffffffffffffffffffffffffffffffffff1916827bffffffffffffffffffffffffffffffffffffffffffffffffffffffff1916148061214657507f5b5e139f000000000000000000000000000000000000000000000000000000007bffffffffffffffffffffffffffffffffffffffffffffffffffffffff1916827bffffffffffffffffffffffffffffffffffffffffffffffffffffffff1916145b80612156575061215582612fea565b5b9050919050565b60008073ffffffffffffffffffffffffffffffffffffffff166002600084815260200190815260200160002060009054906101000a900473ffffffffffffffffffffffffffffffffffffffff1673ffffffffffffffffffffffffffffffffffffffff1614159050919050565b600033905090565b816004600083815260200190815260200160002060006101000a81548173ffffffffffffffffffffffffffffffffffffffff021916908373ffffffffffffffffffffffffffffffffffffffff160217905550808273ffffffffffffffffffffffffffffffffffffffff1661224483610f21565b73ffffffffffffffffffffffffffffffffffffffff167f8c5be1e5ebec7d5bd14f71427d1e84f3dd0314c0f7b2291e5b200ac8c7c3b92560405160405180910390a45050565b60006122958261215d565b6122d4576040517f08c379a00000000000000000000000000000000000000000000000000000000081526004016122cb90614aa3565b60405180910390fd5b60006122df83610f21565b90508073ffffffffffffffffffffffffffffffffffffffff168473ffffffffffffffffffffffffffffffffffffffff16148061234e57508373ffffffffffffffffffffffffffffffffffffffff1661233684610790565b73ffffffffffffffffffffffffffffffffffffffff16145b8061235f575061235e8185611d13565b5b91505092915050565b8273ffffffffffffffffffffffffffffffffffffffff1661238882610f21565b73ffffffffffffffffffffffffffffffffffffffff16146123de576040517f08c379a00000000000000000000000000000000000000000000000000000000081526004016123d590614be3565b60405180910390fd5b600073ffffffffffffffffffffffffffffffffffffffff168273ffffffffffffffffffffffffffffffffffffffff16141561244e576040517f08c379a000000000000000000000000000000000000000000000000000000000815260040161244590614a63565b60405180910390fd5b612459838383613054565b6124646000826121d1565b6001600360008573ffffffffffffffffffffffffffffffffffffffff1673ffffffffffffffffffffffffffffffffffffffff16815260200190815260200160002060008282546124b4919061500d565b925050819055506001600360008473ffffffffffffffffffffffffffffffffffffffff1673ffffffffffffffffffffffffffffffffffffffff168152602001908152602001600020600082825461250b9190614f2c565b92505081905550816002600083815260200190815260200160002060006101000a81548173ffffffffffffffffffffffffffffffffffffffff021916908373ffffffffffffffffffffffffffffffffffffffff160217905550808273ffffffffffffffffffffffffffffffffffffffff168473ffffffffffffffffffffffffffffffffffffffff167fddf252ad1be2c89b69c2b068fc378daa952ba7f163c4a11628f55a4df523b3ef60405160405180910390a4505050565b6125cc610f0a565b61260b576040517f08c379a0000000000000000000000000000000000000000000000000000000008152600401612602906149a3565b60405180910390fd5b6000600c60006101000a81548160ff0219169083151502179055507f5db9ee0a495bf2e6ff9c91a7834c1ba4fdd244a5e8aa4e537bd38aeae4b073aa61264f6121c9565b60405161265c919061485a565b60405180910390a1565b61266e610f0a565b156126ae576040517f08c379a00000000000000000000000000000000000000000000000000000000081526004016126a590614ac3565b60405180910390fd5b6001600c60006101000a81548160ff0219169083151502179055507f62e78cea01bee320cd4e420270b5ea74000d11b0c9f74754ebdbfc544b05a2586126f26121c9565b6040516126ff919061485a565b60405180910390a1565b612714848484612368565b61272084848484613168565b61275f576040517f08c379a000000000000000000000000000000000000000000000000000000000815260040161275690614a03565b60405180910390fd5b50505050565b606060405180602001604052806000815250905090565b606060008214156127c4576040518060400160405280600181526020017f30000000000000000000000000000000000000000000000000000000000000008152509050612924565b600082905060005b600082146127f65780806127df90615129565b915050600a826127ef9190614f82565b91506127cc565b60008167ffffffffffffffff811115612838577f4e487b7100000000000000000000000000000000000000000000000000000000600052604160045260246000fd5b6040519080825280601f01601f19166020018201604052801561286a5781602001600182028036833780820191505090505b5090505b6000851461291d57600182612883919061500d565b9150600a85612892919061517c565b603061289e9190614f2c565b60f81b8183815181106128da577f4e487b7100000000000000000000000000000000000000000000000000000000600052603260045260246000fd5b60200101907effffffffffffffffffffffffffffffffffffffffffffffffffffffffffffff1916908160001a905350600a856129169190614f82565b945061286e565b8093505050505b919050565b6129c1828260405160240161293f929190614973565b6040516020818303038152906040527f9710a9d0000000000000000000000000000000000000000000000000000000007bffffffffffffffffffffffffffffffffffffffffffffffffffffffff19166020820180517bffffffffffffffffffffffffffffffffffffffffffffffffffffffff83818316178352505050506132ff565b5050565b612a5b816040516024016129d99190614951565b6040516020818303038152906040527f41304fac000000000000000000000000000000000000000000000000000000007bffffffffffffffffffffffffffffffffffffffffffffffffffffffff19166020820180517bffffffffffffffffffffffffffffffffffffffffffffffffffffffff83818316178352505050506132ff565b50565b6000612a686138fb565b6000612a72613328565b90506000600790506000600190505b60408111612b88576000818460ff161614612aed57606487612aa3919061517c565b60ff16848360088110612adf577f4e487b7100000000000000000000000000000000000000000000000000000000600052603260045260246000fd5b602002018181525050612b40565b606486612afa919061517c565b60ff16848360088110612b36577f4e487b7100000000000000000000000000000000000000000000000000000000600052603260045260246000fd5b6020020181815250505b606487612b4d9190614f82565b9650606486612b5c9190614f82565b9550612b7260018361204d90919063ffffffff16565b9150600281612b819190614fb3565b9050612a81565b5060008260ff16612b97610933565b6011600081548110612bd2577f4e487b7100000000000000000000000000000000000000000000000000000000600052603260045260246000fd5b906000526020600020906005020160030154604051602001612bf69392919061481d565b6040516020818303038152906040528051906020012060001c9050600a605982612c20919061517c565b612c2a9190614f2c565b90508084600060088110612c67577f4e487b7100000000000000000000000000000000000000000000000000000000600052603260045260246000fd5b602002018181525050600080600090505b6008811015612cf757858160088110612cba577f4e487b7100000000000000000000000000000000000000000000000000000000600052603260045260246000fd5b602002015182612cca9190614f2c565b915060078114612ce457606482612ce19190614fb3565b91505b8080612cef90615129565b915050612c78565b50809550505050505092915050565b60008060118481548110612d43577f4e487b7100000000000000000000000000000000000000000000000000000000600052603260045260246000fd5b9060005260206000209060050201600201549050600060118481548110612d93577f4e487b7100000000000000000000000000000000000000000000000000000000600052603260045260246000fd5b90600052602060002090600502016002015490506103e882108015612db957506103e881105b612df8576040517f08c379a0000000000000000000000000000000000000000000000000000000008152600401612def90614b03565b60405180910390fd5b6000818314612e6e5760006002600a8486612e139190614f2c565b612e1d9190614fb3565b612e279190614f82565b90506000600a82612e38919061517c565b1115612e4d57600581612e4b919061500d565b505b6002600a82612e5c9190614f82565b612e669190614f2c565b915050612e95565b600160028385612e7e9190614f2c565b612e889190614f82565b612e929190614f2c565b90505b80935050505092915050565b6000612eab610f0a565b15612eeb576040517f08c379a0000000000000000000000000000000000000000000000000000000008152600401612ee290614ac3565b60405180910390fd5b60006040518060a001604052808881526020018781526020018681526020018581526020014281525090506011819080600181540180825580915050600190039060005260206000209060050201600090919091909150600082015181600001556020820151816001015560408201518160020155606082015181600301556080820151816004015550506000612f91600160118054905061204d90919063ffffffff16565b9050612f9d848261333c565b7f0b1e9a74eeaae184646d7a35062426460c8c9364005c6d441cce036dd9c655d584828a8a89604051612fd49594939291906148c1565b60405180910390a1809250505095945050505050565b60007f01ffc9a7000000000000000000000000000000000000000000000000000000007bffffffffffffffffffffffffffffffffffffffffffffffffffffffff1916827bffffffffffffffffffffffffffffffffffffffffffffffffffffffff1916149050919050565b61305f838383612063565b600073ffffffffffffffffffffffffffffffffffffffff168373ffffffffffffffffffffffffffffffffffffffff1614156130a25761309d8161335a565b6130e1565b8173ffffffffffffffffffffffffffffffffffffffff168373ffffffffffffffffffffffffffffffffffffffff16146130e0576130df83826133a3565b5b5b600073ffffffffffffffffffffffffffffffffffffffff168273ffffffffffffffffffffffffffffffffffffffff1614156131245761311f81613510565b613163565b8273ffffffffffffffffffffffffffffffffffffffff168273ffffffffffffffffffffffffffffffffffffffff1614613162576131618282613653565b5b5b505050565b60006131898473ffffffffffffffffffffffffffffffffffffffff16612068565b156132f2578373ffffffffffffffffffffffffffffffffffffffff1663150b7a026131b26121c9565b8786866040518563ffffffff1660e01b81526004016131d49493929190614875565b602060405180830381600087803b1580156131ee57600080fd5b505af192505050801561321f57506040513d601f19601f8201168201806040525081019061321c9190613bbf565b60015b6132a2573d806000811461324f576040519150601f19603f3d011682016040523d82523d6000602084013e613254565b606091505b5060008151141561329a576040517f08c379a000000000000000000000000000000000000000000000000000000000815260040161329190614a03565b60405180910390fd5b805181602001fd5b63150b7a0260e01b7bffffffffffffffffffffffffffffffffffffffffffffffffffffffff1916817bffffffffffffffffffffffffffffffffffffffffffffffffffffffff1916149150506132f7565b600190505b949350505050565b60008151905060006a636f6e736f6c652e6c6f679050602083016000808483855afa5050505050565b600060ff42613337919061517c565b905090565b6133568282604051806020016040528060008152506136d2565b5050565b6008805490506009600083815260200190815260200160002081905550600881908060018154018082558091505060019003906000526020600020016000909190919091505550565b600060016133b0846111b7565b6133ba919061500d565b905060006007600084815260200190815260200160002054905081811461349f576000600660008673ffffffffffffffffffffffffffffffffffffffff1673ffffffffffffffffffffffffffffffffffffffff168152602001908152602001600020600084815260200190815260200160002054905080600660008773ffffffffffffffffffffffffffffffffffffffff1673ffffffffffffffffffffffffffffffffffffffff168152602001908152602001600020600084815260200190815260200160002081905550816007600083815260200190815260200160002081905550505b6007600084815260200190815260200160002060009055600660008573ffffffffffffffffffffffffffffffffffffffff1673ffffffffffffffffffffffffffffffffffffffff16815260200190815260200160002060008381526020019081526020016000206000905550505050565b60006001600880549050613524919061500d565b905060006009600084815260200190815260200160002054905060006008838154811061357a577f4e487b7100000000000000000000000000000000000000000000000000000000600052603260045260246000fd5b9060005260206000200154905080600883815481106135c2577f4e487b7100000000000000000000000000000000000000000000000000000000600052603260045260246000fd5b906000526020600020018190555081600960008381526020019081526020016000208190555060096000858152602001908152602001600020600090556008805480613637577f4e487b7100000000000000000000000000000000000000000000000000000000600052603160045260246000fd5b6001900381819060005260206000200160009055905550505050565b600061365e836111b7565b905081600660008573ffffffffffffffffffffffffffffffffffffffff1673ffffffffffffffffffffffffffffffffffffffff168152602001908152602001600020600083815260200190815260200160002081905550806007600084815260200190815260200160002081905550505050565b6136dc838361372d565b6136e96000848484613168565b613728576040517f08c379a000000000000000000000000000000000000000000000000000000000815260040161371f90614a03565b60405180910390fd5b505050565b600073ffffffffffffffffffffffffffffffffffffffff168273ffffffffffffffffffffffffffffffffffffffff16141561379d576040517f08c379a000000000000000000000000000000000000000000000000000000000815260040161379490614b63565b60405180910390fd5b6137a68161215d565b156137e6576040517f08c379a00000000000000000000000000000000000000000000000000000000081526004016137dd90614a43565b60405180910390fd5b6137f260008383613054565b6001600360008473ffffffffffffffffffffffffffffffffffffffff1673ffffffffffffffffffffffffffffffffffffffff16815260200190815260200160002060008282546138429190614f2c565b92505081905550816002600083815260200190815260200160002060006101000a81548173ffffffffffffffffffffffffffffffffffffffff021916908373ffffffffffffffffffffffffffffffffffffffff160217905550808273ffffffffffffffffffffffffffffffffffffffff16600073ffffffffffffffffffffffffffffffffffffffff167fddf252ad1be2c89b69c2b068fc378daa952ba7f163c4a11628f55a4df523b3ef60405160405180910390a45050565b604051806101000160405280600890602082028036833780820191505090505090565b600061393161392c84614e80565b614e4f565b90508281526020810184848401111561394957600080fd5b6139548482856150b5565b509392505050565b60008135905061396b8161527a565b92915050565b60008135905061398081615291565b92915050565b600081359050613995816152a8565b92915050565b6000815190506139aa816152a8565b92915050565b600082601f8301126139c157600080fd5b81356139d184826020860161391e565b91505092915050565b6000813590506139e9816152bf565b92915050565b600060208284031215613a0157600080fd5b6000613a0f8482850161395c565b91505092915050565b60008060408385031215613a2b57600080fd5b6000613a398582860161395c565b9250506020613a4a8582860161395c565b9150509250929050565b600080600060608486031215613a6957600080fd5b6000613a778682870161395c565b9350506020613a888682870161395c565b9250506040613a99868287016139da565b9150509250925092565b60008060008060808587031215613ab957600080fd5b6000613ac78782880161395c565b9450506020613ad88782880161395c565b9350506040613ae9878288016139da565b925050606085013567ffffffffffffffff811115613b0657600080fd5b613b12878288016139b0565b91505092959194509250565b60008060408385031215613b3157600080fd5b6000613b3f8582860161395c565b9250506020613b5085828601613971565b9150509250929050565b60008060408385031215613b6d57600080fd5b6000613b7b8582860161395c565b9250506020613b8c858286016139da565b9150509250929050565b600060208284031215613ba857600080fd5b6000613bb684828501613986565b91505092915050565b600060208284031215613bd157600080fd5b6000613bdf8482850161399b565b91505092915050565b600060208284031215613bfa57600080fd5b6000613c08848285016139da565b91505092915050565b60008060408385031215613c2457600080fd5b6000613c32858286016139da565b9250506020613c438582860161395c565b9150509250929050565b60008060408385031215613c6057600080fd5b6000613c6e858286016139da565b9250506020613c7f858286016139da565b9150509250929050565b6000613c9583836147c4565b60208301905092915050565b613caa81615041565b82525050565b6000613cbb82614ec0565b613cc58185614eee565b9350613cd083614eb0565b8060005b83811015613d01578151613ce88882613c89565b9750613cf383614ee1565b925050600181019050613cd4565b5085935050505092915050565b613d1781615053565b82525050565b6000613d2882614ecb565b613d328185614eff565b9350613d428185602086016150c4565b613d4b81615269565b840191505092915050565b6000613d6182614ed6565b613d6b8185614f10565b9350613d7b8185602086016150c4565b613d8481615269565b840191505092915050565b6000613d9a82614ed6565b613da48185614f21565b9350613db48185602086016150c4565b80840191505092915050565b6000613dcd601483614f10565b91507f5061757361626c653a206e6f74207061757365640000000000000000000000006000830152602082019050919050565b6000613e0d604a83614f10565b91507f4d6f6e6b6579436f6e74726163743a205472616e7366657220746f207468652060008301527f7a65726f2061646472657373206e6f7420616c6c6f7765642c206275726e204e60208301527f465420696e7374656164000000000000000000000000000000000000000000006040830152606082019050919050565b6000613e99602b83614f10565b91507f455243373231456e756d657261626c653a206f776e657220696e646578206f7560008301527f74206f6620626f756e64730000000000000000000000000000000000000000006020830152604082019050919050565b6000613eff603283614f10565b91507f4552433732313a207472616e7366657220746f206e6f6e20455243373231526560008301527f63656976657220696d706c656d656e74657200000000000000000000000000006020830152604082019050919050565b6000613f65602683614f10565b91507f4f776e61626c653a206e6577206f776e657220697320746865207a65726f206160008301527f64647265737300000000000000000000000000000000000000000000000000006020830152604082019050919050565b6000613fcb601c83614f10565b91507f4552433732313a20746f6b656e20616c7265616479206d696e746564000000006000830152602082019050919050565b600061400b602483614f10565b91507f4552433732313a207472616e7366657220746f20746865207a65726f2061646460008301527f72657373000000000000000000000000000000000000000000000000000000006020830152604082019050919050565b6000614071601983614f10565b91507f4552433732313a20617070726f766520746f2063616c6c6572000000000000006000830152602082019050919050565b60006140b1602c83614f10565b91507f4552433732313a206f70657261746f7220717565727920666f72206e6f6e657860008301527f697374656e7420746f6b656e00000000000000000000000000000000000000006020830152604082019050919050565b6000614117601083614f10565b91507f5061757361626c653a20706175736564000000000000000000000000000000006000830152602082019050919050565b6000614157603883614f10565b91507f4552433732313a20617070726f76652063616c6c6572206973206e6f74206f7760008301527f6e6572206e6f7220617070726f76656420666f7220616c6c00000000000000006020830152604082019050919050565b60006141bd602183614f10565b91507f506172656e74732063616e6e6f742062726565642061626f76652067656e393960008301527f39000000000000000000000000000000000000000000000000000000000000006020830152604082019050919050565b6000614223602a83614f10565b91507f4552433732313a2062616c616e636520717565727920666f7220746865207a6560008301527f726f2061646472657373000000000000000000000000000000000000000000006020830152604082019050919050565b6000614289602983614f10565b91507f4552433732313a206f776e657220717565727920666f72206e6f6e657869737460008301527f656e7420746f6b656e00000000000000000000000000000000000000000000006020830152604082019050919050565b60006142ef602083614f10565b91507f4552433732313a206d696e7420746f20746865207a65726f20616464726573736000830152602082019050919050565b600061432f603383614f10565b91507f4d6f6e6b6579436f6e74726163743a204d757374206265206f776e6572206f6660008301527f20626f746820706172656e7420746f6b656e73000000000000000000000000006020830152604082019050919050565b6000614395602c83614f10565b91507f4552433732313a20617070726f76656420717565727920666f72206e6f6e657860008301527f697374656e7420746f6b656e00000000000000000000000000000000000000006020830152604082019050919050565b60006143fb602083614f10565b91507f4f776e61626c653a2063616c6c6572206973206e6f7420746865206f776e65726000830152602082019050919050565b600061443b602983614f10565b91507f4552433732313a207472616e73666572206f6620746f6b656e2074686174206960008301527f73206e6f74206f776e00000000000000000000000000000000000000000000006020830152604082019050919050565b60006144a1602f83614f10565b91507f4552433732314d657461646174613a2055524920717565727920666f72206e6f60008301527f6e6578697374656e7420746f6b656e00000000000000000000000000000000006020830152604082019050919050565b6000614507602183614f10565b91507f4552433732313a20617070726f76616c20746f2063757272656e74206f776e6560008301527f72000000000000000000000000000000000000000000000000000000000000006020830152604082019050919050565b600061456d603483614f10565b91507f4d6f6e6b6579436f6e74726163743a2043616e2774207472616e73666572204e60008301527f46547320746f207468697320636f6e74726163740000000000000000000000006020830152604082019050919050565b60006145d3603183614f10565b91507f4552433732313a207472616e736665722063616c6c6572206973206e6f74206f60008301527f776e6572206e6f7220617070726f7665640000000000000000000000000000006020830152604082019050919050565b6000614639602c83614f10565b91507f455243373231456e756d657261626c653a20676c6f62616c20696e646578206f60008301527f7574206f6620626f756e647300000000000000000000000000000000000000006020830152604082019050919050565b600061469f605183614f10565b91507f4d6f6e6b6579436f6e74726163743a2043616e2774207472616e73666572207460008301527f686973204e465420776974686f7574206265696e67206f776e65722c2061707060208301527f726f766564206f72206f70657261746f720000000000000000000000000000006040830152606082019050919050565b600061472b601f83614f10565b91507f5265656e7472616e637947756172643a207265656e7472616e742063616c6c006000830152602082019050919050565b600061476b602783614f10565b91507f4d6178696d756d20616d6f756e74206f662067656e2030206d6f6e6b6579732060008301527f72656163686564000000000000000000000000000000000000000000000000006020830152604082019050919050565b6147cd816150ab565b82525050565b6147dc816150ab565b82525050565b6147f36147ee826150ab565b615172565b82525050565b60006148058285613d8f565b91506148118284613d8f565b91508190509392505050565b600061482982866147e2565b60208201915061483982856147e2565b60208201915061484982846147e2565b602082019150819050949350505050565b600060208201905061486f6000830184613ca1565b92915050565b600060808201905061488a6000830187613ca1565b6148976020830186613ca1565b6148a460408301856147d3565b81810360608301526148b68184613d1d565b905095945050505050565b600060a0820190506148d66000830188613ca1565b6148e360208301876147d3565b6148f060408301866147d3565b6148fd60608301856147d3565b61490a60808301846147d3565b9695505050505050565b6000602082019050818103600083015261492e8184613cb0565b905092915050565b600060208201905061494b6000830184613d0e565b92915050565b6000602082019050818103600083015261496b8184613d56565b905092915050565b6000604082019050818103600083015261498d8185613d56565b905061499c60208301846147d3565b9392505050565b600060208201905081810360008301526149bc81613dc0565b9050919050565b600060208201905081810360008301526149dc81613e00565b9050919050565b600060208201905081810360008301526149fc81613e8c565b9050919050565b60006020820190508181036000830152614a1c81613ef2565b9050919050565b60006020820190508181036000830152614a3c81613f58565b9050919050565b60006020820190508181036000830152614a5c81613fbe565b9050919050565b60006020820190508181036000830152614a7c81613ffe565b9050919050565b60006020820190508181036000830152614a9c81614064565b9050919050565b60006020820190508181036000830152614abc816140a4565b9050919050565b60006020820190508181036000830152614adc8161410a565b9050919050565b60006020820190508181036000830152614afc8161414a565b9050919050565b60006020820190508181036000830152614b1c816141b0565b9050919050565b60006020820190508181036000830152614b3c81614216565b9050919050565b60006020820190508181036000830152614b5c8161427c565b9050919050565b60006020820190508181036000830152614b7c816142e2565b9050919050565b60006020820190508181036000830152614b9c81614322565b9050919050565b60006020820190508181036000830152614bbc81614388565b9050919050565b60006020820190508181036000830152614bdc816143ee565b9050919050565b60006020820190508181036000830152614bfc8161442e565b9050919050565b60006020820190508181036000830152614c1c81614494565b9050919050565b60006020820190508181036000830152614c3c816144fa565b9050919050565b60006020820190508181036000830152614c5c81614560565b9050919050565b60006020820190508181036000830152614c7c816145c6565b9050919050565b60006020820190508181036000830152614c9c8161462c565b9050919050565b60006020820190508181036000830152614cbc81614692565b9050919050565b60006020820190508181036000830152614cdc8161471e565b9050919050565b60006020820190508181036000830152614cfc8161475e565b9050919050565b6000602082019050614d1860008301846147d3565b92915050565b600060a082019050614d3360008301886147d3565b614d4060208301876147d3565b614d4d60408301866147d3565b614d5a60608301856147d3565b614d6760808301846147d3565b9695505050505050565b600060e082019050614d86600083018a6147d3565b614d9360208301896147d3565b614da060408301886147d3565b614dad60608301876147d3565b614dba60808301866147d3565b614dc760a0830185613ca1565b614dd460c0830184613ca1565b98975050505050505050565b600060e082019050614df5600083018a6147d3565b614e0260208301896147d3565b614e0f60408301886147d3565b614e1c60608301876147d3565b614e2960808301866147d3565b614e3660a08301856147d3565b614e4360c0830184613ca1565b98975050505050505050565b6000604051905081810181811067ffffffffffffffff82111715614e7657614e7561523a565b5b8060405250919050565b600067ffffffffffffffff821115614e9b57614e9a61523a565b5b601f19601f8301169050602081019050919050565b6000819050602082019050919050565b600081519050919050565b600081519050919050565b600081519050919050565b6000602082019050919050565b600082825260208201905092915050565b600082825260208201905092915050565b600082825260208201905092915050565b600081905092915050565b6000614f37826150ab565b9150614f42836150ab565b9250827fffffffffffffffffffffffffffffffffffffffffffffffffffffffffffffffff03821115614f7757614f766151ad565b5b828201905092915050565b6000614f8d826150ab565b9150614f98836150ab565b925082614fa857614fa76151dc565b5b828204905092915050565b6000614fbe826150ab565b9150614fc9836150ab565b9250817fffffffffffffffffffffffffffffffffffffffffffffffffffffffffffffffff0483118215151615615002576150016151ad565b5b828202905092915050565b6000615018826150ab565b9150615023836150ab565b925082821015615036576150356151ad565b5b828203905092915050565b600061504c8261508b565b9050919050565b60008115159050919050565b60007fffffffff0000000000000000000000000000000000000000000000000000000082169050919050565b600073ffffffffffffffffffffffffffffffffffffffff82169050919050565b6000819050919050565b82818337600083830152505050565b60005b838110156150e25780820151818401526020810190506150c7565b838111156150f1576000848401525b50505050565b6000600282049050600182168061510f57607f821691505b602082108114156151235761512261520b565b5b50919050565b6000615134826150ab565b91507fffffffffffffffffffffffffffffffffffffffffffffffffffffffffffffffff821415615167576151666151ad565b5b600182019050919050565b6000819050919050565b6000615187826150ab565b9150615192836150ab565b9250826151a2576151a16151dc565b5b828206905092915050565b7f4e487b7100000000000000000000000000000000000000000000000000000000600052601160045260246000fd5b7f4e487b7100000000000000000000000000000000000000000000000000000000600052601260045260246000fd5b7f4e487b7100000000000000000000000000000000000000000000000000000000600052602260045260246000fd5b7f4e487b7100000000000000000000000000000000000000000000000000000000600052604160045260246000fd5b6000601f19601f8301169050919050565b61528381615041565b811461528e57600080fd5b50565b61529a81615053565b81146152a557600080fd5b50565b6152b18161505f565b81146152bc57600080fd5b50565b6152c8816150ab565b81146152d357600080fd5b5056fe5a65726f20616464726573733a20307830303030303030303030303030303030303030303030303030303030303030303030303030303030203d3e20692e652e20697420776173206275726e74a2646970667358221220b49be9ac90b09c765b972ff7184cfbe6c8cb5292d9eb270647378a9c2ecb0a1864736f6c63430008000033",
  "linkReferences": {},
  "deployedLinkReferences": {}
}