{
  "_format": "hh-sol-artifact-1",
  "contractName": "MonkeyContract",
  "sourceName": "contracts/MonkeyContract.sol",
  "abi": [
    {
      "inputs": [
        {
          "internalType": "address[]",
          "name": "_addressesArray",
          "type": "address[]"
        }
      ],
      "stateMutability": "nonpayable",
      "type": "constructor"
    },
    {
      "anonymous": false,
      "inputs": [
        {
          "indexed": true,
          "internalType": "address",
          "name": "owner",
          "type": "address"
        },
        {
          "indexed": true,
          "internalType": "address",
          "name": "approved",
          "type": "address"
        },
        {
          "indexed": true,
          "internalType": "uint256",
          "name": "tokenId",
          "type": "uint256"
        }
      ],
      "name": "Approval",
      "type": "event"
    },
    {
      "anonymous": false,
      "inputs": [
        {
          "indexed": true,
          "internalType": "address",
          "name": "owner",
          "type": "address"
        },
        {
          "indexed": true,
          "internalType": "address",
          "name": "operator",
          "type": "address"
        },
        {
          "indexed": false,
          "internalType": "bool",
          "name": "approved",
          "type": "bool"
        }
      ],
      "name": "ApprovalForAll",
      "type": "event"
    },
    {
      "anonymous": false,
      "inputs": [
        {
          "indexed": false,
          "internalType": "uint256",
          "name": "tokenId",
          "type": "uint256"
        },
        {
          "indexed": false,
          "internalType": "uint256",
          "name": "genes",
          "type": "uint256"
        },
        {
          "indexed": false,
          "internalType": "uint256",
          "name": "birthtime",
          "type": "uint256"
        },
        {
          "indexed": false,
          "internalType": "uint256",
          "name": "parent1Id",
          "type": "uint256"
        },
        {
          "indexed": false,
          "internalType": "uint256",
          "name": "parent2Id",
          "type": "uint256"
        },
        {
          "indexed": false,
          "internalType": "uint256",
          "name": "generation",
          "type": "uint256"
        },
        {
          "indexed": false,
          "internalType": "address",
          "name": "owner",
          "type": "address"
        }
      ],
      "name": "BreedingSuccessful",
      "type": "event"
    },
    {
      "anonymous": false,
      "inputs": [
        {
          "indexed": false,
          "internalType": "address",
          "name": "owner",
          "type": "address"
        },
        {
          "indexed": false,
          "internalType": "uint256",
          "name": "tokenId",
          "type": "uint256"
        },
        {
          "indexed": false,
          "internalType": "uint256",
          "name": "parent1Id",
          "type": "uint256"
        },
        {
          "indexed": false,
          "internalType": "uint256",
          "name": "parent2Id",
          "type": "uint256"
        },
        {
          "indexed": false,
          "internalType": "uint256",
          "name": "genes",
          "type": "uint256"
        }
      ],
      "name": "MonkeyCreated",
      "type": "event"
    },
    {
      "anonymous": false,
      "inputs": [
        {
          "indexed": true,
          "internalType": "address",
          "name": "previousOwner",
          "type": "address"
        },
        {
          "indexed": true,
          "internalType": "address",
          "name": "newOwner",
          "type": "address"
        }
      ],
      "name": "OwnershipTransferred",
      "type": "event"
    },
    {
      "anonymous": false,
      "inputs": [
        {
          "indexed": false,
          "internalType": "address",
          "name": "account",
          "type": "address"
        }
      ],
      "name": "Paused",
      "type": "event"
    },
    {
      "anonymous": false,
      "inputs": [
        {
          "indexed": true,
          "internalType": "address",
          "name": "from",
          "type": "address"
        },
        {
          "indexed": true,
          "internalType": "address",
          "name": "to",
          "type": "address"
        },
        {
          "indexed": true,
          "internalType": "uint256",
          "name": "tokenId",
          "type": "uint256"
        }
      ],
      "name": "Transfer",
      "type": "event"
    },
    {
      "anonymous": false,
      "inputs": [
        {
          "indexed": false,
          "internalType": "address",
          "name": "account",
          "type": "address"
        }
      ],
      "name": "Unpaused",
      "type": "event"
    },
    {
      "inputs": [],
      "name": "GEN0_Limit",
      "outputs": [
        {
          "internalType": "uint256",
          "name": "",
          "type": "uint256"
        }
      ],
      "stateMutability": "view",
      "type": "function"
    },
    {
      "inputs": [
        {
          "internalType": "uint256",
          "name": "",
          "type": "uint256"
        }
      ],
      "name": "allMonkeysArray",
      "outputs": [
        {
          "internalType": "uint256",
          "name": "parent1Id",
          "type": "uint256"
        },
        {
          "internalType": "uint256",
          "name": "parent2Id",
          "type": "uint256"
        },
        {
          "internalType": "uint256",
          "name": "generation",
          "type": "uint256"
        },
        {
          "internalType": "uint256",
          "name": "genes",
          "type": "uint256"
        },
        {
          "internalType": "uint256",
          "name": "birthtime",
          "type": "uint256"
        }
      ],
      "stateMutability": "view",
      "type": "function"
    },
    {
      "inputs": [
        {
          "internalType": "address",
          "name": "to",
          "type": "address"
        },
        {
          "internalType": "uint256",
          "name": "tokenId",
          "type": "uint256"
        }
      ],
      "name": "approve",
      "outputs": [],
      "stateMutability": "nonpayable",
      "type": "function"
    },
    {
      "inputs": [
        {
          "internalType": "address",
          "name": "owner",
          "type": "address"
        }
      ],
      "name": "balanceOf",
      "outputs": [
        {
          "internalType": "uint256",
          "name": "",
          "type": "uint256"
        }
      ],
      "stateMutability": "view",
      "type": "function"
    },
    {
      "inputs": [
        {
          "internalType": "uint256",
          "name": "_parent1Id",
          "type": "uint256"
        },
        {
          "internalType": "uint256",
          "name": "_parent2Id",
          "type": "uint256"
        }
      ],
      "name": "breed",
      "outputs": [
        {
          "internalType": "uint256",
          "name": "",
          "type": "uint256"
        }
      ],
      "stateMutability": "nonpayable",
      "type": "function"
    },
    {
      "inputs": [
        {
          "internalType": "uint256",
          "name": "_genes",
          "type": "uint256"
        },
        {
          "internalType": "address",
          "name": "_owner",
          "type": "address"
        }
      ],
      "name": "createDemoMonkey",
      "outputs": [
        {
          "internalType": "uint256",
          "name": "",
          "type": "uint256"
        }
      ],
      "stateMutability": "nonpayable",
      "type": "function"
    },
    {
      "inputs": [
        {
          "internalType": "uint256",
          "name": "_genes",
          "type": "uint256"
        }
      ],
      "name": "createGen0Monkey",
      "outputs": [],
      "stateMutability": "nonpayable",
      "type": "function"
    },
    {
      "inputs": [
        {
          "internalType": "address",
          "name": "owner",
          "type": "address"
        }
      ],
      "name": "findMonkeyIdsOfAddress",
      "outputs": [
        {
          "internalType": "uint256[]",
          "name": "",
          "type": "uint256[]"
        }
      ],
      "stateMutability": "view",
      "type": "function"
    },
    {
      "inputs": [],
      "name": "gen0amountTotal",
      "outputs": [
        {
          "internalType": "uint256",
          "name": "",
          "type": "uint256"
        }
      ],
      "stateMutability": "view",
      "type": "function"
    },
    {
      "inputs": [
        {
          "internalType": "uint256",
          "name": "tokenId",
          "type": "uint256"
        }
      ],
      "name": "getApproved",
      "outputs": [
        {
          "internalType": "address",
          "name": "",
          "type": "address"
        }
      ],
      "stateMutability": "view",
      "type": "function"
    },
    {
      "inputs": [],
      "name": "getMonkeyContractAddress",
      "outputs": [
        {
          "internalType": "address",
          "name": "",
          "type": "address"
        }
      ],
      "stateMutability": "view",
      "type": "function"
    },
    {
      "inputs": [
        {
          "internalType": "uint256",
          "name": "tokenId",
          "type": "uint256"
        }
      ],
      "name": "getMonkeyDetails",
      "outputs": [
        {
          "internalType": "uint256",
          "name": "genes",
          "type": "uint256"
        },
        {
          "internalType": "uint256",
          "name": "birthtime",
          "type": "uint256"
        },
        {
          "internalType": "uint256",
          "name": "parent1Id",
          "type": "uint256"
        },
        {
          "internalType": "uint256",
          "name": "parent2Id",
          "type": "uint256"
        },
        {
          "internalType": "uint256",
          "name": "generation",
          "type": "uint256"
        },
        {
          "internalType": "address",
          "name": "owner",
          "type": "address"
        },
        {
          "internalType": "address",
          "name": "approvedAddress",
          "type": "address"
        }
      ],
      "stateMutability": "view",
      "type": "function"
    },
    {
      "inputs": [
        {
          "internalType": "address",
          "name": "owner",
          "type": "address"
        },
        {
          "internalType": "address",
          "name": "operator",
          "type": "address"
        }
      ],
      "name": "isApprovedForAll",
      "outputs": [
        {
          "internalType": "bool",
          "name": "",
          "type": "bool"
        }
      ],
      "stateMutability": "view",
      "type": "function"
    },
    {
      "inputs": [],
      "name": "name",
      "outputs": [
        {
          "internalType": "string",
          "name": "",
          "type": "string"
        }
      ],
      "stateMutability": "view",
      "type": "function"
    },
    {
      "inputs": [],
      "name": "owner",
      "outputs": [
        {
          "internalType": "address",
          "name": "",
          "type": "address"
        }
      ],
      "stateMutability": "view",
      "type": "function"
    },
    {
      "inputs": [
        {
          "internalType": "uint256",
          "name": "tokenId",
          "type": "uint256"
        }
      ],
      "name": "ownerOf",
      "outputs": [
        {
          "internalType": "address",
          "name": "",
          "type": "address"
        }
      ],
      "stateMutability": "view",
      "type": "function"
    },
    {
      "inputs": [],
      "name": "pause",
      "outputs": [],
      "stateMutability": "nonpayable",
      "type": "function"
    },
    {
      "inputs": [],
      "name": "paused",
      "outputs": [
        {
          "internalType": "bool",
          "name": "",
          "type": "bool"
        }
      ],
      "stateMutability": "view",
      "type": "function"
    },
    {
      "inputs": [],
      "name": "renounceOwnership",
      "outputs": [],
      "stateMutability": "nonpayable",
      "type": "function"
    },
    {
      "inputs": [
        {
          "internalType": "address",
          "name": "from",
          "type": "address"
        },
        {
          "internalType": "address",
          "name": "to",
          "type": "address"
        },
        {
          "internalType": "uint256",
          "name": "tokenId",
          "type": "uint256"
        }
      ],
      "name": "safeTransferFrom",
      "outputs": [],
      "stateMutability": "nonpayable",
      "type": "function"
    },
    {
      "inputs": [
        {
          "internalType": "address",
          "name": "from",
          "type": "address"
        },
        {
          "internalType": "address",
          "name": "to",
          "type": "address"
        },
        {
          "internalType": "uint256",
          "name": "tokenId",
          "type": "uint256"
        },
        {
          "internalType": "bytes",
          "name": "_data",
          "type": "bytes"
        }
      ],
      "name": "safeTransferFrom",
      "outputs": [],
      "stateMutability": "nonpayable",
      "type": "function"
    },
    {
      "inputs": [
        {
          "internalType": "address",
          "name": "operator",
          "type": "address"
        },
        {
          "internalType": "bool",
          "name": "approved",
          "type": "bool"
        }
      ],
      "name": "setApprovalForAll",
      "outputs": [],
      "stateMutability": "nonpayable",
      "type": "function"
    },
    {
      "inputs": [
        {
          "internalType": "address",
          "name": "addressToLookup",
          "type": "address"
        }
      ],
      "name": "showAccountForAddress",
      "outputs": [],
      "stateMutability": "view",
      "type": "function"
    },
    {
      "inputs": [
        {
          "internalType": "bytes4",
          "name": "interfaceId",
          "type": "bytes4"
        }
      ],
      "name": "supportsInterface",
      "outputs": [
        {
          "internalType": "bool",
          "name": "",
          "type": "bool"
        }
      ],
      "stateMutability": "view",
      "type": "function"
    },
    {
      "inputs": [],
      "name": "symbol",
      "outputs": [
        {
          "internalType": "string",
          "name": "",
          "type": "string"
        }
      ],
      "stateMutability": "view",
      "type": "function"
    },
    {
      "inputs": [
        {
          "internalType": "uint256",
          "name": "index",
          "type": "uint256"
        }
      ],
      "name": "tokenByIndex",
      "outputs": [
        {
          "internalType": "uint256",
          "name": "",
          "type": "uint256"
        }
      ],
      "stateMutability": "view",
      "type": "function"
    },
    {
      "inputs": [
        {
          "internalType": "address",
          "name": "owner",
          "type": "address"
        },
        {
          "internalType": "uint256",
          "name": "index",
          "type": "uint256"
        }
      ],
      "name": "tokenOfOwnerByIndex",
      "outputs": [
        {
          "internalType": "uint256",
          "name": "",
          "type": "uint256"
        }
      ],
      "stateMutability": "view",
      "type": "function"
    },
    {
      "inputs": [
        {
          "internalType": "uint256",
          "name": "tokenId",
          "type": "uint256"
        }
      ],
      "name": "tokenURI",
      "outputs": [
        {
          "internalType": "string",
          "name": "",
          "type": "string"
        }
      ],
      "stateMutability": "view",
      "type": "function"
    },
    {
      "inputs": [],
      "name": "totalSupply",
      "outputs": [
        {
          "internalType": "uint256",
          "name": "",
          "type": "uint256"
        }
      ],
      "stateMutability": "view",
      "type": "function"
    },
    {
      "inputs": [
        {
          "internalType": "address",
          "name": "_from",
          "type": "address"
        },
        {
          "internalType": "address",
          "name": "_to",
          "type": "address"
        },
        {
          "internalType": "uint256",
          "name": "_tokenId",
          "type": "uint256"
        }
      ],
      "name": "transfer",
      "outputs": [],
      "stateMutability": "nonpayable",
      "type": "function"
    },
    {
      "inputs": [
        {
          "internalType": "address",
          "name": "from",
          "type": "address"
        },
        {
          "internalType": "address",
          "name": "to",
          "type": "address"
        },
        {
          "internalType": "uint256",
          "name": "tokenId",
          "type": "uint256"
        }
      ],
      "name": "transferFrom",
      "outputs": [],
      "stateMutability": "nonpayable",
      "type": "function"
    },
    {
      "inputs": [
        {
          "internalType": "address",
          "name": "newOwner",
          "type": "address"
        }
      ],
      "name": "transferOwnership",
      "outputs": [],
      "stateMutability": "nonpayable",
      "type": "function"
    },
    {
      "inputs": [],
      "name": "unpause",
      "outputs": [],
      "stateMutability": "nonpayable",
      "type": "function"
    }
  ],
  "bytecode": "0x6080604052600c600f553480156200001657600080fd5b50604051620071413803806200714183398181016040528101906200003c919062001619565b6040518060400160405280600e81526020017f43727970746f204d6f6e6b6579730000000000000000000000000000000000008152506040518060400160405280600681526020017f4d4f4e4b455900000000000000000000000000000000000000000000000000008152508160009080519060200190620000c09291906200140a565b508060019080519060200190620000d99291906200140a565b5050506000620000ee6200025160201b60201c565b905080600a60006101000a81548173ffffffffffffffffffffffffffffffffffffffff021916908373ffffffffffffffffffffffffffffffffffffffff1602179055508073ffffffffffffffffffffffffffffffffffffffff16600073ffffffffffffffffffffffffffffffffffffffff167f8be0079c531659141344cd1fd0a4f28419497f9722a3daafe3b4186f6b6457e060405160405180910390a3506001600b819055506000600c60006101000a81548160ff02191690831515021790555080600d9080519060200190620001c89291906200149b565b5030600e60006101000a81548173ffffffffffffffffffffffffffffffffffffffff021916908373ffffffffffffffffffffffffffffffffffffffff1602179055506200023760008060006604503ef19324976200022b6200025160201b60201c565b6200025960201b60201c565b506200024a6000620003be60201b60201c565b5062001eb0565b600033905090565b60006200026b620004b060201b60201c565b15620002ae576040517f08c379a0000000000000000000000000000000000000000000000000000000008152600401620002a59062001b14565b60405180910390fd5b60006040518060a0016040528088815260200187815260200186815260200185815260200142815250905060118190806001815401808255809150506001900390600052602060002090600502016000909190919091506000820151816000015560208201518160010155604082015181600201556060820151816003015560808201518160040155505060006200035b6001601180549050620004c760201b62001f751790919060201c565b90506200036f8482620004df60201b60201c565b7f0b1e9a74eeaae184646d7a35062426460c8c9364005c6d441cce036dd9c655d584828a8a89604051620003a895949392919062001a51565b60405180910390a1809250505095945050505050565b6002600b54141562000407576040517f08c379a0000000000000000000000000000000000000000000000000000000008152600401620003fe9062001bbe565b60405180910390fd5b6002600b819055506200041f620004b060201b60201c565b1562000462576040517f08c379a0000000000000000000000000000000000000000000000000000000008152600401620004599062001b14565b60405180910390fd5b60011515620004876200047a6200025160201b60201c565b836200050560201b60201c565b1515146200049457600080fd5b620004a5816200060d60201b60201c565b6001600b8190555050565b6000600c60009054906101000a900460ff16905090565b60008183620004d7919062001ccd565b905092915050565b620005018282604051806020016040528060008152506200073d60201b60201c565b5050565b60006200051882620007ab60201b60201c565b6200055a576040517f08c379a0000000000000000000000000000000000000000000000000000000008152600401620005519062001af2565b60405180910390fd5b600062000572836200081760201b62000e911760201c565b90508073ffffffffffffffffffffffffffffffffffffffff168473ffffffffffffffffffffffffffffffffffffffff161480620005ea57508373ffffffffffffffffffffffffffffffffffffffff16620005d284620008cc60201b60201c565b73ffffffffffffffffffffffffffffffffffffffff16145b806200060457506200060381856200095c60201b60201c565b5b91505092915050565b600062000625826200081760201b62000e911760201c565b90506200063b81600084620009f060201b60201c565b6200064e60008362000b3760201b60201c565b6001600360008373ffffffffffffffffffffffffffffffffffffffff1673ffffffffffffffffffffffffffffffffffffffff1681526020019081526020016000206000828254620006a0919062001ccd565b925050819055506002600083815260200190815260200160002060006101000a81549073ffffffffffffffffffffffffffffffffffffffff021916905581600073ffffffffffffffffffffffffffffffffffffffff168273ffffffffffffffffffffffffffffffffffffffff167fddf252ad1be2c89b69c2b068fc378daa952ba7f163c4a11628f55a4df523b3ef60405160405180910390a45050565b6200074f838362000bfd60201b60201c565b62000764600084848462000de360201b60201c565b620007a6576040517f08c379a00000000000000000000000000000000000000000000000000000000081526004016200079d9062001aae565b60405180910390fd5b505050565b60008073ffffffffffffffffffffffffffffffffffffffff166002600084815260200190815260200160002060009054906101000a900473ffffffffffffffffffffffffffffffffffffffff1673ffffffffffffffffffffffffffffffffffffffff1614159050919050565b6000806002600084815260200190815260200160002060009054906101000a900473ffffffffffffffffffffffffffffffffffffffff169050600073ffffffffffffffffffffffffffffffffffffffff168173ffffffffffffffffffffffffffffffffffffffff161415620008c3576040517f08c379a0000000000000000000000000000000000000000000000000000000008152600401620008ba9062001b58565b60405180910390fd5b80915050919050565b6000620008df82620007ab60201b60201c565b62000921576040517f08c379a0000000000000000000000000000000000000000000000000000000008152600401620009189062001b9c565b60405180910390fd5b6004600083815260200190815260200160002060009054906101000a900473ffffffffffffffffffffffffffffffffffffffff169050919050565b6000600560008473ffffffffffffffffffffffffffffffffffffffff1673ffffffffffffffffffffffffffffffffffffffff16815260200190815260200160002060008373ffffffffffffffffffffffffffffffffffffffff1673ffffffffffffffffffffffffffffffffffffffff16815260200190815260200160002060009054906101000a900460ff16905092915050565b62000a0883838362000f9d60201b62001f8b1760201c565b600073ffffffffffffffffffffffffffffffffffffffff168373ffffffffffffffffffffffffffffffffffffffff16141562000a555762000a4f8162000fa260201b60201c565b62000a9d565b8173ffffffffffffffffffffffffffffffffffffffff168373ffffffffffffffffffffffffffffffffffffffff161462000a9c5762000a9b838262000feb60201b60201c565b5b5b600073ffffffffffffffffffffffffffffffffffffffff168273ffffffffffffffffffffffffffffffffffffffff16141562000aea5762000ae4816200116860201b60201c565b62000b32565b8273ffffffffffffffffffffffffffffffffffffffff168273ffffffffffffffffffffffffffffffffffffffff161462000b315762000b308282620012b060201b60201c565b5b5b505050565b816004600083815260200190815260200160002060006101000a81548173ffffffffffffffffffffffffffffffffffffffff021916908373ffffffffffffffffffffffffffffffffffffffff160217905550808273ffffffffffffffffffffffffffffffffffffffff1662000bb7836200081760201b62000e911760201c565b73ffffffffffffffffffffffffffffffffffffffff167f8c5be1e5ebec7d5bd14f71427d1e84f3dd0314c0f7b2291e5b200ac8c7c3b92560405160405180910390a45050565b600073ffffffffffffffffffffffffffffffffffffffff168273ffffffffffffffffffffffffffffffffffffffff16141562000c70576040517f08c379a000000000000000000000000000000000000000000000000000000000815260040162000c679062001b7a565b60405180910390fd5b62000c8181620007ab60201b60201c565b1562000cc4576040517f08c379a000000000000000000000000000000000000000000000000000000000815260040162000cbb9062001ad0565b60405180910390fd5b62000cd860008383620009f060201b60201c565b6001600360008473ffffffffffffffffffffffffffffffffffffffff1673ffffffffffffffffffffffffffffffffffffffff168152602001908152602001600020600082825462000d2a919062001c70565b92505081905550816002600083815260200190815260200160002060006101000a81548173ffffffffffffffffffffffffffffffffffffffff021916908373ffffffffffffffffffffffffffffffffffffffff160217905550808273ffffffffffffffffffffffffffffffffffffffff16600073ffffffffffffffffffffffffffffffffffffffff167fddf252ad1be2c89b69c2b068fc378daa952ba7f163c4a11628f55a4df523b3ef60405160405180910390a45050565b600062000e118473ffffffffffffffffffffffffffffffffffffffff166200133c60201b62001f901760201c565b1562000f90578373ffffffffffffffffffffffffffffffffffffffff1663150b7a0262000e436200025160201b60201c565b8786866040518563ffffffff1660e01b815260040162000e679493929190620019fd565b602060405180830381600087803b15801562000e8257600080fd5b505af192505050801562000eb657506040513d601f19601f8201168201806040525081019062000eb391906200165e565b60015b62000f3f573d806000811462000ee9576040519150601f19603f3d011682016040523d82523d6000602084013e62000eee565b606091505b5060008151141562000f37576040517f08c379a000000000000000000000000000000000000000000000000000000000815260040162000f2e9062001aae565b60405180910390fd5b805181602001fd5b63150b7a0260e01b7bffffffffffffffffffffffffffffffffffffffffffffffffffffffff1916817bffffffffffffffffffffffffffffffffffffffffffffffffffffffff19161491505062000f95565b600190505b949350505050565b505050565b6008805490506009600083815260200190815260200160002081905550600881908060018154018082558091505060019003906000526020600020016000909190919091505550565b6000600162001005846200134f60201b62000f431760201c565b62001011919062001ccd565b9050600060076000848152602001908152602001600020549050818114620010f7576000600660008673ffffffffffffffffffffffffffffffffffffffff1673ffffffffffffffffffffffffffffffffffffffff168152602001908152602001600020600084815260200190815260200160002054905080600660008773ffffffffffffffffffffffffffffffffffffffff1673ffffffffffffffffffffffffffffffffffffffff168152602001908152602001600020600084815260200190815260200160002081905550816007600083815260200190815260200160002081905550505b6007600084815260200190815260200160002060009055600660008573ffffffffffffffffffffffffffffffffffffffff1673ffffffffffffffffffffffffffffffffffffffff16815260200190815260200160002060008381526020019081526020016000206000905550505050565b600060016008805490506200117e919062001ccd565b9050600060096000848152602001908152602001600020549050600060088381548110620011d5577f4e487b7100000000000000000000000000000000000000000000000000000000600052603260045260246000fd5b9060005260206000200154905080600883815481106200121e577f4e487b7100000000000000000000000000000000000000000000000000000000600052603260045260246000fd5b90600052602060002001819055508160096000838152602001908152602001600020819055506009600085815260200190815260200160002060009055600880548062001294577f4e487b7100000000000000000000000000000000000000000000000000000000600052603160045260246000fd5b6001900381819060005260206000200160009055905550505050565b6000620012c8836200134f60201b62000f431760201c565b905081600660008573ffffffffffffffffffffffffffffffffffffffff1673ffffffffffffffffffffffffffffffffffffffff168152602001908152602001600020600083815260200190815260200160002081905550806007600084815260200190815260200160002081905550505050565b600080823b905060008111915050919050565b60008073ffffffffffffffffffffffffffffffffffffffff168273ffffffffffffffffffffffffffffffffffffffff161415620013c3576040517f08c379a0000000000000000000000000000000000000000000000000000000008152600401620013ba9062001b36565b60405180910390fd5b600360008373ffffffffffffffffffffffffffffffffffffffff1673ffffffffffffffffffffffffffffffffffffffff168152602001908152602001600020549050919050565b828054620014189062001da8565b90600052602060002090601f0160209004810192826200143c576000855562001488565b82601f106200145757805160ff191683800117855562001488565b8280016001018555821562001488579182015b82811115620014875782518255916020019190600101906200146a565b5b5090506200149791906200152a565b5090565b82805482825590600052602060002090810192821562001517579160200282015b82811115620015165782518260006101000a81548173ffffffffffffffffffffffffffffffffffffffff021916908373ffffffffffffffffffffffffffffffffffffffff16021790555091602001919060010190620014bc565b5b5090506200152691906200152a565b5090565b5b80821115620015455760008160009055506001016200152b565b5090565b6000620015606200155a8462001c14565b62001be0565b905080838252602082019050828560208602820111156200158057600080fd5b60005b85811015620015b45781620015998882620015be565b84526020840193506020830192505060018101905062001583565b5050509392505050565b600081519050620015cf8162001e7c565b92915050565b600082601f830112620015e757600080fd5b8151620015f984826020860162001549565b91505092915050565b600081519050620016138162001e96565b92915050565b6000602082840312156200162c57600080fd5b600082015167ffffffffffffffff8111156200164757600080fd5b6200165584828501620015d5565b91505092915050565b6000602082840312156200167157600080fd5b6000620016818482850162001602565b91505092915050565b620016958162001d08565b82525050565b6000620016a88262001c43565b620016b4818562001c4e565b9350620016c681856020860162001d72565b620016d18162001e6b565b840191505092915050565b6000620016eb60328362001c5f565b91507f4552433732313a207472616e7366657220746f206e6f6e20455243373231526560008301527f63656976657220696d706c656d656e74657200000000000000000000000000006020830152604082019050919050565b600062001753601c8362001c5f565b91507f4552433732313a20746f6b656e20616c7265616479206d696e746564000000006000830152602082019050919050565b600062001795602c8362001c5f565b91507f4552433732313a206f70657261746f7220717565727920666f72206e6f6e657860008301527f697374656e7420746f6b656e00000000000000000000000000000000000000006020830152604082019050919050565b6000620017fd60108362001c5f565b91507f5061757361626c653a20706175736564000000000000000000000000000000006000830152602082019050919050565b60006200183f602a8362001c5f565b91507f4552433732313a2062616c616e636520717565727920666f7220746865207a6560008301527f726f2061646472657373000000000000000000000000000000000000000000006020830152604082019050919050565b6000620018a760298362001c5f565b91507f4552433732313a206f776e657220717565727920666f72206e6f6e657869737460008301527f656e7420746f6b656e00000000000000000000000000000000000000000000006020830152604082019050919050565b60006200190f60208362001c5f565b91507f4552433732313a206d696e7420746f20746865207a65726f20616464726573736000830152602082019050919050565b600062001951602c8362001c5f565b91507f4552433732313a20617070726f76656420717565727920666f72206e6f6e657860008301527f697374656e7420746f6b656e00000000000000000000000000000000000000006020830152604082019050919050565b6000620019b9601f8362001c5f565b91507f5265656e7472616e637947756172643a207265656e7472616e742063616c6c006000830152602082019050919050565b620019f78162001d68565b82525050565b600060808201905062001a1460008301876200168a565b62001a2360208301866200168a565b62001a326040830185620019ec565b818103606083015262001a4681846200169b565b905095945050505050565b600060a08201905062001a6860008301886200168a565b62001a776020830187620019ec565b62001a866040830186620019ec565b62001a956060830185620019ec565b62001aa46080830184620019ec565b9695505050505050565b6000602082019050818103600083015262001ac981620016dc565b9050919050565b6000602082019050818103600083015262001aeb8162001744565b9050919050565b6000602082019050818103600083015262001b0d8162001786565b9050919050565b6000602082019050818103600083015262001b2f81620017ee565b9050919050565b6000602082019050818103600083015262001b518162001830565b9050919050565b6000602082019050818103600083015262001b738162001898565b9050919050565b6000602082019050818103600083015262001b958162001900565b9050919050565b6000602082019050818103600083015262001bb78162001942565b9050919050565b6000602082019050818103600083015262001bd981620019aa565b9050919050565b6000604051905081810181811067ffffffffffffffff8211171562001c0a5762001c0962001e3c565b5b8060405250919050565b600067ffffffffffffffff82111562001c325762001c3162001e3c565b5b602082029050602081019050919050565b600081519050919050565b600082825260208201905092915050565b600082825260208201905092915050565b600062001c7d8262001d68565b915062001c8a8362001d68565b9250827fffffffffffffffffffffffffffffffffffffffffffffffffffffffffffffffff0382111562001cc25762001cc162001dde565b5b828201905092915050565b600062001cda8262001d68565b915062001ce78362001d68565b92508282101562001cfd5762001cfc62001dde565b5b828203905092915050565b600062001d158262001d48565b9050919050565b60007fffffffff0000000000000000000000000000000000000000000000000000000082169050919050565b600073ffffffffffffffffffffffffffffffffffffffff82169050919050565b6000819050919050565b60005b8381101562001d9257808201518184015260208101905062001d75565b8381111562001da2576000848401525b50505050565b6000600282049050600182168062001dc157607f821691505b6020821081141562001dd85762001dd762001e0d565b5b50919050565b7f4e487b7100000000000000000000000000000000000000000000000000000000600052601160045260246000fd5b7f4e487b7100000000000000000000000000000000000000000000000000000000600052602260045260246000fd5b7f4e487b7100000000000000000000000000000000000000000000000000000000600052604160045260246000fd5b6000601f19601f8301169050919050565b62001e878162001d08565b811462001e9357600080fd5b50565b62001ea18162001d1c565b811462001ead57600080fd5b50565b6152818062001ec06000396000f3fe608060405234801561001057600080fd5b50600436106101fb5760003560e01c806370a082311161011a578063c87b56dd116100ad578063db0027941161007c578063db002794146105ce578063e985e9c5146105fe578063ef742fc11461062e578063f2fde38b1461064a578063f91ba67414610666576101fb565b8063c87b56dd14610534578063cc5739e014610564578063d9ecad7b14610580578063daa97fae146105b0576101fb565b806395d89b41116100e957806395d89b41146104c2578063a22cb465146104e0578063b88d4fde146104fc578063beabacc814610518576101fb565b806370a0823114610460578063715018a6146104905780638456cb591461049a5780638da5cb5b146104a4576101fb565b806323b872dd1161019257806342842e0e1161016157806342842e0e146103c65780634f6ccce7146103e25780635c975abb146104125780636352211e14610430576101fb565b806323b872dd1461033a5780632558e25f146103565780632f745c591461038c5780633f4ba83a146103bc576101fb565b8063095ea7b3116101ce578063095ea7b31461029c57806318160ddd146102b85780631b0a1aed146102d65780631b41727814610306576101fb565b806301ffc9a71461020057806306fdde0314610230578063081812fc1461024e5780630917cffe1461027e575b600080fd5b61021a60048036038101906102159190613abe565b610684565b604051610227919061485e565b60405180910390f35b6102386106fe565b6040516102459190614879565b60405180910390f35b61026860048036038101906102639190613b10565b610790565b6040516102759190614782565b60405180910390f35b610286610815565b6040516102939190614c2b565b60405180910390f35b6102b660048036038101906102b19190613a82565b61081b565b005b6102c0610933565b6040516102cd9190614c2b565b60405180910390f35b6102f060048036038101906102eb9190613917565b610940565b6040516102fd919061483c565b60405180910390f35b610320600480360381019061031b9190613b10565b610a40565b604051610331959493929190614c46565b60405180910390f35b610354600480360381019061034f919061397c565b610a86565b005b610370600480360381019061036b9190613b10565b610ae6565b6040516103839796959493929190614c99565b60405180910390f35b6103a660048036038101906103a19190613a82565b610c98565b6040516103b39190614c2b565b60405180910390f35b6103c4610d3d565b005b6103e060048036038101906103db919061397c565b610dc3565b005b6103fc60048036038101906103f79190613b10565b610de3565b6040516104099190614c2b565b60405180910390f35b61041a610e7a565b604051610427919061485e565b60405180910390f35b61044a60048036038101906104459190613b10565b610e91565b6040516104579190614782565b60405180910390f35b61047a60048036038101906104759190613917565b610f43565b6040516104879190614c2b565b60405180910390f35b610498610ffb565b005b6104a2611138565b005b6104ac6111be565b6040516104b99190614782565b60405180910390f35b6104ca6111e8565b6040516104d79190614879565b60405180910390f35b6104fa60048036038101906104f59190613a46565b61127a565b005b610516600480360381019061051191906139cb565b6113fb565b005b610532600480360381019061052d919061397c565b61145d565b005b61054e60048036038101906105499190613b10565b611641565b60405161055b9190614879565b60405180910390f35b61057e60048036038101906105799190613917565b6116e8565b005b61059a60048036038101906105959190613b75565b611843565b6040516105a79190614c2b565b60405180910390f35b6105b8611bf3565b6040516105c59190614782565b60405180910390f35b6105e860048036038101906105e39190613b39565b611c1d565b6040516105f59190614c2b565b60405180910390f35b61061860048036038101906106139190613940565b611c3b565b604051610625919061485e565b60405180910390f35b61064860048036038101906106439190613b10565b611ccf565b005b610664600480360381019061065f9190613917565b611dc3565b005b61066e611f6f565b60405161067b9190614c2b565b60405180910390f35b60007f780e9d63000000000000000000000000000000000000000000000000000000007bffffffffffffffffffffffffffffffffffffffffffffffffffffffff1916827bffffffffffffffffffffffffffffffffffffffffffffffffffffffff191614806106f757506106f682611fa3565b5b9050919050565b60606000805461070d9061501f565b80601f01602080910402602001604051908101604052809291908181526020018280546107399061501f565b80156107865780601f1061075b57610100808354040283529160200191610786565b820191906000526020600020905b81548152906001019060200180831161076957829003601f168201915b5050505050905090565b600061079b82612085565b6107da576040517f08c379a00000000000000000000000000000000000000000000000000000000081526004016107d190614acb565b60405180910390fd5b6004600083815260200190815260200160002060009054906101000a900473ffffffffffffffffffffffffffffffffffffffff169050919050565b60105481565b600061082682610e91565b90508073ffffffffffffffffffffffffffffffffffffffff168373ffffffffffffffffffffffffffffffffffffffff161415610897576040517f08c379a000000000000000000000000000000000000000000000000000000000815260040161088e90614b4b565b60405180910390fd5b8073ffffffffffffffffffffffffffffffffffffffff166108b66120f1565b73ffffffffffffffffffffffffffffffffffffffff1614806108e557506108e4816108df6120f1565b611c3b565b5b610924576040517f08c379a000000000000000000000000000000000000000000000000000000000815260040161091b906149eb565b60405180910390fd5b61092e83836120f9565b505050565b6000600880549050905090565b6060600061094d83610f43565b905060008167ffffffffffffffff811115610991577f4e487b7100000000000000000000000000000000000000000000000000000000600052604160045260246000fd5b6040519080825280602002602001820160405280156109bf5781602001602082028036833780820191505090505b50905060005b82811015610a355760006109d98683610c98565b905080838381518110610a15577f4e487b7100000000000000000000000000000000000000000000000000000000600052603260045260246000fd5b602002602001018181525050508080610a2d90615051565b9150506109c5565b508092505050919050565b60118181548110610a5057600080fd5b90600052602060002090600502016000915090508060000154908060010154908060020154908060030154908060040154905085565b610a97610a916120f1565b826121b2565b610ad6576040517f08c379a0000000000000000000000000000000000000000000000000000000008152600401610acd90614b8b565b60405180910390fd5b610ae1838383612290565b505050565b600080600080600080600060118881548110610b2b577f4e487b7100000000000000000000000000000000000000000000000000000000600052603260045260246000fd5b90600052602060002090600502016003015460118981548110610b77577f4e487b7100000000000000000000000000000000000000000000000000000000600052603260045260246000fd5b90600052602060002090600502016004015460118a81548110610bc3577f4e487b7100000000000000000000000000000000000000000000000000000000600052603260045260246000fd5b90600052602060002090600502016000015460118b81548110610c0f577f4e487b7100000000000000000000000000000000000000000000000000000000600052603260045260246000fd5b90600052602060002090600502016001015460118c81548110610c5b577f4e487b7100000000000000000000000000000000000000000000000000000000600052603260045260246000fd5b906000526020600020906005020160020154610c768d610e91565b610c7f8e610790565b9650965096509650965096509650919395979092949650565b6000610ca383610f43565b8210610ce4576040517f08c379a0000000000000000000000000000000000000000000000000000000008152600401610cdb906148eb565b60405180910390fd5b600660008473ffffffffffffffffffffffffffffffffffffffff1673ffffffffffffffffffffffffffffffffffffffff168152602001908152602001600020600083815260200190815260200160002054905092915050565b610d456120f1565b73ffffffffffffffffffffffffffffffffffffffff16610d636111be565b73ffffffffffffffffffffffffffffffffffffffff1614610db9576040517f08c379a0000000000000000000000000000000000000000000000000000000008152600401610db090614aeb565b60405180910390fd5b610dc16124ec565b565b610dde838383604051806020016040528060008152506113fb565b505050565b6000610ded610933565b8210610e2e576040517f08c379a0000000000000000000000000000000000000000000000000000000008152600401610e2590614bab565b60405180910390fd5b60088281548110610e68577f4e487b7100000000000000000000000000000000000000000000000000000000600052603260045260246000fd5b90600052602060002001549050919050565b6000600c60009054906101000a900460ff16905090565b6000806002600084815260200190815260200160002060009054906101000a900473ffffffffffffffffffffffffffffffffffffffff169050600073ffffffffffffffffffffffffffffffffffffffff168173ffffffffffffffffffffffffffffffffffffffff161415610f3a576040517f08c379a0000000000000000000000000000000000000000000000000000000008152600401610f3190614a4b565b60405180910390fd5b80915050919050565b60008073ffffffffffffffffffffffffffffffffffffffff168273ffffffffffffffffffffffffffffffffffffffff161415610fb4576040517f08c379a0000000000000000000000000000000000000000000000000000000008152600401610fab90614a2b565b60405180910390fd5b600360008373ffffffffffffffffffffffffffffffffffffffff1673ffffffffffffffffffffffffffffffffffffffff168152602001908152602001600020549050919050565b6110036120f1565b73ffffffffffffffffffffffffffffffffffffffff166110216111be565b73ffffffffffffffffffffffffffffffffffffffff1614611077576040517f08c379a000000000000000000000000000000000000000000000000000000000815260040161106e90614aeb565b60405180910390fd5b600073ffffffffffffffffffffffffffffffffffffffff16600a60009054906101000a900473ffffffffffffffffffffffffffffffffffffffff1673ffffffffffffffffffffffffffffffffffffffff167f8be0079c531659141344cd1fd0a4f28419497f9722a3daafe3b4186f6b6457e060405160405180910390a36000600a60006101000a81548173ffffffffffffffffffffffffffffffffffffffff021916908373ffffffffffffffffffffffffffffffffffffffff160217905550565b6111406120f1565b73ffffffffffffffffffffffffffffffffffffffff1661115e6111be565b73ffffffffffffffffffffffffffffffffffffffff16146111b4576040517f08c379a00000000000000000000000000000000000000000000000000000000081526004016111ab90614aeb565b60405180910390fd5b6111bc61258e565b565b6000600a60009054906101000a900473ffffffffffffffffffffffffffffffffffffffff16905090565b6060600180546111f79061501f565b80601f01602080910402602001604051908101604052809291908181526020018280546112239061501f565b80156112705780601f1061124557610100808354040283529160200191611270565b820191906000526020600020905b81548152906001019060200180831161125357829003601f168201915b5050505050905090565b6112826120f1565b73ffffffffffffffffffffffffffffffffffffffff168273ffffffffffffffffffffffffffffffffffffffff1614156112f0576040517f08c379a00000000000000000000000000000000000000000000000000000000081526004016112e79061498b565b60405180910390fd5b80600560006112fd6120f1565b73ffffffffffffffffffffffffffffffffffffffff1673ffffffffffffffffffffffffffffffffffffffff16815260200190815260200160002060008473ffffffffffffffffffffffffffffffffffffffff1673ffffffffffffffffffffffffffffffffffffffff16815260200190815260200160002060006101000a81548160ff0219169083151502179055508173ffffffffffffffffffffffffffffffffffffffff166113aa6120f1565b73ffffffffffffffffffffffffffffffffffffffff167f17307eab39ab6107e8899845ad3d59bd9653f200f220920489ca2b5937696c31836040516113ef919061485e565b60405180910390a35050565b61140c6114066120f1565b836121b2565b61144b576040517f08c379a000000000000000000000000000000000000000000000000000000000815260040161144290614b8b565b60405180910390fd5b61145784848484612631565b50505050565b6002600b5414156114a3576040517f08c379a000000000000000000000000000000000000000000000000000000000815260040161149a90614beb565b60405180910390fd5b6002600b819055506114b3610e7a565b156114f3576040517f08c379a00000000000000000000000000000000000000000000000000000000081526004016114ea906149cb565b60405180910390fd5b600073ffffffffffffffffffffffffffffffffffffffff168273ffffffffffffffffffffffffffffffffffffffff161415611563576040517f08c379a000000000000000000000000000000000000000000000000000000000815260040161155a90614a6b565b60405180910390fd5b3073ffffffffffffffffffffffffffffffffffffffff168273ffffffffffffffffffffffffffffffffffffffff1614156115d2576040517f08c379a00000000000000000000000000000000000000000000000000000000081526004016115c990614b6b565b60405180910390fd5b600115156115e76115e16120f1565b836121b2565b151514611629576040517f08c379a000000000000000000000000000000000000000000000000000000000815260040161162090614bcb565b60405180910390fd5b611634838383610dc3565b6001600b81905550505050565b606061164c82612085565b61168b576040517f08c379a000000000000000000000000000000000000000000000000000000000815260040161168290614b2b565b60405180910390fd5b600061169561268d565b905060008151116116b557604051806020016040528060008152506116e0565b806116bf846126a4565b6040516020016116d0929190614721565b6040516020818303038152906040525b915050919050565b60005b600d8054905081101561183f578173ffffffffffffffffffffffffffffffffffffffff16600d8281548110611749577f4e487b7100000000000000000000000000000000000000000000000000000000600052603260045260246000fd5b9060005260206000200160009054906101000a900473ffffffffffffffffffffffffffffffffffffffff1673ffffffffffffffffffffffffffffffffffffffff1614156117d4576117cf6040518060400160405280600c81526020017f6163636f756e74735b25735d000000000000000000000000000000000000000081525082612851565b61182c565b600073ffffffffffffffffffffffffffffffffffffffff168273ffffffffffffffffffffffffffffffffffffffff16141561182b5761182a6040518060800160405280604d81526020016151ff604d91396128ed565b5b5b808061183790615051565b9150506116eb565b5050565b600061184d610e7a565b1561188d576040517f08c379a0000000000000000000000000000000000000000000000000000000008152600401611884906149cb565b60405180910390fd5b6118956120f1565b73ffffffffffffffffffffffffffffffffffffffff166118b484610e91565b73ffffffffffffffffffffffffffffffffffffffff1614801561191157506118da6120f1565b73ffffffffffffffffffffffffffffffffffffffff166118f983610e91565b73ffffffffffffffffffffffffffffffffffffffff16145b611950576040517f08c379a000000000000000000000000000000000000000000000000000000000815260040161194790614aab565b60405180910390fd5b60006011848154811061198c577f4e487b7100000000000000000000000000000000000000000000000000000000600052603260045260246000fd5b90600052602060002090600502016003015490506000601184815481106119dc577f4e487b7100000000000000000000000000000000000000000000000000000000600052603260045260246000fd5b906000526020600020906005020160030154905060006119fc8383612986565b90506000611a0a8787612c2e565b90506000611a2288888486611a1d6120f1565b612dc9565b90507f8e3541d6cb6a06d3a1785ca3c18fa6ca7b39a6278433734c442e2ebfe623e2ea8160118381548110611a80577f4e487b7100000000000000000000000000000000000000000000000000000000600052603260045260246000fd5b90600052602060002090600502016003015460118481548110611acc577f4e487b7100000000000000000000000000000000000000000000000000000000600052603260045260246000fd5b90600052602060002090600502016004015460118581548110611b18577f4e487b7100000000000000000000000000000000000000000000000000000000600052603260045260246000fd5b90600052602060002090600502016000015460118681548110611b64577f4e487b7100000000000000000000000000000000000000000000000000000000600052603260045260246000fd5b90600052602060002090600502016001015460118781548110611bb0577f4e487b7100000000000000000000000000000000000000000000000000000000600052603260045260246000fd5b906000526020600020906005020160020154611bca6120f1565b604051611bdd9796959493929190614d08565b60405180910390a1809550505050505092915050565b6000600e60009054906101000a900473ffffffffffffffffffffffffffffffffffffffff16905090565b600080611c2f60638060638787612dc9565b90508091505092915050565b6000600560008473ffffffffffffffffffffffffffffffffffffffff1673ffffffffffffffffffffffffffffffffffffffff16815260200190815260200160002060008373ffffffffffffffffffffffffffffffffffffffff1673ffffffffffffffffffffffffffffffffffffffff16815260200190815260200160002060009054906101000a900460ff16905092915050565b611cd76120f1565b73ffffffffffffffffffffffffffffffffffffffff16611cf56111be565b73ffffffffffffffffffffffffffffffffffffffff1614611d4b576040517f08c379a0000000000000000000000000000000000000000000000000000000008152600401611d4290614aeb565b60405180910390fd5b600f5460105410611d91576040517f08c379a0000000000000000000000000000000000000000000000000000000008152600401611d8890614c0b565b60405180910390fd5b60106000815480929190611da490615051565b9190505550611dbf600080600084611dba6120f1565b612dc9565b5050565b611dcb6120f1565b73ffffffffffffffffffffffffffffffffffffffff16611de96111be565b73ffffffffffffffffffffffffffffffffffffffff1614611e3f576040517f08c379a0000000000000000000000000000000000000000000000000000000008152600401611e3690614aeb565b60405180910390fd5b600073ffffffffffffffffffffffffffffffffffffffff168173ffffffffffffffffffffffffffffffffffffffff161415611eaf576040517f08c379a0000000000000000000000000000000000000000000000000000000008152600401611ea69061492b565b60405180910390fd5b8073ffffffffffffffffffffffffffffffffffffffff16600a60009054906101000a900473ffffffffffffffffffffffffffffffffffffffff1673ffffffffffffffffffffffffffffffffffffffff167f8be0079c531659141344cd1fd0a4f28419497f9722a3daafe3b4186f6b6457e060405160405180910390a380600a60006101000a81548173ffffffffffffffffffffffffffffffffffffffff021916908373ffffffffffffffffffffffffffffffffffffffff16021790555050565b600f5481565b60008183611f839190614f35565b905092915050565b505050565b600080823b905060008111915050919050565b60007f80ac58cd000000000000000000000000000000000000000000000000000000007bffffffffffffffffffffffffffffffffffffffffffffffffffffffff1916827bffffffffffffffffffffffffffffffffffffffffffffffffffffffff1916148061206e57507f5b5e139f000000000000000000000000000000000000000000000000000000007bffffffffffffffffffffffffffffffffffffffffffffffffffffffff1916827bffffffffffffffffffffffffffffffffffffffffffffffffffffffff1916145b8061207e575061207d82612f12565b5b9050919050565b60008073ffffffffffffffffffffffffffffffffffffffff166002600084815260200190815260200160002060009054906101000a900473ffffffffffffffffffffffffffffffffffffffff1673ffffffffffffffffffffffffffffffffffffffff1614159050919050565b600033905090565b816004600083815260200190815260200160002060006101000a81548173ffffffffffffffffffffffffffffffffffffffff021916908373ffffffffffffffffffffffffffffffffffffffff160217905550808273ffffffffffffffffffffffffffffffffffffffff1661216c83610e91565b73ffffffffffffffffffffffffffffffffffffffff167f8c5be1e5ebec7d5bd14f71427d1e84f3dd0314c0f7b2291e5b200ac8c7c3b92560405160405180910390a45050565b60006121bd82612085565b6121fc576040517f08c379a00000000000000000000000000000000000000000000000000000000081526004016121f3906149ab565b60405180910390fd5b600061220783610e91565b90508073ffffffffffffffffffffffffffffffffffffffff168473ffffffffffffffffffffffffffffffffffffffff16148061227657508373ffffffffffffffffffffffffffffffffffffffff1661225e84610790565b73ffffffffffffffffffffffffffffffffffffffff16145b8061228757506122868185611c3b565b5b91505092915050565b8273ffffffffffffffffffffffffffffffffffffffff166122b082610e91565b73ffffffffffffffffffffffffffffffffffffffff1614612306576040517f08c379a00000000000000000000000000000000000000000000000000000000081526004016122fd90614b0b565b60405180910390fd5b600073ffffffffffffffffffffffffffffffffffffffff168273ffffffffffffffffffffffffffffffffffffffff161415612376576040517f08c379a000000000000000000000000000000000000000000000000000000000815260040161236d9061496b565b60405180910390fd5b612381838383612f7c565b61238c6000826120f9565b6001600360008573ffffffffffffffffffffffffffffffffffffffff1673ffffffffffffffffffffffffffffffffffffffff16815260200190815260200160002060008282546123dc9190614f35565b925050819055506001600360008473ffffffffffffffffffffffffffffffffffffffff1673ffffffffffffffffffffffffffffffffffffffff16815260200190815260200160002060008282546124339190614e54565b92505081905550816002600083815260200190815260200160002060006101000a81548173ffffffffffffffffffffffffffffffffffffffff021916908373ffffffffffffffffffffffffffffffffffffffff160217905550808273ffffffffffffffffffffffffffffffffffffffff168473ffffffffffffffffffffffffffffffffffffffff167fddf252ad1be2c89b69c2b068fc378daa952ba7f163c4a11628f55a4df523b3ef60405160405180910390a4505050565b6124f4610e7a565b612533576040517f08c379a000000000000000000000000000000000000000000000000000000000815260040161252a906148cb565b60405180910390fd5b6000600c60006101000a81548160ff0219169083151502179055507f5db9ee0a495bf2e6ff9c91a7834c1ba4fdd244a5e8aa4e537bd38aeae4b073aa6125776120f1565b6040516125849190614782565b60405180910390a1565b612596610e7a565b156125d6576040517f08c379a00000000000000000000000000000000000000000000000000000000081526004016125cd906149cb565b60405180910390fd5b6001600c60006101000a81548160ff0219169083151502179055507f62e78cea01bee320cd4e420270b5ea74000d11b0c9f74754ebdbfc544b05a25861261a6120f1565b6040516126279190614782565b60405180910390a1565b61263c848484612290565b61264884848484613090565b612687576040517f08c379a000000000000000000000000000000000000000000000000000000000815260040161267e9061490b565b60405180910390fd5b50505050565b606060405180602001604052806000815250905090565b606060008214156126ec576040518060400160405280600181526020017f3000000000000000000000000000000000000000000000000000000000000000815250905061284c565b600082905060005b6000821461271e57808061270790615051565b915050600a826127179190614eaa565b91506126f4565b60008167ffffffffffffffff811115612760577f4e487b7100000000000000000000000000000000000000000000000000000000600052604160045260246000fd5b6040519080825280601f01601f1916602001820160405280156127925781602001600182028036833780820191505090505b5090505b60008514612845576001826127ab9190614f35565b9150600a856127ba91906150a4565b60306127c69190614e54565b60f81b818381518110612802577f4e487b7100000000000000000000000000000000000000000000000000000000600052603260045260246000fd5b60200101907effffffffffffffffffffffffffffffffffffffffffffffffffffffffffffff1916908160001a905350600a8561283e9190614eaa565b9450612796565b8093505050505b919050565b6128e9828260405160240161286792919061489b565b6040516020818303038152906040527f9710a9d0000000000000000000000000000000000000000000000000000000007bffffffffffffffffffffffffffffffffffffffffffffffffffffffff19166020820180517bffffffffffffffffffffffffffffffffffffffffffffffffffffffff8381831617835250505050613227565b5050565b612983816040516024016129019190614879565b6040516020818303038152906040527f41304fac000000000000000000000000000000000000000000000000000000007bffffffffffffffffffffffffffffffffffffffffffffffffffffffff19166020820180517bffffffffffffffffffffffffffffffffffffffffffffffffffffffff8381831617835250505050613227565b50565b6000612990613823565b600061299a613250565b90506000600790506000600190505b60408111612ab0576000818460ff161614612a15576064876129cb91906150a4565b60ff16848360088110612a07577f4e487b7100000000000000000000000000000000000000000000000000000000600052603260045260246000fd5b602002018181525050612a68565b606486612a2291906150a4565b60ff16848360088110612a5e577f4e487b7100000000000000000000000000000000000000000000000000000000600052603260045260246000fd5b6020020181815250505b606487612a759190614eaa565b9650606486612a849190614eaa565b9550612a9a600183611f7590919063ffffffff16565b9150600281612aa99190614edb565b90506129a9565b5060008260ff16612abf610933565b6011600081548110612afa577f4e487b7100000000000000000000000000000000000000000000000000000000600052603260045260246000fd5b906000526020600020906005020160030154604051602001612b1e93929190614745565b6040516020818303038152906040528051906020012060001c9050600a605982612b4891906150a4565b612b529190614e54565b90508084600060088110612b8f577f4e487b7100000000000000000000000000000000000000000000000000000000600052603260045260246000fd5b602002018181525050600080600090505b6008811015612c1f57858160088110612be2577f4e487b7100000000000000000000000000000000000000000000000000000000600052603260045260246000fd5b602002015182612bf29190614e54565b915060078114612c0c57606482612c099190614edb565b91505b8080612c1790615051565b915050612ba0565b50809550505050505092915050565b60008060118481548110612c6b577f4e487b7100000000000000000000000000000000000000000000000000000000600052603260045260246000fd5b9060005260206000209060050201600201549050600060118481548110612cbb577f4e487b7100000000000000000000000000000000000000000000000000000000600052603260045260246000fd5b90600052602060002090600502016002015490506103e882108015612ce157506103e881105b612d20576040517f08c379a0000000000000000000000000000000000000000000000000000000008152600401612d1790614a0b565b60405180910390fd5b6000818314612d965760006002600a8486612d3b9190614e54565b612d459190614edb565b612d4f9190614eaa565b90506000600a82612d6091906150a4565b1115612d7557600581612d739190614f35565b505b6002600a82612d849190614eaa565b612d8e9190614e54565b915050612dbd565b600160028385612da69190614e54565b612db09190614eaa565b612dba9190614e54565b90505b80935050505092915050565b6000612dd3610e7a565b15612e13576040517f08c379a0000000000000000000000000000000000000000000000000000000008152600401612e0a906149cb565b60405180910390fd5b60006040518060a001604052808881526020018781526020018681526020018581526020014281525090506011819080600181540180825580915050600190039060005260206000209060050201600090919091909150600082015181600001556020820151816001015560408201518160020155606082015181600301556080820151816004015550506000612eb96001601180549050611f7590919063ffffffff16565b9050612ec58482613264565b7f0b1e9a74eeaae184646d7a35062426460c8c9364005c6d441cce036dd9c655d584828a8a89604051612efc9594939291906147e9565b60405180910390a1809250505095945050505050565b60007f01ffc9a7000000000000000000000000000000000000000000000000000000007bffffffffffffffffffffffffffffffffffffffffffffffffffffffff1916827bffffffffffffffffffffffffffffffffffffffffffffffffffffffff1916149050919050565b612f87838383611f8b565b600073ffffffffffffffffffffffffffffffffffffffff168373ffffffffffffffffffffffffffffffffffffffff161415612fca57612fc581613282565b613009565b8173ffffffffffffffffffffffffffffffffffffffff168373ffffffffffffffffffffffffffffffffffffffff16146130085761300783826132cb565b5b5b600073ffffffffffffffffffffffffffffffffffffffff168273ffffffffffffffffffffffffffffffffffffffff16141561304c5761304781613438565b61308b565b8273ffffffffffffffffffffffffffffffffffffffff168273ffffffffffffffffffffffffffffffffffffffff161461308a57613089828261357b565b5b5b505050565b60006130b18473ffffffffffffffffffffffffffffffffffffffff16611f90565b1561321a578373ffffffffffffffffffffffffffffffffffffffff1663150b7a026130da6120f1565b8786866040518563ffffffff1660e01b81526004016130fc949392919061479d565b602060405180830381600087803b15801561311657600080fd5b505af192505050801561314757506040513d601f19601f820116820180604052508101906131449190613ae7565b60015b6131ca573d8060008114613177576040519150601f19603f3d011682016040523d82523d6000602084013e61317c565b606091505b506000815114156131c2576040517f08c379a00000000000000000000000000000000000000000000000000000000081526004016131b99061490b565b60405180910390fd5b805181602001fd5b63150b7a0260e01b7bffffffffffffffffffffffffffffffffffffffffffffffffffffffff1916817bffffffffffffffffffffffffffffffffffffffffffffffffffffffff19161491505061321f565b600190505b949350505050565b60008151905060006a636f6e736f6c652e6c6f679050602083016000808483855afa5050505050565b600060ff4261325f91906150a4565b905090565b61327e8282604051806020016040528060008152506135fa565b5050565b6008805490506009600083815260200190815260200160002081905550600881908060018154018082558091505060019003906000526020600020016000909190919091505550565b600060016132d884610f43565b6132e29190614f35565b90506000600760008481526020019081526020016000205490508181146133c7576000600660008673ffffffffffffffffffffffffffffffffffffffff1673ffffffffffffffffffffffffffffffffffffffff168152602001908152602001600020600084815260200190815260200160002054905080600660008773ffffffffffffffffffffffffffffffffffffffff1673ffffffffffffffffffffffffffffffffffffffff168152602001908152602001600020600084815260200190815260200160002081905550816007600083815260200190815260200160002081905550505b6007600084815260200190815260200160002060009055600660008573ffffffffffffffffffffffffffffffffffffffff1673ffffffffffffffffffffffffffffffffffffffff16815260200190815260200160002060008381526020019081526020016000206000905550505050565b6000600160088054905061344c9190614f35565b90506000600960008481526020019081526020016000205490506000600883815481106134a2577f4e487b7100000000000000000000000000000000000000000000000000000000600052603260045260246000fd5b9060005260206000200154905080600883815481106134ea577f4e487b7100000000000000000000000000000000000000000000000000000000600052603260045260246000fd5b90600052602060002001819055508160096000838152602001908152602001600020819055506009600085815260200190815260200160002060009055600880548061355f577f4e487b7100000000000000000000000000000000000000000000000000000000600052603160045260246000fd5b6001900381819060005260206000200160009055905550505050565b600061358683610f43565b905081600660008573ffffffffffffffffffffffffffffffffffffffff1673ffffffffffffffffffffffffffffffffffffffff168152602001908152602001600020600083815260200190815260200160002081905550806007600084815260200190815260200160002081905550505050565b6136048383613655565b6136116000848484613090565b613650576040517f08c379a00000000000000000000000000000000000000000000000000000000081526004016136479061490b565b60405180910390fd5b505050565b600073ffffffffffffffffffffffffffffffffffffffff168273ffffffffffffffffffffffffffffffffffffffff1614156136c5576040517f08c379a00000000000000000000000000000000000000000000000000000000081526004016136bc90614a8b565b60405180910390fd5b6136ce81612085565b1561370e576040517f08c379a00000000000000000000000000000000000000000000000000000000081526004016137059061494b565b60405180910390fd5b61371a60008383612f7c565b6001600360008473ffffffffffffffffffffffffffffffffffffffff1673ffffffffffffffffffffffffffffffffffffffff168152602001908152602001600020600082825461376a9190614e54565b92505081905550816002600083815260200190815260200160002060006101000a81548173ffffffffffffffffffffffffffffffffffffffff021916908373ffffffffffffffffffffffffffffffffffffffff160217905550808273ffffffffffffffffffffffffffffffffffffffff16600073ffffffffffffffffffffffffffffffffffffffff167fddf252ad1be2c89b69c2b068fc378daa952ba7f163c4a11628f55a4df523b3ef60405160405180910390a45050565b604051806101000160405280600890602082028036833780820191505090505090565b600061385961385484614da8565b614d77565b90508281526020810184848401111561387157600080fd5b61387c848285614fdd565b509392505050565b600081359050613893816151a2565b92915050565b6000813590506138a8816151b9565b92915050565b6000813590506138bd816151d0565b92915050565b6000815190506138d2816151d0565b92915050565b600082601f8301126138e957600080fd5b81356138f9848260208601613846565b91505092915050565b600081359050613911816151e7565b92915050565b60006020828403121561392957600080fd5b600061393784828501613884565b91505092915050565b6000806040838503121561395357600080fd5b600061396185828601613884565b925050602061397285828601613884565b9150509250929050565b60008060006060848603121561399157600080fd5b600061399f86828701613884565b93505060206139b086828701613884565b92505060406139c186828701613902565b9150509250925092565b600080600080608085870312156139e157600080fd5b60006139ef87828801613884565b9450506020613a0087828801613884565b9350506040613a1187828801613902565b925050606085013567ffffffffffffffff811115613a2e57600080fd5b613a3a878288016138d8565b91505092959194509250565b60008060408385031215613a5957600080fd5b6000613a6785828601613884565b9250506020613a7885828601613899565b9150509250929050565b60008060408385031215613a9557600080fd5b6000613aa385828601613884565b9250506020613ab485828601613902565b9150509250929050565b600060208284031215613ad057600080fd5b6000613ade848285016138ae565b91505092915050565b600060208284031215613af957600080fd5b6000613b07848285016138c3565b91505092915050565b600060208284031215613b2257600080fd5b6000613b3084828501613902565b91505092915050565b60008060408385031215613b4c57600080fd5b6000613b5a85828601613902565b9250506020613b6b85828601613884565b9150509250929050565b60008060408385031215613b8857600080fd5b6000613b9685828601613902565b9250506020613ba785828601613902565b9150509250929050565b6000613bbd83836146ec565b60208301905092915050565b613bd281614f69565b82525050565b6000613be382614de8565b613bed8185614e16565b9350613bf883614dd8565b8060005b83811015613c29578151613c108882613bb1565b9750613c1b83614e09565b925050600181019050613bfc565b5085935050505092915050565b613c3f81614f7b565b82525050565b6000613c5082614df3565b613c5a8185614e27565b9350613c6a818560208601614fec565b613c7381615191565b840191505092915050565b6000613c8982614dfe565b613c938185614e38565b9350613ca3818560208601614fec565b613cac81615191565b840191505092915050565b6000613cc282614dfe565b613ccc8185614e49565b9350613cdc818560208601614fec565b80840191505092915050565b6000613cf5601483614e38565b91507f5061757361626c653a206e6f74207061757365640000000000000000000000006000830152602082019050919050565b6000613d35602b83614e38565b91507f455243373231456e756d657261626c653a206f776e657220696e646578206f7560008301527f74206f6620626f756e64730000000000000000000000000000000000000000006020830152604082019050919050565b6000613d9b603283614e38565b91507f4552433732313a207472616e7366657220746f206e6f6e20455243373231526560008301527f63656976657220696d706c656d656e74657200000000000000000000000000006020830152604082019050919050565b6000613e01602683614e38565b91507f4f776e61626c653a206e6577206f776e657220697320746865207a65726f206160008301527f64647265737300000000000000000000000000000000000000000000000000006020830152604082019050919050565b6000613e67601c83614e38565b91507f4552433732313a20746f6b656e20616c7265616479206d696e746564000000006000830152602082019050919050565b6000613ea7602483614e38565b91507f4552433732313a207472616e7366657220746f20746865207a65726f2061646460008301527f72657373000000000000000000000000000000000000000000000000000000006020830152604082019050919050565b6000613f0d601983614e38565b91507f4552433732313a20617070726f766520746f2063616c6c6572000000000000006000830152602082019050919050565b6000613f4d602c83614e38565b91507f4552433732313a206f70657261746f7220717565727920666f72206e6f6e657860008301527f697374656e7420746f6b656e00000000000000000000000000000000000000006020830152604082019050919050565b6000613fb3601083614e38565b91507f5061757361626c653a20706175736564000000000000000000000000000000006000830152602082019050919050565b6000613ff3603883614e38565b91507f4552433732313a20617070726f76652063616c6c6572206973206e6f74206f7760008301527f6e6572206e6f7220617070726f76656420666f7220616c6c00000000000000006020830152604082019050919050565b6000614059602183614e38565b91507f506172656e74732063616e6e6f742062726565642061626f76652067656e393960008301527f39000000000000000000000000000000000000000000000000000000000000006020830152604082019050919050565b60006140bf602a83614e38565b91507f4552433732313a2062616c616e636520717565727920666f7220746865207a6560008301527f726f2061646472657373000000000000000000000000000000000000000000006020830152604082019050919050565b6000614125602983614e38565b91507f4552433732313a206f776e657220717565727920666f72206e6f6e657869737460008301527f656e7420746f6b656e00000000000000000000000000000000000000000000006020830152604082019050919050565b600061418b604a83614e38565b91507f4d6f6e6b6579436f6e74726163743a207472616e7366657220746f207468652060008301527f7a65726f2061646472657373206e6f7420616c6c6f7765642c206275726e204e60208301527f465420696e7374656164000000000000000000000000000000000000000000006040830152606082019050919050565b6000614217602083614e38565b91507f4552433732313a206d696e7420746f20746865207a65726f20616464726573736000830152602082019050919050565b6000614257602383614e38565b91507f6d757374206265206f776e6572206f6620626f746820706172656e7420746f6b60008301527f656e7300000000000000000000000000000000000000000000000000000000006020830152604082019050919050565b60006142bd602c83614e38565b91507f4552433732313a20617070726f76656420717565727920666f72206e6f6e657860008301527f697374656e7420746f6b656e00000000000000000000000000000000000000006020830152604082019050919050565b6000614323602083614e38565b91507f4f776e61626c653a2063616c6c6572206973206e6f7420746865206f776e65726000830152602082019050919050565b6000614363602983614e38565b91507f4552433732313a207472616e73666572206f6620746f6b656e2074686174206960008301527f73206e6f74206f776e00000000000000000000000000000000000000000000006020830152604082019050919050565b60006143c9602f83614e38565b91507f4552433732314d657461646174613a2055524920717565727920666f72206e6f60008301527f6e6578697374656e7420746f6b656e00000000000000000000000000000000006020830152604082019050919050565b600061442f602183614e38565b91507f4552433732313a20617070726f76616c20746f2063757272656e74206f776e6560008301527f72000000000000000000000000000000000000000000000000000000000000006020830152604082019050919050565b6000614495603483614e38565b91507f4d6f6e6b6579436f6e74726163743a2043616e2774207472616e73666572204e60008301527f46547320746f207468697320636f6e74726163740000000000000000000000006020830152604082019050919050565b60006144fb603183614e38565b91507f4552433732313a207472616e736665722063616c6c6572206973206e6f74206f60008301527f776e6572206e6f7220617070726f7665640000000000000000000000000000006020830152604082019050919050565b6000614561602c83614e38565b91507f455243373231456e756d657261626c653a20676c6f62616c20696e646578206f60008301527f7574206f6620626f756e647300000000000000000000000000000000000000006020830152604082019050919050565b60006145c7605183614e38565b91507f4d6f6e6b6579436f6e74726163743a2043616e2774207472616e73666572207460008301527f686973204e465420776974686f7574206265696e67206f776e65722c2061707060208301527f726f766564206f72206f70657261746f720000000000000000000000000000006040830152606082019050919050565b6000614653601f83614e38565b91507f5265656e7472616e637947756172643a207265656e7472616e742063616c6c006000830152602082019050919050565b6000614693602783614e38565b91507f4d6178696d756d20616d6f756e74206f662067656e2030206d6f6e6b6579732060008301527f72656163686564000000000000000000000000000000000000000000000000006020830152604082019050919050565b6146f581614fd3565b82525050565b61470481614fd3565b82525050565b61471b61471682614fd3565b61509a565b82525050565b600061472d8285613cb7565b91506147398284613cb7565b91508190509392505050565b6000614751828661470a565b602082019150614761828561470a565b602082019150614771828461470a565b602082019150819050949350505050565b60006020820190506147976000830184613bc9565b92915050565b60006080820190506147b26000830187613bc9565b6147bf6020830186613bc9565b6147cc60408301856146fb565b81810360608301526147de8184613c45565b905095945050505050565b600060a0820190506147fe6000830188613bc9565b61480b60208301876146fb565b61481860408301866146fb565b61482560608301856146fb565b61483260808301846146fb565b9695505050505050565b600060208201905081810360008301526148568184613bd8565b905092915050565b60006020820190506148736000830184613c36565b92915050565b600060208201905081810360008301526148938184613c7e565b905092915050565b600060408201905081810360008301526148b58185613c7e565b90506148c460208301846146fb565b9392505050565b600060208201905081810360008301526148e481613ce8565b9050919050565b6000602082019050818103600083015261490481613d28565b9050919050565b6000602082019050818103600083015261492481613d8e565b9050919050565b6000602082019050818103600083015261494481613df4565b9050919050565b6000602082019050818103600083015261496481613e5a565b9050919050565b6000602082019050818103600083015261498481613e9a565b9050919050565b600060208201905081810360008301526149a481613f00565b9050919050565b600060208201905081810360008301526149c481613f40565b9050919050565b600060208201905081810360008301526149e481613fa6565b9050919050565b60006020820190508181036000830152614a0481613fe6565b9050919050565b60006020820190508181036000830152614a248161404c565b9050919050565b60006020820190508181036000830152614a44816140b2565b9050919050565b60006020820190508181036000830152614a6481614118565b9050919050565b60006020820190508181036000830152614a848161417e565b9050919050565b60006020820190508181036000830152614aa48161420a565b9050919050565b60006020820190508181036000830152614ac48161424a565b9050919050565b60006020820190508181036000830152614ae4816142b0565b9050919050565b60006020820190508181036000830152614b0481614316565b9050919050565b60006020820190508181036000830152614b2481614356565b9050919050565b60006020820190508181036000830152614b44816143bc565b9050919050565b60006020820190508181036000830152614b6481614422565b9050919050565b60006020820190508181036000830152614b8481614488565b9050919050565b60006020820190508181036000830152614ba4816144ee565b9050919050565b60006020820190508181036000830152614bc481614554565b9050919050565b60006020820190508181036000830152614be4816145ba565b9050919050565b60006020820190508181036000830152614c0481614646565b9050919050565b60006020820190508181036000830152614c2481614686565b9050919050565b6000602082019050614c4060008301846146fb565b92915050565b600060a082019050614c5b60008301886146fb565b614c6860208301876146fb565b614c7560408301866146fb565b614c8260608301856146fb565b614c8f60808301846146fb565b9695505050505050565b600060e082019050614cae600083018a6146fb565b614cbb60208301896146fb565b614cc860408301886146fb565b614cd560608301876146fb565b614ce260808301866146fb565b614cef60a0830185613bc9565b614cfc60c0830184613bc9565b98975050505050505050565b600060e082019050614d1d600083018a6146fb565b614d2a60208301896146fb565b614d3760408301886146fb565b614d4460608301876146fb565b614d5160808301866146fb565b614d5e60a08301856146fb565b614d6b60c0830184613bc9565b98975050505050505050565b6000604051905081810181811067ffffffffffffffff82111715614d9e57614d9d615162565b5b8060405250919050565b600067ffffffffffffffff821115614dc357614dc2615162565b5b601f19601f8301169050602081019050919050565b6000819050602082019050919050565b600081519050919050565b600081519050919050565b600081519050919050565b6000602082019050919050565b600082825260208201905092915050565b600082825260208201905092915050565b600082825260208201905092915050565b600081905092915050565b6000614e5f82614fd3565b9150614e6a83614fd3565b9250827fffffffffffffffffffffffffffffffffffffffffffffffffffffffffffffffff03821115614e9f57614e9e6150d5565b5b828201905092915050565b6000614eb582614fd3565b9150614ec083614fd3565b925082614ed057614ecf615104565b5b828204905092915050565b6000614ee682614fd3565b9150614ef183614fd3565b9250817fffffffffffffffffffffffffffffffffffffffffffffffffffffffffffffffff0483118215151615614f2a57614f296150d5565b5b828202905092915050565b6000614f4082614fd3565b9150614f4b83614fd3565b925082821015614f5e57614f5d6150d5565b5b828203905092915050565b6000614f7482614fb3565b9050919050565b60008115159050919050565b60007fffffffff0000000000000000000000000000000000000000000000000000000082169050919050565b600073ffffffffffffffffffffffffffffffffffffffff82169050919050565b6000819050919050565b82818337600083830152505050565b60005b8381101561500a578082015181840152602081019050614fef565b83811115615019576000848401525b50505050565b6000600282049050600182168061503757607f821691505b6020821081141561504b5761504a615133565b5b50919050565b600061505c82614fd3565b91507fffffffffffffffffffffffffffffffffffffffffffffffffffffffffffffffff82141561508f5761508e6150d5565b5b600182019050919050565b6000819050919050565b60006150af82614fd3565b91506150ba83614fd3565b9250826150ca576150c9615104565b5b828206905092915050565b7f4e487b7100000000000000000000000000000000000000000000000000000000600052601160045260246000fd5b7f4e487b7100000000000000000000000000000000000000000000000000000000600052601260045260246000fd5b7f4e487b7100000000000000000000000000000000000000000000000000000000600052602260045260246000fd5b7f4e487b7100000000000000000000000000000000000000000000000000000000600052604160045260246000fd5b6000601f19601f8301169050919050565b6151ab81614f69565b81146151b657600080fd5b50565b6151c281614f7b565b81146151cd57600080fd5b50565b6151d981614f87565b81146151e457600080fd5b50565b6151f081614fd3565b81146151fb57600080fd5b5056fe5a65726f20616464726573733a20307830303030303030303030303030303030303030303030303030303030303030303030303030303030203d3e20692e652e20697420776173206275726e74a26469706673582212203da5c75e6b3f12980fe390970bd013e5d72b05ce96514aaf3538f1fa11053c2764736f6c63430008000033",
  "linkReferences": {},
  "deployedLinkReferences": {}
}