{
  "_format": "hh-sol-artifact-1",
  "contractName": "MonkeyContract",
  "sourceName": "contracts/MonkeyContract.sol",
  "abi": [
    {
      "inputs": [
        {
          "internalType": "address[]",
          "name": "_addressesArray",
          "type": "address[]"
        }
      ],
      "stateMutability": "nonpayable",
      "type": "constructor"
    },
    {
      "anonymous": false,
      "inputs": [
        {
          "indexed": true,
          "internalType": "address",
          "name": "owner",
          "type": "address"
        },
        {
          "indexed": true,
          "internalType": "address",
          "name": "approved",
          "type": "address"
        },
        {
          "indexed": true,
          "internalType": "uint256",
          "name": "tokenId",
          "type": "uint256"
        }
      ],
      "name": "Approval",
      "type": "event"
    },
    {
      "anonymous": false,
      "inputs": [
        {
          "indexed": true,
          "internalType": "address",
          "name": "owner",
          "type": "address"
        },
        {
          "indexed": true,
          "internalType": "address",
          "name": "operator",
          "type": "address"
        },
        {
          "indexed": false,
          "internalType": "bool",
          "name": "approved",
          "type": "bool"
        }
      ],
      "name": "ApprovalForAll",
      "type": "event"
    },
    {
      "anonymous": false,
      "inputs": [
        {
          "indexed": false,
          "internalType": "uint256",
          "name": "tokenId",
          "type": "uint256"
        },
        {
          "indexed": false,
          "internalType": "uint256",
          "name": "genes",
          "type": "uint256"
        },
        {
          "indexed": false,
          "internalType": "uint256",
          "name": "birthtime",
          "type": "uint256"
        },
        {
          "indexed": false,
          "internalType": "uint256",
          "name": "parent1Id",
          "type": "uint256"
        },
        {
          "indexed": false,
          "internalType": "uint256",
          "name": "parent2Id",
          "type": "uint256"
        },
        {
          "indexed": false,
          "internalType": "uint256",
          "name": "generation",
          "type": "uint256"
        },
        {
          "indexed": false,
          "internalType": "address",
          "name": "owner",
          "type": "address"
        }
      ],
      "name": "BreedingSuccessful",
      "type": "event"
    },
    {
      "anonymous": false,
      "inputs": [
        {
          "indexed": false,
          "internalType": "address",
          "name": "owner",
          "type": "address"
        },
        {
          "indexed": false,
          "internalType": "uint256",
          "name": "tokenId",
          "type": "uint256"
        },
        {
          "indexed": false,
          "internalType": "uint256",
          "name": "parent1Id",
          "type": "uint256"
        },
        {
          "indexed": false,
          "internalType": "uint256",
          "name": "parent2Id",
          "type": "uint256"
        },
        {
          "indexed": false,
          "internalType": "uint256",
          "name": "genes",
          "type": "uint256"
        }
      ],
      "name": "MonkeyCreated",
      "type": "event"
    },
    {
      "anonymous": false,
      "inputs": [
        {
          "indexed": true,
          "internalType": "address",
          "name": "previousOwner",
          "type": "address"
        },
        {
          "indexed": true,
          "internalType": "address",
          "name": "newOwner",
          "type": "address"
        }
      ],
      "name": "OwnershipTransferred",
      "type": "event"
    },
    {
      "anonymous": false,
      "inputs": [
        {
          "indexed": false,
          "internalType": "address",
          "name": "account",
          "type": "address"
        }
      ],
      "name": "Paused",
      "type": "event"
    },
    {
      "anonymous": false,
      "inputs": [
        {
          "indexed": true,
          "internalType": "address",
          "name": "from",
          "type": "address"
        },
        {
          "indexed": true,
          "internalType": "address",
          "name": "to",
          "type": "address"
        },
        {
          "indexed": true,
          "internalType": "uint256",
          "name": "tokenId",
          "type": "uint256"
        }
      ],
      "name": "Transfer",
      "type": "event"
    },
    {
      "anonymous": false,
      "inputs": [
        {
          "indexed": false,
          "internalType": "address",
          "name": "account",
          "type": "address"
        }
      ],
      "name": "Unpaused",
      "type": "event"
    },
    {
      "inputs": [],
      "name": "GEN0_Limit",
      "outputs": [
        {
          "internalType": "uint256",
          "name": "",
          "type": "uint256"
        }
      ],
      "stateMutability": "view",
      "type": "function"
    },
    {
      "inputs": [
        {
          "internalType": "uint256",
          "name": "",
          "type": "uint256"
        }
      ],
      "name": "allMonkeysArray",
      "outputs": [
        {
          "internalType": "uint256",
          "name": "parent1Id",
          "type": "uint256"
        },
        {
          "internalType": "uint256",
          "name": "parent2Id",
          "type": "uint256"
        },
        {
          "internalType": "uint256",
          "name": "generation",
          "type": "uint256"
        },
        {
          "internalType": "uint256",
          "name": "genes",
          "type": "uint256"
        },
        {
          "internalType": "uint256",
          "name": "birthtime",
          "type": "uint256"
        }
      ],
      "stateMutability": "view",
      "type": "function"
    },
    {
      "inputs": [
        {
          "internalType": "address",
          "name": "to",
          "type": "address"
        },
        {
          "internalType": "uint256",
          "name": "tokenId",
          "type": "uint256"
        }
      ],
      "name": "approve",
      "outputs": [],
      "stateMutability": "nonpayable",
      "type": "function"
    },
    {
      "inputs": [
        {
          "internalType": "address",
          "name": "owner",
          "type": "address"
        }
      ],
      "name": "balanceOf",
      "outputs": [
        {
          "internalType": "uint256",
          "name": "",
          "type": "uint256"
        }
      ],
      "stateMutability": "view",
      "type": "function"
    },
    {
      "inputs": [
        {
          "internalType": "uint256",
          "name": "_parent1Id",
          "type": "uint256"
        },
        {
          "internalType": "uint256",
          "name": "_parent2Id",
          "type": "uint256"
        }
      ],
      "name": "breed",
      "outputs": [
        {
          "internalType": "uint256",
          "name": "",
          "type": "uint256"
        }
      ],
      "stateMutability": "nonpayable",
      "type": "function"
    },
    {
      "inputs": [],
      "name": "checkMarketConnected",
      "outputs": [
        {
          "internalType": "address",
          "name": "marketAddressSaved",
          "type": "address"
        },
        {
          "internalType": "bool",
          "name": "isMarketConnected",
          "type": "bool"
        }
      ],
      "stateMutability": "view",
      "type": "function"
    },
    {
      "inputs": [
        {
          "internalType": "address",
          "name": "_receivedMarketContractAddress",
          "type": "address"
        },
        {
          "internalType": "bool",
          "name": "setConnectMarket",
          "type": "bool"
        }
      ],
      "name": "connectMarket",
      "outputs": [],
      "stateMutability": "nonpayable",
      "type": "function"
    },
    {
      "inputs": [
        {
          "internalType": "uint256",
          "name": "_genes",
          "type": "uint256"
        },
        {
          "internalType": "address",
          "name": "_owner",
          "type": "address"
        }
      ],
      "name": "createDemoMonkey",
      "outputs": [
        {
          "internalType": "uint256",
          "name": "",
          "type": "uint256"
        }
      ],
      "stateMutability": "nonpayable",
      "type": "function"
    },
    {
      "inputs": [
        {
          "internalType": "uint256",
          "name": "_genes",
          "type": "uint256"
        }
      ],
      "name": "createGen0Monkey",
      "outputs": [],
      "stateMutability": "nonpayable",
      "type": "function"
    },
    {
      "inputs": [
        {
          "internalType": "address",
          "name": "owner",
          "type": "address"
        }
      ],
      "name": "findMonkeyIdsOfAddress",
      "outputs": [
        {
          "internalType": "uint256[]",
          "name": "",
          "type": "uint256[]"
        }
      ],
      "stateMutability": "view",
      "type": "function"
    },
    {
      "inputs": [],
      "name": "gen0amountTotal",
      "outputs": [
        {
          "internalType": "uint256",
          "name": "",
          "type": "uint256"
        }
      ],
      "stateMutability": "view",
      "type": "function"
    },
    {
      "inputs": [
        {
          "internalType": "uint256",
          "name": "tokenId",
          "type": "uint256"
        }
      ],
      "name": "getApproved",
      "outputs": [
        {
          "internalType": "address",
          "name": "",
          "type": "address"
        }
      ],
      "stateMutability": "view",
      "type": "function"
    },
    {
      "inputs": [],
      "name": "getMonkeyContractAddress",
      "outputs": [
        {
          "internalType": "address",
          "name": "",
          "type": "address"
        }
      ],
      "stateMutability": "view",
      "type": "function"
    },
    {
      "inputs": [
        {
          "internalType": "uint256",
          "name": "tokenId",
          "type": "uint256"
        }
      ],
      "name": "getMonkeyDetails",
      "outputs": [
        {
          "internalType": "uint256",
          "name": "genes",
          "type": "uint256"
        },
        {
          "internalType": "uint256",
          "name": "birthtime",
          "type": "uint256"
        },
        {
          "internalType": "uint256",
          "name": "parent1Id",
          "type": "uint256"
        },
        {
          "internalType": "uint256",
          "name": "parent2Id",
          "type": "uint256"
        },
        {
          "internalType": "uint256",
          "name": "generation",
          "type": "uint256"
        },
        {
          "internalType": "address",
          "name": "owner",
          "type": "address"
        },
        {
          "internalType": "address",
          "name": "approvedAddress",
          "type": "address"
        }
      ],
      "stateMutability": "view",
      "type": "function"
    },
    {
      "inputs": [
        {
          "internalType": "address",
          "name": "owner",
          "type": "address"
        },
        {
          "internalType": "address",
          "name": "operator",
          "type": "address"
        }
      ],
      "name": "isApprovedForAll",
      "outputs": [
        {
          "internalType": "bool",
          "name": "",
          "type": "bool"
        }
      ],
      "stateMutability": "view",
      "type": "function"
    },
    {
      "inputs": [],
      "name": "name",
      "outputs": [
        {
          "internalType": "string",
          "name": "",
          "type": "string"
        }
      ],
      "stateMutability": "view",
      "type": "function"
    },
    {
      "inputs": [],
      "name": "owner",
      "outputs": [
        {
          "internalType": "address",
          "name": "",
          "type": "address"
        }
      ],
      "stateMutability": "view",
      "type": "function"
    },
    {
      "inputs": [
        {
          "internalType": "uint256",
          "name": "tokenId",
          "type": "uint256"
        }
      ],
      "name": "ownerOf",
      "outputs": [
        {
          "internalType": "address",
          "name": "",
          "type": "address"
        }
      ],
      "stateMutability": "view",
      "type": "function"
    },
    {
      "inputs": [],
      "name": "pause",
      "outputs": [],
      "stateMutability": "nonpayable",
      "type": "function"
    },
    {
      "inputs": [],
      "name": "paused",
      "outputs": [
        {
          "internalType": "bool",
          "name": "",
          "type": "bool"
        }
      ],
      "stateMutability": "view",
      "type": "function"
    },
    {
      "inputs": [],
      "name": "renounceOwnership",
      "outputs": [],
      "stateMutability": "nonpayable",
      "type": "function"
    },
    {
      "inputs": [
        {
          "internalType": "address",
          "name": "from",
          "type": "address"
        },
        {
          "internalType": "address",
          "name": "to",
          "type": "address"
        },
        {
          "internalType": "uint256",
          "name": "tokenId",
          "type": "uint256"
        }
      ],
      "name": "safeTransferFrom",
      "outputs": [],
      "stateMutability": "nonpayable",
      "type": "function"
    },
    {
      "inputs": [
        {
          "internalType": "address",
          "name": "from",
          "type": "address"
        },
        {
          "internalType": "address",
          "name": "to",
          "type": "address"
        },
        {
          "internalType": "uint256",
          "name": "tokenId",
          "type": "uint256"
        },
        {
          "internalType": "bytes",
          "name": "_data",
          "type": "bytes"
        }
      ],
      "name": "safeTransferFrom",
      "outputs": [],
      "stateMutability": "nonpayable",
      "type": "function"
    },
    {
      "inputs": [
        {
          "internalType": "address",
          "name": "operator",
          "type": "address"
        },
        {
          "internalType": "bool",
          "name": "approved",
          "type": "bool"
        }
      ],
      "name": "setApprovalForAll",
      "outputs": [],
      "stateMutability": "nonpayable",
      "type": "function"
    },
    {
      "inputs": [
        {
          "internalType": "address",
          "name": "addressToLookup",
          "type": "address"
        }
      ],
      "name": "showAccountForAddress",
      "outputs": [],
      "stateMutability": "view",
      "type": "function"
    },
    {
      "inputs": [
        {
          "internalType": "bytes4",
          "name": "interfaceId",
          "type": "bytes4"
        }
      ],
      "name": "supportsInterface",
      "outputs": [
        {
          "internalType": "bool",
          "name": "",
          "type": "bool"
        }
      ],
      "stateMutability": "view",
      "type": "function"
    },
    {
      "inputs": [],
      "name": "symbol",
      "outputs": [
        {
          "internalType": "string",
          "name": "",
          "type": "string"
        }
      ],
      "stateMutability": "view",
      "type": "function"
    },
    {
      "inputs": [
        {
          "internalType": "uint256",
          "name": "index",
          "type": "uint256"
        }
      ],
      "name": "tokenByIndex",
      "outputs": [
        {
          "internalType": "uint256",
          "name": "",
          "type": "uint256"
        }
      ],
      "stateMutability": "view",
      "type": "function"
    },
    {
      "inputs": [
        {
          "internalType": "address",
          "name": "owner",
          "type": "address"
        },
        {
          "internalType": "uint256",
          "name": "index",
          "type": "uint256"
        }
      ],
      "name": "tokenOfOwnerByIndex",
      "outputs": [
        {
          "internalType": "uint256",
          "name": "",
          "type": "uint256"
        }
      ],
      "stateMutability": "view",
      "type": "function"
    },
    {
      "inputs": [
        {
          "internalType": "uint256",
          "name": "tokenId",
          "type": "uint256"
        }
      ],
      "name": "tokenURI",
      "outputs": [
        {
          "internalType": "string",
          "name": "",
          "type": "string"
        }
      ],
      "stateMutability": "view",
      "type": "function"
    },
    {
      "inputs": [],
      "name": "totalSupply",
      "outputs": [
        {
          "internalType": "uint256",
          "name": "",
          "type": "uint256"
        }
      ],
      "stateMutability": "view",
      "type": "function"
    },
    {
      "inputs": [
        {
          "internalType": "address",
          "name": "from",
          "type": "address"
        },
        {
          "internalType": "address",
          "name": "to",
          "type": "address"
        },
        {
          "internalType": "uint256",
          "name": "tokenId",
          "type": "uint256"
        }
      ],
      "name": "transferFrom",
      "outputs": [],
      "stateMutability": "nonpayable",
      "type": "function"
    },
    {
      "inputs": [
        {
          "internalType": "address",
          "name": "_from",
          "type": "address"
        },
        {
          "internalType": "address",
          "name": "_to",
          "type": "address"
        },
        {
          "internalType": "uint256",
          "name": "_tokenId",
          "type": "uint256"
        }
      ],
      "name": "transferNFT",
      "outputs": [],
      "stateMutability": "nonpayable",
      "type": "function"
    },
    {
      "inputs": [
        {
          "internalType": "address",
          "name": "newOwner",
          "type": "address"
        }
      ],
      "name": "transferOwnership",
      "outputs": [],
      "stateMutability": "nonpayable",
      "type": "function"
    },
    {
      "inputs": [],
      "name": "unpause",
      "outputs": [],
      "stateMutability": "nonpayable",
      "type": "function"
    }
  ],
  "bytecode": "0x6080604052600c600f556000601160146101000a81548160ff0219169083151502179055503480156200003157600080fd5b5060405162007ae938038062007ae983398181016040528101906200005791906200166c565b6040518060400160405280600e81526020017f43727970746f204d6f6e6b6579730000000000000000000000000000000000008152506040518060400160405280600681526020017f4d4f4e4b455900000000000000000000000000000000000000000000000000008152508160009080519060200190620000db9291906200145d565b508060019080519060200190620000f49291906200145d565b5050506000620001096200026c60201b60201c565b905080600a60006101000a81548173ffffffffffffffffffffffffffffffffffffffff021916908373ffffffffffffffffffffffffffffffffffffffff1602179055508073ffffffffffffffffffffffffffffffffffffffff16600073ffffffffffffffffffffffffffffffffffffffff167f8be0079c531659141344cd1fd0a4f28419497f9722a3daafe3b4186f6b6457e060405160405180910390a3506001600b819055506000600c60006101000a81548160ff02191690831515021790555080600d9080519060200190620001e3929190620014ee565b5030600e60006101000a81548173ffffffffffffffffffffffffffffffffffffffff021916908373ffffffffffffffffffffffffffffffffffffffff1602179055506200025260008060006604503ef1932497620002466200026c60201b60201c565b6200027460201b60201c565b50620002656000620003d960201b60201c565b5062001fb3565b600033905090565b6000620002866200050360201b60201c565b15620002c9576040517f08c379a0000000000000000000000000000000000000000000000000000000008152600401620002c09062001c17565b60405180910390fd5b60006040518060a0016040528088815260200187815260200186815260200185815260200142815250905060128190806001815401808255809150506001900390600052602060002090600502016000909190919091506000820151816000015560208201518160010155604082015181600201556060820151816003015560808201518160040155505060006200037660016012805490506200051a60201b6200272d1790919060201c565b90506200038a84826200053260201b60201c565b7f0b1e9a74eeaae184646d7a35062426460c8c9364005c6d441cce036dd9c655d584828a8a89604051620003c395949392919062001b32565b60405180910390a1809250505095945050505050565b6002600b54141562000422576040517f08c379a0000000000000000000000000000000000000000000000000000000008152600401620004199062001cc1565b60405180910390fd5b6002600b819055506200043a6200050360201b60201c565b156200047d576040517f08c379a0000000000000000000000000000000000000000000000000000000008152600401620004749062001c17565b60405180910390fd5b60011515620004a2620004956200026c60201b60201c565b836200055860201b60201c565b151514620004e7576040517f08c379a0000000000000000000000000000000000000000000000000000000008152600401620004de9062001b8f565b60405180910390fd5b620004f8816200066060201b60201c565b6001600b8190555050565b6000600c60009054906101000a900460ff16905090565b600081836200052a919062001dd0565b905092915050565b620005548282604051806020016040528060008152506200079060201b60201c565b5050565b60006200056b82620007fe60201b60201c565b620005ad576040517f08c379a0000000000000000000000000000000000000000000000000000000008152600401620005a49062001bf5565b60405180910390fd5b6000620005c5836200086a60201b620012a61760201c565b90508073ffffffffffffffffffffffffffffffffffffffff168473ffffffffffffffffffffffffffffffffffffffff1614806200063d57508373ffffffffffffffffffffffffffffffffffffffff1662000625846200091f60201b60201c565b73ffffffffffffffffffffffffffffffffffffffff16145b80620006575750620006568185620009af60201b60201c565b5b91505092915050565b600062000678826200086a60201b620012a61760201c565b90506200068e8160008462000a4360201b60201c565b620006a160008362000b8a60201b60201c565b6001600360008373ffffffffffffffffffffffffffffffffffffffff1673ffffffffffffffffffffffffffffffffffffffff1681526020019081526020016000206000828254620006f3919062001dd0565b925050819055506002600083815260200190815260200160002060006101000a81549073ffffffffffffffffffffffffffffffffffffffff021916905581600073ffffffffffffffffffffffffffffffffffffffff168273ffffffffffffffffffffffffffffffffffffffff167fddf252ad1be2c89b69c2b068fc378daa952ba7f163c4a11628f55a4df523b3ef60405160405180910390a45050565b620007a2838362000c5060201b60201c565b620007b7600084848462000e3660201b60201c565b620007f9576040517f08c379a0000000000000000000000000000000000000000000000000000000008152600401620007f09062001bb1565b60405180910390fd5b505050565b60008073ffffffffffffffffffffffffffffffffffffffff166002600084815260200190815260200160002060009054906101000a900473ffffffffffffffffffffffffffffffffffffffff1673ffffffffffffffffffffffffffffffffffffffff1614159050919050565b6000806002600084815260200190815260200160002060009054906101000a900473ffffffffffffffffffffffffffffffffffffffff169050600073ffffffffffffffffffffffffffffffffffffffff168173ffffffffffffffffffffffffffffffffffffffff16141562000916576040517f08c379a00000000000000000000000000000000000000000000000000000000081526004016200090d9062001c5b565b60405180910390fd5b80915050919050565b60006200093282620007fe60201b60201c565b62000974576040517f08c379a00000000000000000000000000000000000000000000000000000000081526004016200096b9062001c9f565b60405180910390fd5b6004600083815260200190815260200160002060009054906101000a900473ffffffffffffffffffffffffffffffffffffffff169050919050565b6000600560008473ffffffffffffffffffffffffffffffffffffffff1673ffffffffffffffffffffffffffffffffffffffff16815260200190815260200160002060008373ffffffffffffffffffffffffffffffffffffffff1673ffffffffffffffffffffffffffffffffffffffff16815260200190815260200160002060009054906101000a900460ff16905092915050565b62000a5b83838362000ff060201b620027431760201c565b600073ffffffffffffffffffffffffffffffffffffffff168373ffffffffffffffffffffffffffffffffffffffff16141562000aa85762000aa28162000ff560201b60201c565b62000af0565b8173ffffffffffffffffffffffffffffffffffffffff168373ffffffffffffffffffffffffffffffffffffffff161462000aef5762000aee83826200103e60201b60201c565b5b5b600073ffffffffffffffffffffffffffffffffffffffff168273ffffffffffffffffffffffffffffffffffffffff16141562000b3d5762000b3781620011bb60201b60201c565b62000b85565b8273ffffffffffffffffffffffffffffffffffffffff168273ffffffffffffffffffffffffffffffffffffffff161462000b845762000b8382826200130360201b60201c565b5b5b505050565b816004600083815260200190815260200160002060006101000a81548173ffffffffffffffffffffffffffffffffffffffff021916908373ffffffffffffffffffffffffffffffffffffffff160217905550808273ffffffffffffffffffffffffffffffffffffffff1662000c0a836200086a60201b620012a61760201c565b73ffffffffffffffffffffffffffffffffffffffff167f8c5be1e5ebec7d5bd14f71427d1e84f3dd0314c0f7b2291e5b200ac8c7c3b92560405160405180910390a45050565b600073ffffffffffffffffffffffffffffffffffffffff168273ffffffffffffffffffffffffffffffffffffffff16141562000cc3576040517f08c379a000000000000000000000000000000000000000000000000000000000815260040162000cba9062001c7d565b60405180910390fd5b62000cd481620007fe60201b60201c565b1562000d17576040517f08c379a000000000000000000000000000000000000000000000000000000000815260040162000d0e9062001bd3565b60405180910390fd5b62000d2b6000838362000a4360201b60201c565b6001600360008473ffffffffffffffffffffffffffffffffffffffff1673ffffffffffffffffffffffffffffffffffffffff168152602001908152602001600020600082825462000d7d919062001d73565b92505081905550816002600083815260200190815260200160002060006101000a81548173ffffffffffffffffffffffffffffffffffffffff021916908373ffffffffffffffffffffffffffffffffffffffff160217905550808273ffffffffffffffffffffffffffffffffffffffff16600073ffffffffffffffffffffffffffffffffffffffff167fddf252ad1be2c89b69c2b068fc378daa952ba7f163c4a11628f55a4df523b3ef60405160405180910390a45050565b600062000e648473ffffffffffffffffffffffffffffffffffffffff166200138f60201b620027481760201c565b1562000fe3578373ffffffffffffffffffffffffffffffffffffffff1663150b7a0262000e966200026c60201b60201c565b8786866040518563ffffffff1660e01b815260040162000eba949392919062001ade565b602060405180830381600087803b15801562000ed557600080fd5b505af192505050801562000f0957506040513d601f19601f8201168201806040525081019062000f069190620016b1565b60015b62000f92573d806000811462000f3c576040519150601f19603f3d011682016040523d82523d6000602084013e62000f41565b606091505b5060008151141562000f8a576040517f08c379a000000000000000000000000000000000000000000000000000000000815260040162000f819062001bb1565b60405180910390fd5b805181602001fd5b63150b7a0260e01b7bffffffffffffffffffffffffffffffffffffffffffffffffffffffff1916817bffffffffffffffffffffffffffffffffffffffffffffffffffffffff19161491505062000fe8565b600190505b949350505050565b505050565b6008805490506009600083815260200190815260200160002081905550600881908060018154018082558091505060019003906000526020600020016000909190919091505550565b600060016200105884620013a260201b620016511760201c565b62001064919062001dd0565b90506000600760008481526020019081526020016000205490508181146200114a576000600660008673ffffffffffffffffffffffffffffffffffffffff1673ffffffffffffffffffffffffffffffffffffffff168152602001908152602001600020600084815260200190815260200160002054905080600660008773ffffffffffffffffffffffffffffffffffffffff1673ffffffffffffffffffffffffffffffffffffffff168152602001908152602001600020600084815260200190815260200160002081905550816007600083815260200190815260200160002081905550505b6007600084815260200190815260200160002060009055600660008573ffffffffffffffffffffffffffffffffffffffff1673ffffffffffffffffffffffffffffffffffffffff16815260200190815260200160002060008381526020019081526020016000206000905550505050565b60006001600880549050620011d1919062001dd0565b905060006009600084815260200190815260200160002054905060006008838154811062001228577f4e487b7100000000000000000000000000000000000000000000000000000000600052603260045260246000fd5b90600052602060002001549050806008838154811062001271577f4e487b7100000000000000000000000000000000000000000000000000000000600052603260045260246000fd5b906000526020600020018190555081600960008381526020019081526020016000208190555060096000858152602001908152602001600020600090556008805480620012e7577f4e487b7100000000000000000000000000000000000000000000000000000000600052603160045260246000fd5b6001900381819060005260206000200160009055905550505050565b60006200131b83620013a260201b620016511760201c565b905081600660008573ffffffffffffffffffffffffffffffffffffffff1673ffffffffffffffffffffffffffffffffffffffff168152602001908152602001600020600083815260200190815260200160002081905550806007600084815260200190815260200160002081905550505050565b600080823b905060008111915050919050565b60008073ffffffffffffffffffffffffffffffffffffffff168273ffffffffffffffffffffffffffffffffffffffff16141562001416576040517f08c379a00000000000000000000000000000000000000000000000000000000081526004016200140d9062001c39565b60405180910390fd5b600360008373ffffffffffffffffffffffffffffffffffffffff1673ffffffffffffffffffffffffffffffffffffffff168152602001908152602001600020549050919050565b8280546200146b9062001eab565b90600052602060002090601f0160209004810192826200148f5760008555620014db565b82601f10620014aa57805160ff1916838001178555620014db565b82800160010185558215620014db579182015b82811115620014da578251825591602001919060010190620014bd565b5b509050620014ea91906200157d565b5090565b8280548282559060005260206000209081019282156200156a579160200282015b82811115620015695782518260006101000a81548173ffffffffffffffffffffffffffffffffffffffff021916908373ffffffffffffffffffffffffffffffffffffffff160217905550916020019190600101906200150f565b5b5090506200157991906200157d565b5090565b5b80821115620015985760008160009055506001016200157e565b5090565b6000620015b3620015ad8462001d17565b62001ce3565b90508083825260208201905082856020860282011115620015d357600080fd5b60005b85811015620016075781620015ec888262001611565b845260208401935060208301925050600181019050620015d6565b5050509392505050565b600081519050620016228162001f7f565b92915050565b600082601f8301126200163a57600080fd5b81516200164c8482602086016200159c565b91505092915050565b600081519050620016668162001f99565b92915050565b6000602082840312156200167f57600080fd5b600082015167ffffffffffffffff8111156200169a57600080fd5b620016a88482850162001628565b91505092915050565b600060208284031215620016c457600080fd5b6000620016d48482850162001655565b91505092915050565b620016e88162001e0b565b82525050565b6000620016fb8262001d46565b62001707818562001d51565b93506200171981856020860162001e75565b620017248162001f6e565b840191505092915050565b60006200173e604d8362001d62565b91507f4d6f6e6b6579436f6e74726163743a2043616e2774206275726e20746869732060008301527f4e465420776974686f7574206265696e67206f776e65722c20617070726f766560208301527f64206f72206f70657261746f72000000000000000000000000000000000000006040830152606082019050919050565b6000620017cc60328362001d62565b91507f4552433732313a207472616e7366657220746f206e6f6e20455243373231526560008301527f63656976657220696d706c656d656e74657200000000000000000000000000006020830152604082019050919050565b600062001834601c8362001d62565b91507f4552433732313a20746f6b656e20616c7265616479206d696e746564000000006000830152602082019050919050565b600062001876602c8362001d62565b91507f4552433732313a206f70657261746f7220717565727920666f72206e6f6e657860008301527f697374656e7420746f6b656e00000000000000000000000000000000000000006020830152604082019050919050565b6000620018de60108362001d62565b91507f5061757361626c653a20706175736564000000000000000000000000000000006000830152602082019050919050565b600062001920602a8362001d62565b91507f4552433732313a2062616c616e636520717565727920666f7220746865207a6560008301527f726f2061646472657373000000000000000000000000000000000000000000006020830152604082019050919050565b60006200198860298362001d62565b91507f4552433732313a206f776e657220717565727920666f72206e6f6e657869737460008301527f656e7420746f6b656e00000000000000000000000000000000000000000000006020830152604082019050919050565b6000620019f060208362001d62565b91507f4552433732313a206d696e7420746f20746865207a65726f20616464726573736000830152602082019050919050565b600062001a32602c8362001d62565b91507f4552433732313a20617070726f76656420717565727920666f72206e6f6e657860008301527f697374656e7420746f6b656e00000000000000000000000000000000000000006020830152604082019050919050565b600062001a9a601f8362001d62565b91507f5265656e7472616e637947756172643a207265656e7472616e742063616c6c006000830152602082019050919050565b62001ad88162001e6b565b82525050565b600060808201905062001af56000830187620016dd565b62001b046020830186620016dd565b62001b13604083018562001acd565b818103606083015262001b278184620016ee565b905095945050505050565b600060a08201905062001b496000830188620016dd565b62001b58602083018762001acd565b62001b67604083018662001acd565b62001b76606083018562001acd565b62001b85608083018462001acd565b9695505050505050565b6000602082019050818103600083015262001baa816200172f565b9050919050565b6000602082019050818103600083015262001bcc81620017bd565b9050919050565b6000602082019050818103600083015262001bee8162001825565b9050919050565b6000602082019050818103600083015262001c108162001867565b9050919050565b6000602082019050818103600083015262001c3281620018cf565b9050919050565b6000602082019050818103600083015262001c548162001911565b9050919050565b6000602082019050818103600083015262001c768162001979565b9050919050565b6000602082019050818103600083015262001c9881620019e1565b9050919050565b6000602082019050818103600083015262001cba8162001a23565b9050919050565b6000602082019050818103600083015262001cdc8162001a8b565b9050919050565b6000604051905081810181811067ffffffffffffffff8211171562001d0d5762001d0c62001f3f565b5b8060405250919050565b600067ffffffffffffffff82111562001d355762001d3462001f3f565b5b602082029050602081019050919050565b600081519050919050565b600082825260208201905092915050565b600082825260208201905092915050565b600062001d808262001e6b565b915062001d8d8362001e6b565b9250827fffffffffffffffffffffffffffffffffffffffffffffffffffffffffffffffff0382111562001dc55762001dc462001ee1565b5b828201905092915050565b600062001ddd8262001e6b565b915062001dea8362001e6b565b92508282101562001e005762001dff62001ee1565b5b828203905092915050565b600062001e188262001e4b565b9050919050565b60007fffffffff0000000000000000000000000000000000000000000000000000000082169050919050565b600073ffffffffffffffffffffffffffffffffffffffff82169050919050565b6000819050919050565b60005b8381101562001e9557808201518184015260208101905062001e78565b8381111562001ea5576000848401525b50505050565b6000600282049050600182168062001ec457607f821691505b6020821081141562001edb5762001eda62001f10565b5b50919050565b7f4e487b7100000000000000000000000000000000000000000000000000000000600052601160045260246000fd5b7f4e487b7100000000000000000000000000000000000000000000000000000000600052602260045260246000fd5b7f4e487b7100000000000000000000000000000000000000000000000000000000600052604160045260246000fd5b6000601f19601f8301169050919050565b62001f8a8162001e0b565b811462001f9657600080fd5b50565b62001fa48162001e1f565b811462001fb057600080fd5b50565b615b268062001fc36000396000f3fe608060405234801561001057600080fd5b50600436106102115760003560e01c806369e9cae111610125578063c87b56dd116100ad578063db0027941161007c578063db0027941461061f578063e985e9c51461064f578063ef742fc11461067f578063f2fde38b1461069b578063f91ba674146106b757610211565b8063c87b56dd14610585578063cc5739e0146105b5578063d9ecad7b146105d1578063daa97fae1461060157610211565b80638aac2f33116100f45780638aac2f33146104f55780638da5cb5b1461051157806395d89b411461052f578063a22cb4651461054d578063b88d4fde1461056957610211565b806369e9cae11461049557806370a08231146104b1578063715018a6146104e15780638456cb59146104eb57610211565b806323b872dd116101a857806342842e0e1161017757806342842e0e146103dc5780634f6ccce7146103f857806355231655146104285780635c975abb146104475780636352211e1461046557610211565b806323b872dd146103505780632558e25f1461036c5780632f745c59146103a25780633f4ba83a146103d257610211565b8063095ea7b3116101e4578063095ea7b3146102b257806318160ddd146102ce5780631b0a1aed146102ec5780631b4172781461031c57610211565b806301ffc9a71461021657806306fdde0314610246578063081812fc146102645780630917cffe14610294575b600080fd5b610230600480360381019061022b91906142b4565b6106d5565b60405161023d91906150e3565b60405180910390f35b61024e61074f565b60405161025b91906150fe565b60405180910390f35b61027e60048036038101906102799190614306565b6107e1565b60405161028b9190614fde565b60405180910390f35b61029c610866565b6040516102a991906154d0565b60405180910390f35b6102cc60048036038101906102c7919061424f565b61086c565b005b6102d6610984565b6040516102e391906154d0565b60405180910390f35b610306600480360381019061030191906140e4565b610991565b60405161031391906150c1565b60405180910390f35b61033660048036038101906103319190614306565b610a91565b6040516103479594939291906154eb565b60405180910390f35b61036a60048036038101906103659190614149565b610ad7565b005b61038660048036038101906103819190614306565b610c94565b604051610399979695949392919061553e565b60405180910390f35b6103bc60048036038101906103b7919061424f565b610e46565b6040516103c991906154d0565b60405180910390f35b6103da610eeb565b005b6103f660048036038101906103f19190614149565b610f71565b005b610412600480360381019061040d9190614306565b61113e565b60405161041f91906154d0565b60405180910390f35b6104306111d5565b60405161043e929190615045565b60405180910390f35b61044f61128f565b60405161045c91906150e3565b60405180910390f35b61047f600480360381019061047a9190614306565b6112a6565b60405161048c9190614fde565b60405180910390f35b6104af60048036038101906104aa9190614149565b611358565b005b6104cb60048036038101906104c691906140e4565b611651565b6040516104d891906154d0565b60405180910390f35b6104e9611709565b005b6104f3611846565b005b61050f600480360381019061050a9190614213565b6118cc565b005b6105196119a7565b6040516105269190614fde565b60405180910390f35b6105376119d1565b60405161054491906150fe565b60405180910390f35b61056760048036038101906105629190614213565b611a63565b005b610583600480360381019061057e9190614198565b611be4565b005b61059f600480360381019061059a9190614306565b611da3565b6040516105ac91906150fe565b60405180910390f35b6105cf60048036038101906105ca91906140e4565b611e4a565b005b6105eb60048036038101906105e6919061436b565b611fa5565b6040516105f891906154d0565b60405180910390f35b6106096123ab565b6040516106169190614fde565b60405180910390f35b6106396004803603810190610634919061432f565b6123d5565b60405161064691906154d0565b60405180910390f35b6106696004803603810190610664919061410d565b6123f3565b60405161067691906150e3565b60405180910390f35b61069960048036038101906106949190614306565b612487565b005b6106b560048036038101906106b091906140e4565b61257b565b005b6106bf612727565b6040516106cc91906154d0565b60405180910390f35b60007f780e9d63000000000000000000000000000000000000000000000000000000007bffffffffffffffffffffffffffffffffffffffffffffffffffffffff1916827bffffffffffffffffffffffffffffffffffffffffffffffffffffffff1916148061074857506107478261275b565b5b9050919050565b60606000805461075e906158c4565b80601f016020809104026020016040519081016040528092919081815260200182805461078a906158c4565b80156107d75780601f106107ac576101008083540402835291602001916107d7565b820191906000526020600020905b8154815290600101906020018083116107ba57829003601f168201915b5050505050905090565b60006107ec8261283d565b61082b576040517f08c379a000000000000000000000000000000000000000000000000000000000815260040161082290615370565b60405180910390fd5b6004600083815260200190815260200160002060009054906101000a900473ffffffffffffffffffffffffffffffffffffffff169050919050565b60105481565b6000610877826112a6565b90508073ffffffffffffffffffffffffffffffffffffffff168373ffffffffffffffffffffffffffffffffffffffff1614156108e8576040517f08c379a00000000000000000000000000000000000000000000000000000000081526004016108df906153f0565b60405180910390fd5b8073ffffffffffffffffffffffffffffffffffffffff166109076128a9565b73ffffffffffffffffffffffffffffffffffffffff1614806109365750610935816109306128a9565b6123f3565b5b610975576040517f08c379a000000000000000000000000000000000000000000000000000000000815260040161096c906152b0565b60405180910390fd5b61097f83836128b1565b505050565b6000600880549050905090565b6060600061099e83611651565b905060008167ffffffffffffffff8111156109e2577f4e487b7100000000000000000000000000000000000000000000000000000000600052604160045260246000fd5b604051908082528060200260200182016040528015610a105781602001602082028036833780820191505090505b50905060005b82811015610a86576000610a2a8683610e46565b905080838381518110610a66577f4e487b7100000000000000000000000000000000000000000000000000000000600052603260045260246000fd5b602002602001018181525050508080610a7e906158f6565b915050610a16565b508092505050919050565b60128181548110610aa157600080fd5b90600052602060002090600502016000915090508060000154908060010154908060020154908060030154908060040154905085565b610adf61128f565b15610b1f576040517f08c379a0000000000000000000000000000000000000000000000000000000008152600401610b1690615290565b60405180910390fd5b6000601160009054906101000a900473ffffffffffffffffffffffffffffffffffffffff1673ffffffffffffffffffffffffffffffffffffffff1663951fbdf0836040518263ffffffff1660e01b8152600401610b7c91906154d0565b60206040518083038186803b158015610b9457600080fd5b505afa158015610ba8573d6000803e3d6000fd5b505050506040513d601f19601f82011682018060405250810190610bcc919061428b565b905060011515601160149054906101000a900460ff1615151415610c3357600115158115151415610c32576040517f08c379a0000000000000000000000000000000000000000000000000000000008152600401610c2990615210565b60405180910390fd5b5b610c44610c3e6128a9565b8361296a565b610c83576040517f08c379a0000000000000000000000000000000000000000000000000000000008152600401610c7a90615430565b60405180910390fd5b610c8e848484612a48565b50505050565b600080600080600080600060128881548110610cd9577f4e487b7100000000000000000000000000000000000000000000000000000000600052603260045260246000fd5b90600052602060002090600502016003015460128981548110610d25577f4e487b7100000000000000000000000000000000000000000000000000000000600052603260045260246000fd5b90600052602060002090600502016004015460128a81548110610d71577f4e487b7100000000000000000000000000000000000000000000000000000000600052603260045260246000fd5b90600052602060002090600502016000015460128b81548110610dbd577f4e487b7100000000000000000000000000000000000000000000000000000000600052603260045260246000fd5b90600052602060002090600502016001015460128c81548110610e09577f4e487b7100000000000000000000000000000000000000000000000000000000600052603260045260246000fd5b906000526020600020906005020160020154610e248d6112a6565b610e2d8e6107e1565b9650965096509650965096509650919395979092949650565b6000610e5183611651565b8210610e92576040517f08c379a0000000000000000000000000000000000000000000000000000000008152600401610e8990615190565b60405180910390fd5b600660008473ffffffffffffffffffffffffffffffffffffffff1673ffffffffffffffffffffffffffffffffffffffff168152602001908152602001600020600083815260200190815260200160002054905092915050565b610ef36128a9565b73ffffffffffffffffffffffffffffffffffffffff16610f116119a7565b73ffffffffffffffffffffffffffffffffffffffff1614610f67576040517f08c379a0000000000000000000000000000000000000000000000000000000008152600401610f5e90615390565b60405180910390fd5b610f6f612ca4565b565b610f7961128f565b15610fb9576040517f08c379a0000000000000000000000000000000000000000000000000000000008152600401610fb090615290565b60405180910390fd5b6000601160009054906101000a900473ffffffffffffffffffffffffffffffffffffffff1673ffffffffffffffffffffffffffffffffffffffff1663951fbdf0836040518263ffffffff1660e01b815260040161101691906154d0565b60206040518083038186803b15801561102e57600080fd5b505afa158015611042573d6000803e3d6000fd5b505050506040513d601f19601f82011682018060405250810190611066919061428b565b905060011515601160149054906101000a900460ff16151514156110cd576001151581151514156110cc576040517f08c379a00000000000000000000000000000000000000000000000000000000081526004016110c390615210565b60405180910390fd5b5b6110de6110d86128a9565b8361296a565b61111d576040517f08c379a000000000000000000000000000000000000000000000000000000000815260040161111490615430565b60405180910390fd5b61113884848460405180602001604052806000815250611be4565b50505050565b6000611148610984565b8210611189576040517f08c379a000000000000000000000000000000000000000000000000000000000815260040161118090615450565b60405180910390fd5b600882815481106111c3577f4e487b7100000000000000000000000000000000000000000000000000000000600052603260045260246000fd5b90600052602060002001549050919050565b6000806111e06128a9565b73ffffffffffffffffffffffffffffffffffffffff166111fe6119a7565b73ffffffffffffffffffffffffffffffffffffffff1614611254576040517f08c379a000000000000000000000000000000000000000000000000000000000815260040161124b90615390565b60405180910390fd5b601160009054906101000a900473ffffffffffffffffffffffffffffffffffffffff16601160149054906101000a900460ff16915091509091565b6000600c60009054906101000a900460ff16905090565b6000806002600084815260200190815260200160002060009054906101000a900473ffffffffffffffffffffffffffffffffffffffff169050600073ffffffffffffffffffffffffffffffffffffffff168173ffffffffffffffffffffffffffffffffffffffff16141561134f576040517f08c379a000000000000000000000000000000000000000000000000000000000815260040161134690615310565b60405180910390fd5b80915050919050565b6002600b54141561139e576040517f08c379a000000000000000000000000000000000000000000000000000000000815260040161139590615490565b60405180910390fd5b6002600b819055506113ae61128f565b156113ee576040517f08c379a00000000000000000000000000000000000000000000000000000000081526004016113e590615290565b60405180910390fd5b6000601160009054906101000a900473ffffffffffffffffffffffffffffffffffffffff1673ffffffffffffffffffffffffffffffffffffffff1663951fbdf0836040518263ffffffff1660e01b815260040161144b91906154d0565b60206040518083038186803b15801561146357600080fd5b505afa158015611477573d6000803e3d6000fd5b505050506040513d601f19601f8201168201806040525081019061149b919061428b565b905060011515601160149054906101000a900460ff161515141561150257600115158115151415611501576040517f08c379a00000000000000000000000000000000000000000000000000000000081526004016114f890615210565b60405180910390fd5b5b600073ffffffffffffffffffffffffffffffffffffffff168373ffffffffffffffffffffffffffffffffffffffff161415611572576040517f08c379a000000000000000000000000000000000000000000000000000000000815260040161156990615170565b60405180910390fd5b3073ffffffffffffffffffffffffffffffffffffffff168373ffffffffffffffffffffffffffffffffffffffff1614156115e1576040517f08c379a00000000000000000000000000000000000000000000000000000000081526004016115d890615410565b60405180910390fd5b600115156115f66115f06128a9565b8461296a565b151514611638576040517f08c379a000000000000000000000000000000000000000000000000000000000815260040161162f90615470565b60405180910390fd5b611643848484610f71565b506001600b81905550505050565b60008073ffffffffffffffffffffffffffffffffffffffff168273ffffffffffffffffffffffffffffffffffffffff1614156116c2576040517f08c379a00000000000000000000000000000000000000000000000000000000081526004016116b9906152f0565b60405180910390fd5b600360008373ffffffffffffffffffffffffffffffffffffffff1673ffffffffffffffffffffffffffffffffffffffff168152602001908152602001600020549050919050565b6117116128a9565b73ffffffffffffffffffffffffffffffffffffffff1661172f6119a7565b73ffffffffffffffffffffffffffffffffffffffff1614611785576040517f08c379a000000000000000000000000000000000000000000000000000000000815260040161177c90615390565b60405180910390fd5b600073ffffffffffffffffffffffffffffffffffffffff16600a60009054906101000a900473ffffffffffffffffffffffffffffffffffffffff1673ffffffffffffffffffffffffffffffffffffffff167f8be0079c531659141344cd1fd0a4f28419497f9722a3daafe3b4186f6b6457e060405160405180910390a36000600a60006101000a81548173ffffffffffffffffffffffffffffffffffffffff021916908373ffffffffffffffffffffffffffffffffffffffff160217905550565b61184e6128a9565b73ffffffffffffffffffffffffffffffffffffffff1661186c6119a7565b73ffffffffffffffffffffffffffffffffffffffff16146118c2576040517f08c379a00000000000000000000000000000000000000000000000000000000081526004016118b990615390565b60405180910390fd5b6118ca612d46565b565b6118d46128a9565b73ffffffffffffffffffffffffffffffffffffffff166118f26119a7565b73ffffffffffffffffffffffffffffffffffffffff1614611948576040517f08c379a000000000000000000000000000000000000000000000000000000000815260040161193f90615390565b60405180910390fd5b81601160006101000a81548173ffffffffffffffffffffffffffffffffffffffff021916908373ffffffffffffffffffffffffffffffffffffffff16021790555080601160146101000a81548160ff0219169083151502179055505050565b6000600a60009054906101000a900473ffffffffffffffffffffffffffffffffffffffff16905090565b6060600180546119e0906158c4565b80601f0160208091040260200160405190810160405280929190818152602001828054611a0c906158c4565b8015611a595780601f10611a2e57610100808354040283529160200191611a59565b820191906000526020600020905b815481529060010190602001808311611a3c57829003601f168201915b5050505050905090565b611a6b6128a9565b73ffffffffffffffffffffffffffffffffffffffff168273ffffffffffffffffffffffffffffffffffffffff161415611ad9576040517f08c379a0000000000000000000000000000000000000000000000000000000008152600401611ad090615250565b60405180910390fd5b8060056000611ae66128a9565b73ffffffffffffffffffffffffffffffffffffffff1673ffffffffffffffffffffffffffffffffffffffff16815260200190815260200160002060008473ffffffffffffffffffffffffffffffffffffffff1673ffffffffffffffffffffffffffffffffffffffff16815260200190815260200160002060006101000a81548160ff0219169083151502179055508173ffffffffffffffffffffffffffffffffffffffff16611b936128a9565b73ffffffffffffffffffffffffffffffffffffffff167f17307eab39ab6107e8899845ad3d59bd9653f200f220920489ca2b5937696c3183604051611bd891906150e3565b60405180910390a35050565b611bec61128f565b15611c2c576040517f08c379a0000000000000000000000000000000000000000000000000000000008152600401611c2390615290565b60405180910390fd5b6000601160009054906101000a900473ffffffffffffffffffffffffffffffffffffffff1673ffffffffffffffffffffffffffffffffffffffff1663951fbdf0846040518263ffffffff1660e01b8152600401611c8991906154d0565b60206040518083038186803b158015611ca157600080fd5b505afa158015611cb5573d6000803e3d6000fd5b505050506040513d601f19601f82011682018060405250810190611cd9919061428b565b905060011515601160149054906101000a900460ff1615151415611d4057600115158115151415611d3f576040517f08c379a0000000000000000000000000000000000000000000000000000000008152600401611d3690615210565b60405180910390fd5b5b611d51611d4b6128a9565b8461296a565b611d90576040517f08c379a0000000000000000000000000000000000000000000000000000000008152600401611d8790615430565b60405180910390fd5b611d9c85858585612de9565b5050505050565b6060611dae8261283d565b611ded576040517f08c379a0000000000000000000000000000000000000000000000000000000008152600401611de4906153d0565b60405180910390fd5b6000611df7612e45565b90506000815111611e175760405180602001604052806000815250611e42565b80611e2184612e5c565b604051602001611e32929190614f7d565b6040516020818303038152906040525b915050919050565b60005b600d80549050811015611fa1578173ffffffffffffffffffffffffffffffffffffffff16600d8281548110611eab577f4e487b7100000000000000000000000000000000000000000000000000000000600052603260045260246000fd5b9060005260206000200160009054906101000a900473ffffffffffffffffffffffffffffffffffffffff1673ffffffffffffffffffffffffffffffffffffffff161415611f3657611f316040518060400160405280600c81526020017f6163636f756e74735b25735d000000000000000000000000000000000000000081525082613009565b611f8e565b600073ffffffffffffffffffffffffffffffffffffffff168273ffffffffffffffffffffffffffffffffffffffff161415611f8d57611f8c6040518060800160405280604d8152602001615aa4604d91396130a5565b5b5b8080611f99906158f6565b915050611e4d565b5050565b60006002600b541415611fed576040517f08c379a0000000000000000000000000000000000000000000000000000000008152600401611fe490615490565b60405180910390fd5b6002600b81905550611ffd61128f565b1561203d576040517f08c379a000000000000000000000000000000000000000000000000000000000815260040161203490615290565b60405180910390fd5b6120456128a9565b73ffffffffffffffffffffffffffffffffffffffff16612064846112a6565b73ffffffffffffffffffffffffffffffffffffffff161480156120c1575061208a6128a9565b73ffffffffffffffffffffffffffffffffffffffff166120a9836112a6565b73ffffffffffffffffffffffffffffffffffffffff16145b612100576040517f08c379a00000000000000000000000000000000000000000000000000000000081526004016120f790615350565b60405180910390fd5b60006012848154811061213c577f4e487b7100000000000000000000000000000000000000000000000000000000600052603260045260246000fd5b906000526020600020906005020160030154905060006012848154811061218c577f4e487b7100000000000000000000000000000000000000000000000000000000600052603260045260246000fd5b906000526020600020906005020160030154905060006121ac838361313e565b905060006121ba87876133e6565b905060006121d2888884866121cd6128a9565b613581565b90507f8e3541d6cb6a06d3a1785ca3c18fa6ca7b39a6278433734c442e2ebfe623e2ea8160128381548110612230577f4e487b7100000000000000000000000000000000000000000000000000000000600052603260045260246000fd5b9060005260206000209060050201600301546012848154811061227c577f4e487b7100000000000000000000000000000000000000000000000000000000600052603260045260246000fd5b906000526020600020906005020160040154601285815481106122c8577f4e487b7100000000000000000000000000000000000000000000000000000000600052603260045260246000fd5b90600052602060002090600502016000015460128681548110612314577f4e487b7100000000000000000000000000000000000000000000000000000000600052603260045260246000fd5b90600052602060002090600502016001015460128781548110612360577f4e487b7100000000000000000000000000000000000000000000000000000000600052603260045260246000fd5b90600052602060002090600502016002015461237a6128a9565b60405161238d97969594939291906155ad565b60405180910390a180955050505050506001600b8190555092915050565b6000600e60009054906101000a900473ffffffffffffffffffffffffffffffffffffffff16905090565b6000806123e760638060638787613581565b90508091505092915050565b6000600560008473ffffffffffffffffffffffffffffffffffffffff1673ffffffffffffffffffffffffffffffffffffffff16815260200190815260200160002060008373ffffffffffffffffffffffffffffffffffffffff1673ffffffffffffffffffffffffffffffffffffffff16815260200190815260200160002060009054906101000a900460ff16905092915050565b61248f6128a9565b73ffffffffffffffffffffffffffffffffffffffff166124ad6119a7565b73ffffffffffffffffffffffffffffffffffffffff1614612503576040517f08c379a00000000000000000000000000000000000000000000000000000000081526004016124fa90615390565b60405180910390fd5b600f5460105410612549576040517f08c379a0000000000000000000000000000000000000000000000000000000008152600401612540906154b0565b60405180910390fd5b6010600081548092919061255c906158f6565b91905055506125776000806000846125726128a9565b613581565b5050565b6125836128a9565b73ffffffffffffffffffffffffffffffffffffffff166125a16119a7565b73ffffffffffffffffffffffffffffffffffffffff16146125f7576040517f08c379a00000000000000000000000000000000000000000000000000000000081526004016125ee90615390565b60405180910390fd5b600073ffffffffffffffffffffffffffffffffffffffff168173ffffffffffffffffffffffffffffffffffffffff161415612667576040517f08c379a000000000000000000000000000000000000000000000000000000000815260040161265e906151d0565b60405180910390fd5b8073ffffffffffffffffffffffffffffffffffffffff16600a60009054906101000a900473ffffffffffffffffffffffffffffffffffffffff1673ffffffffffffffffffffffffffffffffffffffff167f8be0079c531659141344cd1fd0a4f28419497f9722a3daafe3b4186f6b6457e060405160405180910390a380600a60006101000a81548173ffffffffffffffffffffffffffffffffffffffff021916908373ffffffffffffffffffffffffffffffffffffffff16021790555050565b600f5481565b6000818361273b91906157da565b905092915050565b505050565b600080823b905060008111915050919050565b60007f80ac58cd000000000000000000000000000000000000000000000000000000007bffffffffffffffffffffffffffffffffffffffffffffffffffffffff1916827bffffffffffffffffffffffffffffffffffffffffffffffffffffffff1916148061282657507f5b5e139f000000000000000000000000000000000000000000000000000000007bffffffffffffffffffffffffffffffffffffffffffffffffffffffff1916827bffffffffffffffffffffffffffffffffffffffffffffffffffffffff1916145b806128365750612835826136ca565b5b9050919050565b60008073ffffffffffffffffffffffffffffffffffffffff166002600084815260200190815260200160002060009054906101000a900473ffffffffffffffffffffffffffffffffffffffff1673ffffffffffffffffffffffffffffffffffffffff1614159050919050565b600033905090565b816004600083815260200190815260200160002060006101000a81548173ffffffffffffffffffffffffffffffffffffffff021916908373ffffffffffffffffffffffffffffffffffffffff160217905550808273ffffffffffffffffffffffffffffffffffffffff16612924836112a6565b73ffffffffffffffffffffffffffffffffffffffff167f8c5be1e5ebec7d5bd14f71427d1e84f3dd0314c0f7b2291e5b200ac8c7c3b92560405160405180910390a45050565b60006129758261283d565b6129b4576040517f08c379a00000000000000000000000000000000000000000000000000000000081526004016129ab90615270565b60405180910390fd5b60006129bf836112a6565b90508073ffffffffffffffffffffffffffffffffffffffff168473ffffffffffffffffffffffffffffffffffffffff161480612a2e57508373ffffffffffffffffffffffffffffffffffffffff16612a16846107e1565b73ffffffffffffffffffffffffffffffffffffffff16145b80612a3f5750612a3e81856123f3565b5b91505092915050565b8273ffffffffffffffffffffffffffffffffffffffff16612a68826112a6565b73ffffffffffffffffffffffffffffffffffffffff1614612abe576040517f08c379a0000000000000000000000000000000000000000000000000000000008152600401612ab5906153b0565b60405180910390fd5b600073ffffffffffffffffffffffffffffffffffffffff168273ffffffffffffffffffffffffffffffffffffffff161415612b2e576040517f08c379a0000000000000000000000000000000000000000000000000000000008152600401612b2590615230565b60405180910390fd5b612b39838383613734565b612b446000826128b1565b6001600360008573ffffffffffffffffffffffffffffffffffffffff1673ffffffffffffffffffffffffffffffffffffffff1681526020019081526020016000206000828254612b9491906157da565b925050819055506001600360008473ffffffffffffffffffffffffffffffffffffffff1673ffffffffffffffffffffffffffffffffffffffff1681526020019081526020016000206000828254612beb91906156f9565b92505081905550816002600083815260200190815260200160002060006101000a81548173ffffffffffffffffffffffffffffffffffffffff021916908373ffffffffffffffffffffffffffffffffffffffff160217905550808273ffffffffffffffffffffffffffffffffffffffff168473ffffffffffffffffffffffffffffffffffffffff167fddf252ad1be2c89b69c2b068fc378daa952ba7f163c4a11628f55a4df523b3ef60405160405180910390a4505050565b612cac61128f565b612ceb576040517f08c379a0000000000000000000000000000000000000000000000000000000008152600401612ce290615150565b60405180910390fd5b6000600c60006101000a81548160ff0219169083151502179055507f5db9ee0a495bf2e6ff9c91a7834c1ba4fdd244a5e8aa4e537bd38aeae4b073aa612d2f6128a9565b604051612d3c9190614fde565b60405180910390a1565b612d4e61128f565b15612d8e576040517f08c379a0000000000000000000000000000000000000000000000000000000008152600401612d8590615290565b60405180910390fd5b6001600c60006101000a81548160ff0219169083151502179055507f62e78cea01bee320cd4e420270b5ea74000d11b0c9f74754ebdbfc544b05a258612dd26128a9565b604051612ddf9190614fde565b60405180910390a1565b612df4848484612a48565b612e0084848484613848565b612e3f576040517f08c379a0000000000000000000000000000000000000000000000000000000008152600401612e36906151b0565b60405180910390fd5b50505050565b606060405180602001604052806000815250905090565b60606000821415612ea4576040518060400160405280600181526020017f30000000000000000000000000000000000000000000000000000000000000008152509050613004565b600082905060005b60008214612ed6578080612ebf906158f6565b915050600a82612ecf919061574f565b9150612eac565b60008167ffffffffffffffff811115612f18577f4e487b7100000000000000000000000000000000000000000000000000000000600052604160045260246000fd5b6040519080825280601f01601f191660200182016040528015612f4a5781602001600182028036833780820191505090505b5090505b60008514612ffd57600182612f6391906157da565b9150600a85612f729190615949565b6030612f7e91906156f9565b60f81b818381518110612fba577f4e487b7100000000000000000000000000000000000000000000000000000000600052603260045260246000fd5b60200101907effffffffffffffffffffffffffffffffffffffffffffffffffffffffffffff1916908160001a905350600a85612ff6919061574f565b9450612f4e565b8093505050505b919050565b6130a1828260405160240161301f929190615120565b6040516020818303038152906040527f9710a9d0000000000000000000000000000000000000000000000000000000007bffffffffffffffffffffffffffffffffffffffffffffffffffffffff19166020820180517bffffffffffffffffffffffffffffffffffffffffffffffffffffffff83818316178352505050506139df565b5050565b61313b816040516024016130b991906150fe565b6040516020818303038152906040527f41304fac000000000000000000000000000000000000000000000000000000007bffffffffffffffffffffffffffffffffffffffffffffffffffffffff19166020820180517bffffffffffffffffffffffffffffffffffffffffffffffffffffffff83818316178352505050506139df565b50565b6000613148613fdb565b6000613152613a08565b90506000600790506000600190505b60408111613268576000818460ff1616146131cd576064876131839190615949565b60ff168483600881106131bf577f4e487b7100000000000000000000000000000000000000000000000000000000600052603260045260246000fd5b602002018181525050613220565b6064866131da9190615949565b60ff16848360088110613216577f4e487b7100000000000000000000000000000000000000000000000000000000600052603260045260246000fd5b6020020181815250505b60648761322d919061574f565b965060648661323c919061574f565b955061325260018361272d90919063ffffffff16565b91506002816132619190615780565b9050613161565b5060008260ff16613277610984565b60126000815481106132b2577f4e487b7100000000000000000000000000000000000000000000000000000000600052603260045260246000fd5b9060005260206000209060050201600301546040516020016132d693929190614fa1565b6040516020818303038152906040528051906020012060001c9050600a6059826133009190615949565b61330a91906156f9565b90508084600060088110613347577f4e487b7100000000000000000000000000000000000000000000000000000000600052603260045260246000fd5b602002018181525050600080600090505b60088110156133d75785816008811061339a577f4e487b7100000000000000000000000000000000000000000000000000000000600052603260045260246000fd5b6020020151826133aa91906156f9565b9150600781146133c4576064826133c19190615780565b91505b80806133cf906158f6565b915050613358565b50809550505050505092915050565b60008060128481548110613423577f4e487b7100000000000000000000000000000000000000000000000000000000600052603260045260246000fd5b9060005260206000209060050201600201549050600060128481548110613473577f4e487b7100000000000000000000000000000000000000000000000000000000600052603260045260246000fd5b90600052602060002090600502016002015490506103e88210801561349957506103e881105b6134d8576040517f08c379a00000000000000000000000000000000000000000000000000000000081526004016134cf906152d0565b60405180910390fd5b600081831461354e5760006002600a84866134f391906156f9565b6134fd9190615780565b613507919061574f565b90506000600a826135189190615949565b111561352d5760058161352b91906157da565b505b6002600a8261353c919061574f565b61354691906156f9565b915050613575565b60016002838561355e91906156f9565b613568919061574f565b61357291906156f9565b90505b80935050505092915050565b600061358b61128f565b156135cb576040517f08c379a00000000000000000000000000000000000000000000000000000000081526004016135c290615290565b60405180910390fd5b60006040518060a001604052808881526020018781526020018681526020018581526020014281525090506012819080600181540180825580915050600190039060005260206000209060050201600090919091909150600082015181600001556020820151816001015560408201518160020155606082015181600301556080820151816004015550506000613671600160128054905061272d90919063ffffffff16565b905061367d8482613a1c565b7f0b1e9a74eeaae184646d7a35062426460c8c9364005c6d441cce036dd9c655d584828a8a896040516136b495949392919061506e565b60405180910390a1809250505095945050505050565b60007f01ffc9a7000000000000000000000000000000000000000000000000000000007bffffffffffffffffffffffffffffffffffffffffffffffffffffffff1916827bffffffffffffffffffffffffffffffffffffffffffffffffffffffff1916149050919050565b61373f838383612743565b600073ffffffffffffffffffffffffffffffffffffffff168373ffffffffffffffffffffffffffffffffffffffff1614156137825761377d81613a3a565b6137c1565b8173ffffffffffffffffffffffffffffffffffffffff168373ffffffffffffffffffffffffffffffffffffffff16146137c0576137bf8382613a83565b5b5b600073ffffffffffffffffffffffffffffffffffffffff168273ffffffffffffffffffffffffffffffffffffffff161415613804576137ff81613bf0565b613843565b8273ffffffffffffffffffffffffffffffffffffffff168273ffffffffffffffffffffffffffffffffffffffff1614613842576138418282613d33565b5b5b505050565b60006138698473ffffffffffffffffffffffffffffffffffffffff16612748565b156139d2578373ffffffffffffffffffffffffffffffffffffffff1663150b7a026138926128a9565b8786866040518563ffffffff1660e01b81526004016138b49493929190614ff9565b602060405180830381600087803b1580156138ce57600080fd5b505af19250505080156138ff57506040513d601f19601f820116820180604052508101906138fc91906142dd565b60015b613982573d806000811461392f576040519150601f19603f3d011682016040523d82523d6000602084013e613934565b606091505b5060008151141561397a576040517f08c379a0000000000000000000000000000000000000000000000000000000008152600401613971906151b0565b60405180910390fd5b805181602001fd5b63150b7a0260e01b7bffffffffffffffffffffffffffffffffffffffffffffffffffffffff1916817bffffffffffffffffffffffffffffffffffffffffffffffffffffffff1916149150506139d7565b600190505b949350505050565b60008151905060006a636f6e736f6c652e6c6f679050602083016000808483855afa5050505050565b600060ff42613a179190615949565b905090565b613a36828260405180602001604052806000815250613db2565b5050565b6008805490506009600083815260200190815260200160002081905550600881908060018154018082558091505060019003906000526020600020016000909190919091505550565b60006001613a9084611651565b613a9a91906157da565b9050600060076000848152602001908152602001600020549050818114613b7f576000600660008673ffffffffffffffffffffffffffffffffffffffff1673ffffffffffffffffffffffffffffffffffffffff168152602001908152602001600020600084815260200190815260200160002054905080600660008773ffffffffffffffffffffffffffffffffffffffff1673ffffffffffffffffffffffffffffffffffffffff168152602001908152602001600020600084815260200190815260200160002081905550816007600083815260200190815260200160002081905550505b6007600084815260200190815260200160002060009055600660008573ffffffffffffffffffffffffffffffffffffffff1673ffffffffffffffffffffffffffffffffffffffff16815260200190815260200160002060008381526020019081526020016000206000905550505050565b60006001600880549050613c0491906157da565b9050600060096000848152602001908152602001600020549050600060088381548110613c5a577f4e487b7100000000000000000000000000000000000000000000000000000000600052603260045260246000fd5b906000526020600020015490508060088381548110613ca2577f4e487b7100000000000000000000000000000000000000000000000000000000600052603260045260246000fd5b906000526020600020018190555081600960008381526020019081526020016000208190555060096000858152602001908152602001600020600090556008805480613d17577f4e487b7100000000000000000000000000000000000000000000000000000000600052603160045260246000fd5b6001900381819060005260206000200160009055905550505050565b6000613d3e83611651565b905081600660008573ffffffffffffffffffffffffffffffffffffffff1673ffffffffffffffffffffffffffffffffffffffff168152602001908152602001600020600083815260200190815260200160002081905550806007600084815260200190815260200160002081905550505050565b613dbc8383613e0d565b613dc96000848484613848565b613e08576040517f08c379a0000000000000000000000000000000000000000000000000000000008152600401613dff906151b0565b60405180910390fd5b505050565b600073ffffffffffffffffffffffffffffffffffffffff168273ffffffffffffffffffffffffffffffffffffffff161415613e7d576040517f08c379a0000000000000000000000000000000000000000000000000000000008152600401613e7490615330565b60405180910390fd5b613e868161283d565b15613ec6576040517f08c379a0000000000000000000000000000000000000000000000000000000008152600401613ebd906151f0565b60405180910390fd5b613ed260008383613734565b6001600360008473ffffffffffffffffffffffffffffffffffffffff1673ffffffffffffffffffffffffffffffffffffffff1681526020019081526020016000206000828254613f2291906156f9565b92505081905550816002600083815260200190815260200160002060006101000a81548173ffffffffffffffffffffffffffffffffffffffff021916908373ffffffffffffffffffffffffffffffffffffffff160217905550808273ffffffffffffffffffffffffffffffffffffffff16600073ffffffffffffffffffffffffffffffffffffffff167fddf252ad1be2c89b69c2b068fc378daa952ba7f163c4a11628f55a4df523b3ef60405160405180910390a45050565b604051806101000160405280600890602082028036833780820191505090505090565b600061401161400c8461564d565b61561c565b90508281526020810184848401111561402957600080fd5b614034848285615882565b509392505050565b60008135905061404b81615a47565b92915050565b60008135905061406081615a5e565b92915050565b60008151905061407581615a5e565b92915050565b60008135905061408a81615a75565b92915050565b60008151905061409f81615a75565b92915050565b600082601f8301126140b657600080fd5b81356140c6848260208601613ffe565b91505092915050565b6000813590506140de81615a8c565b92915050565b6000602082840312156140f657600080fd5b60006141048482850161403c565b91505092915050565b6000806040838503121561412057600080fd5b600061412e8582860161403c565b925050602061413f8582860161403c565b9150509250929050565b60008060006060848603121561415e57600080fd5b600061416c8682870161403c565b935050602061417d8682870161403c565b925050604061418e868287016140cf565b9150509250925092565b600080600080608085870312156141ae57600080fd5b60006141bc8782880161403c565b94505060206141cd8782880161403c565b93505060406141de878288016140cf565b925050606085013567ffffffffffffffff8111156141fb57600080fd5b614207878288016140a5565b91505092959194509250565b6000806040838503121561422657600080fd5b60006142348582860161403c565b925050602061424585828601614051565b9150509250929050565b6000806040838503121561426257600080fd5b60006142708582860161403c565b9250506020614281858286016140cf565b9150509250929050565b60006020828403121561429d57600080fd5b60006142ab84828501614066565b91505092915050565b6000602082840312156142c657600080fd5b60006142d48482850161407b565b91505092915050565b6000602082840312156142ef57600080fd5b60006142fd84828501614090565b91505092915050565b60006020828403121561431857600080fd5b6000614326848285016140cf565b91505092915050565b6000806040838503121561434257600080fd5b6000614350858286016140cf565b92505060206143618582860161403c565b9150509250929050565b6000806040838503121561437e57600080fd5b600061438c858286016140cf565b925050602061439d858286016140cf565b9150509250929050565b60006143b38383614f48565b60208301905092915050565b6143c88161580e565b82525050565b60006143d98261568d565b6143e381856156bb565b93506143ee8361567d565b8060005b8381101561441f57815161440688826143a7565b9750614411836156ae565b9250506001810190506143f2565b5085935050505092915050565b61443581615820565b82525050565b600061444682615698565b61445081856156cc565b9350614460818560208601615891565b61446981615a36565b840191505092915050565b600061447f826156a3565b61448981856156dd565b9350614499818560208601615891565b6144a281615a36565b840191505092915050565b60006144b8826156a3565b6144c281856156ee565b93506144d2818560208601615891565b80840191505092915050565b60006144eb6014836156dd565b91507f5061757361626c653a206e6f74207061757365640000000000000000000000006000830152602082019050919050565b600061452b604a836156dd565b91507f4d6f6e6b6579436f6e74726163743a205472616e7366657220746f207468652060008301527f7a65726f2061646472657373206e6f7420616c6c6f7765642c206275726e204e60208301527f465420696e7374656164000000000000000000000000000000000000000000006040830152606082019050919050565b60006145b7602b836156dd565b91507f455243373231456e756d657261626c653a206f776e657220696e646578206f7560008301527f74206f6620626f756e64730000000000000000000000000000000000000000006020830152604082019050919050565b600061461d6032836156dd565b91507f4552433732313a207472616e7366657220746f206e6f6e20455243373231526560008301527f63656976657220696d706c656d656e74657200000000000000000000000000006020830152604082019050919050565b60006146836026836156dd565b91507f4f776e61626c653a206e6577206f776e657220697320746865207a65726f206160008301527f64647265737300000000000000000000000000000000000000000000000000006020830152604082019050919050565b60006146e9601c836156dd565b91507f4552433732313a20746f6b656e20616c7265616479206d696e746564000000006000830152602082019050919050565b60006147296039836156dd565b91507f4d6f6e6b6579436f6e74726163743a204e4654206973207374696c6c206f6e2060008301527f73616c652e2052656d6f7665206f666665722066697273742e000000000000006020830152604082019050919050565b600061478f6024836156dd565b91507f4552433732313a207472616e7366657220746f20746865207a65726f2061646460008301527f72657373000000000000000000000000000000000000000000000000000000006020830152604082019050919050565b60006147f56019836156dd565b91507f4552433732313a20617070726f766520746f2063616c6c6572000000000000006000830152602082019050919050565b6000614835602c836156dd565b91507f4552433732313a206f70657261746f7220717565727920666f72206e6f6e657860008301527f697374656e7420746f6b656e00000000000000000000000000000000000000006020830152604082019050919050565b600061489b6010836156dd565b91507f5061757361626c653a20706175736564000000000000000000000000000000006000830152602082019050919050565b60006148db6038836156dd565b91507f4552433732313a20617070726f76652063616c6c6572206973206e6f74206f7760008301527f6e6572206e6f7220617070726f76656420666f7220616c6c00000000000000006020830152604082019050919050565b60006149416021836156dd565b91507f506172656e74732063616e6e6f742062726565642061626f76652067656e393960008301527f39000000000000000000000000000000000000000000000000000000000000006020830152604082019050919050565b60006149a7602a836156dd565b91507f4552433732313a2062616c616e636520717565727920666f7220746865207a6560008301527f726f2061646472657373000000000000000000000000000000000000000000006020830152604082019050919050565b6000614a0d6029836156dd565b91507f4552433732313a206f776e657220717565727920666f72206e6f6e657869737460008301527f656e7420746f6b656e00000000000000000000000000000000000000000000006020830152604082019050919050565b6000614a736020836156dd565b91507f4552433732313a206d696e7420746f20746865207a65726f20616464726573736000830152602082019050919050565b6000614ab36033836156dd565b91507f4d6f6e6b6579436f6e74726163743a204d757374206265206f776e6572206f6660008301527f20626f746820706172656e7420746f6b656e73000000000000000000000000006020830152604082019050919050565b6000614b19602c836156dd565b91507f4552433732313a20617070726f76656420717565727920666f72206e6f6e657860008301527f697374656e7420746f6b656e00000000000000000000000000000000000000006020830152604082019050919050565b6000614b7f6020836156dd565b91507f4f776e61626c653a2063616c6c6572206973206e6f7420746865206f776e65726000830152602082019050919050565b6000614bbf6029836156dd565b91507f4552433732313a207472616e73666572206f6620746f6b656e2074686174206960008301527f73206e6f74206f776e00000000000000000000000000000000000000000000006020830152604082019050919050565b6000614c25602f836156dd565b91507f4552433732314d657461646174613a2055524920717565727920666f72206e6f60008301527f6e6578697374656e7420746f6b656e00000000000000000000000000000000006020830152604082019050919050565b6000614c8b6021836156dd565b91507f4552433732313a20617070726f76616c20746f2063757272656e74206f776e6560008301527f72000000000000000000000000000000000000000000000000000000000000006020830152604082019050919050565b6000614cf16034836156dd565b91507f4d6f6e6b6579436f6e74726163743a2043616e2774207472616e73666572204e60008301527f46547320746f207468697320636f6e74726163740000000000000000000000006020830152604082019050919050565b6000614d576031836156dd565b91507f4552433732313a207472616e736665722063616c6c6572206973206e6f74206f60008301527f776e6572206e6f7220617070726f7665640000000000000000000000000000006020830152604082019050919050565b6000614dbd602c836156dd565b91507f455243373231456e756d657261626c653a20676c6f62616c20696e646578206f60008301527f7574206f6620626f756e647300000000000000000000000000000000000000006020830152604082019050919050565b6000614e236051836156dd565b91507f4d6f6e6b6579436f6e74726163743a2043616e2774207472616e73666572207460008301527f686973204e465420776974686f7574206265696e67206f776e65722c2061707060208301527f726f766564206f72206f70657261746f720000000000000000000000000000006040830152606082019050919050565b6000614eaf601f836156dd565b91507f5265656e7472616e637947756172643a207265656e7472616e742063616c6c006000830152602082019050919050565b6000614eef6027836156dd565b91507f4d6178696d756d20616d6f756e74206f662067656e2030206d6f6e6b6579732060008301527f72656163686564000000000000000000000000000000000000000000000000006020830152604082019050919050565b614f5181615878565b82525050565b614f6081615878565b82525050565b614f77614f7282615878565b61593f565b82525050565b6000614f8982856144ad565b9150614f9582846144ad565b91508190509392505050565b6000614fad8286614f66565b602082019150614fbd8285614f66565b602082019150614fcd8284614f66565b602082019150819050949350505050565b6000602082019050614ff360008301846143bf565b92915050565b600060808201905061500e60008301876143bf565b61501b60208301866143bf565b6150286040830185614f57565b818103606083015261503a818461443b565b905095945050505050565b600060408201905061505a60008301856143bf565b615067602083018461442c565b9392505050565b600060a08201905061508360008301886143bf565b6150906020830187614f57565b61509d6040830186614f57565b6150aa6060830185614f57565b6150b76080830184614f57565b9695505050505050565b600060208201905081810360008301526150db81846143ce565b905092915050565b60006020820190506150f8600083018461442c565b92915050565b600060208201905081810360008301526151188184614474565b905092915050565b6000604082019050818103600083015261513a8185614474565b90506151496020830184614f57565b9392505050565b60006020820190508181036000830152615169816144de565b9050919050565b600060208201905081810360008301526151898161451e565b9050919050565b600060208201905081810360008301526151a9816145aa565b9050919050565b600060208201905081810360008301526151c981614610565b9050919050565b600060208201905081810360008301526151e981614676565b9050919050565b60006020820190508181036000830152615209816146dc565b9050919050565b600060208201905081810360008301526152298161471c565b9050919050565b6000602082019050818103600083015261524981614782565b9050919050565b60006020820190508181036000830152615269816147e8565b9050919050565b6000602082019050818103600083015261528981614828565b9050919050565b600060208201905081810360008301526152a98161488e565b9050919050565b600060208201905081810360008301526152c9816148ce565b9050919050565b600060208201905081810360008301526152e981614934565b9050919050565b600060208201905081810360008301526153098161499a565b9050919050565b6000602082019050818103600083015261532981614a00565b9050919050565b6000602082019050818103600083015261534981614a66565b9050919050565b6000602082019050818103600083015261536981614aa6565b9050919050565b6000602082019050818103600083015261538981614b0c565b9050919050565b600060208201905081810360008301526153a981614b72565b9050919050565b600060208201905081810360008301526153c981614bb2565b9050919050565b600060208201905081810360008301526153e981614c18565b9050919050565b6000602082019050818103600083015261540981614c7e565b9050919050565b6000602082019050818103600083015261542981614ce4565b9050919050565b6000602082019050818103600083015261544981614d4a565b9050919050565b6000602082019050818103600083015261546981614db0565b9050919050565b6000602082019050818103600083015261548981614e16565b9050919050565b600060208201905081810360008301526154a981614ea2565b9050919050565b600060208201905081810360008301526154c981614ee2565b9050919050565b60006020820190506154e56000830184614f57565b92915050565b600060a0820190506155006000830188614f57565b61550d6020830187614f57565b61551a6040830186614f57565b6155276060830185614f57565b6155346080830184614f57565b9695505050505050565b600060e082019050615553600083018a614f57565b6155606020830189614f57565b61556d6040830188614f57565b61557a6060830187614f57565b6155876080830186614f57565b61559460a08301856143bf565b6155a160c08301846143bf565b98975050505050505050565b600060e0820190506155c2600083018a614f57565b6155cf6020830189614f57565b6155dc6040830188614f57565b6155e96060830187614f57565b6155f66080830186614f57565b61560360a0830185614f57565b61561060c08301846143bf565b98975050505050505050565b6000604051905081810181811067ffffffffffffffff8211171561564357615642615a07565b5b8060405250919050565b600067ffffffffffffffff82111561566857615667615a07565b5b601f19601f8301169050602081019050919050565b6000819050602082019050919050565b600081519050919050565b600081519050919050565b600081519050919050565b6000602082019050919050565b600082825260208201905092915050565b600082825260208201905092915050565b600082825260208201905092915050565b600081905092915050565b600061570482615878565b915061570f83615878565b9250827fffffffffffffffffffffffffffffffffffffffffffffffffffffffffffffffff038211156157445761574361597a565b5b828201905092915050565b600061575a82615878565b915061576583615878565b925082615775576157746159a9565b5b828204905092915050565b600061578b82615878565b915061579683615878565b9250817fffffffffffffffffffffffffffffffffffffffffffffffffffffffffffffffff04831182151516156157cf576157ce61597a565b5b828202905092915050565b60006157e582615878565b91506157f083615878565b9250828210156158035761580261597a565b5b828203905092915050565b600061581982615858565b9050919050565b60008115159050919050565b60007fffffffff0000000000000000000000000000000000000000000000000000000082169050919050565b600073ffffffffffffffffffffffffffffffffffffffff82169050919050565b6000819050919050565b82818337600083830152505050565b60005b838110156158af578082015181840152602081019050615894565b838111156158be576000848401525b50505050565b600060028204905060018216806158dc57607f821691505b602082108114156158f0576158ef6159d8565b5b50919050565b600061590182615878565b91507fffffffffffffffffffffffffffffffffffffffffffffffffffffffffffffffff8214156159345761593361597a565b5b600182019050919050565b6000819050919050565b600061595482615878565b915061595f83615878565b92508261596f5761596e6159a9565b5b828206905092915050565b7f4e487b7100000000000000000000000000000000000000000000000000000000600052601160045260246000fd5b7f4e487b7100000000000000000000000000000000000000000000000000000000600052601260045260246000fd5b7f4e487b7100000000000000000000000000000000000000000000000000000000600052602260045260246000fd5b7f4e487b7100000000000000000000000000000000000000000000000000000000600052604160045260246000fd5b6000601f19601f8301169050919050565b615a508161580e565b8114615a5b57600080fd5b50565b615a6781615820565b8114615a7257600080fd5b50565b615a7e8161582c565b8114615a8957600080fd5b50565b615a9581615878565b8114615aa057600080fd5b5056fe5a65726f20616464726573733a20307830303030303030303030303030303030303030303030303030303030303030303030303030303030203d3e20692e652e20697420776173206275726e74a2646970667358221220f14d6cf49c3c3c47d3ecf400ec33a9634ce6af26e795fa72c3bfa8ef1657b4ef64736f6c63430008000033",
  "linkReferences": {},
  "deployedLinkReferences": {}
}