{
  "_format": "hh-sol-artifact-1",
  "contractName": "MonkeyContract",
  "sourceName": "contracts/MonkeyContract.sol",
  "abi": [
    {
      "inputs": [
        {
          "internalType": "address[]",
          "name": "_addressesArray",
          "type": "address[]"
        }
      ],
      "stateMutability": "nonpayable",
      "type": "constructor"
    },
    {
      "anonymous": false,
      "inputs": [
        {
          "indexed": true,
          "internalType": "address",
          "name": "owner",
          "type": "address"
        },
        {
          "indexed": true,
          "internalType": "address",
          "name": "approved",
          "type": "address"
        },
        {
          "indexed": true,
          "internalType": "uint256",
          "name": "tokenId",
          "type": "uint256"
        }
      ],
      "name": "Approval",
      "type": "event"
    },
    {
      "anonymous": false,
      "inputs": [
        {
          "indexed": true,
          "internalType": "address",
          "name": "owner",
          "type": "address"
        },
        {
          "indexed": true,
          "internalType": "address",
          "name": "operator",
          "type": "address"
        },
        {
          "indexed": false,
          "internalType": "bool",
          "name": "approved",
          "type": "bool"
        }
      ],
      "name": "ApprovalForAll",
      "type": "event"
    },
    {
      "anonymous": false,
      "inputs": [
        {
          "indexed": false,
          "internalType": "uint256",
          "name": "tokenId",
          "type": "uint256"
        },
        {
          "indexed": false,
          "internalType": "uint256",
          "name": "genes",
          "type": "uint256"
        },
        {
          "indexed": false,
          "internalType": "uint256",
          "name": "birthtime",
          "type": "uint256"
        },
        {
          "indexed": false,
          "internalType": "uint256",
          "name": "parent1Id",
          "type": "uint256"
        },
        {
          "indexed": false,
          "internalType": "uint256",
          "name": "parent2Id",
          "type": "uint256"
        },
        {
          "indexed": false,
          "internalType": "uint256",
          "name": "generation",
          "type": "uint256"
        },
        {
          "indexed": false,
          "internalType": "address",
          "name": "owner",
          "type": "address"
        }
      ],
      "name": "BreedingSuccessful",
      "type": "event"
    },
    {
      "anonymous": false,
      "inputs": [
        {
          "indexed": false,
          "internalType": "address",
          "name": "owner",
          "type": "address"
        },
        {
          "indexed": false,
          "internalType": "uint256",
          "name": "tokenId",
          "type": "uint256"
        },
        {
          "indexed": false,
          "internalType": "uint256",
          "name": "parent1Id",
          "type": "uint256"
        },
        {
          "indexed": false,
          "internalType": "uint256",
          "name": "parent2Id",
          "type": "uint256"
        },
        {
          "indexed": false,
          "internalType": "uint256",
          "name": "genes",
          "type": "uint256"
        }
      ],
      "name": "MonkeyCreated",
      "type": "event"
    },
    {
      "anonymous": false,
      "inputs": [
        {
          "indexed": true,
          "internalType": "address",
          "name": "previousOwner",
          "type": "address"
        },
        {
          "indexed": true,
          "internalType": "address",
          "name": "newOwner",
          "type": "address"
        }
      ],
      "name": "OwnershipTransferred",
      "type": "event"
    },
    {
      "anonymous": false,
      "inputs": [
        {
          "indexed": false,
          "internalType": "address",
          "name": "account",
          "type": "address"
        }
      ],
      "name": "Paused",
      "type": "event"
    },
    {
      "anonymous": false,
      "inputs": [
        {
          "indexed": true,
          "internalType": "address",
          "name": "from",
          "type": "address"
        },
        {
          "indexed": true,
          "internalType": "address",
          "name": "to",
          "type": "address"
        },
        {
          "indexed": true,
          "internalType": "uint256",
          "name": "tokenId",
          "type": "uint256"
        }
      ],
      "name": "Transfer",
      "type": "event"
    },
    {
      "anonymous": false,
      "inputs": [
        {
          "indexed": false,
          "internalType": "address",
          "name": "account",
          "type": "address"
        }
      ],
      "name": "Unpaused",
      "type": "event"
    },
    {
      "inputs": [],
      "name": "GEN0_Limit",
      "outputs": [
        {
          "internalType": "uint256",
          "name": "",
          "type": "uint256"
        }
      ],
      "stateMutability": "view",
      "type": "function"
    },
    {
      "inputs": [
        {
          "internalType": "uint256",
          "name": "",
          "type": "uint256"
        }
      ],
      "name": "allMonkeysArray",
      "outputs": [
        {
          "internalType": "uint256",
          "name": "parent1Id",
          "type": "uint256"
        },
        {
          "internalType": "uint256",
          "name": "parent2Id",
          "type": "uint256"
        },
        {
          "internalType": "uint256",
          "name": "generation",
          "type": "uint256"
        },
        {
          "internalType": "uint256",
          "name": "genes",
          "type": "uint256"
        },
        {
          "internalType": "uint256",
          "name": "birthtime",
          "type": "uint256"
        }
      ],
      "stateMutability": "view",
      "type": "function"
    },
    {
      "inputs": [
        {
          "internalType": "address",
          "name": "to",
          "type": "address"
        },
        {
          "internalType": "uint256",
          "name": "tokenId",
          "type": "uint256"
        }
      ],
      "name": "approve",
      "outputs": [],
      "stateMutability": "nonpayable",
      "type": "function"
    },
    {
      "inputs": [
        {
          "internalType": "address",
          "name": "owner",
          "type": "address"
        }
      ],
      "name": "balanceOf",
      "outputs": [
        {
          "internalType": "uint256",
          "name": "",
          "type": "uint256"
        }
      ],
      "stateMutability": "view",
      "type": "function"
    },
    {
      "inputs": [
        {
          "internalType": "uint256",
          "name": "_parent1Id",
          "type": "uint256"
        },
        {
          "internalType": "uint256",
          "name": "_parent2Id",
          "type": "uint256"
        }
      ],
      "name": "breed",
      "outputs": [
        {
          "internalType": "uint256",
          "name": "",
          "type": "uint256"
        }
      ],
      "stateMutability": "nonpayable",
      "type": "function"
    },
    {
      "inputs": [],
      "name": "checkMarketConnected",
      "outputs": [
        {
          "internalType": "address",
          "name": "marketAddressSaved",
          "type": "address"
        },
        {
          "internalType": "bool",
          "name": "isMarketConnected",
          "type": "bool"
        }
      ],
      "stateMutability": "view",
      "type": "function"
    },
    {
      "inputs": [
        {
          "internalType": "address",
          "name": "_receivedMarketContractAddress",
          "type": "address"
        },
        {
          "internalType": "bool",
          "name": "setConnectMarket",
          "type": "bool"
        }
      ],
      "name": "connectMarket",
      "outputs": [],
      "stateMutability": "nonpayable",
      "type": "function"
    },
    {
      "inputs": [
        {
          "internalType": "uint256",
          "name": "_genes",
          "type": "uint256"
        },
        {
          "internalType": "address",
          "name": "_owner",
          "type": "address"
        }
      ],
      "name": "createDemoMonkey",
      "outputs": [
        {
          "internalType": "uint256",
          "name": "",
          "type": "uint256"
        }
      ],
      "stateMutability": "nonpayable",
      "type": "function"
    },
    {
      "inputs": [
        {
          "internalType": "uint256",
          "name": "_genes",
          "type": "uint256"
        }
      ],
      "name": "createGen0Monkey",
      "outputs": [],
      "stateMutability": "nonpayable",
      "type": "function"
    },
    {
      "inputs": [
        {
          "internalType": "address",
          "name": "owner",
          "type": "address"
        }
      ],
      "name": "findMonkeyIdsOfAddress",
      "outputs": [
        {
          "internalType": "uint256[]",
          "name": "",
          "type": "uint256[]"
        }
      ],
      "stateMutability": "view",
      "type": "function"
    },
    {
      "inputs": [],
      "name": "gen0amountTotal",
      "outputs": [
        {
          "internalType": "uint256",
          "name": "",
          "type": "uint256"
        }
      ],
      "stateMutability": "view",
      "type": "function"
    },
    {
      "inputs": [
        {
          "internalType": "uint256",
          "name": "tokenId",
          "type": "uint256"
        }
      ],
      "name": "getApproved",
      "outputs": [
        {
          "internalType": "address",
          "name": "",
          "type": "address"
        }
      ],
      "stateMutability": "view",
      "type": "function"
    },
    {
      "inputs": [],
      "name": "getMonkeyContractAddress",
      "outputs": [
        {
          "internalType": "address",
          "name": "",
          "type": "address"
        }
      ],
      "stateMutability": "view",
      "type": "function"
    },
    {
      "inputs": [
        {
          "internalType": "uint256",
          "name": "tokenId",
          "type": "uint256"
        }
      ],
      "name": "getMonkeyDetails",
      "outputs": [
        {
          "internalType": "uint256",
          "name": "genes",
          "type": "uint256"
        },
        {
          "internalType": "uint256",
          "name": "birthtime",
          "type": "uint256"
        },
        {
          "internalType": "uint256",
          "name": "parent1Id",
          "type": "uint256"
        },
        {
          "internalType": "uint256",
          "name": "parent2Id",
          "type": "uint256"
        },
        {
          "internalType": "uint256",
          "name": "generation",
          "type": "uint256"
        },
        {
          "internalType": "address",
          "name": "owner",
          "type": "address"
        },
        {
          "internalType": "address",
          "name": "approvedAddress",
          "type": "address"
        }
      ],
      "stateMutability": "view",
      "type": "function"
    },
    {
      "inputs": [
        {
          "internalType": "address",
          "name": "owner",
          "type": "address"
        },
        {
          "internalType": "address",
          "name": "operator",
          "type": "address"
        }
      ],
      "name": "isApprovedForAll",
      "outputs": [
        {
          "internalType": "bool",
          "name": "",
          "type": "bool"
        }
      ],
      "stateMutability": "view",
      "type": "function"
    },
    {
      "inputs": [],
      "name": "name",
      "outputs": [
        {
          "internalType": "string",
          "name": "",
          "type": "string"
        }
      ],
      "stateMutability": "view",
      "type": "function"
    },
    {
      "inputs": [],
      "name": "owner",
      "outputs": [
        {
          "internalType": "address",
          "name": "",
          "type": "address"
        }
      ],
      "stateMutability": "view",
      "type": "function"
    },
    {
      "inputs": [
        {
          "internalType": "uint256",
          "name": "tokenId",
          "type": "uint256"
        }
      ],
      "name": "ownerOf",
      "outputs": [
        {
          "internalType": "address",
          "name": "",
          "type": "address"
        }
      ],
      "stateMutability": "view",
      "type": "function"
    },
    {
      "inputs": [],
      "name": "pause",
      "outputs": [],
      "stateMutability": "nonpayable",
      "type": "function"
    },
    {
      "inputs": [],
      "name": "paused",
      "outputs": [
        {
          "internalType": "bool",
          "name": "",
          "type": "bool"
        }
      ],
      "stateMutability": "view",
      "type": "function"
    },
    {
      "inputs": [],
      "name": "renounceOwnership",
      "outputs": [],
      "stateMutability": "nonpayable",
      "type": "function"
    },
    {
      "inputs": [
        {
          "internalType": "address",
          "name": "from",
          "type": "address"
        },
        {
          "internalType": "address",
          "name": "to",
          "type": "address"
        },
        {
          "internalType": "uint256",
          "name": "tokenId",
          "type": "uint256"
        }
      ],
      "name": "safeTransferFrom",
      "outputs": [],
      "stateMutability": "nonpayable",
      "type": "function"
    },
    {
      "inputs": [
        {
          "internalType": "address",
          "name": "from",
          "type": "address"
        },
        {
          "internalType": "address",
          "name": "to",
          "type": "address"
        },
        {
          "internalType": "uint256",
          "name": "tokenId",
          "type": "uint256"
        },
        {
          "internalType": "bytes",
          "name": "_data",
          "type": "bytes"
        }
      ],
      "name": "safeTransferFrom",
      "outputs": [],
      "stateMutability": "nonpayable",
      "type": "function"
    },
    {
      "inputs": [
        {
          "internalType": "address",
          "name": "operator",
          "type": "address"
        },
        {
          "internalType": "bool",
          "name": "approved",
          "type": "bool"
        }
      ],
      "name": "setApprovalForAll",
      "outputs": [],
      "stateMutability": "nonpayable",
      "type": "function"
    },
    {
      "inputs": [
        {
          "internalType": "address",
          "name": "addressToLookup",
          "type": "address"
        }
      ],
      "name": "showAccountForAddress",
      "outputs": [],
      "stateMutability": "view",
      "type": "function"
    },
    {
      "inputs": [
        {
          "internalType": "bytes4",
          "name": "interfaceId",
          "type": "bytes4"
        }
      ],
      "name": "supportsInterface",
      "outputs": [
        {
          "internalType": "bool",
          "name": "",
          "type": "bool"
        }
      ],
      "stateMutability": "view",
      "type": "function"
    },
    {
      "inputs": [],
      "name": "symbol",
      "outputs": [
        {
          "internalType": "string",
          "name": "",
          "type": "string"
        }
      ],
      "stateMutability": "view",
      "type": "function"
    },
    {
      "inputs": [
        {
          "internalType": "uint256",
          "name": "index",
          "type": "uint256"
        }
      ],
      "name": "tokenByIndex",
      "outputs": [
        {
          "internalType": "uint256",
          "name": "",
          "type": "uint256"
        }
      ],
      "stateMutability": "view",
      "type": "function"
    },
    {
      "inputs": [
        {
          "internalType": "address",
          "name": "owner",
          "type": "address"
        },
        {
          "internalType": "uint256",
          "name": "index",
          "type": "uint256"
        }
      ],
      "name": "tokenOfOwnerByIndex",
      "outputs": [
        {
          "internalType": "uint256",
          "name": "",
          "type": "uint256"
        }
      ],
      "stateMutability": "view",
      "type": "function"
    },
    {
      "inputs": [
        {
          "internalType": "uint256",
          "name": "tokenId",
          "type": "uint256"
        }
      ],
      "name": "tokenURI",
      "outputs": [
        {
          "internalType": "string",
          "name": "",
          "type": "string"
        }
      ],
      "stateMutability": "view",
      "type": "function"
    },
    {
      "inputs": [],
      "name": "totalSupply",
      "outputs": [
        {
          "internalType": "uint256",
          "name": "",
          "type": "uint256"
        }
      ],
      "stateMutability": "view",
      "type": "function"
    },
    {
      "inputs": [
        {
          "internalType": "address",
          "name": "from",
          "type": "address"
        },
        {
          "internalType": "address",
          "name": "to",
          "type": "address"
        },
        {
          "internalType": "uint256",
          "name": "tokenId",
          "type": "uint256"
        }
      ],
      "name": "transferFrom",
      "outputs": [],
      "stateMutability": "nonpayable",
      "type": "function"
    },
    {
      "inputs": [
        {
          "internalType": "address",
          "name": "_from",
          "type": "address"
        },
        {
          "internalType": "address",
          "name": "_to",
          "type": "address"
        },
        {
          "internalType": "uint256",
          "name": "_tokenId",
          "type": "uint256"
        }
      ],
      "name": "transferNFT",
      "outputs": [],
      "stateMutability": "nonpayable",
      "type": "function"
    },
    {
      "inputs": [
        {
          "internalType": "address",
          "name": "newOwner",
          "type": "address"
        }
      ],
      "name": "transferOwnership",
      "outputs": [],
      "stateMutability": "nonpayable",
      "type": "function"
    },
    {
      "inputs": [],
      "name": "unpause",
      "outputs": [],
      "stateMutability": "nonpayable",
      "type": "function"
    }
  ],
  "bytecode": "0x6080604052600c600f556000601160146101000a81548160ff0219169083151502179055503480156200003157600080fd5b50604051620076883803806200768883398181016040528101906200005791906200166c565b6040518060400160405280600e81526020017f43727970746f204d6f6e6b6579730000000000000000000000000000000000008152506040518060400160405280600681526020017f4d4f4e4b455900000000000000000000000000000000000000000000000000008152508160009080519060200190620000db9291906200145d565b508060019080519060200190620000f49291906200145d565b5050506000620001096200026c60201b60201c565b905080600a60006101000a81548173ffffffffffffffffffffffffffffffffffffffff021916908373ffffffffffffffffffffffffffffffffffffffff1602179055508073ffffffffffffffffffffffffffffffffffffffff16600073ffffffffffffffffffffffffffffffffffffffff167f8be0079c531659141344cd1fd0a4f28419497f9722a3daafe3b4186f6b6457e060405160405180910390a3506001600b819055506000600c60006101000a81548160ff02191690831515021790555080600d9080519060200190620001e3929190620014ee565b5030600e60006101000a81548173ffffffffffffffffffffffffffffffffffffffff021916908373ffffffffffffffffffffffffffffffffffffffff1602179055506200025260008060006604503ef1932497620002466200026c60201b60201c565b6200027460201b60201c565b50620002656000620003d960201b60201c565b5062001fb3565b600033905090565b6000620002866200050360201b60201c565b15620002c9576040517f08c379a0000000000000000000000000000000000000000000000000000000008152600401620002c09062001c17565b60405180910390fd5b60006040518060a0016040528088815260200187815260200186815260200185815260200142815250905060128190806001815401808255809150506001900390600052602060002090600502016000909190919091506000820151816000015560208201518160010155604082015181600201556060820151816003015560808201518160040155505060006200037660016012805490506200051a60201b620022cc1790919060201c565b90506200038a84826200053260201b60201c565b7f0b1e9a74eeaae184646d7a35062426460c8c9364005c6d441cce036dd9c655d584828a8a89604051620003c395949392919062001b32565b60405180910390a1809250505095945050505050565b6002600b54141562000422576040517f08c379a0000000000000000000000000000000000000000000000000000000008152600401620004199062001cc1565b60405180910390fd5b6002600b819055506200043a6200050360201b60201c565b156200047d576040517f08c379a0000000000000000000000000000000000000000000000000000000008152600401620004749062001c17565b60405180910390fd5b60011515620004a2620004956200026c60201b60201c565b836200055860201b60201c565b151514620004e7576040517f08c379a0000000000000000000000000000000000000000000000000000000008152600401620004de9062001b8f565b60405180910390fd5b620004f8816200066060201b60201c565b6001600b8190555050565b6000600c60009054906101000a900460ff16905090565b600081836200052a919062001dd0565b905092915050565b620005548282604051806020016040528060008152506200079060201b60201c565b5050565b60006200056b82620007fe60201b60201c565b620005ad576040517f08c379a0000000000000000000000000000000000000000000000000000000008152600401620005a49062001bf5565b60405180910390fd5b6000620005c5836200086a60201b6200102c1760201c565b90508073ffffffffffffffffffffffffffffffffffffffff168473ffffffffffffffffffffffffffffffffffffffff1614806200063d57508373ffffffffffffffffffffffffffffffffffffffff1662000625846200091f60201b60201c565b73ffffffffffffffffffffffffffffffffffffffff16145b80620006575750620006568185620009af60201b60201c565b5b91505092915050565b600062000678826200086a60201b6200102c1760201c565b90506200068e8160008462000a4360201b60201c565b620006a160008362000b8a60201b60201c565b6001600360008373ffffffffffffffffffffffffffffffffffffffff1673ffffffffffffffffffffffffffffffffffffffff1681526020019081526020016000206000828254620006f3919062001dd0565b925050819055506002600083815260200190815260200160002060006101000a81549073ffffffffffffffffffffffffffffffffffffffff021916905581600073ffffffffffffffffffffffffffffffffffffffff168273ffffffffffffffffffffffffffffffffffffffff167fddf252ad1be2c89b69c2b068fc378daa952ba7f163c4a11628f55a4df523b3ef60405160405180910390a45050565b620007a2838362000c5060201b60201c565b620007b7600084848462000e3660201b60201c565b620007f9576040517f08c379a0000000000000000000000000000000000000000000000000000000008152600401620007f09062001bb1565b60405180910390fd5b505050565b60008073ffffffffffffffffffffffffffffffffffffffff166002600084815260200190815260200160002060009054906101000a900473ffffffffffffffffffffffffffffffffffffffff1673ffffffffffffffffffffffffffffffffffffffff1614159050919050565b6000806002600084815260200190815260200160002060009054906101000a900473ffffffffffffffffffffffffffffffffffffffff169050600073ffffffffffffffffffffffffffffffffffffffff168173ffffffffffffffffffffffffffffffffffffffff16141562000916576040517f08c379a00000000000000000000000000000000000000000000000000000000081526004016200090d9062001c5b565b60405180910390fd5b80915050919050565b60006200093282620007fe60201b60201c565b62000974576040517f08c379a00000000000000000000000000000000000000000000000000000000081526004016200096b9062001c9f565b60405180910390fd5b6004600083815260200190815260200160002060009054906101000a900473ffffffffffffffffffffffffffffffffffffffff169050919050565b6000600560008473ffffffffffffffffffffffffffffffffffffffff1673ffffffffffffffffffffffffffffffffffffffff16815260200190815260200160002060008373ffffffffffffffffffffffffffffffffffffffff1673ffffffffffffffffffffffffffffffffffffffff16815260200190815260200160002060009054906101000a900460ff16905092915050565b62000a5b83838362000ff060201b620022e21760201c565b600073ffffffffffffffffffffffffffffffffffffffff168373ffffffffffffffffffffffffffffffffffffffff16141562000aa85762000aa28162000ff560201b60201c565b62000af0565b8173ffffffffffffffffffffffffffffffffffffffff168373ffffffffffffffffffffffffffffffffffffffff161462000aef5762000aee83826200103e60201b60201c565b5b5b600073ffffffffffffffffffffffffffffffffffffffff168273ffffffffffffffffffffffffffffffffffffffff16141562000b3d5762000b3781620011bb60201b60201c565b62000b85565b8273ffffffffffffffffffffffffffffffffffffffff168273ffffffffffffffffffffffffffffffffffffffff161462000b845762000b8382826200130360201b60201c565b5b5b505050565b816004600083815260200190815260200160002060006101000a81548173ffffffffffffffffffffffffffffffffffffffff021916908373ffffffffffffffffffffffffffffffffffffffff160217905550808273ffffffffffffffffffffffffffffffffffffffff1662000c0a836200086a60201b6200102c1760201c565b73ffffffffffffffffffffffffffffffffffffffff167f8c5be1e5ebec7d5bd14f71427d1e84f3dd0314c0f7b2291e5b200ac8c7c3b92560405160405180910390a45050565b600073ffffffffffffffffffffffffffffffffffffffff168273ffffffffffffffffffffffffffffffffffffffff16141562000cc3576040517f08c379a000000000000000000000000000000000000000000000000000000000815260040162000cba9062001c7d565b60405180910390fd5b62000cd481620007fe60201b60201c565b1562000d17576040517f08c379a000000000000000000000000000000000000000000000000000000000815260040162000d0e9062001bd3565b60405180910390fd5b62000d2b6000838362000a4360201b60201c565b6001600360008473ffffffffffffffffffffffffffffffffffffffff1673ffffffffffffffffffffffffffffffffffffffff168152602001908152602001600020600082825462000d7d919062001d73565b92505081905550816002600083815260200190815260200160002060006101000a81548173ffffffffffffffffffffffffffffffffffffffff021916908373ffffffffffffffffffffffffffffffffffffffff160217905550808273ffffffffffffffffffffffffffffffffffffffff16600073ffffffffffffffffffffffffffffffffffffffff167fddf252ad1be2c89b69c2b068fc378daa952ba7f163c4a11628f55a4df523b3ef60405160405180910390a45050565b600062000e648473ffffffffffffffffffffffffffffffffffffffff166200138f60201b620022e71760201c565b1562000fe3578373ffffffffffffffffffffffffffffffffffffffff1663150b7a0262000e966200026c60201b60201c565b8786866040518563ffffffff1660e01b815260040162000eba949392919062001ade565b602060405180830381600087803b15801562000ed557600080fd5b505af192505050801562000f0957506040513d601f19601f8201168201806040525081019062000f069190620016b1565b60015b62000f92573d806000811462000f3c576040519150601f19603f3d011682016040523d82523d6000602084013e62000f41565b606091505b5060008151141562000f8a576040517f08c379a000000000000000000000000000000000000000000000000000000000815260040162000f819062001bb1565b60405180910390fd5b805181602001fd5b63150b7a0260e01b7bffffffffffffffffffffffffffffffffffffffffffffffffffffffff1916817bffffffffffffffffffffffffffffffffffffffffffffffffffffffff19161491505062000fe8565b600190505b949350505050565b505050565b6008805490506009600083815260200190815260200160002081905550600881908060018154018082558091505060019003906000526020600020016000909190919091505550565b600060016200105884620013a260201b620013d71760201c565b62001064919062001dd0565b90506000600760008481526020019081526020016000205490508181146200114a576000600660008673ffffffffffffffffffffffffffffffffffffffff1673ffffffffffffffffffffffffffffffffffffffff168152602001908152602001600020600084815260200190815260200160002054905080600660008773ffffffffffffffffffffffffffffffffffffffff1673ffffffffffffffffffffffffffffffffffffffff168152602001908152602001600020600084815260200190815260200160002081905550816007600083815260200190815260200160002081905550505b6007600084815260200190815260200160002060009055600660008573ffffffffffffffffffffffffffffffffffffffff1673ffffffffffffffffffffffffffffffffffffffff16815260200190815260200160002060008381526020019081526020016000206000905550505050565b60006001600880549050620011d1919062001dd0565b905060006009600084815260200190815260200160002054905060006008838154811062001228577f4e487b7100000000000000000000000000000000000000000000000000000000600052603260045260246000fd5b90600052602060002001549050806008838154811062001271577f4e487b7100000000000000000000000000000000000000000000000000000000600052603260045260246000fd5b906000526020600020018190555081600960008381526020019081526020016000208190555060096000858152602001908152602001600020600090556008805480620012e7577f4e487b7100000000000000000000000000000000000000000000000000000000600052603160045260246000fd5b6001900381819060005260206000200160009055905550505050565b60006200131b83620013a260201b620013d71760201c565b905081600660008573ffffffffffffffffffffffffffffffffffffffff1673ffffffffffffffffffffffffffffffffffffffff168152602001908152602001600020600083815260200190815260200160002081905550806007600084815260200190815260200160002081905550505050565b600080823b905060008111915050919050565b60008073ffffffffffffffffffffffffffffffffffffffff168273ffffffffffffffffffffffffffffffffffffffff16141562001416576040517f08c379a00000000000000000000000000000000000000000000000000000000081526004016200140d9062001c39565b60405180910390fd5b600360008373ffffffffffffffffffffffffffffffffffffffff1673ffffffffffffffffffffffffffffffffffffffff168152602001908152602001600020549050919050565b8280546200146b9062001eab565b90600052602060002090601f0160209004810192826200148f5760008555620014db565b82601f10620014aa57805160ff1916838001178555620014db565b82800160010185558215620014db579182015b82811115620014da578251825591602001919060010190620014bd565b5b509050620014ea91906200157d565b5090565b8280548282559060005260206000209081019282156200156a579160200282015b82811115620015695782518260006101000a81548173ffffffffffffffffffffffffffffffffffffffff021916908373ffffffffffffffffffffffffffffffffffffffff160217905550916020019190600101906200150f565b5b5090506200157991906200157d565b5090565b5b80821115620015985760008160009055506001016200157e565b5090565b6000620015b3620015ad8462001d17565b62001ce3565b90508083825260208201905082856020860282011115620015d357600080fd5b60005b85811015620016075781620015ec888262001611565b845260208401935060208301925050600181019050620015d6565b5050509392505050565b600081519050620016228162001f7f565b92915050565b600082601f8301126200163a57600080fd5b81516200164c8482602086016200159c565b91505092915050565b600081519050620016668162001f99565b92915050565b6000602082840312156200167f57600080fd5b600082015167ffffffffffffffff8111156200169a57600080fd5b620016a88482850162001628565b91505092915050565b600060208284031215620016c457600080fd5b6000620016d48482850162001655565b91505092915050565b620016e88162001e0b565b82525050565b6000620016fb8262001d46565b62001707818562001d51565b93506200171981856020860162001e75565b620017248162001f6e565b840191505092915050565b60006200173e604d8362001d62565b91507f4d6f6e6b6579436f6e74726163743a2043616e2774206275726e20746869732060008301527f4e465420776974686f7574206265696e67206f776e65722c20617070726f766560208301527f64206f72206f70657261746f72000000000000000000000000000000000000006040830152606082019050919050565b6000620017cc60328362001d62565b91507f4552433732313a207472616e7366657220746f206e6f6e20455243373231526560008301527f63656976657220696d706c656d656e74657200000000000000000000000000006020830152604082019050919050565b600062001834601c8362001d62565b91507f4552433732313a20746f6b656e20616c7265616479206d696e746564000000006000830152602082019050919050565b600062001876602c8362001d62565b91507f4552433732313a206f70657261746f7220717565727920666f72206e6f6e657860008301527f697374656e7420746f6b656e00000000000000000000000000000000000000006020830152604082019050919050565b6000620018de60108362001d62565b91507f5061757361626c653a20706175736564000000000000000000000000000000006000830152602082019050919050565b600062001920602a8362001d62565b91507f4552433732313a2062616c616e636520717565727920666f7220746865207a6560008301527f726f2061646472657373000000000000000000000000000000000000000000006020830152604082019050919050565b60006200198860298362001d62565b91507f4552433732313a206f776e657220717565727920666f72206e6f6e657869737460008301527f656e7420746f6b656e00000000000000000000000000000000000000000000006020830152604082019050919050565b6000620019f060208362001d62565b91507f4552433732313a206d696e7420746f20746865207a65726f20616464726573736000830152602082019050919050565b600062001a32602c8362001d62565b91507f4552433732313a20617070726f76656420717565727920666f72206e6f6e657860008301527f697374656e7420746f6b656e00000000000000000000000000000000000000006020830152604082019050919050565b600062001a9a601f8362001d62565b91507f5265656e7472616e637947756172643a207265656e7472616e742063616c6c006000830152602082019050919050565b62001ad88162001e6b565b82525050565b600060808201905062001af56000830187620016dd565b62001b046020830186620016dd565b62001b13604083018562001acd565b818103606083015262001b278184620016ee565b905095945050505050565b600060a08201905062001b496000830188620016dd565b62001b58602083018762001acd565b62001b67604083018662001acd565b62001b76606083018562001acd565b62001b85608083018462001acd565b9695505050505050565b6000602082019050818103600083015262001baa816200172f565b9050919050565b6000602082019050818103600083015262001bcc81620017bd565b9050919050565b6000602082019050818103600083015262001bee8162001825565b9050919050565b6000602082019050818103600083015262001c108162001867565b9050919050565b6000602082019050818103600083015262001c3281620018cf565b9050919050565b6000602082019050818103600083015262001c548162001911565b9050919050565b6000602082019050818103600083015262001c768162001979565b9050919050565b6000602082019050818103600083015262001c9881620019e1565b9050919050565b6000602082019050818103600083015262001cba8162001a23565b9050919050565b6000602082019050818103600083015262001cdc8162001a8b565b9050919050565b6000604051905081810181811067ffffffffffffffff8211171562001d0d5762001d0c62001f3f565b5b8060405250919050565b600067ffffffffffffffff82111562001d355762001d3462001f3f565b5b602082029050602081019050919050565b600081519050919050565b600082825260208201905092915050565b600082825260208201905092915050565b600062001d808262001e6b565b915062001d8d8362001e6b565b9250827fffffffffffffffffffffffffffffffffffffffffffffffffffffffffffffffff0382111562001dc55762001dc462001ee1565b5b828201905092915050565b600062001ddd8262001e6b565b915062001dea8362001e6b565b92508282101562001e005762001dff62001ee1565b5b828203905092915050565b600062001e188262001e4b565b9050919050565b60007fffffffff0000000000000000000000000000000000000000000000000000000082169050919050565b600073ffffffffffffffffffffffffffffffffffffffff82169050919050565b6000819050919050565b60005b8381101562001e9557808201518184015260208101905062001e78565b8381111562001ea5576000848401525b50505050565b6000600282049050600182168062001ec457607f821691505b6020821081141562001edb5762001eda62001f10565b5b50919050565b7f4e487b7100000000000000000000000000000000000000000000000000000000600052601160045260246000fd5b7f4e487b7100000000000000000000000000000000000000000000000000000000600052602260045260246000fd5b7f4e487b7100000000000000000000000000000000000000000000000000000000600052604160045260246000fd5b6000601f19601f8301169050919050565b62001f8a8162001e0b565b811462001f9657600080fd5b50565b62001fa48162001e1f565b811462001fb057600080fd5b50565b6156c58062001fc36000396000f3fe608060405234801561001057600080fd5b50600436106102115760003560e01c806369e9cae111610125578063c87b56dd116100ad578063db0027941161007c578063db0027941461061f578063e985e9c51461064f578063ef742fc11461067f578063f2fde38b1461069b578063f91ba674146106b757610211565b8063c87b56dd14610585578063cc5739e0146105b5578063d9ecad7b146105d1578063daa97fae1461060157610211565b80638aac2f33116100f45780638aac2f33146104f55780638da5cb5b1461051157806395d89b411461052f578063a22cb4651461054d578063b88d4fde1461056957610211565b806369e9cae11461049557806370a08231146104b1578063715018a6146104e15780638456cb59146104eb57610211565b806323b872dd116101a857806342842e0e1161017757806342842e0e146103dc5780634f6ccce7146103f857806355231655146104285780635c975abb146104475780636352211e1461046557610211565b806323b872dd146103505780632558e25f1461036c5780632f745c59146103a25780633f4ba83a146103d257610211565b8063095ea7b3116101e4578063095ea7b3146102b257806318160ddd146102ce5780631b0a1aed146102ec5780631b4172781461031c57610211565b806301ffc9a71461021657806306fdde0314610246578063081812fc146102645780630917cffe14610294575b600080fd5b610230600480360381019061022b9190613e53565b6106d5565b60405161023d9190614c82565b60405180910390f35b61024e61074f565b60405161025b9190614c9d565b60405180910390f35b61027e60048036038101906102799190613ea5565b6107e1565b60405161028b9190614b7d565b60405180910390f35b61029c610866565b6040516102a9919061506f565b60405180910390f35b6102cc60048036038101906102c79190613dee565b61086c565b005b6102d6610984565b6040516102e3919061506f565b60405180910390f35b61030660048036038101906103019190613c83565b610991565b6040516103139190614c60565b60405180910390f35b61033660048036038101906103319190613ea5565b610a91565b60405161034795949392919061508a565b60405180910390f35b61036a60048036038101906103659190613ce8565b610ad7565b005b61038660048036038101906103819190613ea5565b610b7f565b60405161039997969594939291906150dd565b60405180910390f35b6103bc60048036038101906103b79190613dee565b610d31565b6040516103c9919061506f565b60405180910390f35b6103da610dd6565b005b6103f660048036038101906103f19190613ce8565b610e5c565b005b610412600480360381019061040d9190613ea5565b610ec4565b60405161041f919061506f565b60405180910390f35b610430610f5b565b60405161043e929190614be4565b60405180910390f35b61044f611015565b60405161045c9190614c82565b60405180910390f35b61047f600480360381019061047a9190613ea5565b61102c565b60405161048c9190614b7d565b60405180910390f35b6104af60048036038101906104aa9190613ce8565b6110de565b005b6104cb60048036038101906104c69190613c83565b6113d7565b6040516104d8919061506f565b60405180910390f35b6104e961148f565b005b6104f36115cc565b005b61050f600480360381019061050a9190613db2565b611652565b005b6105196116b1565b6040516105269190614b7d565b60405180910390f35b6105376116db565b6040516105449190614c9d565b60405180910390f35b61056760048036038101906105629190613db2565b61176d565b005b610583600480360381019061057e9190613d37565b6118ee565b005b61059f600480360381019061059a9190613ea5565b611998565b6040516105ac9190614c9d565b60405180910390f35b6105cf60048036038101906105ca9190613c83565b611a3f565b005b6105eb60048036038101906105e69190613f0a565b611b9a565b6040516105f8919061506f565b60405180910390f35b610609611f4a565b6040516106169190614b7d565b60405180910390f35b61063960048036038101906106349190613ece565b611f74565b604051610646919061506f565b60405180910390f35b61066960048036038101906106649190613cac565b611f92565b6040516106769190614c82565b60405180910390f35b61069960048036038101906106949190613ea5565b612026565b005b6106b560048036038101906106b09190613c83565b61211a565b005b6106bf6122c6565b6040516106cc919061506f565b60405180910390f35b60007f780e9d63000000000000000000000000000000000000000000000000000000007bffffffffffffffffffffffffffffffffffffffffffffffffffffffff1916827bffffffffffffffffffffffffffffffffffffffffffffffffffffffff191614806107485750610747826122fa565b5b9050919050565b60606000805461075e90615463565b80601f016020809104026020016040519081016040528092919081815260200182805461078a90615463565b80156107d75780601f106107ac576101008083540402835291602001916107d7565b820191906000526020600020905b8154815290600101906020018083116107ba57829003601f168201915b5050505050905090565b60006107ec826123dc565b61082b576040517f08c379a000000000000000000000000000000000000000000000000000000000815260040161082290614f0f565b60405180910390fd5b6004600083815260200190815260200160002060009054906101000a900473ffffffffffffffffffffffffffffffffffffffff169050919050565b60105481565b60006108778261102c565b90508073ffffffffffffffffffffffffffffffffffffffff168373ffffffffffffffffffffffffffffffffffffffff1614156108e8576040517f08c379a00000000000000000000000000000000000000000000000000000000081526004016108df90614f8f565b60405180910390fd5b8073ffffffffffffffffffffffffffffffffffffffff16610907612448565b73ffffffffffffffffffffffffffffffffffffffff161480610936575061093581610930612448565b611f92565b5b610975576040517f08c379a000000000000000000000000000000000000000000000000000000000815260040161096c90614e4f565b60405180910390fd5b61097f8383612450565b505050565b6000600880549050905090565b6060600061099e836113d7565b905060008167ffffffffffffffff8111156109e2577f4e487b7100000000000000000000000000000000000000000000000000000000600052604160045260246000fd5b604051908082528060200260200182016040528015610a105781602001602082028036833780820191505090505b50905060005b82811015610a86576000610a2a8683610d31565b905080838381518110610a66577f4e487b7100000000000000000000000000000000000000000000000000000000600052603260045260246000fd5b602002602001018181525050508080610a7e90615495565b915050610a16565b508092505050919050565b60128181548110610aa157600080fd5b90600052602060002090600502016000915090508060000154908060010154908060020154908060030154908060040154905085565b610adf611015565b15610b1f576040517f08c379a0000000000000000000000000000000000000000000000000000000008152600401610b1690614e2f565b60405180910390fd5b610b30610b2a612448565b82612509565b610b6f576040517f08c379a0000000000000000000000000000000000000000000000000000000008152600401610b6690614fcf565b60405180910390fd5b610b7a8383836125e7565b505050565b600080600080600080600060128881548110610bc4577f4e487b7100000000000000000000000000000000000000000000000000000000600052603260045260246000fd5b90600052602060002090600502016003015460128981548110610c10577f4e487b7100000000000000000000000000000000000000000000000000000000600052603260045260246000fd5b90600052602060002090600502016004015460128a81548110610c5c577f4e487b7100000000000000000000000000000000000000000000000000000000600052603260045260246000fd5b90600052602060002090600502016000015460128b81548110610ca8577f4e487b7100000000000000000000000000000000000000000000000000000000600052603260045260246000fd5b90600052602060002090600502016001015460128c81548110610cf4577f4e487b7100000000000000000000000000000000000000000000000000000000600052603260045260246000fd5b906000526020600020906005020160020154610d0f8d61102c565b610d188e6107e1565b9650965096509650965096509650919395979092949650565b6000610d3c836113d7565b8210610d7d576040517f08c379a0000000000000000000000000000000000000000000000000000000008152600401610d7490614d2f565b60405180910390fd5b600660008473ffffffffffffffffffffffffffffffffffffffff1673ffffffffffffffffffffffffffffffffffffffff168152602001908152602001600020600083815260200190815260200160002054905092915050565b610dde612448565b73ffffffffffffffffffffffffffffffffffffffff16610dfc6116b1565b73ffffffffffffffffffffffffffffffffffffffff1614610e52576040517f08c379a0000000000000000000000000000000000000000000000000000000008152600401610e4990614f2f565b60405180910390fd5b610e5a612843565b565b610e64611015565b15610ea4576040517f08c379a0000000000000000000000000000000000000000000000000000000008152600401610e9b90614e2f565b60405180910390fd5b610ebf838383604051806020016040528060008152506118ee565b505050565b6000610ece610984565b8210610f0f576040517f08c379a0000000000000000000000000000000000000000000000000000000008152600401610f0690614fef565b60405180910390fd5b60088281548110610f49577f4e487b7100000000000000000000000000000000000000000000000000000000600052603260045260246000fd5b90600052602060002001549050919050565b600080610f66612448565b73ffffffffffffffffffffffffffffffffffffffff16610f846116b1565b73ffffffffffffffffffffffffffffffffffffffff1614610fda576040517f08c379a0000000000000000000000000000000000000000000000000000000008152600401610fd190614f2f565b60405180910390fd5b601160009054906101000a900473ffffffffffffffffffffffffffffffffffffffff16601160149054906101000a900460ff16915091509091565b6000600c60009054906101000a900460ff16905090565b6000806002600084815260200190815260200160002060009054906101000a900473ffffffffffffffffffffffffffffffffffffffff169050600073ffffffffffffffffffffffffffffffffffffffff168173ffffffffffffffffffffffffffffffffffffffff1614156110d5576040517f08c379a00000000000000000000000000000000000000000000000000000000081526004016110cc90614eaf565b60405180910390fd5b80915050919050565b6002600b541415611124576040517f08c379a000000000000000000000000000000000000000000000000000000000815260040161111b9061502f565b60405180910390fd5b6002600b81905550611134611015565b15611174576040517f08c379a000000000000000000000000000000000000000000000000000000000815260040161116b90614e2f565b60405180910390fd5b6000601160009054906101000a900473ffffffffffffffffffffffffffffffffffffffff1673ffffffffffffffffffffffffffffffffffffffff1663951fbdf0836040518263ffffffff1660e01b81526004016111d1919061506f565b60206040518083038186803b1580156111e957600080fd5b505afa1580156111fd573d6000803e3d6000fd5b505050506040513d601f19601f820116820180604052508101906112219190613e2a565b905060011515601160149054906101000a900460ff161515141561128857600115158115151415611287576040517f08c379a000000000000000000000000000000000000000000000000000000000815260040161127e90614daf565b60405180910390fd5b5b600073ffffffffffffffffffffffffffffffffffffffff168373ffffffffffffffffffffffffffffffffffffffff1614156112f8576040517f08c379a00000000000000000000000000000000000000000000000000000000081526004016112ef90614d0f565b60405180910390fd5b3073ffffffffffffffffffffffffffffffffffffffff168373ffffffffffffffffffffffffffffffffffffffff161415611367576040517f08c379a000000000000000000000000000000000000000000000000000000000815260040161135e90614faf565b60405180910390fd5b6001151561137c611376612448565b84612509565b1515146113be576040517f08c379a00000000000000000000000000000000000000000000000000000000081526004016113b59061500f565b60405180910390fd5b6113c9848484610e5c565b506001600b81905550505050565b60008073ffffffffffffffffffffffffffffffffffffffff168273ffffffffffffffffffffffffffffffffffffffff161415611448576040517f08c379a000000000000000000000000000000000000000000000000000000000815260040161143f90614e8f565b60405180910390fd5b600360008373ffffffffffffffffffffffffffffffffffffffff1673ffffffffffffffffffffffffffffffffffffffff168152602001908152602001600020549050919050565b611497612448565b73ffffffffffffffffffffffffffffffffffffffff166114b56116b1565b73ffffffffffffffffffffffffffffffffffffffff161461150b576040517f08c379a000000000000000000000000000000000000000000000000000000000815260040161150290614f2f565b60405180910390fd5b600073ffffffffffffffffffffffffffffffffffffffff16600a60009054906101000a900473ffffffffffffffffffffffffffffffffffffffff1673ffffffffffffffffffffffffffffffffffffffff167f8be0079c531659141344cd1fd0a4f28419497f9722a3daafe3b4186f6b6457e060405160405180910390a36000600a60006101000a81548173ffffffffffffffffffffffffffffffffffffffff021916908373ffffffffffffffffffffffffffffffffffffffff160217905550565b6115d4612448565b73ffffffffffffffffffffffffffffffffffffffff166115f26116b1565b73ffffffffffffffffffffffffffffffffffffffff1614611648576040517f08c379a000000000000000000000000000000000000000000000000000000000815260040161163f90614f2f565b60405180910390fd5b6116506128e5565b565b81601160006101000a81548173ffffffffffffffffffffffffffffffffffffffff021916908373ffffffffffffffffffffffffffffffffffffffff16021790555080601160146101000a81548160ff0219169083151502179055505050565b6000600a60009054906101000a900473ffffffffffffffffffffffffffffffffffffffff16905090565b6060600180546116ea90615463565b80601f016020809104026020016040519081016040528092919081815260200182805461171690615463565b80156117635780601f1061173857610100808354040283529160200191611763565b820191906000526020600020905b81548152906001019060200180831161174657829003601f168201915b5050505050905090565b611775612448565b73ffffffffffffffffffffffffffffffffffffffff168273ffffffffffffffffffffffffffffffffffffffff1614156117e3576040517f08c379a00000000000000000000000000000000000000000000000000000000081526004016117da90614def565b60405180910390fd5b80600560006117f0612448565b73ffffffffffffffffffffffffffffffffffffffff1673ffffffffffffffffffffffffffffffffffffffff16815260200190815260200160002060008473ffffffffffffffffffffffffffffffffffffffff1673ffffffffffffffffffffffffffffffffffffffff16815260200190815260200160002060006101000a81548160ff0219169083151502179055508173ffffffffffffffffffffffffffffffffffffffff1661189d612448565b73ffffffffffffffffffffffffffffffffffffffff167f17307eab39ab6107e8899845ad3d59bd9653f200f220920489ca2b5937696c31836040516118e29190614c82565b60405180910390a35050565b6118f6611015565b15611936576040517f08c379a000000000000000000000000000000000000000000000000000000000815260040161192d90614e2f565b60405180910390fd5b611947611941612448565b83612509565b611986576040517f08c379a000000000000000000000000000000000000000000000000000000000815260040161197d90614fcf565b60405180910390fd5b61199284848484612988565b50505050565b60606119a3826123dc565b6119e2576040517f08c379a00000000000000000000000000000000000000000000000000000000081526004016119d990614f6f565b60405180910390fd5b60006119ec6129e4565b90506000815111611a0c5760405180602001604052806000815250611a37565b80611a16846129fb565b604051602001611a27929190614b1c565b6040516020818303038152906040525b915050919050565b60005b600d80549050811015611b96578173ffffffffffffffffffffffffffffffffffffffff16600d8281548110611aa0577f4e487b7100000000000000000000000000000000000000000000000000000000600052603260045260246000fd5b9060005260206000200160009054906101000a900473ffffffffffffffffffffffffffffffffffffffff1673ffffffffffffffffffffffffffffffffffffffff161415611b2b57611b266040518060400160405280600c81526020017f6163636f756e74735b25735d000000000000000000000000000000000000000081525082612ba8565b611b83565b600073ffffffffffffffffffffffffffffffffffffffff168273ffffffffffffffffffffffffffffffffffffffff161415611b8257611b816040518060800160405280604d8152602001615643604d9139612c44565b5b5b8080611b8e90615495565b915050611a42565b5050565b6000611ba4611015565b15611be4576040517f08c379a0000000000000000000000000000000000000000000000000000000008152600401611bdb90614e2f565b60405180910390fd5b611bec612448565b73ffffffffffffffffffffffffffffffffffffffff16611c0b8461102c565b73ffffffffffffffffffffffffffffffffffffffff16148015611c685750611c31612448565b73ffffffffffffffffffffffffffffffffffffffff16611c508361102c565b73ffffffffffffffffffffffffffffffffffffffff16145b611ca7576040517f08c379a0000000000000000000000000000000000000000000000000000000008152600401611c9e90614eef565b60405180910390fd5b600060128481548110611ce3577f4e487b7100000000000000000000000000000000000000000000000000000000600052603260045260246000fd5b9060005260206000209060050201600301549050600060128481548110611d33577f4e487b7100000000000000000000000000000000000000000000000000000000600052603260045260246000fd5b90600052602060002090600502016003015490506000611d538383612cdd565b90506000611d618787612f85565b90506000611d7988888486611d74612448565b613120565b90507f8e3541d6cb6a06d3a1785ca3c18fa6ca7b39a6278433734c442e2ebfe623e2ea8160128381548110611dd7577f4e487b7100000000000000000000000000000000000000000000000000000000600052603260045260246000fd5b90600052602060002090600502016003015460128481548110611e23577f4e487b7100000000000000000000000000000000000000000000000000000000600052603260045260246000fd5b90600052602060002090600502016004015460128581548110611e6f577f4e487b7100000000000000000000000000000000000000000000000000000000600052603260045260246000fd5b90600052602060002090600502016000015460128681548110611ebb577f4e487b7100000000000000000000000000000000000000000000000000000000600052603260045260246000fd5b90600052602060002090600502016001015460128781548110611f07577f4e487b7100000000000000000000000000000000000000000000000000000000600052603260045260246000fd5b906000526020600020906005020160020154611f21612448565b604051611f34979695949392919061514c565b60405180910390a1809550505050505092915050565b6000600e60009054906101000a900473ffffffffffffffffffffffffffffffffffffffff16905090565b600080611f8660638060638787613120565b90508091505092915050565b6000600560008473ffffffffffffffffffffffffffffffffffffffff1673ffffffffffffffffffffffffffffffffffffffff16815260200190815260200160002060008373ffffffffffffffffffffffffffffffffffffffff1673ffffffffffffffffffffffffffffffffffffffff16815260200190815260200160002060009054906101000a900460ff16905092915050565b61202e612448565b73ffffffffffffffffffffffffffffffffffffffff1661204c6116b1565b73ffffffffffffffffffffffffffffffffffffffff16146120a2576040517f08c379a000000000000000000000000000000000000000000000000000000000815260040161209990614f2f565b60405180910390fd5b600f54601054106120e8576040517f08c379a00000000000000000000000000000000000000000000000000000000081526004016120df9061504f565b60405180910390fd5b601060008154809291906120fb90615495565b9190505550612116600080600084612111612448565b613120565b5050565b612122612448565b73ffffffffffffffffffffffffffffffffffffffff166121406116b1565b73ffffffffffffffffffffffffffffffffffffffff1614612196576040517f08c379a000000000000000000000000000000000000000000000000000000000815260040161218d90614f2f565b60405180910390fd5b600073ffffffffffffffffffffffffffffffffffffffff168173ffffffffffffffffffffffffffffffffffffffff161415612206576040517f08c379a00000000000000000000000000000000000000000000000000000000081526004016121fd90614d6f565b60405180910390fd5b8073ffffffffffffffffffffffffffffffffffffffff16600a60009054906101000a900473ffffffffffffffffffffffffffffffffffffffff1673ffffffffffffffffffffffffffffffffffffffff167f8be0079c531659141344cd1fd0a4f28419497f9722a3daafe3b4186f6b6457e060405160405180910390a380600a60006101000a81548173ffffffffffffffffffffffffffffffffffffffff021916908373ffffffffffffffffffffffffffffffffffffffff16021790555050565b600f5481565b600081836122da9190615379565b905092915050565b505050565b600080823b905060008111915050919050565b60007f80ac58cd000000000000000000000000000000000000000000000000000000007bffffffffffffffffffffffffffffffffffffffffffffffffffffffff1916827bffffffffffffffffffffffffffffffffffffffffffffffffffffffff191614806123c557507f5b5e139f000000000000000000000000000000000000000000000000000000007bffffffffffffffffffffffffffffffffffffffffffffffffffffffff1916827bffffffffffffffffffffffffffffffffffffffffffffffffffffffff1916145b806123d557506123d482613269565b5b9050919050565b60008073ffffffffffffffffffffffffffffffffffffffff166002600084815260200190815260200160002060009054906101000a900473ffffffffffffffffffffffffffffffffffffffff1673ffffffffffffffffffffffffffffffffffffffff1614159050919050565b600033905090565b816004600083815260200190815260200160002060006101000a81548173ffffffffffffffffffffffffffffffffffffffff021916908373ffffffffffffffffffffffffffffffffffffffff160217905550808273ffffffffffffffffffffffffffffffffffffffff166124c38361102c565b73ffffffffffffffffffffffffffffffffffffffff167f8c5be1e5ebec7d5bd14f71427d1e84f3dd0314c0f7b2291e5b200ac8c7c3b92560405160405180910390a45050565b6000612514826123dc565b612553576040517f08c379a000000000000000000000000000000000000000000000000000000000815260040161254a90614e0f565b60405180910390fd5b600061255e8361102c565b90508073ffffffffffffffffffffffffffffffffffffffff168473ffffffffffffffffffffffffffffffffffffffff1614806125cd57508373ffffffffffffffffffffffffffffffffffffffff166125b5846107e1565b73ffffffffffffffffffffffffffffffffffffffff16145b806125de57506125dd8185611f92565b5b91505092915050565b8273ffffffffffffffffffffffffffffffffffffffff166126078261102c565b73ffffffffffffffffffffffffffffffffffffffff161461265d576040517f08c379a000000000000000000000000000000000000000000000000000000000815260040161265490614f4f565b60405180910390fd5b600073ffffffffffffffffffffffffffffffffffffffff168273ffffffffffffffffffffffffffffffffffffffff1614156126cd576040517f08c379a00000000000000000000000000000000000000000000000000000000081526004016126c490614dcf565b60405180910390fd5b6126d88383836132d3565b6126e3600082612450565b6001600360008573ffffffffffffffffffffffffffffffffffffffff1673ffffffffffffffffffffffffffffffffffffffff16815260200190815260200160002060008282546127339190615379565b925050819055506001600360008473ffffffffffffffffffffffffffffffffffffffff1673ffffffffffffffffffffffffffffffffffffffff168152602001908152602001600020600082825461278a9190615298565b92505081905550816002600083815260200190815260200160002060006101000a81548173ffffffffffffffffffffffffffffffffffffffff021916908373ffffffffffffffffffffffffffffffffffffffff160217905550808273ffffffffffffffffffffffffffffffffffffffff168473ffffffffffffffffffffffffffffffffffffffff167fddf252ad1be2c89b69c2b068fc378daa952ba7f163c4a11628f55a4df523b3ef60405160405180910390a4505050565b61284b611015565b61288a576040517f08c379a000000000000000000000000000000000000000000000000000000000815260040161288190614cef565b60405180910390fd5b6000600c60006101000a81548160ff0219169083151502179055507f5db9ee0a495bf2e6ff9c91a7834c1ba4fdd244a5e8aa4e537bd38aeae4b073aa6128ce612448565b6040516128db9190614b7d565b60405180910390a1565b6128ed611015565b1561292d576040517f08c379a000000000000000000000000000000000000000000000000000000000815260040161292490614e2f565b60405180910390fd5b6001600c60006101000a81548160ff0219169083151502179055507f62e78cea01bee320cd4e420270b5ea74000d11b0c9f74754ebdbfc544b05a258612971612448565b60405161297e9190614b7d565b60405180910390a1565b6129938484846125e7565b61299f848484846133e7565b6129de576040517f08c379a00000000000000000000000000000000000000000000000000000000081526004016129d590614d4f565b60405180910390fd5b50505050565b606060405180602001604052806000815250905090565b60606000821415612a43576040518060400160405280600181526020017f30000000000000000000000000000000000000000000000000000000000000008152509050612ba3565b600082905060005b60008214612a75578080612a5e90615495565b915050600a82612a6e91906152ee565b9150612a4b565b60008167ffffffffffffffff811115612ab7577f4e487b7100000000000000000000000000000000000000000000000000000000600052604160045260246000fd5b6040519080825280601f01601f191660200182016040528015612ae95781602001600182028036833780820191505090505b5090505b60008514612b9c57600182612b029190615379565b9150600a85612b1191906154e8565b6030612b1d9190615298565b60f81b818381518110612b59577f4e487b7100000000000000000000000000000000000000000000000000000000600052603260045260246000fd5b60200101907effffffffffffffffffffffffffffffffffffffffffffffffffffffffffffff1916908160001a905350600a85612b9591906152ee565b9450612aed565b8093505050505b919050565b612c408282604051602401612bbe929190614cbf565b6040516020818303038152906040527f9710a9d0000000000000000000000000000000000000000000000000000000007bffffffffffffffffffffffffffffffffffffffffffffffffffffffff19166020820180517bffffffffffffffffffffffffffffffffffffffffffffffffffffffff838183161783525050505061357e565b5050565b612cda81604051602401612c589190614c9d565b6040516020818303038152906040527f41304fac000000000000000000000000000000000000000000000000000000007bffffffffffffffffffffffffffffffffffffffffffffffffffffffff19166020820180517bffffffffffffffffffffffffffffffffffffffffffffffffffffffff838183161783525050505061357e565b50565b6000612ce7613b7a565b6000612cf16135a7565b90506000600790506000600190505b60408111612e07576000818460ff161614612d6c57606487612d2291906154e8565b60ff16848360088110612d5e577f4e487b7100000000000000000000000000000000000000000000000000000000600052603260045260246000fd5b602002018181525050612dbf565b606486612d7991906154e8565b60ff16848360088110612db5577f4e487b7100000000000000000000000000000000000000000000000000000000600052603260045260246000fd5b6020020181815250505b606487612dcc91906152ee565b9650606486612ddb91906152ee565b9550612df16001836122cc90919063ffffffff16565b9150600281612e00919061531f565b9050612d00565b5060008260ff16612e16610984565b6012600081548110612e51577f4e487b7100000000000000000000000000000000000000000000000000000000600052603260045260246000fd5b906000526020600020906005020160030154604051602001612e7593929190614b40565b6040516020818303038152906040528051906020012060001c9050600a605982612e9f91906154e8565b612ea99190615298565b90508084600060088110612ee6577f4e487b7100000000000000000000000000000000000000000000000000000000600052603260045260246000fd5b602002018181525050600080600090505b6008811015612f7657858160088110612f39577f4e487b7100000000000000000000000000000000000000000000000000000000600052603260045260246000fd5b602002015182612f499190615298565b915060078114612f6357606482612f60919061531f565b91505b8080612f6e90615495565b915050612ef7565b50809550505050505092915050565b60008060128481548110612fc2577f4e487b7100000000000000000000000000000000000000000000000000000000600052603260045260246000fd5b9060005260206000209060050201600201549050600060128481548110613012577f4e487b7100000000000000000000000000000000000000000000000000000000600052603260045260246000fd5b90600052602060002090600502016002015490506103e88210801561303857506103e881105b613077576040517f08c379a000000000000000000000000000000000000000000000000000000000815260040161306e90614e6f565b60405180910390fd5b60008183146130ed5760006002600a84866130929190615298565b61309c919061531f565b6130a691906152ee565b90506000600a826130b791906154e8565b11156130cc576005816130ca9190615379565b505b6002600a826130db91906152ee565b6130e59190615298565b915050613114565b6001600283856130fd9190615298565b61310791906152ee565b6131119190615298565b90505b80935050505092915050565b600061312a611015565b1561316a576040517f08c379a000000000000000000000000000000000000000000000000000000000815260040161316190614e2f565b60405180910390fd5b60006040518060a00160405280888152602001878152602001868152602001858152602001428152509050601281908060018154018082558091505060019003906000526020600020906005020160009091909190915060008201518160000155602082015181600101556040820151816002015560608201518160030155608082015181600401555050600061321060016012805490506122cc90919063ffffffff16565b905061321c84826135bb565b7f0b1e9a74eeaae184646d7a35062426460c8c9364005c6d441cce036dd9c655d584828a8a89604051613253959493929190614c0d565b60405180910390a1809250505095945050505050565b60007f01ffc9a7000000000000000000000000000000000000000000000000000000007bffffffffffffffffffffffffffffffffffffffffffffffffffffffff1916827bffffffffffffffffffffffffffffffffffffffffffffffffffffffff1916149050919050565b6132de8383836122e2565b600073ffffffffffffffffffffffffffffffffffffffff168373ffffffffffffffffffffffffffffffffffffffff1614156133215761331c816135d9565b613360565b8173ffffffffffffffffffffffffffffffffffffffff168373ffffffffffffffffffffffffffffffffffffffff161461335f5761335e8382613622565b5b5b600073ffffffffffffffffffffffffffffffffffffffff168273ffffffffffffffffffffffffffffffffffffffff1614156133a35761339e8161378f565b6133e2565b8273ffffffffffffffffffffffffffffffffffffffff168273ffffffffffffffffffffffffffffffffffffffff16146133e1576133e082826138d2565b5b5b505050565b60006134088473ffffffffffffffffffffffffffffffffffffffff166122e7565b15613571578373ffffffffffffffffffffffffffffffffffffffff1663150b7a02613431612448565b8786866040518563ffffffff1660e01b81526004016134539493929190614b98565b602060405180830381600087803b15801561346d57600080fd5b505af192505050801561349e57506040513d601f19601f8201168201806040525081019061349b9190613e7c565b60015b613521573d80600081146134ce576040519150601f19603f3d011682016040523d82523d6000602084013e6134d3565b606091505b50600081511415613519576040517f08c379a000000000000000000000000000000000000000000000000000000000815260040161351090614d4f565b60405180910390fd5b805181602001fd5b63150b7a0260e01b7bffffffffffffffffffffffffffffffffffffffffffffffffffffffff1916817bffffffffffffffffffffffffffffffffffffffffffffffffffffffff191614915050613576565b600190505b949350505050565b60008151905060006a636f6e736f6c652e6c6f679050602083016000808483855afa5050505050565b600060ff426135b691906154e8565b905090565b6135d5828260405180602001604052806000815250613951565b5050565b6008805490506009600083815260200190815260200160002081905550600881908060018154018082558091505060019003906000526020600020016000909190919091505550565b6000600161362f846113d7565b6136399190615379565b905060006007600084815260200190815260200160002054905081811461371e576000600660008673ffffffffffffffffffffffffffffffffffffffff1673ffffffffffffffffffffffffffffffffffffffff168152602001908152602001600020600084815260200190815260200160002054905080600660008773ffffffffffffffffffffffffffffffffffffffff1673ffffffffffffffffffffffffffffffffffffffff168152602001908152602001600020600084815260200190815260200160002081905550816007600083815260200190815260200160002081905550505b6007600084815260200190815260200160002060009055600660008573ffffffffffffffffffffffffffffffffffffffff1673ffffffffffffffffffffffffffffffffffffffff16815260200190815260200160002060008381526020019081526020016000206000905550505050565b600060016008805490506137a39190615379565b90506000600960008481526020019081526020016000205490506000600883815481106137f9577f4e487b7100000000000000000000000000000000000000000000000000000000600052603260045260246000fd5b906000526020600020015490508060088381548110613841577f4e487b7100000000000000000000000000000000000000000000000000000000600052603260045260246000fd5b9060005260206000200181905550816009600083815260200190815260200160002081905550600960008581526020019081526020016000206000905560088054806138b6577f4e487b7100000000000000000000000000000000000000000000000000000000600052603160045260246000fd5b6001900381819060005260206000200160009055905550505050565b60006138dd836113d7565b905081600660008573ffffffffffffffffffffffffffffffffffffffff1673ffffffffffffffffffffffffffffffffffffffff168152602001908152602001600020600083815260200190815260200160002081905550806007600084815260200190815260200160002081905550505050565b61395b83836139ac565b61396860008484846133e7565b6139a7576040517f08c379a000000000000000000000000000000000000000000000000000000000815260040161399e90614d4f565b60405180910390fd5b505050565b600073ffffffffffffffffffffffffffffffffffffffff168273ffffffffffffffffffffffffffffffffffffffff161415613a1c576040517f08c379a0000000000000000000000000000000000000000000000000000000008152600401613a1390614ecf565b60405180910390fd5b613a25816123dc565b15613a65576040517f08c379a0000000000000000000000000000000000000000000000000000000008152600401613a5c90614d8f565b60405180910390fd5b613a71600083836132d3565b6001600360008473ffffffffffffffffffffffffffffffffffffffff1673ffffffffffffffffffffffffffffffffffffffff1681526020019081526020016000206000828254613ac19190615298565b92505081905550816002600083815260200190815260200160002060006101000a81548173ffffffffffffffffffffffffffffffffffffffff021916908373ffffffffffffffffffffffffffffffffffffffff160217905550808273ffffffffffffffffffffffffffffffffffffffff16600073ffffffffffffffffffffffffffffffffffffffff167fddf252ad1be2c89b69c2b068fc378daa952ba7f163c4a11628f55a4df523b3ef60405160405180910390a45050565b604051806101000160405280600890602082028036833780820191505090505090565b6000613bb0613bab846151ec565b6151bb565b905082815260208101848484011115613bc857600080fd5b613bd3848285615421565b509392505050565b600081359050613bea816155e6565b92915050565b600081359050613bff816155fd565b92915050565b600081519050613c14816155fd565b92915050565b600081359050613c2981615614565b92915050565b600081519050613c3e81615614565b92915050565b600082601f830112613c5557600080fd5b8135613c65848260208601613b9d565b91505092915050565b600081359050613c7d8161562b565b92915050565b600060208284031215613c9557600080fd5b6000613ca384828501613bdb565b91505092915050565b60008060408385031215613cbf57600080fd5b6000613ccd85828601613bdb565b9250506020613cde85828601613bdb565b9150509250929050565b600080600060608486031215613cfd57600080fd5b6000613d0b86828701613bdb565b9350506020613d1c86828701613bdb565b9250506040613d2d86828701613c6e565b9150509250925092565b60008060008060808587031215613d4d57600080fd5b6000613d5b87828801613bdb565b9450506020613d6c87828801613bdb565b9350506040613d7d87828801613c6e565b925050606085013567ffffffffffffffff811115613d9a57600080fd5b613da687828801613c44565b91505092959194509250565b60008060408385031215613dc557600080fd5b6000613dd385828601613bdb565b9250506020613de485828601613bf0565b9150509250929050565b60008060408385031215613e0157600080fd5b6000613e0f85828601613bdb565b9250506020613e2085828601613c6e565b9150509250929050565b600060208284031215613e3c57600080fd5b6000613e4a84828501613c05565b91505092915050565b600060208284031215613e6557600080fd5b6000613e7384828501613c1a565b91505092915050565b600060208284031215613e8e57600080fd5b6000613e9c84828501613c2f565b91505092915050565b600060208284031215613eb757600080fd5b6000613ec584828501613c6e565b91505092915050565b60008060408385031215613ee157600080fd5b6000613eef85828601613c6e565b9250506020613f0085828601613bdb565b9150509250929050565b60008060408385031215613f1d57600080fd5b6000613f2b85828601613c6e565b9250506020613f3c85828601613c6e565b9150509250929050565b6000613f528383614ae7565b60208301905092915050565b613f67816153ad565b82525050565b6000613f788261522c565b613f82818561525a565b9350613f8d8361521c565b8060005b83811015613fbe578151613fa58882613f46565b9750613fb08361524d565b925050600181019050613f91565b5085935050505092915050565b613fd4816153bf565b82525050565b6000613fe582615237565b613fef818561526b565b9350613fff818560208601615430565b614008816155d5565b840191505092915050565b600061401e82615242565b614028818561527c565b9350614038818560208601615430565b614041816155d5565b840191505092915050565b600061405782615242565b614061818561528d565b9350614071818560208601615430565b80840191505092915050565b600061408a60148361527c565b91507f5061757361626c653a206e6f74207061757365640000000000000000000000006000830152602082019050919050565b60006140ca604a8361527c565b91507f4d6f6e6b6579436f6e74726163743a205472616e7366657220746f207468652060008301527f7a65726f2061646472657373206e6f7420616c6c6f7765642c206275726e204e60208301527f465420696e7374656164000000000000000000000000000000000000000000006040830152606082019050919050565b6000614156602b8361527c565b91507f455243373231456e756d657261626c653a206f776e657220696e646578206f7560008301527f74206f6620626f756e64730000000000000000000000000000000000000000006020830152604082019050919050565b60006141bc60328361527c565b91507f4552433732313a207472616e7366657220746f206e6f6e20455243373231526560008301527f63656976657220696d706c656d656e74657200000000000000000000000000006020830152604082019050919050565b600061422260268361527c565b91507f4f776e61626c653a206e6577206f776e657220697320746865207a65726f206160008301527f64647265737300000000000000000000000000000000000000000000000000006020830152604082019050919050565b6000614288601c8361527c565b91507f4552433732313a20746f6b656e20616c7265616479206d696e746564000000006000830152602082019050919050565b60006142c860398361527c565b91507f4d6f6e6b6579436f6e74726163743a204e4654206973207374696c6c206f6e2060008301527f73616c652e2052656d6f7665206f666665722066697273742e000000000000006020830152604082019050919050565b600061432e60248361527c565b91507f4552433732313a207472616e7366657220746f20746865207a65726f2061646460008301527f72657373000000000000000000000000000000000000000000000000000000006020830152604082019050919050565b600061439460198361527c565b91507f4552433732313a20617070726f766520746f2063616c6c6572000000000000006000830152602082019050919050565b60006143d4602c8361527c565b91507f4552433732313a206f70657261746f7220717565727920666f72206e6f6e657860008301527f697374656e7420746f6b656e00000000000000000000000000000000000000006020830152604082019050919050565b600061443a60108361527c565b91507f5061757361626c653a20706175736564000000000000000000000000000000006000830152602082019050919050565b600061447a60388361527c565b91507f4552433732313a20617070726f76652063616c6c6572206973206e6f74206f7760008301527f6e6572206e6f7220617070726f76656420666f7220616c6c00000000000000006020830152604082019050919050565b60006144e060218361527c565b91507f506172656e74732063616e6e6f742062726565642061626f76652067656e393960008301527f39000000000000000000000000000000000000000000000000000000000000006020830152604082019050919050565b6000614546602a8361527c565b91507f4552433732313a2062616c616e636520717565727920666f7220746865207a6560008301527f726f2061646472657373000000000000000000000000000000000000000000006020830152604082019050919050565b60006145ac60298361527c565b91507f4552433732313a206f776e657220717565727920666f72206e6f6e657869737460008301527f656e7420746f6b656e00000000000000000000000000000000000000000000006020830152604082019050919050565b600061461260208361527c565b91507f4552433732313a206d696e7420746f20746865207a65726f20616464726573736000830152602082019050919050565b600061465260338361527c565b91507f4d6f6e6b6579436f6e74726163743a204d757374206265206f776e6572206f6660008301527f20626f746820706172656e7420746f6b656e73000000000000000000000000006020830152604082019050919050565b60006146b8602c8361527c565b91507f4552433732313a20617070726f76656420717565727920666f72206e6f6e657860008301527f697374656e7420746f6b656e00000000000000000000000000000000000000006020830152604082019050919050565b600061471e60208361527c565b91507f4f776e61626c653a2063616c6c6572206973206e6f7420746865206f776e65726000830152602082019050919050565b600061475e60298361527c565b91507f4552433732313a207472616e73666572206f6620746f6b656e2074686174206960008301527f73206e6f74206f776e00000000000000000000000000000000000000000000006020830152604082019050919050565b60006147c4602f8361527c565b91507f4552433732314d657461646174613a2055524920717565727920666f72206e6f60008301527f6e6578697374656e7420746f6b656e00000000000000000000000000000000006020830152604082019050919050565b600061482a60218361527c565b91507f4552433732313a20617070726f76616c20746f2063757272656e74206f776e6560008301527f72000000000000000000000000000000000000000000000000000000000000006020830152604082019050919050565b600061489060348361527c565b91507f4d6f6e6b6579436f6e74726163743a2043616e2774207472616e73666572204e60008301527f46547320746f207468697320636f6e74726163740000000000000000000000006020830152604082019050919050565b60006148f660318361527c565b91507f4552433732313a207472616e736665722063616c6c6572206973206e6f74206f60008301527f776e6572206e6f7220617070726f7665640000000000000000000000000000006020830152604082019050919050565b600061495c602c8361527c565b91507f455243373231456e756d657261626c653a20676c6f62616c20696e646578206f60008301527f7574206f6620626f756e647300000000000000000000000000000000000000006020830152604082019050919050565b60006149c260518361527c565b91507f4d6f6e6b6579436f6e74726163743a2043616e2774207472616e73666572207460008301527f686973204e465420776974686f7574206265696e67206f776e65722c2061707060208301527f726f766564206f72206f70657261746f720000000000000000000000000000006040830152606082019050919050565b6000614a4e601f8361527c565b91507f5265656e7472616e637947756172643a207265656e7472616e742063616c6c006000830152602082019050919050565b6000614a8e60278361527c565b91507f4d6178696d756d20616d6f756e74206f662067656e2030206d6f6e6b6579732060008301527f72656163686564000000000000000000000000000000000000000000000000006020830152604082019050919050565b614af081615417565b82525050565b614aff81615417565b82525050565b614b16614b1182615417565b6154de565b82525050565b6000614b28828561404c565b9150614b34828461404c565b91508190509392505050565b6000614b4c8286614b05565b602082019150614b5c8285614b05565b602082019150614b6c8284614b05565b602082019150819050949350505050565b6000602082019050614b926000830184613f5e565b92915050565b6000608082019050614bad6000830187613f5e565b614bba6020830186613f5e565b614bc76040830185614af6565b8181036060830152614bd98184613fda565b905095945050505050565b6000604082019050614bf96000830185613f5e565b614c066020830184613fcb565b9392505050565b600060a082019050614c226000830188613f5e565b614c2f6020830187614af6565b614c3c6040830186614af6565b614c496060830185614af6565b614c566080830184614af6565b9695505050505050565b60006020820190508181036000830152614c7a8184613f6d565b905092915050565b6000602082019050614c976000830184613fcb565b92915050565b60006020820190508181036000830152614cb78184614013565b905092915050565b60006040820190508181036000830152614cd98185614013565b9050614ce86020830184614af6565b9392505050565b60006020820190508181036000830152614d088161407d565b9050919050565b60006020820190508181036000830152614d28816140bd565b9050919050565b60006020820190508181036000830152614d4881614149565b9050919050565b60006020820190508181036000830152614d68816141af565b9050919050565b60006020820190508181036000830152614d8881614215565b9050919050565b60006020820190508181036000830152614da88161427b565b9050919050565b60006020820190508181036000830152614dc8816142bb565b9050919050565b60006020820190508181036000830152614de881614321565b9050919050565b60006020820190508181036000830152614e0881614387565b9050919050565b60006020820190508181036000830152614e28816143c7565b9050919050565b60006020820190508181036000830152614e488161442d565b9050919050565b60006020820190508181036000830152614e688161446d565b9050919050565b60006020820190508181036000830152614e88816144d3565b9050919050565b60006020820190508181036000830152614ea881614539565b9050919050565b60006020820190508181036000830152614ec88161459f565b9050919050565b60006020820190508181036000830152614ee881614605565b9050919050565b60006020820190508181036000830152614f0881614645565b9050919050565b60006020820190508181036000830152614f28816146ab565b9050919050565b60006020820190508181036000830152614f4881614711565b9050919050565b60006020820190508181036000830152614f6881614751565b9050919050565b60006020820190508181036000830152614f88816147b7565b9050919050565b60006020820190508181036000830152614fa88161481d565b9050919050565b60006020820190508181036000830152614fc881614883565b9050919050565b60006020820190508181036000830152614fe8816148e9565b9050919050565b600060208201905081810360008301526150088161494f565b9050919050565b60006020820190508181036000830152615028816149b5565b9050919050565b6000602082019050818103600083015261504881614a41565b9050919050565b6000602082019050818103600083015261506881614a81565b9050919050565b60006020820190506150846000830184614af6565b92915050565b600060a08201905061509f6000830188614af6565b6150ac6020830187614af6565b6150b96040830186614af6565b6150c66060830185614af6565b6150d36080830184614af6565b9695505050505050565b600060e0820190506150f2600083018a614af6565b6150ff6020830189614af6565b61510c6040830188614af6565b6151196060830187614af6565b6151266080830186614af6565b61513360a0830185613f5e565b61514060c0830184613f5e565b98975050505050505050565b600060e082019050615161600083018a614af6565b61516e6020830189614af6565b61517b6040830188614af6565b6151886060830187614af6565b6151956080830186614af6565b6151a260a0830185614af6565b6151af60c0830184613f5e565b98975050505050505050565b6000604051905081810181811067ffffffffffffffff821117156151e2576151e16155a6565b5b8060405250919050565b600067ffffffffffffffff821115615207576152066155a6565b5b601f19601f8301169050602081019050919050565b6000819050602082019050919050565b600081519050919050565b600081519050919050565b600081519050919050565b6000602082019050919050565b600082825260208201905092915050565b600082825260208201905092915050565b600082825260208201905092915050565b600081905092915050565b60006152a382615417565b91506152ae83615417565b9250827fffffffffffffffffffffffffffffffffffffffffffffffffffffffffffffffff038211156152e3576152e2615519565b5b828201905092915050565b60006152f982615417565b915061530483615417565b92508261531457615313615548565b5b828204905092915050565b600061532a82615417565b915061533583615417565b9250817fffffffffffffffffffffffffffffffffffffffffffffffffffffffffffffffff048311821515161561536e5761536d615519565b5b828202905092915050565b600061538482615417565b915061538f83615417565b9250828210156153a2576153a1615519565b5b828203905092915050565b60006153b8826153f7565b9050919050565b60008115159050919050565b60007fffffffff0000000000000000000000000000000000000000000000000000000082169050919050565b600073ffffffffffffffffffffffffffffffffffffffff82169050919050565b6000819050919050565b82818337600083830152505050565b60005b8381101561544e578082015181840152602081019050615433565b8381111561545d576000848401525b50505050565b6000600282049050600182168061547b57607f821691505b6020821081141561548f5761548e615577565b5b50919050565b60006154a082615417565b91507fffffffffffffffffffffffffffffffffffffffffffffffffffffffffffffffff8214156154d3576154d2615519565b5b600182019050919050565b6000819050919050565b60006154f382615417565b91506154fe83615417565b92508261550e5761550d615548565b5b828206905092915050565b7f4e487b7100000000000000000000000000000000000000000000000000000000600052601160045260246000fd5b7f4e487b7100000000000000000000000000000000000000000000000000000000600052601260045260246000fd5b7f4e487b7100000000000000000000000000000000000000000000000000000000600052602260045260246000fd5b7f4e487b7100000000000000000000000000000000000000000000000000000000600052604160045260246000fd5b6000601f19601f8301169050919050565b6155ef816153ad565b81146155fa57600080fd5b50565b615606816153bf565b811461561157600080fd5b50565b61561d816153cb565b811461562857600080fd5b50565b61563481615417565b811461563f57600080fd5b5056fe5a65726f20616464726573733a20307830303030303030303030303030303030303030303030303030303030303030303030303030303030203d3e20692e652e20697420776173206275726e74a26469706673582212202dd91d7e7d683fe71066ca5e65bc835d71c70635be79a58aa9f4120cb6e7d61164736f6c63430008000033",
  "linkReferences": {},
  "deployedLinkReferences": {}
}