{
  "_format": "hh-sol-artifact-1",
  "contractName": "MonkeyContract",
  "sourceName": "contracts/MonkeyContract.sol",
  "abi": [
    {
      "inputs": [],
      "stateMutability": "nonpayable",
      "type": "constructor"
    },
    {
      "anonymous": false,
      "inputs": [
        {
          "indexed": true,
          "internalType": "address",
          "name": "owner",
          "type": "address"
        },
        {
          "indexed": true,
          "internalType": "address",
          "name": "approved",
          "type": "address"
        },
        {
          "indexed": true,
          "internalType": "uint256",
          "name": "tokenId",
          "type": "uint256"
        }
      ],
      "name": "Approval",
      "type": "event"
    },
    {
      "anonymous": false,
      "inputs": [
        {
          "indexed": true,
          "internalType": "address",
          "name": "owner",
          "type": "address"
        },
        {
          "indexed": true,
          "internalType": "address",
          "name": "operator",
          "type": "address"
        },
        {
          "indexed": false,
          "internalType": "bool",
          "name": "approved",
          "type": "bool"
        }
      ],
      "name": "ApprovalForAll",
      "type": "event"
    },
    {
      "anonymous": false,
      "inputs": [
        {
          "indexed": false,
          "internalType": "uint256",
          "name": "tokenId",
          "type": "uint256"
        },
        {
          "indexed": false,
          "internalType": "uint256",
          "name": "genes",
          "type": "uint256"
        },
        {
          "indexed": false,
          "internalType": "uint256",
          "name": "birthtime",
          "type": "uint256"
        },
        {
          "indexed": false,
          "internalType": "uint256",
          "name": "parent1Id",
          "type": "uint256"
        },
        {
          "indexed": false,
          "internalType": "uint256",
          "name": "parent2Id",
          "type": "uint256"
        },
        {
          "indexed": false,
          "internalType": "uint256",
          "name": "generation",
          "type": "uint256"
        },
        {
          "indexed": false,
          "internalType": "address",
          "name": "owner",
          "type": "address"
        }
      ],
      "name": "BreedingSuccessful",
      "type": "event"
    },
    {
      "anonymous": false,
      "inputs": [
        {
          "indexed": false,
          "internalType": "address",
          "name": "owner",
          "type": "address"
        },
        {
          "indexed": false,
          "internalType": "uint256",
          "name": "tokenId",
          "type": "uint256"
        },
        {
          "indexed": false,
          "internalType": "uint256",
          "name": "parent1Id",
          "type": "uint256"
        },
        {
          "indexed": false,
          "internalType": "uint256",
          "name": "parent2Id",
          "type": "uint256"
        },
        {
          "indexed": false,
          "internalType": "uint256",
          "name": "genes",
          "type": "uint256"
        }
      ],
      "name": "MonkeyCreated",
      "type": "event"
    },
    {
      "anonymous": false,
      "inputs": [
        {
          "indexed": true,
          "internalType": "address",
          "name": "previousOwner",
          "type": "address"
        },
        {
          "indexed": true,
          "internalType": "address",
          "name": "newOwner",
          "type": "address"
        }
      ],
      "name": "OwnershipTransferred",
      "type": "event"
    },
    {
      "anonymous": false,
      "inputs": [
        {
          "indexed": false,
          "internalType": "address",
          "name": "account",
          "type": "address"
        }
      ],
      "name": "Paused",
      "type": "event"
    },
    {
      "anonymous": false,
      "inputs": [
        {
          "indexed": true,
          "internalType": "address",
          "name": "from",
          "type": "address"
        },
        {
          "indexed": true,
          "internalType": "address",
          "name": "to",
          "type": "address"
        },
        {
          "indexed": true,
          "internalType": "uint256",
          "name": "tokenId",
          "type": "uint256"
        }
      ],
      "name": "Transfer",
      "type": "event"
    },
    {
      "anonymous": false,
      "inputs": [
        {
          "indexed": false,
          "internalType": "address",
          "name": "account",
          "type": "address"
        }
      ],
      "name": "Unpaused",
      "type": "event"
    },
    {
      "inputs": [],
      "name": "GEN0_Limit",
      "outputs": [
        {
          "internalType": "uint256",
          "name": "",
          "type": "uint256"
        }
      ],
      "stateMutability": "view",
      "type": "function"
    },
    {
      "inputs": [
        {
          "internalType": "uint256",
          "name": "",
          "type": "uint256"
        }
      ],
      "name": "allMonkeysArray",
      "outputs": [
        {
          "internalType": "uint256",
          "name": "parent1Id",
          "type": "uint256"
        },
        {
          "internalType": "uint256",
          "name": "parent2Id",
          "type": "uint256"
        },
        {
          "internalType": "uint256",
          "name": "generation",
          "type": "uint256"
        },
        {
          "internalType": "uint256",
          "name": "genes",
          "type": "uint256"
        },
        {
          "internalType": "uint256",
          "name": "birthtime",
          "type": "uint256"
        }
      ],
      "stateMutability": "view",
      "type": "function"
    },
    {
      "inputs": [
        {
          "internalType": "address",
          "name": "to",
          "type": "address"
        },
        {
          "internalType": "uint256",
          "name": "tokenId",
          "type": "uint256"
        }
      ],
      "name": "approve",
      "outputs": [],
      "stateMutability": "nonpayable",
      "type": "function"
    },
    {
      "inputs": [
        {
          "internalType": "address",
          "name": "owner",
          "type": "address"
        }
      ],
      "name": "balanceOf",
      "outputs": [
        {
          "internalType": "uint256",
          "name": "",
          "type": "uint256"
        }
      ],
      "stateMutability": "view",
      "type": "function"
    },
    {
      "inputs": [
        {
          "internalType": "uint256",
          "name": "_parent1Id",
          "type": "uint256"
        },
        {
          "internalType": "uint256",
          "name": "_parent2Id",
          "type": "uint256"
        }
      ],
      "name": "breed",
      "outputs": [
        {
          "internalType": "uint256",
          "name": "",
          "type": "uint256"
        }
      ],
      "stateMutability": "nonpayable",
      "type": "function"
    },
    {
      "inputs": [
        {
          "internalType": "uint256",
          "name": "_genes",
          "type": "uint256"
        }
      ],
      "name": "createGen0Monkey",
      "outputs": [],
      "stateMutability": "nonpayable",
      "type": "function"
    },
    {
      "inputs": [
        {
          "internalType": "uint256",
          "name": "_parent1Id",
          "type": "uint256"
        },
        {
          "internalType": "uint256",
          "name": "_parent2Id",
          "type": "uint256"
        },
        {
          "internalType": "uint256",
          "name": "_generation",
          "type": "uint256"
        },
        {
          "internalType": "uint256",
          "name": "_genes",
          "type": "uint256"
        },
        {
          "internalType": "address",
          "name": "_owner",
          "type": "address"
        }
      ],
      "name": "createMonkey",
      "outputs": [
        {
          "internalType": "uint256",
          "name": "",
          "type": "uint256"
        }
      ],
      "stateMutability": "nonpayable",
      "type": "function"
    },
    {
      "inputs": [
        {
          "internalType": "address",
          "name": "owner",
          "type": "address"
        }
      ],
      "name": "findMonkeyIdsOfAddress",
      "outputs": [
        {
          "internalType": "uint256[]",
          "name": "",
          "type": "uint256[]"
        }
      ],
      "stateMutability": "view",
      "type": "function"
    },
    {
      "inputs": [],
      "name": "gen0amountTotal",
      "outputs": [
        {
          "internalType": "uint256",
          "name": "",
          "type": "uint256"
        }
      ],
      "stateMutability": "view",
      "type": "function"
    },
    {
      "inputs": [
        {
          "internalType": "uint256",
          "name": "tokenId",
          "type": "uint256"
        }
      ],
      "name": "getApproved",
      "outputs": [
        {
          "internalType": "address",
          "name": "",
          "type": "address"
        }
      ],
      "stateMutability": "view",
      "type": "function"
    },
    {
      "inputs": [],
      "name": "getMonkeyContractAddress",
      "outputs": [
        {
          "internalType": "address",
          "name": "",
          "type": "address"
        }
      ],
      "stateMutability": "view",
      "type": "function"
    },
    {
      "inputs": [
        {
          "internalType": "uint256",
          "name": "tokenId",
          "type": "uint256"
        }
      ],
      "name": "getMonkeyDetails",
      "outputs": [
        {
          "internalType": "uint256",
          "name": "genes",
          "type": "uint256"
        },
        {
          "internalType": "uint256",
          "name": "birthtime",
          "type": "uint256"
        },
        {
          "internalType": "uint256",
          "name": "parent1Id",
          "type": "uint256"
        },
        {
          "internalType": "uint256",
          "name": "parent2Id",
          "type": "uint256"
        },
        {
          "internalType": "uint256",
          "name": "generation",
          "type": "uint256"
        },
        {
          "internalType": "address",
          "name": "owner",
          "type": "address"
        },
        {
          "internalType": "address",
          "name": "approvedAddress",
          "type": "address"
        }
      ],
      "stateMutability": "view",
      "type": "function"
    },
    {
      "inputs": [
        {
          "internalType": "address",
          "name": "owner",
          "type": "address"
        },
        {
          "internalType": "address",
          "name": "operator",
          "type": "address"
        }
      ],
      "name": "isApprovedForAll",
      "outputs": [
        {
          "internalType": "bool",
          "name": "",
          "type": "bool"
        }
      ],
      "stateMutability": "view",
      "type": "function"
    },
    {
      "inputs": [],
      "name": "name",
      "outputs": [
        {
          "internalType": "string",
          "name": "",
          "type": "string"
        }
      ],
      "stateMutability": "view",
      "type": "function"
    },
    {
      "inputs": [],
      "name": "owner",
      "outputs": [
        {
          "internalType": "address",
          "name": "",
          "type": "address"
        }
      ],
      "stateMutability": "view",
      "type": "function"
    },
    {
      "inputs": [
        {
          "internalType": "uint256",
          "name": "tokenId",
          "type": "uint256"
        }
      ],
      "name": "ownerOf",
      "outputs": [
        {
          "internalType": "address",
          "name": "",
          "type": "address"
        }
      ],
      "stateMutability": "view",
      "type": "function"
    },
    {
      "inputs": [],
      "name": "paused",
      "outputs": [
        {
          "internalType": "bool",
          "name": "",
          "type": "bool"
        }
      ],
      "stateMutability": "view",
      "type": "function"
    },
    {
      "inputs": [],
      "name": "renounceOwnership",
      "outputs": [],
      "stateMutability": "nonpayable",
      "type": "function"
    },
    {
      "inputs": [
        {
          "internalType": "address",
          "name": "from",
          "type": "address"
        },
        {
          "internalType": "address",
          "name": "to",
          "type": "address"
        },
        {
          "internalType": "uint256",
          "name": "tokenId",
          "type": "uint256"
        }
      ],
      "name": "safeTransferFrom",
      "outputs": [],
      "stateMutability": "nonpayable",
      "type": "function"
    },
    {
      "inputs": [
        {
          "internalType": "address",
          "name": "from",
          "type": "address"
        },
        {
          "internalType": "address",
          "name": "to",
          "type": "address"
        },
        {
          "internalType": "uint256",
          "name": "tokenId",
          "type": "uint256"
        },
        {
          "internalType": "bytes",
          "name": "_data",
          "type": "bytes"
        }
      ],
      "name": "safeTransferFrom",
      "outputs": [],
      "stateMutability": "nonpayable",
      "type": "function"
    },
    {
      "inputs": [
        {
          "internalType": "address",
          "name": "operator",
          "type": "address"
        },
        {
          "internalType": "bool",
          "name": "approved",
          "type": "bool"
        }
      ],
      "name": "setApprovalForAll",
      "outputs": [],
      "stateMutability": "nonpayable",
      "type": "function"
    },
    {
      "inputs": [
        {
          "internalType": "bytes4",
          "name": "interfaceId",
          "type": "bytes4"
        }
      ],
      "name": "supportsInterface",
      "outputs": [
        {
          "internalType": "bool",
          "name": "",
          "type": "bool"
        }
      ],
      "stateMutability": "view",
      "type": "function"
    },
    {
      "inputs": [],
      "name": "symbol",
      "outputs": [
        {
          "internalType": "string",
          "name": "",
          "type": "string"
        }
      ],
      "stateMutability": "view",
      "type": "function"
    },
    {
      "inputs": [
        {
          "internalType": "uint256",
          "name": "index",
          "type": "uint256"
        }
      ],
      "name": "tokenByIndex",
      "outputs": [
        {
          "internalType": "uint256",
          "name": "",
          "type": "uint256"
        }
      ],
      "stateMutability": "view",
      "type": "function"
    },
    {
      "inputs": [
        {
          "internalType": "address",
          "name": "owner",
          "type": "address"
        },
        {
          "internalType": "uint256",
          "name": "index",
          "type": "uint256"
        }
      ],
      "name": "tokenOfOwnerByIndex",
      "outputs": [
        {
          "internalType": "uint256",
          "name": "",
          "type": "uint256"
        }
      ],
      "stateMutability": "view",
      "type": "function"
    },
    {
      "inputs": [
        {
          "internalType": "uint256",
          "name": "tokenId",
          "type": "uint256"
        }
      ],
      "name": "tokenURI",
      "outputs": [
        {
          "internalType": "string",
          "name": "",
          "type": "string"
        }
      ],
      "stateMutability": "view",
      "type": "function"
    },
    {
      "inputs": [],
      "name": "totalSupply",
      "outputs": [
        {
          "internalType": "uint256",
          "name": "",
          "type": "uint256"
        }
      ],
      "stateMutability": "view",
      "type": "function"
    },
    {
      "inputs": [
        {
          "internalType": "address",
          "name": "_from",
          "type": "address"
        },
        {
          "internalType": "address",
          "name": "_to",
          "type": "address"
        },
        {
          "internalType": "uint256",
          "name": "_tokenId",
          "type": "uint256"
        }
      ],
      "name": "transfer",
      "outputs": [],
      "stateMutability": "nonpayable",
      "type": "function"
    },
    {
      "inputs": [
        {
          "internalType": "address",
          "name": "from",
          "type": "address"
        },
        {
          "internalType": "address",
          "name": "to",
          "type": "address"
        },
        {
          "internalType": "uint256",
          "name": "tokenId",
          "type": "uint256"
        }
      ],
      "name": "transferFrom",
      "outputs": [],
      "stateMutability": "nonpayable",
      "type": "function"
    },
    {
      "inputs": [
        {
          "internalType": "address",
          "name": "newOwner",
          "type": "address"
        }
      ],
      "name": "transferOwnership",
      "outputs": [],
      "stateMutability": "nonpayable",
      "type": "function"
    }
  ],
  "bytecode": "0x6080604052600c600d553480156200001657600080fd5b506040518060400160405280600e81526020017f43727970746f204d6f6e6b6579730000000000000000000000000000000000008152506040518060400160405280600681526020017f4d4f4e4b4559000000000000000000000000000000000000000000000000000081525081600090805190602001906200009b929190620001da565b508060019080519060200190620000b4929190620001da565b5050506000620000c9620001d260201b60201c565b905080600a60006101000a81548173ffffffffffffffffffffffffffffffffffffffff021916908373ffffffffffffffffffffffffffffffffffffffff1602179055508073ffffffffffffffffffffffffffffffffffffffff16600073ffffffffffffffffffffffffffffffffffffffff167f8be0079c531659141344cd1fd0a4f28419497f9722a3daafe3b4186f6b6457e060405160405180910390a3506001600b819055506000600c60006101000a81548160ff02191690831515021790555030600c60016101000a81548173ffffffffffffffffffffffffffffffffffffffff021916908373ffffffffffffffffffffffffffffffffffffffff160217905550620002ef565b600033905090565b828054620001e8906200028a565b90600052602060002090601f0160209004810192826200020c576000855562000258565b82601f106200022757805160ff191683800117855562000258565b8280016001018555821562000258579182015b82811115620002575782518255916020019190600101906200023a565b5b5090506200026791906200026b565b5090565b5b80821115620002865760008160009055506001016200026c565b5090565b60006002820490506001821680620002a357607f821691505b60208210811415620002ba57620002b9620002c0565b5b50919050565b7f4e487b7100000000000000000000000000000000000000000000000000000000600052602260045260246000fd5b614c9e80620002ff6000396000f3fe608060405234801561001057600080fd5b50600436106101da5760003560e01c806370a0823111610104578063beabacc8116100a2578063e985e9c511610071578063e985e9c5146105ad578063ef742fc1146105dd578063f2fde38b146105f9578063f91ba67414610615576101da565b8063beabacc814610513578063c87b56dd1461052f578063d9ecad7b1461055f578063daa97fae1461058f576101da565b806390ba3485116100de57806390ba34851461048d57806395d89b41146104bd578063a22cb465146104db578063b88d4fde146104f7576101da565b806370a0823114610435578063715018a6146104655780638da5cb5b1461046f576101da565b80631b4172781161017c57806342842e0e1161014b57806342842e0e1461039b5780634f6ccce7146103b75780635c975abb146103e75780636352211e14610405576101da565b80631b417278146102e557806323b872dd146103195780632558e25f146103355780632f745c591461036b576101da565b80630917cffe116101b85780630917cffe1461025d578063095ea7b31461027b57806318160ddd146102975780631b0a1aed146102b5576101da565b806301ffc9a7146101df57806306fdde031461020f578063081812fc1461022d575b600080fd5b6101f960048036038101906101f4919061368d565b610633565b60405161020691906142ea565b60405180910390f35b6102176106ad565b6040516102249190614305565b60405180910390f35b610247600480360381019061024291906136df565b61073f565b604051610254919061420e565b60405180910390f35b6102656107c4565b6040516102729190614695565b60405180910390f35b61029560048036038101906102909190613651565b6107ca565b005b61029f6108e2565b6040516102ac9190614695565b60405180910390f35b6102cf60048036038101906102ca91906134e6565b6108ef565b6040516102dc91906142c8565b60405180910390f35b6102ff60048036038101906102fa91906136df565b610a2e565b6040516103109594939291906146b0565b60405180910390f35b610333600480360381019061032e919061354b565b610a74565b005b61034f600480360381019061034a91906136df565b610ad4565b6040516103629796959493929190614703565b60405180910390f35b61038560048036038101906103809190613651565b610c86565b6040516103929190614695565b60405180910390f35b6103b560048036038101906103b0919061354b565b610d2b565b005b6103d160048036038101906103cc91906136df565b610d4b565b6040516103de9190614695565b60405180910390f35b6103ef610de2565b6040516103fc91906142ea565b60405180910390f35b61041f600480360381019061041a91906136df565b610df9565b60405161042c919061420e565b60405180910390f35b61044f600480360381019061044a91906134e6565b610eab565b60405161045c9190614695565b60405180910390f35b61046d610f63565b005b6104776110a0565b604051610484919061420e565b60405180910390f35b6104a760048036038101906104a29190613744565b6110ca565b6040516104b49190614695565b60405180910390f35b6104c56110e9565b6040516104d29190614305565b60405180910390f35b6104f560048036038101906104f09190613615565b61117b565b005b610511600480360381019061050c919061359a565b6112fc565b005b61052d6004803603810190610528919061354b565b61135e565b005b610549600480360381019061054491906136df565b61150c565b6040516105569190614305565b60405180910390f35b61057960048036038101906105749190613708565b6115b3565b6040516105869190614695565b60405180910390f35b610597611963565b6040516105a4919061420e565b60405180910390f35b6105c760048036038101906105c2919061350f565b61198d565b6040516105d491906142ea565b60405180910390f35b6105f760048036038101906105f291906136df565b611a21565b005b610613600480360381019061060e91906134e6565b611b15565b005b61061d611cc1565b60405161062a9190614695565b60405180910390f35b60007f780e9d63000000000000000000000000000000000000000000000000000000007bffffffffffffffffffffffffffffffffffffffffffffffffffffffff1916827bffffffffffffffffffffffffffffffffffffffffffffffffffffffff191614806106a657506106a582611cc7565b5b9050919050565b6060600080546106bc90614a89565b80601f01602080910402602001604051908101604052809291908181526020018280546106e890614a89565b80156107355780601f1061070a57610100808354040283529160200191610735565b820191906000526020600020905b81548152906001019060200180831161071857829003601f168201915b5050505050905090565b600061074a82611da9565b610789576040517f08c379a000000000000000000000000000000000000000000000000000000000815260040161078090614575565b60405180910390fd5b6004600083815260200190815260200160002060009054906101000a900473ffffffffffffffffffffffffffffffffffffffff169050919050565b600e5481565b60006107d582610df9565b90508073ffffffffffffffffffffffffffffffffffffffff168373ffffffffffffffffffffffffffffffffffffffff161415610846576040517f08c379a000000000000000000000000000000000000000000000000000000000815260040161083d906145f5565b60405180910390fd5b8073ffffffffffffffffffffffffffffffffffffffff16610865611e15565b73ffffffffffffffffffffffffffffffffffffffff16148061089457506108938161088e611e15565b61198d565b5b6108d3576040517f08c379a00000000000000000000000000000000000000000000000000000000081526004016108ca906144d5565b60405180910390fd5b6108dd8383611e1d565b505050565b6000600880549050905090565b606060006108fc83610eab565b905061093d6040518060400160405280601781526020017f6f776e6564546f6b656e4944732061727261793a20257300000000000000000081525084611ed6565b60008167ffffffffffffffff81111561097f577f4e487b7100000000000000000000000000000000000000000000000000000000600052604160045260246000fd5b6040519080825280602002602001820160405280156109ad5781602001602082028036833780820191505090505b50905060005b82811015610a235760006109c78683610c86565b905080838381518110610a03577f4e487b7100000000000000000000000000000000000000000000000000000000600052603260045260246000fd5b602002602001018181525050508080610a1b90614abb565b9150506109b3565b508092505050919050565b600f8181548110610a3e57600080fd5b90600052602060002090600502016000915090508060000154908060010154908060020154908060030154908060040154905085565b610a85610a7f611e15565b82611f72565b610ac4576040517f08c379a0000000000000000000000000000000000000000000000000000000008152600401610abb90614615565b60405180910390fd5b610acf838383612050565b505050565b6000806000806000806000600f8881548110610b19577f4e487b7100000000000000000000000000000000000000000000000000000000600052603260045260246000fd5b906000526020600020906005020160030154600f8981548110610b65577f4e487b7100000000000000000000000000000000000000000000000000000000600052603260045260246000fd5b906000526020600020906005020160040154600f8a81548110610bb1577f4e487b7100000000000000000000000000000000000000000000000000000000600052603260045260246000fd5b906000526020600020906005020160000154600f8b81548110610bfd577f4e487b7100000000000000000000000000000000000000000000000000000000600052603260045260246000fd5b906000526020600020906005020160010154600f8c81548110610c49577f4e487b7100000000000000000000000000000000000000000000000000000000600052603260045260246000fd5b906000526020600020906005020160020154610c648d610df9565b610c6d8e61073f565b9650965096509650965096509650919395979092949650565b6000610c9183610eab565b8210610cd2576040517f08c379a0000000000000000000000000000000000000000000000000000000008152600401610cc9906143b5565b60405180910390fd5b600660008473ffffffffffffffffffffffffffffffffffffffff1673ffffffffffffffffffffffffffffffffffffffff168152602001908152602001600020600083815260200190815260200160002054905092915050565b610d46838383604051806020016040528060008152506112fc565b505050565b6000610d556108e2565b8210610d96576040517f08c379a0000000000000000000000000000000000000000000000000000000008152600401610d8d90614635565b60405180910390fd5b60088281548110610dd0577f4e487b7100000000000000000000000000000000000000000000000000000000600052603260045260246000fd5b90600052602060002001549050919050565b6000600c60009054906101000a900460ff16905090565b6000806002600084815260200190815260200160002060009054906101000a900473ffffffffffffffffffffffffffffffffffffffff169050600073ffffffffffffffffffffffffffffffffffffffff168173ffffffffffffffffffffffffffffffffffffffff161415610ea2576040517f08c379a0000000000000000000000000000000000000000000000000000000008152600401610e9990614515565b60405180910390fd5b80915050919050565b60008073ffffffffffffffffffffffffffffffffffffffff168273ffffffffffffffffffffffffffffffffffffffff161415610f1c576040517f08c379a0000000000000000000000000000000000000000000000000000000008152600401610f13906144f5565b60405180910390fd5b600360008373ffffffffffffffffffffffffffffffffffffffff1673ffffffffffffffffffffffffffffffffffffffff168152602001908152602001600020549050919050565b610f6b611e15565b73ffffffffffffffffffffffffffffffffffffffff16610f896110a0565b73ffffffffffffffffffffffffffffffffffffffff1614610fdf576040517f08c379a0000000000000000000000000000000000000000000000000000000008152600401610fd690614595565b60405180910390fd5b600073ffffffffffffffffffffffffffffffffffffffff16600a60009054906101000a900473ffffffffffffffffffffffffffffffffffffffff1673ffffffffffffffffffffffffffffffffffffffff167f8be0079c531659141344cd1fd0a4f28419497f9722a3daafe3b4186f6b6457e060405160405180910390a36000600a60006101000a81548173ffffffffffffffffffffffffffffffffffffffff021916908373ffffffffffffffffffffffffffffffffffffffff160217905550565b6000600a60009054906101000a900473ffffffffffffffffffffffffffffffffffffffff16905090565b6000806110da87878787876122ac565b90508091505095945050505050565b6060600180546110f890614a89565b80601f016020809104026020016040519081016040528092919081815260200182805461112490614a89565b80156111715780601f1061114657610100808354040283529160200191611171565b820191906000526020600020905b81548152906001019060200180831161115457829003601f168201915b5050505050905090565b611183611e15565b73ffffffffffffffffffffffffffffffffffffffff168273ffffffffffffffffffffffffffffffffffffffff1614156111f1576040517f08c379a00000000000000000000000000000000000000000000000000000000081526004016111e890614475565b60405180910390fd5b80600560006111fe611e15565b73ffffffffffffffffffffffffffffffffffffffff1673ffffffffffffffffffffffffffffffffffffffff16815260200190815260200160002060008473ffffffffffffffffffffffffffffffffffffffff1673ffffffffffffffffffffffffffffffffffffffff16815260200190815260200160002060006101000a81548160ff0219169083151502179055508173ffffffffffffffffffffffffffffffffffffffff166112ab611e15565b73ffffffffffffffffffffffffffffffffffffffff167f17307eab39ab6107e8899845ad3d59bd9653f200f220920489ca2b5937696c31836040516112f091906142ea565b60405180910390a35050565b61130d611307611e15565b83611f72565b61134c576040517f08c379a000000000000000000000000000000000000000000000000000000000815260040161134390614615565b60405180910390fd5b61135884848484612435565b50505050565b6002600b5414156113a4576040517f08c379a000000000000000000000000000000000000000000000000000000000815260040161139b90614655565b60405180910390fd5b6002600b819055506113b4610de2565b156113f4576040517f08c379a00000000000000000000000000000000000000000000000000000000081526004016113eb906144b5565b60405180910390fd5b600073ffffffffffffffffffffffffffffffffffffffff168273ffffffffffffffffffffffffffffffffffffffff161415611464576040517f08c379a000000000000000000000000000000000000000000000000000000000815260040161145b90614415565b60405180910390fd5b3073ffffffffffffffffffffffffffffffffffffffff168273ffffffffffffffffffffffffffffffffffffffff1614156114d3576040517f08c379a00000000000000000000000000000000000000000000000000000000081526004016114ca90614395565b60405180910390fd5b600115156114e86114e2611e15565b83611f72565b1515146114f457600080fd5b6114ff838383610d2b565b6001600b81905550505050565b606061151782611da9565b611556576040517f08c379a000000000000000000000000000000000000000000000000000000000815260040161154d906145d5565b60405180910390fd5b6000611560612491565b9050600081511161158057604051806020016040528060008152506115ab565b8061158a846124a8565b60405160200161159b9291906141ad565b6040516020818303038152906040525b915050919050565b60006115bd610de2565b156115fd576040517f08c379a00000000000000000000000000000000000000000000000000000000081526004016115f4906144b5565b60405180910390fd5b611605611e15565b73ffffffffffffffffffffffffffffffffffffffff1661162484610df9565b73ffffffffffffffffffffffffffffffffffffffff16148015611681575061164a611e15565b73ffffffffffffffffffffffffffffffffffffffff1661166983610df9565b73ffffffffffffffffffffffffffffffffffffffff16145b6116c0576040517f08c379a00000000000000000000000000000000000000000000000000000000081526004016116b790614555565b60405180910390fd5b6000600f84815481106116fc577f4e487b7100000000000000000000000000000000000000000000000000000000600052603260045260246000fd5b90600052602060002090600502016003015490506000600f848154811061174c577f4e487b7100000000000000000000000000000000000000000000000000000000600052603260045260246000fd5b9060005260206000209060050201600301549050600061176c8383612655565b9050600061177a87876128fd565b905060006117928888848661178d611e15565b6122ac565b90507f8e3541d6cb6a06d3a1785ca3c18fa6ca7b39a6278433734c442e2ebfe623e2ea81600f83815481106117f0577f4e487b7100000000000000000000000000000000000000000000000000000000600052603260045260246000fd5b906000526020600020906005020160030154600f848154811061183c577f4e487b7100000000000000000000000000000000000000000000000000000000600052603260045260246000fd5b906000526020600020906005020160040154600f8581548110611888577f4e487b7100000000000000000000000000000000000000000000000000000000600052603260045260246000fd5b906000526020600020906005020160000154600f86815481106118d4577f4e487b7100000000000000000000000000000000000000000000000000000000600052603260045260246000fd5b906000526020600020906005020160010154600f8781548110611920577f4e487b7100000000000000000000000000000000000000000000000000000000600052603260045260246000fd5b90600052602060002090600502016002015461193a611e15565b60405161194d9796959493929190614772565b60405180910390a1809550505050505092915050565b6000600c60019054906101000a900473ffffffffffffffffffffffffffffffffffffffff16905090565b6000600560008473ffffffffffffffffffffffffffffffffffffffff1673ffffffffffffffffffffffffffffffffffffffff16815260200190815260200160002060008373ffffffffffffffffffffffffffffffffffffffff1673ffffffffffffffffffffffffffffffffffffffff16815260200190815260200160002060009054906101000a900460ff16905092915050565b611a29611e15565b73ffffffffffffffffffffffffffffffffffffffff16611a476110a0565b73ffffffffffffffffffffffffffffffffffffffff1614611a9d576040517f08c379a0000000000000000000000000000000000000000000000000000000008152600401611a9490614595565b60405180910390fd5b600d54600e5410611ae3576040517f08c379a0000000000000000000000000000000000000000000000000000000008152600401611ada90614675565b60405180910390fd5b600e6000815480929190611af690614abb565b9190505550611b11600080600084611b0c611e15565b6122ac565b5050565b611b1d611e15565b73ffffffffffffffffffffffffffffffffffffffff16611b3b6110a0565b73ffffffffffffffffffffffffffffffffffffffff1614611b91576040517f08c379a0000000000000000000000000000000000000000000000000000000008152600401611b8890614595565b60405180910390fd5b600073ffffffffffffffffffffffffffffffffffffffff168173ffffffffffffffffffffffffffffffffffffffff161415611c01576040517f08c379a0000000000000000000000000000000000000000000000000000000008152600401611bf8906143f5565b60405180910390fd5b8073ffffffffffffffffffffffffffffffffffffffff16600a60009054906101000a900473ffffffffffffffffffffffffffffffffffffffff1673ffffffffffffffffffffffffffffffffffffffff167f8be0079c531659141344cd1fd0a4f28419497f9722a3daafe3b4186f6b6457e060405160405180910390a380600a60006101000a81548173ffffffffffffffffffffffffffffffffffffffff021916908373ffffffffffffffffffffffffffffffffffffffff16021790555050565b600d5481565b60007f80ac58cd000000000000000000000000000000000000000000000000000000007bffffffffffffffffffffffffffffffffffffffffffffffffffffffff1916827bffffffffffffffffffffffffffffffffffffffffffffffffffffffff19161480611d9257507f5b5e139f000000000000000000000000000000000000000000000000000000007bffffffffffffffffffffffffffffffffffffffffffffffffffffffff1916827bffffffffffffffffffffffffffffffffffffffffffffffffffffffff1916145b80611da25750611da182612a14565b5b9050919050565b60008073ffffffffffffffffffffffffffffffffffffffff166002600084815260200190815260200160002060009054906101000a900473ffffffffffffffffffffffffffffffffffffffff1673ffffffffffffffffffffffffffffffffffffffff1614159050919050565b600033905090565b816004600083815260200190815260200160002060006101000a81548173ffffffffffffffffffffffffffffffffffffffff021916908373ffffffffffffffffffffffffffffffffffffffff160217905550808273ffffffffffffffffffffffffffffffffffffffff16611e9083610df9565b73ffffffffffffffffffffffffffffffffffffffff167f8c5be1e5ebec7d5bd14f71427d1e84f3dd0314c0f7b2291e5b200ac8c7c3b92560405160405180910390a45050565b611f6e8282604051602401611eec929190614327565b6040516020818303038152906040527f319af333000000000000000000000000000000000000000000000000000000007bffffffffffffffffffffffffffffffffffffffffffffffffffffffff19166020820180517bffffffffffffffffffffffffffffffffffffffffffffffffffffffff8381831617835250505050612a7e565b5050565b6000611f7d82611da9565b611fbc576040517f08c379a0000000000000000000000000000000000000000000000000000000008152600401611fb390614495565b60405180910390fd5b6000611fc783610df9565b90508073ffffffffffffffffffffffffffffffffffffffff168473ffffffffffffffffffffffffffffffffffffffff16148061203657508373ffffffffffffffffffffffffffffffffffffffff1661201e8461073f565b73ffffffffffffffffffffffffffffffffffffffff16145b806120475750612046818561198d565b5b91505092915050565b8273ffffffffffffffffffffffffffffffffffffffff1661207082610df9565b73ffffffffffffffffffffffffffffffffffffffff16146120c6576040517f08c379a00000000000000000000000000000000000000000000000000000000081526004016120bd906145b5565b60405180910390fd5b600073ffffffffffffffffffffffffffffffffffffffff168273ffffffffffffffffffffffffffffffffffffffff161415612136576040517f08c379a000000000000000000000000000000000000000000000000000000000815260040161212d90614455565b60405180910390fd5b612141838383612aa7565b61214c600082611e1d565b6001600360008573ffffffffffffffffffffffffffffffffffffffff1673ffffffffffffffffffffffffffffffffffffffff168152602001908152602001600020600082825461219c919061499f565b925050819055506001600360008473ffffffffffffffffffffffffffffffffffffffff1673ffffffffffffffffffffffffffffffffffffffff16815260200190815260200160002060008282546121f391906148be565b92505081905550816002600083815260200190815260200160002060006101000a81548173ffffffffffffffffffffffffffffffffffffffff021916908373ffffffffffffffffffffffffffffffffffffffff160217905550808273ffffffffffffffffffffffffffffffffffffffff168473ffffffffffffffffffffffffffffffffffffffff167fddf252ad1be2c89b69c2b068fc378daa952ba7f163c4a11628f55a4df523b3ef60405160405180910390a4505050565b60006122b6610de2565b156122f6576040517f08c379a00000000000000000000000000000000000000000000000000000000081526004016122ed906144b5565b60405180910390fd5b60006040518060a00160405280888152602001878152602001868152602001858152602001428152509050600f81908060018154018082558091505060019003906000526020600020906005020160009091909190915060008201518160000155602082015181600101556040820151816002015560608201518160030155608082015181600401555050600061239c6001600f80549050612bbb90919063ffffffff16565b90506123a88482612bd1565b7f0b1e9a74eeaae184646d7a35062426460c8c9364005c6d441cce036dd9c655d584828a8a896040516123df959493929190614275565b60405180910390a16124276040518060400160405280601981526020017f546f6b656e204944202573206861732067656e65733a202573000000000000008152508287612bef565b809250505095945050505050565b612440848484612050565b61244c84848484612c8e565b61248b576040517f08c379a0000000000000000000000000000000000000000000000000000000008152600401612482906143d5565b60405180910390fd5b50505050565b606060405180602001604052806000815250905090565b606060008214156124f0576040518060400160405280600181526020017f30000000000000000000000000000000000000000000000000000000000000008152509050612650565b600082905060005b6000821461252257808061250b90614abb565b915050600a8261251b9190614914565b91506124f8565b60008167ffffffffffffffff811115612564577f4e487b7100000000000000000000000000000000000000000000000000000000600052604160045260246000fd5b6040519080825280601f01601f1916602001820160405280156125965781602001600182028036833780820191505090505b5090505b60008514612649576001826125af919061499f565b9150600a856125be9190614b0e565b60306125ca91906148be565b60f81b818381518110612606577f4e487b7100000000000000000000000000000000000000000000000000000000600052603260045260246000fd5b60200101907effffffffffffffffffffffffffffffffffffffffffffffffffffffffffffff1916908160001a905350600a856126429190614914565b945061259a565b8093505050505b919050565b600061265f6133f2565b6000612669612e25565b90506000600790506000600190505b6040811161277f576000818460ff1616146126e45760648761269a9190614b0e565b60ff168483600881106126d6577f4e487b7100000000000000000000000000000000000000000000000000000000600052603260045260246000fd5b602002018181525050612737565b6064866126f19190614b0e565b60ff1684836008811061272d577f4e487b7100000000000000000000000000000000000000000000000000000000600052603260045260246000fd5b6020020181815250505b6064876127449190614914565b96506064866127539190614914565b9550612769600183612bbb90919063ffffffff16565b91506002816127789190614945565b9050612678565b5060008260ff1661278e6108e2565b600f6000815481106127c9577f4e487b7100000000000000000000000000000000000000000000000000000000600052603260045260246000fd5b9060005260206000209060050201600301546040516020016127ed939291906141d1565b6040516020818303038152906040528051906020012060001c9050600a6059826128179190614b0e565b61282191906148be565b9050808460006008811061285e577f4e487b7100000000000000000000000000000000000000000000000000000000600052603260045260246000fd5b602002018181525050600080600090505b60088110156128ee578581600881106128b1577f4e487b7100000000000000000000000000000000000000000000000000000000600052603260045260246000fd5b6020020151826128c191906148be565b9150600781146128db576064826128d89190614945565b91505b80806128e690614abb565b91505061286f565b50809550505050505092915050565b600080600f848154811061293a577f4e487b7100000000000000000000000000000000000000000000000000000000600052603260045260246000fd5b90600052602060002090600502016002015490506000600f848154811061298a577f4e487b7100000000000000000000000000000000000000000000000000000000600052603260045260246000fd5b906000526020600020906005020160020154905060006002600a83856129b091906148be565b6129ba9190614945565b6129c49190614914565b90506000600a826129d59190614b0e565b11156129ea576005816129e891906148be565b505b60006001600a836129fb9190614914565b612a0591906148be565b90508094505050505092915050565b60007f01ffc9a7000000000000000000000000000000000000000000000000000000007bffffffffffffffffffffffffffffffffffffffffffffffffffffffff1916827bffffffffffffffffffffffffffffffffffffffffffffffffffffffff1916149050919050565b60008151905060006a636f6e736f6c652e6c6f679050602083016000808483855afa5050505050565b612ab2838383612e39565b600073ffffffffffffffffffffffffffffffffffffffff168373ffffffffffffffffffffffffffffffffffffffff161415612af557612af081612e3e565b612b34565b8173ffffffffffffffffffffffffffffffffffffffff168373ffffffffffffffffffffffffffffffffffffffff1614612b3357612b328382612e87565b5b5b600073ffffffffffffffffffffffffffffffffffffffff168273ffffffffffffffffffffffffffffffffffffffff161415612b7757612b7281612ff4565b612bb6565b8273ffffffffffffffffffffffffffffffffffffffff168273ffffffffffffffffffffffffffffffffffffffff1614612bb557612bb48282613137565b5b5b505050565b60008183612bc9919061499f565b905092915050565b612beb8282604051806020016040528060008152506131b6565b5050565b612c89838383604051602401612c0793929190614357565b6040516020818303038152906040527f969cdd03000000000000000000000000000000000000000000000000000000007bffffffffffffffffffffffffffffffffffffffffffffffffffffffff19166020820180517bffffffffffffffffffffffffffffffffffffffffffffffffffffffff8381831617835250505050612a7e565b505050565b6000612caf8473ffffffffffffffffffffffffffffffffffffffff16613211565b15612e18578373ffffffffffffffffffffffffffffffffffffffff1663150b7a02612cd8611e15565b8786866040518563ffffffff1660e01b8152600401612cfa9493929190614229565b602060405180830381600087803b158015612d1457600080fd5b505af1925050508015612d4557506040513d601f19601f82011682018060405250810190612d4291906136b6565b60015b612dc8573d8060008114612d75576040519150601f19603f3d011682016040523d82523d6000602084013e612d7a565b606091505b50600081511415612dc0576040517f08c379a0000000000000000000000000000000000000000000000000000000008152600401612db7906143d5565b60405180910390fd5b805181602001fd5b63150b7a0260e01b7bffffffffffffffffffffffffffffffffffffffffffffffffffffffff1916817bffffffffffffffffffffffffffffffffffffffffffffffffffffffff191614915050612e1d565b600190505b949350505050565b600060ff42612e349190614b0e565b905090565b505050565b6008805490506009600083815260200190815260200160002081905550600881908060018154018082558091505060019003906000526020600020016000909190919091505550565b60006001612e9484610eab565b612e9e919061499f565b9050600060076000848152602001908152602001600020549050818114612f83576000600660008673ffffffffffffffffffffffffffffffffffffffff1673ffffffffffffffffffffffffffffffffffffffff168152602001908152602001600020600084815260200190815260200160002054905080600660008773ffffffffffffffffffffffffffffffffffffffff1673ffffffffffffffffffffffffffffffffffffffff168152602001908152602001600020600084815260200190815260200160002081905550816007600083815260200190815260200160002081905550505b6007600084815260200190815260200160002060009055600660008573ffffffffffffffffffffffffffffffffffffffff1673ffffffffffffffffffffffffffffffffffffffff16815260200190815260200160002060008381526020019081526020016000206000905550505050565b60006001600880549050613008919061499f565b905060006009600084815260200190815260200160002054905060006008838154811061305e577f4e487b7100000000000000000000000000000000000000000000000000000000600052603260045260246000fd5b9060005260206000200154905080600883815481106130a6577f4e487b7100000000000000000000000000000000000000000000000000000000600052603260045260246000fd5b90600052602060002001819055508160096000838152602001908152602001600020819055506009600085815260200190815260200160002060009055600880548061311b577f4e487b7100000000000000000000000000000000000000000000000000000000600052603160045260246000fd5b6001900381819060005260206000200160009055905550505050565b600061314283610eab565b905081600660008573ffffffffffffffffffffffffffffffffffffffff1673ffffffffffffffffffffffffffffffffffffffff168152602001908152602001600020600083815260200190815260200160002081905550806007600084815260200190815260200160002081905550505050565b6131c08383613224565b6131cd6000848484612c8e565b61320c576040517f08c379a0000000000000000000000000000000000000000000000000000000008152600401613203906143d5565b60405180910390fd5b505050565b600080823b905060008111915050919050565b600073ffffffffffffffffffffffffffffffffffffffff168273ffffffffffffffffffffffffffffffffffffffff161415613294576040517f08c379a000000000000000000000000000000000000000000000000000000000815260040161328b90614535565b60405180910390fd5b61329d81611da9565b156132dd576040517f08c379a00000000000000000000000000000000000000000000000000000000081526004016132d490614435565b60405180910390fd5b6132e960008383612aa7565b6001600360008473ffffffffffffffffffffffffffffffffffffffff1673ffffffffffffffffffffffffffffffffffffffff168152602001908152602001600020600082825461333991906148be565b92505081905550816002600083815260200190815260200160002060006101000a81548173ffffffffffffffffffffffffffffffffffffffff021916908373ffffffffffffffffffffffffffffffffffffffff160217905550808273ffffffffffffffffffffffffffffffffffffffff16600073ffffffffffffffffffffffffffffffffffffffff167fddf252ad1be2c89b69c2b068fc378daa952ba7f163c4a11628f55a4df523b3ef60405160405180910390a45050565b604051806101000160405280600890602082028036833780820191505090505090565b600061342861342384614812565b6147e1565b90508281526020810184848401111561344057600080fd5b61344b848285614a47565b509392505050565b60008135905061346281614c0c565b92915050565b60008135905061347781614c23565b92915050565b60008135905061348c81614c3a565b92915050565b6000815190506134a181614c3a565b92915050565b600082601f8301126134b857600080fd5b81356134c8848260208601613415565b91505092915050565b6000813590506134e081614c51565b92915050565b6000602082840312156134f857600080fd5b600061350684828501613453565b91505092915050565b6000806040838503121561352257600080fd5b600061353085828601613453565b925050602061354185828601613453565b9150509250929050565b60008060006060848603121561356057600080fd5b600061356e86828701613453565b935050602061357f86828701613453565b9250506040613590868287016134d1565b9150509250925092565b600080600080608085870312156135b057600080fd5b60006135be87828801613453565b94505060206135cf87828801613453565b93505060406135e0878288016134d1565b925050606085013567ffffffffffffffff8111156135fd57600080fd5b613609878288016134a7565b91505092959194509250565b6000806040838503121561362857600080fd5b600061363685828601613453565b925050602061364785828601613468565b9150509250929050565b6000806040838503121561366457600080fd5b600061367285828601613453565b9250506020613683858286016134d1565b9150509250929050565b60006020828403121561369f57600080fd5b60006136ad8482850161347d565b91505092915050565b6000602082840312156136c857600080fd5b60006136d684828501613492565b91505092915050565b6000602082840312156136f157600080fd5b60006136ff848285016134d1565b91505092915050565b6000806040838503121561371b57600080fd5b6000613729858286016134d1565b925050602061373a858286016134d1565b9150509250929050565b600080600080600060a0868803121561375c57600080fd5b600061376a888289016134d1565b955050602061377b888289016134d1565b945050604061378c888289016134d1565b935050606061379d888289016134d1565b92505060806137ae88828901613453565b9150509295509295909350565b60006137c78383614178565b60208301905092915050565b6137dc816149d3565b82525050565b60006137ed82614852565b6137f78185614880565b935061380283614842565b8060005b8381101561383357815161381a88826137bb565b975061382583614873565b925050600181019050613806565b5085935050505092915050565b613849816149e5565b82525050565b600061385a8261485d565b6138648185614891565b9350613874818560208601614a56565b61387d81614bfb565b840191505092915050565b600061389382614868565b61389d81856148a2565b93506138ad818560208601614a56565b6138b681614bfb565b840191505092915050565b60006138cc82614868565b6138d681856148b3565b93506138e6818560208601614a56565b80840191505092915050565b60006138ff6024836148a2565b91507f43616e2774207472616e73666572204e46547320746f207468697320636f6e7460008301527f72616374000000000000000000000000000000000000000000000000000000006020830152604082019050919050565b6000613965602b836148a2565b91507f455243373231456e756d657261626c653a206f776e657220696e646578206f7560008301527f74206f6620626f756e64730000000000000000000000000000000000000000006020830152604082019050919050565b60006139cb6032836148a2565b91507f4552433732313a207472616e7366657220746f206e6f6e20455243373231526560008301527f63656976657220696d706c656d656e74657200000000000000000000000000006020830152604082019050919050565b6000613a316026836148a2565b91507f4f776e61626c653a206e6577206f776e657220697320746865207a65726f206160008301527f64647265737300000000000000000000000000000000000000000000000000006020830152604082019050919050565b6000613a97601c836148a2565b91507f7472616e7366657220746f20746865207a65726f2061646472657373000000006000830152602082019050919050565b6000613ad7601c836148a2565b91507f4552433732313a20746f6b656e20616c7265616479206d696e746564000000006000830152602082019050919050565b6000613b176024836148a2565b91507f4552433732313a207472616e7366657220746f20746865207a65726f2061646460008301527f72657373000000000000000000000000000000000000000000000000000000006020830152604082019050919050565b6000613b7d6019836148a2565b91507f4552433732313a20617070726f766520746f2063616c6c6572000000000000006000830152602082019050919050565b6000613bbd602c836148a2565b91507f4552433732313a206f70657261746f7220717565727920666f72206e6f6e657860008301527f697374656e7420746f6b656e00000000000000000000000000000000000000006020830152604082019050919050565b6000613c236010836148a2565b91507f5061757361626c653a20706175736564000000000000000000000000000000006000830152602082019050919050565b6000613c636038836148a2565b91507f4552433732313a20617070726f76652063616c6c6572206973206e6f74206f7760008301527f6e6572206e6f7220617070726f76656420666f7220616c6c00000000000000006020830152604082019050919050565b6000613cc9602a836148a2565b91507f4552433732313a2062616c616e636520717565727920666f7220746865207a6560008301527f726f2061646472657373000000000000000000000000000000000000000000006020830152604082019050919050565b6000613d2f6029836148a2565b91507f4552433732313a206f776e657220717565727920666f72206e6f6e657869737460008301527f656e7420746f6b656e00000000000000000000000000000000000000000000006020830152604082019050919050565b6000613d956020836148a2565b91507f4552433732313a206d696e7420746f20746865207a65726f20616464726573736000830152602082019050919050565b6000613dd56023836148a2565b91507f6d757374206265206f776e6572206f6620626f746820706172656e7420746f6b60008301527f656e7300000000000000000000000000000000000000000000000000000000006020830152604082019050919050565b6000613e3b602c836148a2565b91507f4552433732313a20617070726f76656420717565727920666f72206e6f6e657860008301527f697374656e7420746f6b656e00000000000000000000000000000000000000006020830152604082019050919050565b6000613ea16020836148a2565b91507f4f776e61626c653a2063616c6c6572206973206e6f7420746865206f776e65726000830152602082019050919050565b6000613ee16029836148a2565b91507f4552433732313a207472616e73666572206f6620746f6b656e2074686174206960008301527f73206e6f74206f776e00000000000000000000000000000000000000000000006020830152604082019050919050565b6000613f47602f836148a2565b91507f4552433732314d657461646174613a2055524920717565727920666f72206e6f60008301527f6e6578697374656e7420746f6b656e00000000000000000000000000000000006020830152604082019050919050565b6000613fad6021836148a2565b91507f4552433732313a20617070726f76616c20746f2063757272656e74206f776e6560008301527f72000000000000000000000000000000000000000000000000000000000000006020830152604082019050919050565b60006140136031836148a2565b91507f4552433732313a207472616e736665722063616c6c6572206973206e6f74206f60008301527f776e6572206e6f7220617070726f7665640000000000000000000000000000006020830152604082019050919050565b6000614079602c836148a2565b91507f455243373231456e756d657261626c653a20676c6f62616c20696e646578206f60008301527f7574206f6620626f756e647300000000000000000000000000000000000000006020830152604082019050919050565b60006140df601f836148a2565b91507f5265656e7472616e637947756172643a207265656e7472616e742063616c6c006000830152602082019050919050565b600061411f6027836148a2565b91507f4d6178696d756d20616d6f756e74206f662067656e2030206d6f6e6b6579732060008301527f72656163686564000000000000000000000000000000000000000000000000006020830152604082019050919050565b61418181614a3d565b82525050565b61419081614a3d565b82525050565b6141a76141a282614a3d565b614b04565b82525050565b60006141b982856138c1565b91506141c582846138c1565b91508190509392505050565b60006141dd8286614196565b6020820191506141ed8285614196565b6020820191506141fd8284614196565b602082019150819050949350505050565b600060208201905061422360008301846137d3565b92915050565b600060808201905061423e60008301876137d3565b61424b60208301866137d3565b6142586040830185614187565b818103606083015261426a818461384f565b905095945050505050565b600060a08201905061428a60008301886137d3565b6142976020830187614187565b6142a46040830186614187565b6142b16060830185614187565b6142be6080830184614187565b9695505050505050565b600060208201905081810360008301526142e281846137e2565b905092915050565b60006020820190506142ff6000830184613840565b92915050565b6000602082019050818103600083015261431f8184613888565b905092915050565b600060408201905081810360008301526143418185613888565b905061435060208301846137d3565b9392505050565b600060608201905081810360008301526143718186613888565b90506143806020830185614187565b61438d6040830184614187565b949350505050565b600060208201905081810360008301526143ae816138f2565b9050919050565b600060208201905081810360008301526143ce81613958565b9050919050565b600060208201905081810360008301526143ee816139be565b9050919050565b6000602082019050818103600083015261440e81613a24565b9050919050565b6000602082019050818103600083015261442e81613a8a565b9050919050565b6000602082019050818103600083015261444e81613aca565b9050919050565b6000602082019050818103600083015261446e81613b0a565b9050919050565b6000602082019050818103600083015261448e81613b70565b9050919050565b600060208201905081810360008301526144ae81613bb0565b9050919050565b600060208201905081810360008301526144ce81613c16565b9050919050565b600060208201905081810360008301526144ee81613c56565b9050919050565b6000602082019050818103600083015261450e81613cbc565b9050919050565b6000602082019050818103600083015261452e81613d22565b9050919050565b6000602082019050818103600083015261454e81613d88565b9050919050565b6000602082019050818103600083015261456e81613dc8565b9050919050565b6000602082019050818103600083015261458e81613e2e565b9050919050565b600060208201905081810360008301526145ae81613e94565b9050919050565b600060208201905081810360008301526145ce81613ed4565b9050919050565b600060208201905081810360008301526145ee81613f3a565b9050919050565b6000602082019050818103600083015261460e81613fa0565b9050919050565b6000602082019050818103600083015261462e81614006565b9050919050565b6000602082019050818103600083015261464e8161406c565b9050919050565b6000602082019050818103600083015261466e816140d2565b9050919050565b6000602082019050818103600083015261468e81614112565b9050919050565b60006020820190506146aa6000830184614187565b92915050565b600060a0820190506146c56000830188614187565b6146d26020830187614187565b6146df6040830186614187565b6146ec6060830185614187565b6146f96080830184614187565b9695505050505050565b600060e082019050614718600083018a614187565b6147256020830189614187565b6147326040830188614187565b61473f6060830187614187565b61474c6080830186614187565b61475960a08301856137d3565b61476660c08301846137d3565b98975050505050505050565b600060e082019050614787600083018a614187565b6147946020830189614187565b6147a16040830188614187565b6147ae6060830187614187565b6147bb6080830186614187565b6147c860a0830185614187565b6147d560c08301846137d3565b98975050505050505050565b6000604051905081810181811067ffffffffffffffff8211171561480857614807614bcc565b5b8060405250919050565b600067ffffffffffffffff82111561482d5761482c614bcc565b5b601f19601f8301169050602081019050919050565b6000819050602082019050919050565b600081519050919050565b600081519050919050565b600081519050919050565b6000602082019050919050565b600082825260208201905092915050565b600082825260208201905092915050565b600082825260208201905092915050565b600081905092915050565b60006148c982614a3d565b91506148d483614a3d565b9250827fffffffffffffffffffffffffffffffffffffffffffffffffffffffffffffffff0382111561490957614908614b3f565b5b828201905092915050565b600061491f82614a3d565b915061492a83614a3d565b92508261493a57614939614b6e565b5b828204905092915050565b600061495082614a3d565b915061495b83614a3d565b9250817fffffffffffffffffffffffffffffffffffffffffffffffffffffffffffffffff048311821515161561499457614993614b3f565b5b828202905092915050565b60006149aa82614a3d565b91506149b583614a3d565b9250828210156149c8576149c7614b3f565b5b828203905092915050565b60006149de82614a1d565b9050919050565b60008115159050919050565b60007fffffffff0000000000000000000000000000000000000000000000000000000082169050919050565b600073ffffffffffffffffffffffffffffffffffffffff82169050919050565b6000819050919050565b82818337600083830152505050565b60005b83811015614a74578082015181840152602081019050614a59565b83811115614a83576000848401525b50505050565b60006002820490506001821680614aa157607f821691505b60208210811415614ab557614ab4614b9d565b5b50919050565b6000614ac682614a3d565b91507fffffffffffffffffffffffffffffffffffffffffffffffffffffffffffffffff821415614af957614af8614b3f565b5b600182019050919050565b6000819050919050565b6000614b1982614a3d565b9150614b2483614a3d565b925082614b3457614b33614b6e565b5b828206905092915050565b7f4e487b7100000000000000000000000000000000000000000000000000000000600052601160045260246000fd5b7f4e487b7100000000000000000000000000000000000000000000000000000000600052601260045260246000fd5b7f4e487b7100000000000000000000000000000000000000000000000000000000600052602260045260246000fd5b7f4e487b7100000000000000000000000000000000000000000000000000000000600052604160045260246000fd5b6000601f19601f8301169050919050565b614c15816149d3565b8114614c2057600080fd5b50565b614c2c816149e5565b8114614c3757600080fd5b50565b614c43816149f1565b8114614c4e57600080fd5b50565b614c5a81614a3d565b8114614c6557600080fd5b5056fea2646970667358221220de27bfb78aec4b90a30593eed5485a75717ea7541b7b82a83b3c3935ab85724c64736f6c63430008000033",
  "linkReferences": {},
  "deployedLinkReferences": {}
}