{
  "_format": "hh-sol-artifact-1",
  "contractName": "MonkeyMarketplace",
  "sourceName": "contracts/MonkeyMarketplace.sol",
  "abi": [
    {
      "inputs": [
        {
          "internalType": "address",
          "name": "_constructorMonkeyContractAddress",
          "type": "address"
        }
      ],
      "stateMutability": "nonpayable",
      "type": "constructor"
    },
    {
      "anonymous": false,
      "inputs": [
        {
          "indexed": false,
          "internalType": "string",
          "name": "TxType",
          "type": "string"
        },
        {
          "indexed": false,
          "internalType": "address",
          "name": "owner",
          "type": "address"
        },
        {
          "indexed": false,
          "internalType": "uint256",
          "name": "tokenId",
          "type": "uint256"
        }
      ],
      "name": "MarketTransaction",
      "type": "event"
    },
    {
      "anonymous": false,
      "inputs": [
        {
          "indexed": true,
          "internalType": "address",
          "name": "previousOwner",
          "type": "address"
        },
        {
          "indexed": true,
          "internalType": "address",
          "name": "newOwner",
          "type": "address"
        }
      ],
      "name": "OwnershipTransferred",
      "type": "event"
    },
    {
      "anonymous": false,
      "inputs": [
        {
          "indexed": false,
          "internalType": "address",
          "name": "account",
          "type": "address"
        }
      ],
      "name": "Paused",
      "type": "event"
    },
    {
      "anonymous": false,
      "inputs": [
        {
          "indexed": false,
          "internalType": "address",
          "name": "account",
          "type": "address"
        }
      ],
      "name": "Unpaused",
      "type": "event"
    },
    {
      "anonymous": false,
      "inputs": [
        {
          "indexed": false,
          "internalType": "address",
          "name": "seller",
          "type": "address"
        },
        {
          "indexed": false,
          "internalType": "address",
          "name": "buyer",
          "type": "address"
        },
        {
          "indexed": false,
          "internalType": "uint256",
          "name": "price",
          "type": "uint256"
        },
        {
          "indexed": false,
          "internalType": "uint256",
          "name": "tokenId",
          "type": "uint256"
        }
      ],
      "name": "monkeySold",
      "type": "event"
    },
    {
      "inputs": [
        {
          "internalType": "uint256",
          "name": "_tokenId",
          "type": "uint256"
        }
      ],
      "name": "buyMonkey",
      "outputs": [],
      "stateMutability": "payable",
      "type": "function"
    },
    {
      "inputs": [],
      "name": "getAllTokenOnSale",
      "outputs": [
        {
          "internalType": "uint256[]",
          "name": "listOfTokenIdsOnSale",
          "type": "uint256[]"
        }
      ],
      "stateMutability": "view",
      "type": "function"
    },
    {
      "inputs": [
        {
          "internalType": "uint256",
          "name": "_tokenId",
          "type": "uint256"
        }
      ],
      "name": "getOffer",
      "outputs": [
        {
          "internalType": "address",
          "name": "seller",
          "type": "address"
        },
        {
          "internalType": "uint256",
          "name": "price",
          "type": "uint256"
        },
        {
          "internalType": "uint256",
          "name": "index",
          "type": "uint256"
        },
        {
          "internalType": "uint256",
          "name": "tokenId",
          "type": "uint256"
        },
        {
          "internalType": "bool",
          "name": "active",
          "type": "bool"
        }
      ],
      "stateMutability": "view",
      "type": "function"
    },
    {
      "inputs": [
        {
          "internalType": "uint256",
          "name": "_tokenId",
          "type": "uint256"
        }
      ],
      "name": "isTokenOnSale",
      "outputs": [
        {
          "internalType": "bool",
          "name": "tokenIsOnSale",
          "type": "bool"
        }
      ],
      "stateMutability": "view",
      "type": "function"
    },
    {
      "inputs": [],
      "name": "owner",
      "outputs": [
        {
          "internalType": "address",
          "name": "",
          "type": "address"
        }
      ],
      "stateMutability": "view",
      "type": "function"
    },
    {
      "inputs": [],
      "name": "pause",
      "outputs": [],
      "stateMutability": "nonpayable",
      "type": "function"
    },
    {
      "inputs": [],
      "name": "paused",
      "outputs": [
        {
          "internalType": "bool",
          "name": "",
          "type": "bool"
        }
      ],
      "stateMutability": "view",
      "type": "function"
    },
    {
      "inputs": [
        {
          "internalType": "uint256",
          "name": "_tokenId",
          "type": "uint256"
        }
      ],
      "name": "removeOffer",
      "outputs": [],
      "stateMutability": "nonpayable",
      "type": "function"
    },
    {
      "inputs": [],
      "name": "renounceOwnership",
      "outputs": [],
      "stateMutability": "nonpayable",
      "type": "function"
    },
    {
      "inputs": [],
      "name": "savedMainContractAddress",
      "outputs": [
        {
          "internalType": "address",
          "name": "",
          "type": "address"
        }
      ],
      "stateMutability": "view",
      "type": "function"
    },
    {
      "inputs": [],
      "name": "savedMarketContractAddress",
      "outputs": [
        {
          "internalType": "address",
          "name": "",
          "type": "address"
        }
      ],
      "stateMutability": "view",
      "type": "function"
    },
    {
      "inputs": [
        {
          "internalType": "uint256",
          "name": "_price",
          "type": "uint256"
        },
        {
          "internalType": "uint256",
          "name": "_tokenId",
          "type": "uint256"
        }
      ],
      "name": "setOffer",
      "outputs": [],
      "stateMutability": "nonpayable",
      "type": "function"
    },
    {
      "inputs": [],
      "name": "showLengthOfOffersArray",
      "outputs": [
        {
          "internalType": "uint256",
          "name": "length",
          "type": "uint256"
        }
      ],
      "stateMutability": "view",
      "type": "function"
    },
    {
      "inputs": [
        {
          "internalType": "uint256",
          "name": "arrayPosition",
          "type": "uint256"
        }
      ],
      "name": "showOfferArrayEntry",
      "outputs": [
        {
          "internalType": "address",
          "name": "seller",
          "type": "address"
        },
        {
          "internalType": "uint256",
          "name": "price",
          "type": "uint256"
        },
        {
          "internalType": "uint256",
          "name": "index",
          "type": "uint256"
        },
        {
          "internalType": "uint256",
          "name": "tokenId",
          "type": "uint256"
        },
        {
          "internalType": "bool",
          "name": "active",
          "type": "bool"
        }
      ],
      "stateMutability": "view",
      "type": "function"
    },
    {
      "inputs": [
        {
          "internalType": "address",
          "name": "newOwner",
          "type": "address"
        }
      ],
      "name": "transferOwnership",
      "outputs": [],
      "stateMutability": "nonpayable",
      "type": "function"
    },
    {
      "inputs": [],
      "name": "unpause",
      "outputs": [],
      "stateMutability": "nonpayable",
      "type": "function"
    }
  ],
  "bytecode": "0x60806040523480156200001157600080fd5b5060405162002d8738038062002d87833981810160405281019062000037919062000359565b6000620000496200033a60201b60201c565b9050806000806101000a81548173ffffffffffffffffffffffffffffffffffffffff021916908373ffffffffffffffffffffffffffffffffffffffff1602179055508073ffffffffffffffffffffffffffffffffffffffff16600073ffffffffffffffffffffffffffffffffffffffff167f8be0079c531659141344cd1fd0a4f28419497f9722a3daafe3b4186f6b6457e060405160405180910390a350600180819055506000600260006101000a81548160ff02191690831515021790555080600260016101000a81548173ffffffffffffffffffffffffffffffffffffffff021916908373ffffffffffffffffffffffffffffffffffffffff1602179055508073ffffffffffffffffffffffffffffffffffffffff16600260019054906101000a900473ffffffffffffffffffffffffffffffffffffffff1673ffffffffffffffffffffffffffffffffffffffff1663daa97fae6040518163ffffffff1660e01b815260040160206040518083038186803b158015620001ca57600080fd5b505afa158015620001df573d6000803e3d6000fd5b505050506040513d601f19601f8201168201806040525081019062000205919062000359565b73ffffffffffffffffffffffffffffffffffffffff16146200025e576040517f08c379a000000000000000000000000000000000000000000000000000000000815260040162000255906200043c565b60405180910390fd5b80600360006101000a81548173ffffffffffffffffffffffffffffffffffffffff021916908373ffffffffffffffffffffffffffffffffffffffff160217905550600260019054906101000a900473ffffffffffffffffffffffffffffffffffffffff1673ffffffffffffffffffffffffffffffffffffffff16638aac2f333060016040518363ffffffff1660e01b8152600401620002ff9291906200040f565b600060405180830381600087803b1580156200031a57600080fd5b505af11580156200032f573d6000803e3d6000fd5b5050505050620004c9565b600033905090565b6000815190506200035381620004af565b92915050565b6000602082840312156200036c57600080fd5b60006200037c8482850162000342565b91505092915050565b62000390816200046f565b82525050565b620003a18162000483565b82525050565b6000620003b66036836200045e565b91507f434f4e5354525543544f523a204d6f6e6b657920636f6e74726163742061646460008301527f72657373206d757374206265207468652073616d652e000000000000000000006020830152604082019050919050565b600060408201905062000426600083018562000385565b62000435602083018462000396565b9392505050565b600060208201905081810360008301526200045781620003a7565b9050919050565b600082825260208201905092915050565b60006200047c826200048f565b9050919050565b60008115159050919050565b600073ffffffffffffffffffffffffffffffffffffffff82169050919050565b620004ba816200046f565b8114620004c657600080fd5b50565b6128ae80620004d96000396000f3fe6080604052600436106100f35760003560e01c80638456cb591161008a57806395a0f9c71161005957806395a0f9c7146102ed578063d10186ee14610316578063dfcaaa9514610341578063f2fde38b1461036c576100f3565b80638456cb59146102455780638da5cb5b1461025c578063941b055b14610287578063951fbdf0146102b0576100f3565b80635c975abb116100c65780635c975abb146101bc578063615fc0e2146101e7578063715018a6146102035780637d3e0ec21461021a576100f3565b80633f4ba83a146100f85780633f50b4411461010f5780634579268a1461015057806349b3709f14610191575b600080fd5b34801561010457600080fd5b5061010d610395565b005b34801561011b57600080fd5b5061013660048036038101906101319190611d8a565b61041b565b604051610147959493929190612414565b60405180910390f35b34801561015c57600080fd5b5061017760048036038101906101729190611d8a565b6105b2565b604051610188959493929190612414565b60405180910390f35b34801561019d57600080fd5b506101a66106fb565b6040516101b39190612467565b60405180910390f35b3480156101c857600080fd5b506101d16109b4565b6040516101de9190612489565b60405180910390f35b61020160048036038101906101fc9190611d8a565b6109cb565b005b34801561020f57600080fd5b50610218610de1565b005b34801561022657600080fd5b5061022f610f1b565b60405161023c9190612354565b60405180910390f35b34801561025157600080fd5b5061025a610f41565b005b34801561026857600080fd5b50610271610fc7565b60405161027e9190612354565b60405180910390f35b34801561029357600080fd5b506102ae60048036038101906102a99190611db3565b610ff0565b005b3480156102bc57600080fd5b506102d760048036038101906102d29190611d8a565b611629565b6040516102e49190612489565b60405180910390f35b3480156102f957600080fd5b50610314600480360381019061030f9190611d8a565b611656565b005b34801561032257600080fd5b5061032b6118cf565b6040516103389190612354565b60405180910390f35b34801561034d57600080fd5b506103566118f5565b60405161036391906126d8565b60405180910390f35b34801561037857600080fd5b50610393600480360381019061038e9190611d0f565b61197e565b005b61039d611b27565b73ffffffffffffffffffffffffffffffffffffffff166103bb610fc7565b73ffffffffffffffffffffffffffffffffffffffff1614610411576040517f08c379a00000000000000000000000000000000000000000000000000000000081526004016104089061261c565b60405180910390fd5b610419611b2f565b565b600080600080600061042b611b27565b73ffffffffffffffffffffffffffffffffffffffff16610449610fc7565b73ffffffffffffffffffffffffffffffffffffffff161461049f576040517f08c379a00000000000000000000000000000000000000000000000000000000081526004016104969061261c565b60405180910390fd5b6000600587815481106104db577f4e487b7100000000000000000000000000000000000000000000000000000000600052603260045260246000fd5b90600052602060002090600502016040518060a00160405290816000820160009054906101000a900473ffffffffffffffffffffffffffffffffffffffff1673ffffffffffffffffffffffffffffffffffffffff1673ffffffffffffffffffffffffffffffffffffffff1681526020016001820154815260200160028201548152602001600382015481526020016004820160009054906101000a900460ff161515151581525050905080600001518160200151826040015183606001518460800151955095509550955095505091939590929450565b60008060008060006006600087815260200190815260200160002060040160009054906101000a900460ff1661061d576040517f08c379a000000000000000000000000000000000000000000000000000000000815260040161061490612678565b60405180910390fd5b6000600660008881526020019081526020016000206040518060a00160405290816000820160009054906101000a900473ffffffffffffffffffffffffffffffffffffffff1673ffffffffffffffffffffffffffffffffffffffff1673ffffffffffffffffffffffffffffffffffffffff1681526020016001820154815260200160028201548152602001600382015481526020016004820160009054906101000a900460ff161515151581525050905080600001518160200151826040015183606001518460800151955095509550955095505091939590929450565b6060600080600090505b600580549050811015610792576005818154811061074c577f4e487b7100000000000000000000000000000000000000000000000000000000600052603260045260246000fd5b906000526020600020906005020160040160009054906101000a900460ff161561077f57818061077b906127bb565b9250505b808061078a906127bb565b915050610705565b50600081141561081457600067ffffffffffffffff8111156107dd577f4e487b7100000000000000000000000000000000000000000000000000000000600052604160045260246000fd5b60405190808252806020026020018201604052801561080b5781602001602082028036833780820191505090505b509150506109b1565b60008167ffffffffffffffff811115610856577f4e487b7100000000000000000000000000000000000000000000000000000000600052604160045260246000fd5b6040519080825280602002602001820160405280156108845781602001602082028036833780820191505090505b5090506000805b6005805490508110156109a957600581815481106108d2577f4e487b7100000000000000000000000000000000000000000000000000000000600052603260045260246000fd5b906000526020600020906005020160040160009054906101000a900460ff16156109965760058181548110610930577f4e487b7100000000000000000000000000000000000000000000000000000000600052603260045260246000fd5b90600052602060002090600502016003015483838151811061097b577f4e487b7100000000000000000000000000000000000000000000000000000000600052603260045260246000fd5b6020026020010181815250508180610992906127bb565b9250505b80806109a1906127bb565b91505061088b565b508193505050505b90565b6000600260009054906101000a900460ff16905090565b60026001541415610a11576040517f08c379a0000000000000000000000000000000000000000000000000000000008152600401610a08906126b8565b60405180910390fd5b6002600181905550610a216109b4565b15610a61576040517f08c379a0000000000000000000000000000000000000000000000000000000008152600401610a5890612544565b60405180910390fd5b6000600660008381526020019081526020016000206040518060a00160405290816000820160009054906101000a900473ffffffffffffffffffffffffffffffffffffffff1673ffffffffffffffffffffffffffffffffffffffff1673ffffffffffffffffffffffffffffffffffffffff1681526020016001820154815260200160028201548152602001600382015481526020016004820160009054906101000a900460ff1615151515815250509050600115158160800151151514610b5d576040517f08c379a0000000000000000000000000000000000000000000000000000000008152600401610b5490612524565b60405180910390fd5b34816020015114610ba3576040517f08c379a0000000000000000000000000000000000000000000000000000000008152600401610b9a90612564565b60405180910390fd5b60008160000151905060006005836040015181548110610bec577f4e487b7100000000000000000000000000000000000000000000000000000000600052603260045260246000fd5b906000526020600020906005020160040160006101000a81548160ff02191690831515021790555060066000848152602001908152602001600020600080820160006101000a81549073ffffffffffffffffffffffffffffffffffffffff02191690556001820160009055600282016000905560038201600090556004820160006101000a81549060ff02191690555050610c85611c74565b9150600260019054906101000a900473ffffffffffffffffffffffffffffffffffffffff1673ffffffffffffffffffffffffffffffffffffffff166369e9cae18233866040518463ffffffff1660e01b8152600401610ce69392919061236f565b600060405180830381600087803b158015610d0057600080fd5b505af1158015610d14573d6000803e3d6000fd5b505050508073ffffffffffffffffffffffffffffffffffffffff166108fc349081150290604051600060405180830381858888f19350505050158015610d5e573d6000803e3d6000fd5b507fd99e4fad9ad6313b1feb588fa8e605e3a9873172f2024330c35dd2b4041a43863384604051610d909291906125e0565b60405180910390a17f9f1cc9f631ef4adfe7b8fb5180733fe8e804f452ee94cd404396f67e515136a481333486604051610dcd94939291906123a6565b60405180910390a150506001808190555050565b610de9611b27565b73ffffffffffffffffffffffffffffffffffffffff16610e07610fc7565b73ffffffffffffffffffffffffffffffffffffffff1614610e5d576040517f08c379a0000000000000000000000000000000000000000000000000000000008152600401610e549061261c565b60405180910390fd5b600073ffffffffffffffffffffffffffffffffffffffff1660008054906101000a900473ffffffffffffffffffffffffffffffffffffffff1673ffffffffffffffffffffffffffffffffffffffff167f8be0079c531659141344cd1fd0a4f28419497f9722a3daafe3b4186f6b6457e060405160405180910390a360008060006101000a81548173ffffffffffffffffffffffffffffffffffffffff021916908373ffffffffffffffffffffffffffffffffffffffff160217905550565b600360009054906101000a900473ffffffffffffffffffffffffffffffffffffffff1681565b610f49611b27565b73ffffffffffffffffffffffffffffffffffffffff16610f67610fc7565b73ffffffffffffffffffffffffffffffffffffffff1614610fbd576040517f08c379a0000000000000000000000000000000000000000000000000000000008152600401610fb49061261c565b60405180910390fd5b610fc5611bd1565b565b60008060009054906101000a900473ffffffffffffffffffffffffffffffffffffffff16905090565b610ff86109b4565b15611038576040517f08c379a000000000000000000000000000000000000000000000000000000000815260040161102f90612544565b60405180910390fd5b3373ffffffffffffffffffffffffffffffffffffffff16600260019054906101000a900473ffffffffffffffffffffffffffffffffffffffff1673ffffffffffffffffffffffffffffffffffffffff16636352211e836040518263ffffffff1660e01b81526004016110aa91906126d8565b60206040518083038186803b1580156110c257600080fd5b505afa1580156110d6573d6000803e3d6000fd5b505050506040513d601f19601f820116820180604052508101906110fa9190611d38565b73ffffffffffffffffffffffffffffffffffffffff1614611150576040517f08c379a0000000000000000000000000000000000000000000000000000000008152600401611147906124e4565b60405180910390fd5b600260019054906101000a900473ffffffffffffffffffffffffffffffffffffffff1673ffffffffffffffffffffffffffffffffffffffff1663e985e9c533306040518363ffffffff1660e01b81526004016111ad9291906123eb565b60206040518083038186803b1580156111c557600080fd5b505afa1580156111d9573d6000803e3d6000fd5b505050506040513d601f19601f820116820180604052508101906111fd9190611d61565b61123c576040517f08c379a0000000000000000000000000000000000000000000000000000000008152600401611233906124c4565b60405180910390fd5b64e8d4a51000821015611284576040517f08c379a000000000000000000000000000000000000000000000000000000000815260040161127b906125c0565b60405180910390fd5b6000600660008381526020019081526020016000206040518060a00160405290816000820160009054906101000a900473ffffffffffffffffffffffffffffffffffffffff1673ffffffffffffffffffffffffffffffffffffffff1673ffffffffffffffffffffffffffffffffffffffff1681526020016001820154815260200160028201548152602001600382015481526020016004820160009054906101000a900460ff161515151581525050905060011515816080015115151415611452576005816040015181548110611384577f4e487b7100000000000000000000000000000000000000000000000000000000600052603260045260246000fd5b9060005260206000209060050201600080820160006101000a81549073ffffffffffffffffffffffffffffffffffffffff02191690556001820160009055600282016000905560038201600090556004820160006101000a81549060ff0219169055505060066000838152602001908152602001600020600080820160006101000a81549073ffffffffffffffffffffffffffffffffffffffff02191690556001820160009055600282016000905560038201600090556004820160006101000a81549060ff021916905550505b60006040518060a001604052803373ffffffffffffffffffffffffffffffffffffffff1681526020018581526020016005805490508152602001848152602001600115158152509050806006600085815260200190815260200160002060008201518160000160006101000a81548173ffffffffffffffffffffffffffffffffffffffff021916908373ffffffffffffffffffffffffffffffffffffffff16021790555060208201518160010155604082015181600201556060820151816003015560808201518160040160006101000a81548160ff021916908315150217905550905050600581908060018154018082558091505060019003906000526020600020906005020160009091909190915060008201518160000160006101000a81548173ffffffffffffffffffffffffffffffffffffffff021916908373ffffffffffffffffffffffffffffffffffffffff16021790555060208201518160010155604082015181600201556060820151816003015560808201518160040160006101000a81548160ff02191690831515021790555050507fd99e4fad9ad6313b1feb588fa8e605e3a9873172f2024330c35dd2b4041a4386338460405161161b929190612584565b60405180910390a150505050565b60006006600083815260200190815260200160002060040160009054906101000a900460ff169050919050565b61165e6109b4565b1561169e576040517f08c379a000000000000000000000000000000000000000000000000000000000815260040161169590612544565b60405180910390fd5b6000600660008381526020019081526020016000206040518060a00160405290816000820160009054906101000a900473ffffffffffffffffffffffffffffffffffffffff1673ffffffffffffffffffffffffffffffffffffffff1673ffffffffffffffffffffffffffffffffffffffff1681526020016001820154815260200160028201548152602001600382015481526020016004820160009054906101000a900460ff16151515158152505090503373ffffffffffffffffffffffffffffffffffffffff16816000015173ffffffffffffffffffffffffffffffffffffffff16146117c1576040517f08c379a00000000000000000000000000000000000000000000000000000000081526004016117b890612698565b60405180910390fd5b60006005826040015181548110611801577f4e487b7100000000000000000000000000000000000000000000000000000000600052603260045260246000fd5b906000526020600020906005020160040160006101000a81548160ff02191690831515021790555060066000838152602001908152602001600020600080820160006101000a81549073ffffffffffffffffffffffffffffffffffffffff02191690556001820160009055600282016000905560038201600090556004820160006101000a81549060ff021916905550507fd99e4fad9ad6313b1feb588fa8e605e3a9873172f2024330c35dd2b4041a438633836040516118c392919061263c565b60405180910390a15050565b600460009054906101000a900473ffffffffffffffffffffffffffffffffffffffff1681565b60006118ff611b27565b73ffffffffffffffffffffffffffffffffffffffff1661191d610fc7565b73ffffffffffffffffffffffffffffffffffffffff1614611973576040517f08c379a000000000000000000000000000000000000000000000000000000000815260040161196a9061261c565b60405180910390fd5b600580549050905090565b611986611b27565b73ffffffffffffffffffffffffffffffffffffffff166119a4610fc7565b73ffffffffffffffffffffffffffffffffffffffff16146119fa576040517f08c379a00000000000000000000000000000000000000000000000000000000081526004016119f19061261c565b60405180910390fd5b600073ffffffffffffffffffffffffffffffffffffffff168173ffffffffffffffffffffffffffffffffffffffff161415611a6a576040517f08c379a0000000000000000000000000000000000000000000000000000000008152600401611a6190612504565b60405180910390fd5b8073ffffffffffffffffffffffffffffffffffffffff1660008054906101000a900473ffffffffffffffffffffffffffffffffffffffff1673ffffffffffffffffffffffffffffffffffffffff167f8be0079c531659141344cd1fd0a4f28419497f9722a3daafe3b4186f6b6457e060405160405180910390a3806000806101000a81548173ffffffffffffffffffffffffffffffffffffffff021916908373ffffffffffffffffffffffffffffffffffffffff16021790555050565b600033905090565b611b376109b4565b611b76576040517f08c379a0000000000000000000000000000000000000000000000000000000008152600401611b6d906124a4565b60405180910390fd5b6000600260006101000a81548160ff0219169083151502179055507f5db9ee0a495bf2e6ff9c91a7834c1ba4fdd244a5e8aa4e537bd38aeae4b073aa611bba611b27565b604051611bc79190612354565b60405180910390a1565b611bd96109b4565b15611c19576040517f08c379a0000000000000000000000000000000000000000000000000000000008152600401611c1090612544565b60405180910390fd5b6001600260006101000a81548160ff0219169083151502179055507f62e78cea01bee320cd4e420270b5ea74000d11b0c9f74754ebdbfc544b05a258611c5d611b27565b604051611c6a9190612354565b60405180910390a1565b6040518060a00160405280600073ffffffffffffffffffffffffffffffffffffffff1681526020016000815260200160008152602001600081526020016000151581525090565b600081359050611cca81612833565b92915050565b600081519050611cdf81612833565b92915050565b600081519050611cf48161284a565b92915050565b600081359050611d0981612861565b92915050565b600060208284031215611d2157600080fd5b6000611d2f84828501611cbb565b91505092915050565b600060208284031215611d4a57600080fd5b6000611d5884828501611cd0565b91505092915050565b600060208284031215611d7357600080fd5b6000611d8184828501611ce5565b91505092915050565b600060208284031215611d9c57600080fd5b6000611daa84828501611cfa565b91505092915050565b60008060408385031215611dc657600080fd5b6000611dd485828601611cfa565b9250506020611de585828601611cfa565b9150509250929050565b6000611dfb8383612336565b60208301905092915050565b611e1081612785565b82525050565b611e1f8161273d565b82525050565b6000611e3082612703565b611e3a818561271b565b9350611e45836126f3565b8060005b83811015611e76578151611e5d8882611def565b9750611e688361270e565b925050600181019050611e49565b5085935050505092915050565b611e8c8161274f565b82525050565b6000611e9f60148361272c565b91507f5061757361626c653a206e6f74207061757365640000000000000000000000006000830152602082019050919050565b6000611edf603c8361272c565b91507f4d61726b6574706c6163652061646472657373206e65656473206f706572617460008301527f6f72207374617475732066726f6d206d6f6e6b6579206f776e65722e000000006020830152604082019050919050565b6000611f4560308361272c565b91507f4f6e6c79206d6f6e6b6579206f776e65722063616e20736574206f666665722060008301527f666f72207468697320746f6b656e4964000000000000000000000000000000006020830152604082019050919050565b6000611fab60268361272c565b91507f4f776e61626c653a206e6577206f776e657220697320746865207a65726f206160008301527f64647265737300000000000000000000000000000000000000000000000000006020830152604082019050919050565b6000612011601f8361272c565b91507f4e6f20616374697665206f6666657220666f722074686973206d6f6e6b6579006000830152602082019050919050565b600061205160108361272c565b91507f5061757361626c653a20706175736564000000000000000000000000000000006000830152602082019050919050565b6000612091601e8361272c565b91507f4e6f742073656e64696e672074686520636f727265637420616d6f756e7400006000830152602082019050919050565b60006120d1600c8361272c565b91507f437265617465206f6666657200000000000000000000000000000000000000006000830152602082019050919050565b600061211160428361272c565b91507f6f66666572207072696365206d757374206265206174206c656173742031303060008301527f30303030303030303030205745492c20692e652e20302e30303030303120455460208301527f48200000000000000000000000000000000000000000000000000000000000006040830152606082019050919050565b600061219d60038361272c565b91507f42757900000000000000000000000000000000000000000000000000000000006000830152602082019050919050565b60006121dd60208361272c565b91507f4f776e61626c653a2063616c6c6572206973206e6f7420746865206f776e65726000830152602082019050919050565b600061221d600c8361272c565b91507f52656d6f7665206f6666657200000000000000000000000000000000000000006000830152602082019050919050565b600061225d60218361272c565b91507f4e6f20616374697665206f6666657220666f72207468697320746f6b656e496460008301527f2e000000000000000000000000000000000000000000000000000000000000006020830152604082019050919050565b60006122c360148361272c565b91507f596f75277265206e6f7420746865206f776e65720000000000000000000000006000830152602082019050919050565b6000612303601f8361272c565b91507f5265656e7472616e637947756172643a207265656e7472616e742063616c6c006000830152602082019050919050565b61233f8161277b565b82525050565b61234e8161277b565b82525050565b60006020820190506123696000830184611e16565b92915050565b60006060820190506123846000830186611e07565b6123916020830185611e16565b61239e6040830184612345565b949350505050565b60006080820190506123bb6000830187611e07565b6123c86020830186611e16565b6123d56040830185612345565b6123e26060830184612345565b95945050505050565b60006040820190506124006000830185611e16565b61240d6020830184611e16565b9392505050565b600060a0820190506124296000830188611e16565b6124366020830187612345565b6124436040830186612345565b6124506060830185612345565b61245d6080830184611e83565b9695505050505050565b600060208201905081810360008301526124818184611e25565b905092915050565b600060208201905061249e6000830184611e83565b92915050565b600060208201905081810360008301526124bd81611e92565b9050919050565b600060208201905081810360008301526124dd81611ed2565b9050919050565b600060208201905081810360008301526124fd81611f38565b9050919050565b6000602082019050818103600083015261251d81611f9e565b9050919050565b6000602082019050818103600083015261253d81612004565b9050919050565b6000602082019050818103600083015261255d81612044565b9050919050565b6000602082019050818103600083015261257d81612084565b9050919050565b6000606082019050818103600083015261259d816120c4565b90506125ac6020830185611e16565b6125b96040830184612345565b9392505050565b600060208201905081810360008301526125d981612104565b9050919050565b600060608201905081810360008301526125f981612190565b90506126086020830185611e16565b6126156040830184612345565b9392505050565b60006020820190508181036000830152612635816121d0565b9050919050565b6000606082019050818103600083015261265581612210565b90506126646020830185611e16565b6126716040830184612345565b9392505050565b6000602082019050818103600083015261269181612250565b9050919050565b600060208201905081810360008301526126b1816122b6565b9050919050565b600060208201905081810360008301526126d1816122f6565b9050919050565b60006020820190506126ed6000830184612345565b92915050565b6000819050602082019050919050565b600081519050919050565b6000602082019050919050565b600082825260208201905092915050565b600082825260208201905092915050565b60006127488261275b565b9050919050565b60008115159050919050565b600073ffffffffffffffffffffffffffffffffffffffff82169050919050565b6000819050919050565b600061279082612797565b9050919050565b60006127a2826127a9565b9050919050565b60006127b48261275b565b9050919050565b60006127c68261277b565b91507fffffffffffffffffffffffffffffffffffffffffffffffffffffffffffffffff8214156127f9576127f8612804565b5b600182019050919050565b7f4e487b7100000000000000000000000000000000000000000000000000000000600052601160045260246000fd5b61283c8161273d565b811461284757600080fd5b50565b6128538161274f565b811461285e57600080fd5b50565b61286a8161277b565b811461287557600080fd5b5056fea2646970667358221220ee2c3d3763f12f8efbabd2e26fbc0d604f872535ee54629c651bd0c0a862f0f264736f6c63430008000033",
  "linkReferences": {},
  "deployedLinkReferences": {}
}