{
  "_format": "hh-sol-artifact-1",
  "contractName": "MonkeyMarketplace",
  "sourceName": "contracts/MonkeyMarketplace.sol",
  "abi": [
    {
      "inputs": [
        {
          "internalType": "address",
          "name": "_constructorMonkeyContractAddress",
          "type": "address"
        }
      ],
      "stateMutability": "nonpayable",
      "type": "constructor"
    },
    {
      "anonymous": false,
      "inputs": [
        {
          "indexed": false,
          "internalType": "string",
          "name": "TxType",
          "type": "string"
        },
        {
          "indexed": false,
          "internalType": "address",
          "name": "owner",
          "type": "address"
        },
        {
          "indexed": false,
          "internalType": "uint256",
          "name": "tokenId",
          "type": "uint256"
        }
      ],
      "name": "MarketTransaction",
      "type": "event"
    },
    {
      "anonymous": false,
      "inputs": [
        {
          "indexed": true,
          "internalType": "address",
          "name": "previousOwner",
          "type": "address"
        },
        {
          "indexed": true,
          "internalType": "address",
          "name": "newOwner",
          "type": "address"
        }
      ],
      "name": "OwnershipTransferred",
      "type": "event"
    },
    {
      "anonymous": false,
      "inputs": [
        {
          "indexed": false,
          "internalType": "address",
          "name": "account",
          "type": "address"
        }
      ],
      "name": "Paused",
      "type": "event"
    },
    {
      "anonymous": false,
      "inputs": [
        {
          "indexed": false,
          "internalType": "address",
          "name": "account",
          "type": "address"
        }
      ],
      "name": "Unpaused",
      "type": "event"
    },
    {
      "anonymous": false,
      "inputs": [
        {
          "indexed": false,
          "internalType": "address",
          "name": "seller",
          "type": "address"
        },
        {
          "indexed": false,
          "internalType": "address",
          "name": "buyer",
          "type": "address"
        },
        {
          "indexed": false,
          "internalType": "uint256",
          "name": "price",
          "type": "uint256"
        },
        {
          "indexed": false,
          "internalType": "uint256",
          "name": "tokenId",
          "type": "uint256"
        }
      ],
      "name": "monkeySold",
      "type": "event"
    },
    {
      "inputs": [
        {
          "internalType": "uint256",
          "name": "_tokenId",
          "type": "uint256"
        }
      ],
      "name": "buyMonkey",
      "outputs": [],
      "stateMutability": "payable",
      "type": "function"
    },
    {
      "inputs": [],
      "name": "getAllTokenOnSale",
      "outputs": [
        {
          "internalType": "uint256[]",
          "name": "listOfTokenIdsOnSale",
          "type": "uint256[]"
        }
      ],
      "stateMutability": "view",
      "type": "function"
    },
    {
      "inputs": [
        {
          "internalType": "uint256",
          "name": "_tokenId",
          "type": "uint256"
        }
      ],
      "name": "getOffer",
      "outputs": [
        {
          "internalType": "address",
          "name": "seller",
          "type": "address"
        },
        {
          "internalType": "uint256",
          "name": "price",
          "type": "uint256"
        },
        {
          "internalType": "uint256",
          "name": "index",
          "type": "uint256"
        },
        {
          "internalType": "uint256",
          "name": "tokenId",
          "type": "uint256"
        },
        {
          "internalType": "bool",
          "name": "active",
          "type": "bool"
        }
      ],
      "stateMutability": "view",
      "type": "function"
    },
    {
      "inputs": [],
      "name": "owner",
      "outputs": [
        {
          "internalType": "address",
          "name": "",
          "type": "address"
        }
      ],
      "stateMutability": "view",
      "type": "function"
    },
    {
      "inputs": [],
      "name": "pause",
      "outputs": [],
      "stateMutability": "nonpayable",
      "type": "function"
    },
    {
      "inputs": [],
      "name": "paused",
      "outputs": [
        {
          "internalType": "bool",
          "name": "",
          "type": "bool"
        }
      ],
      "stateMutability": "view",
      "type": "function"
    },
    {
      "inputs": [
        {
          "internalType": "uint256",
          "name": "_tokenId",
          "type": "uint256"
        }
      ],
      "name": "removeOffer",
      "outputs": [],
      "stateMutability": "nonpayable",
      "type": "function"
    },
    {
      "inputs": [],
      "name": "renounceOwnership",
      "outputs": [],
      "stateMutability": "nonpayable",
      "type": "function"
    },
    {
      "inputs": [],
      "name": "savedMainContractAddress",
      "outputs": [
        {
          "internalType": "address",
          "name": "",
          "type": "address"
        }
      ],
      "stateMutability": "view",
      "type": "function"
    },
    {
      "inputs": [
        {
          "internalType": "uint256",
          "name": "_price",
          "type": "uint256"
        },
        {
          "internalType": "uint256",
          "name": "_tokenId",
          "type": "uint256"
        }
      ],
      "name": "setOffer",
      "outputs": [],
      "stateMutability": "nonpayable",
      "type": "function"
    },
    {
      "inputs": [],
      "name": "showLengthOfOffersArray",
      "outputs": [
        {
          "internalType": "uint256",
          "name": "length",
          "type": "uint256"
        }
      ],
      "stateMutability": "view",
      "type": "function"
    },
    {
      "inputs": [
        {
          "internalType": "uint256",
          "name": "arrayPosition",
          "type": "uint256"
        }
      ],
      "name": "showOfferArrayEntry",
      "outputs": [
        {
          "internalType": "address",
          "name": "seller",
          "type": "address"
        },
        {
          "internalType": "uint256",
          "name": "price",
          "type": "uint256"
        },
        {
          "internalType": "uint256",
          "name": "index",
          "type": "uint256"
        },
        {
          "internalType": "uint256",
          "name": "tokenId",
          "type": "uint256"
        },
        {
          "internalType": "bool",
          "name": "active",
          "type": "bool"
        }
      ],
      "stateMutability": "view",
      "type": "function"
    },
    {
      "inputs": [
        {
          "internalType": "address",
          "name": "newOwner",
          "type": "address"
        }
      ],
      "name": "transferOwnership",
      "outputs": [],
      "stateMutability": "nonpayable",
      "type": "function"
    },
    {
      "inputs": [],
      "name": "unpause",
      "outputs": [],
      "stateMutability": "nonpayable",
      "type": "function"
    }
  ],
  "bytecode": "0x60806040523480156200001157600080fd5b5060405162002bc738038062002bc78339818101604052810190620000379190620002c5565b600062000049620002a660201b60201c565b9050806000806101000a81548173ffffffffffffffffffffffffffffffffffffffff021916908373ffffffffffffffffffffffffffffffffffffffff1602179055508073ffffffffffffffffffffffffffffffffffffffff16600073ffffffffffffffffffffffffffffffffffffffff167f8be0079c531659141344cd1fd0a4f28419497f9722a3daafe3b4186f6b6457e060405160405180910390a350600180819055506000600260006101000a81548160ff02191690831515021790555080600260016101000a81548173ffffffffffffffffffffffffffffffffffffffff021916908373ffffffffffffffffffffffffffffffffffffffff1602179055508073ffffffffffffffffffffffffffffffffffffffff16600260019054906101000a900473ffffffffffffffffffffffffffffffffffffffff1673ffffffffffffffffffffffffffffffffffffffff1663daa97fae6040518163ffffffff1660e01b815260040160206040518083038186803b158015620001ca57600080fd5b505afa158015620001df573d6000803e3d6000fd5b505050506040513d601f19601f82011682018060405250810190620002059190620002c5565b73ffffffffffffffffffffffffffffffffffffffff16146200025e576040517f08c379a0000000000000000000000000000000000000000000000000000000008152600401620002559062000359565b60405180910390fd5b80600360006101000a81548173ffffffffffffffffffffffffffffffffffffffff021916908373ffffffffffffffffffffffffffffffffffffffff16021790555050620003da565b600033905090565b600081519050620002bf81620003c0565b92915050565b600060208284031215620002d857600080fd5b6000620002e884828501620002ae565b91505092915050565b6000620003006036836200037b565b91507f434f4e5354525543544f523a204d6f6e6b657920636f6e74726163742061646460008301527f72657373206d757374206265207468652073616d652e000000000000000000006020830152604082019050919050565b600060208201905081810360008301526200037481620002f1565b9050919050565b600082825260208201905092915050565b60006200039982620003a0565b9050919050565b600073ffffffffffffffffffffffffffffffffffffffff82169050919050565b620003cb816200038c565b8114620003d757600080fd5b50565b6127dd80620003ea6000396000f3fe6080604052600436106100dd5760003560e01c80637d3e0ec21161007f578063941b055b11610059578063941b055b1461027157806395a0f9c71461029a578063dfcaaa95146102c3578063f2fde38b146102ee576100dd565b80637d3e0ec2146102045780638456cb591461022f5780638da5cb5b14610246576100dd565b806349b3709f116100bb57806349b3709f1461017b5780635c975abb146101a6578063615fc0e2146101d1578063715018a6146101ed576100dd565b80633f4ba83a146100e25780633f50b441146100f95780634579268a1461013a575b600080fd5b3480156100ee57600080fd5b506100f7610317565b005b34801561010557600080fd5b50610120600480360381019061011b9190611cb9565b61039d565b604051610131959493929190612343565b60405180910390f35b34801561014657600080fd5b50610161600480360381019061015c9190611cb9565b610534565b604051610172959493929190612343565b60405180910390f35b34801561018757600080fd5b5061019061067d565b60405161019d9190612396565b60405180910390f35b3480156101b257600080fd5b506101bb610936565b6040516101c891906123b8565b60405180910390f35b6101eb60048036038101906101e69190611cb9565b61094d565b005b3480156101f957600080fd5b50610202610d63565b005b34801561021057600080fd5b50610219610e9d565b6040516102269190612283565b60405180910390f35b34801561023b57600080fd5b50610244610ec3565b005b34801561025257600080fd5b5061025b610f49565b6040516102689190612283565b60405180910390f35b34801561027d57600080fd5b5061029860048036038101906102939190611ce2565b610f72565b005b3480156102a657600080fd5b506102c160048036038101906102bc9190611cb9565b6115ab565b005b3480156102cf57600080fd5b506102d8611824565b6040516102e59190612607565b60405180910390f35b3480156102fa57600080fd5b5061031560048036038101906103109190611c3e565b6118ad565b005b61031f611a56565b73ffffffffffffffffffffffffffffffffffffffff1661033d610f49565b73ffffffffffffffffffffffffffffffffffffffff1614610393576040517f08c379a000000000000000000000000000000000000000000000000000000000815260040161038a9061254b565b60405180910390fd5b61039b611a5e565b565b60008060008060006103ad611a56565b73ffffffffffffffffffffffffffffffffffffffff166103cb610f49565b73ffffffffffffffffffffffffffffffffffffffff1614610421576040517f08c379a00000000000000000000000000000000000000000000000000000000081526004016104189061254b565b60405180910390fd5b60006004878154811061045d577f4e487b7100000000000000000000000000000000000000000000000000000000600052603260045260246000fd5b90600052602060002090600502016040518060a00160405290816000820160009054906101000a900473ffffffffffffffffffffffffffffffffffffffff1673ffffffffffffffffffffffffffffffffffffffff1673ffffffffffffffffffffffffffffffffffffffff1681526020016001820154815260200160028201548152602001600382015481526020016004820160009054906101000a900460ff161515151581525050905080600001518160200151826040015183606001518460800151955095509550955095505091939590929450565b60008060008060006005600087815260200190815260200160002060040160009054906101000a900460ff1661059f576040517f08c379a0000000000000000000000000000000000000000000000000000000008152600401610596906125a7565b60405180910390fd5b6000600560008881526020019081526020016000206040518060a00160405290816000820160009054906101000a900473ffffffffffffffffffffffffffffffffffffffff1673ffffffffffffffffffffffffffffffffffffffff1673ffffffffffffffffffffffffffffffffffffffff1681526020016001820154815260200160028201548152602001600382015481526020016004820160009054906101000a900460ff161515151581525050905080600001518160200151826040015183606001518460800151955095509550955095505091939590929450565b6060600080600090505b60048054905081101561071457600481815481106106ce577f4e487b7100000000000000000000000000000000000000000000000000000000600052603260045260246000fd5b906000526020600020906005020160040160009054906101000a900460ff16156107015781806106fd906126ea565b9250505b808061070c906126ea565b915050610687565b50600081141561079657600067ffffffffffffffff81111561075f577f4e487b7100000000000000000000000000000000000000000000000000000000600052604160045260246000fd5b60405190808252806020026020018201604052801561078d5781602001602082028036833780820191505090505b50915050610933565b60008167ffffffffffffffff8111156107d8577f4e487b7100000000000000000000000000000000000000000000000000000000600052604160045260246000fd5b6040519080825280602002602001820160405280156108065781602001602082028036833780820191505090505b5090506000805b60048054905081101561092b5760048181548110610854577f4e487b7100000000000000000000000000000000000000000000000000000000600052603260045260246000fd5b906000526020600020906005020160040160009054906101000a900460ff161561091857600481815481106108b2577f4e487b7100000000000000000000000000000000000000000000000000000000600052603260045260246000fd5b9060005260206000209060050201600301548383815181106108fd577f4e487b7100000000000000000000000000000000000000000000000000000000600052603260045260246000fd5b6020026020010181815250508180610914906126ea565b9250505b8080610923906126ea565b91505061080d565b508193505050505b90565b6000600260009054906101000a900460ff16905090565b60026001541415610993576040517f08c379a000000000000000000000000000000000000000000000000000000000815260040161098a906125e7565b60405180910390fd5b60026001819055506109a3610936565b156109e3576040517f08c379a00000000000000000000000000000000000000000000000000000000081526004016109da90612473565b60405180910390fd5b6000600560008381526020019081526020016000206040518060a00160405290816000820160009054906101000a900473ffffffffffffffffffffffffffffffffffffffff1673ffffffffffffffffffffffffffffffffffffffff1673ffffffffffffffffffffffffffffffffffffffff1681526020016001820154815260200160028201548152602001600382015481526020016004820160009054906101000a900460ff1615151515815250509050600115158160800151151514610adf576040517f08c379a0000000000000000000000000000000000000000000000000000000008152600401610ad690612453565b60405180910390fd5b34816020015114610b25576040517f08c379a0000000000000000000000000000000000000000000000000000000008152600401610b1c90612493565b60405180910390fd5b60008160000151905060006004836040015181548110610b6e577f4e487b7100000000000000000000000000000000000000000000000000000000600052603260045260246000fd5b906000526020600020906005020160040160006101000a81548160ff02191690831515021790555060056000848152602001908152602001600020600080820160006101000a81549073ffffffffffffffffffffffffffffffffffffffff02191690556001820160009055600282016000905560038201600090556004820160006101000a81549060ff02191690555050610c07611ba3565b9150600260019054906101000a900473ffffffffffffffffffffffffffffffffffffffff1673ffffffffffffffffffffffffffffffffffffffff166369e9cae18233866040518463ffffffff1660e01b8152600401610c689392919061229e565b600060405180830381600087803b158015610c8257600080fd5b505af1158015610c96573d6000803e3d6000fd5b505050508073ffffffffffffffffffffffffffffffffffffffff166108fc349081150290604051600060405180830381858888f19350505050158015610ce0573d6000803e3d6000fd5b507fd99e4fad9ad6313b1feb588fa8e605e3a9873172f2024330c35dd2b4041a43863384604051610d1292919061250f565b60405180910390a17f9f1cc9f631ef4adfe7b8fb5180733fe8e804f452ee94cd404396f67e515136a481333486604051610d4f94939291906122d5565b60405180910390a150506001808190555050565b610d6b611a56565b73ffffffffffffffffffffffffffffffffffffffff16610d89610f49565b73ffffffffffffffffffffffffffffffffffffffff1614610ddf576040517f08c379a0000000000000000000000000000000000000000000000000000000008152600401610dd69061254b565b60405180910390fd5b600073ffffffffffffffffffffffffffffffffffffffff1660008054906101000a900473ffffffffffffffffffffffffffffffffffffffff1673ffffffffffffffffffffffffffffffffffffffff167f8be0079c531659141344cd1fd0a4f28419497f9722a3daafe3b4186f6b6457e060405160405180910390a360008060006101000a81548173ffffffffffffffffffffffffffffffffffffffff021916908373ffffffffffffffffffffffffffffffffffffffff160217905550565b600360009054906101000a900473ffffffffffffffffffffffffffffffffffffffff1681565b610ecb611a56565b73ffffffffffffffffffffffffffffffffffffffff16610ee9610f49565b73ffffffffffffffffffffffffffffffffffffffff1614610f3f576040517f08c379a0000000000000000000000000000000000000000000000000000000008152600401610f369061254b565b60405180910390fd5b610f47611b00565b565b60008060009054906101000a900473ffffffffffffffffffffffffffffffffffffffff16905090565b610f7a610936565b15610fba576040517f08c379a0000000000000000000000000000000000000000000000000000000008152600401610fb190612473565b60405180910390fd5b3373ffffffffffffffffffffffffffffffffffffffff16600260019054906101000a900473ffffffffffffffffffffffffffffffffffffffff1673ffffffffffffffffffffffffffffffffffffffff16636352211e836040518263ffffffff1660e01b815260040161102c9190612607565b60206040518083038186803b15801561104457600080fd5b505afa158015611058573d6000803e3d6000fd5b505050506040513d601f19601f8201168201806040525081019061107c9190611c67565b73ffffffffffffffffffffffffffffffffffffffff16146110d2576040517f08c379a00000000000000000000000000000000000000000000000000000000081526004016110c990612413565b60405180910390fd5b600260019054906101000a900473ffffffffffffffffffffffffffffffffffffffff1673ffffffffffffffffffffffffffffffffffffffff1663e985e9c533306040518363ffffffff1660e01b815260040161112f92919061231a565b60206040518083038186803b15801561114757600080fd5b505afa15801561115b573d6000803e3d6000fd5b505050506040513d601f19601f8201168201806040525081019061117f9190611c90565b6111be576040517f08c379a00000000000000000000000000000000000000000000000000000000081526004016111b5906123f3565b60405180910390fd5b64e8d4a51000821015611206576040517f08c379a00000000000000000000000000000000000000000000000000000000081526004016111fd906124ef565b60405180910390fd5b6000600560008381526020019081526020016000206040518060a00160405290816000820160009054906101000a900473ffffffffffffffffffffffffffffffffffffffff1673ffffffffffffffffffffffffffffffffffffffff1673ffffffffffffffffffffffffffffffffffffffff1681526020016001820154815260200160028201548152602001600382015481526020016004820160009054906101000a900460ff1615151515815250509050600115158160800151151514156113d4576004816040015181548110611306577f4e487b7100000000000000000000000000000000000000000000000000000000600052603260045260246000fd5b9060005260206000209060050201600080820160006101000a81549073ffffffffffffffffffffffffffffffffffffffff02191690556001820160009055600282016000905560038201600090556004820160006101000a81549060ff0219169055505060056000838152602001908152602001600020600080820160006101000a81549073ffffffffffffffffffffffffffffffffffffffff02191690556001820160009055600282016000905560038201600090556004820160006101000a81549060ff021916905550505b60006040518060a001604052803373ffffffffffffffffffffffffffffffffffffffff1681526020018581526020016004805490508152602001848152602001600115158152509050806005600085815260200190815260200160002060008201518160000160006101000a81548173ffffffffffffffffffffffffffffffffffffffff021916908373ffffffffffffffffffffffffffffffffffffffff16021790555060208201518160010155604082015181600201556060820151816003015560808201518160040160006101000a81548160ff021916908315150217905550905050600481908060018154018082558091505060019003906000526020600020906005020160009091909190915060008201518160000160006101000a81548173ffffffffffffffffffffffffffffffffffffffff021916908373ffffffffffffffffffffffffffffffffffffffff16021790555060208201518160010155604082015181600201556060820151816003015560808201518160040160006101000a81548160ff02191690831515021790555050507fd99e4fad9ad6313b1feb588fa8e605e3a9873172f2024330c35dd2b4041a4386338460405161159d9291906124b3565b60405180910390a150505050565b6115b3610936565b156115f3576040517f08c379a00000000000000000000000000000000000000000000000000000000081526004016115ea90612473565b60405180910390fd5b6000600560008381526020019081526020016000206040518060a00160405290816000820160009054906101000a900473ffffffffffffffffffffffffffffffffffffffff1673ffffffffffffffffffffffffffffffffffffffff1673ffffffffffffffffffffffffffffffffffffffff1681526020016001820154815260200160028201548152602001600382015481526020016004820160009054906101000a900460ff16151515158152505090503373ffffffffffffffffffffffffffffffffffffffff16816000015173ffffffffffffffffffffffffffffffffffffffff1614611716576040517f08c379a000000000000000000000000000000000000000000000000000000000815260040161170d906125c7565b60405180910390fd5b60006004826040015181548110611756577f4e487b7100000000000000000000000000000000000000000000000000000000600052603260045260246000fd5b906000526020600020906005020160040160006101000a81548160ff02191690831515021790555060056000838152602001908152602001600020600080820160006101000a81549073ffffffffffffffffffffffffffffffffffffffff02191690556001820160009055600282016000905560038201600090556004820160006101000a81549060ff021916905550507fd99e4fad9ad6313b1feb588fa8e605e3a9873172f2024330c35dd2b4041a4386338360405161181892919061256b565b60405180910390a15050565b600061182e611a56565b73ffffffffffffffffffffffffffffffffffffffff1661184c610f49565b73ffffffffffffffffffffffffffffffffffffffff16146118a2576040517f08c379a00000000000000000000000000000000000000000000000000000000081526004016118999061254b565b60405180910390fd5b600480549050905090565b6118b5611a56565b73ffffffffffffffffffffffffffffffffffffffff166118d3610f49565b73ffffffffffffffffffffffffffffffffffffffff1614611929576040517f08c379a00000000000000000000000000000000000000000000000000000000081526004016119209061254b565b60405180910390fd5b600073ffffffffffffffffffffffffffffffffffffffff168173ffffffffffffffffffffffffffffffffffffffff161415611999576040517f08c379a000000000000000000000000000000000000000000000000000000000815260040161199090612433565b60405180910390fd5b8073ffffffffffffffffffffffffffffffffffffffff1660008054906101000a900473ffffffffffffffffffffffffffffffffffffffff1673ffffffffffffffffffffffffffffffffffffffff167f8be0079c531659141344cd1fd0a4f28419497f9722a3daafe3b4186f6b6457e060405160405180910390a3806000806101000a81548173ffffffffffffffffffffffffffffffffffffffff021916908373ffffffffffffffffffffffffffffffffffffffff16021790555050565b600033905090565b611a66610936565b611aa5576040517f08c379a0000000000000000000000000000000000000000000000000000000008152600401611a9c906123d3565b60405180910390fd5b6000600260006101000a81548160ff0219169083151502179055507f5db9ee0a495bf2e6ff9c91a7834c1ba4fdd244a5e8aa4e537bd38aeae4b073aa611ae9611a56565b604051611af69190612283565b60405180910390a1565b611b08610936565b15611b48576040517f08c379a0000000000000000000000000000000000000000000000000000000008152600401611b3f90612473565b60405180910390fd5b6001600260006101000a81548160ff0219169083151502179055507f62e78cea01bee320cd4e420270b5ea74000d11b0c9f74754ebdbfc544b05a258611b8c611a56565b604051611b999190612283565b60405180910390a1565b6040518060a00160405280600073ffffffffffffffffffffffffffffffffffffffff1681526020016000815260200160008152602001600081526020016000151581525090565b600081359050611bf981612762565b92915050565b600081519050611c0e81612762565b92915050565b600081519050611c2381612779565b92915050565b600081359050611c3881612790565b92915050565b600060208284031215611c5057600080fd5b6000611c5e84828501611bea565b91505092915050565b600060208284031215611c7957600080fd5b6000611c8784828501611bff565b91505092915050565b600060208284031215611ca257600080fd5b6000611cb084828501611c14565b91505092915050565b600060208284031215611ccb57600080fd5b6000611cd984828501611c29565b91505092915050565b60008060408385031215611cf557600080fd5b6000611d0385828601611c29565b9250506020611d1485828601611c29565b9150509250929050565b6000611d2a8383612265565b60208301905092915050565b611d3f816126b4565b82525050565b611d4e8161266c565b82525050565b6000611d5f82612632565b611d69818561264a565b9350611d7483612622565b8060005b83811015611da5578151611d8c8882611d1e565b9750611d978361263d565b925050600181019050611d78565b5085935050505092915050565b611dbb8161267e565b82525050565b6000611dce60148361265b565b91507f5061757361626c653a206e6f74207061757365640000000000000000000000006000830152602082019050919050565b6000611e0e603c8361265b565b91507f4d61726b6574706c6163652061646472657373206e65656473206f706572617460008301527f6f72207374617475732066726f6d206d6f6e6b6579206f776e65722e000000006020830152604082019050919050565b6000611e7460308361265b565b91507f4f6e6c79206d6f6e6b6579206f776e65722063616e20736574206f666665722060008301527f666f72207468697320746f6b656e4964000000000000000000000000000000006020830152604082019050919050565b6000611eda60268361265b565b91507f4f776e61626c653a206e6577206f776e657220697320746865207a65726f206160008301527f64647265737300000000000000000000000000000000000000000000000000006020830152604082019050919050565b6000611f40601f8361265b565b91507f4e6f20616374697665206f6666657220666f722074686973206d6f6e6b6579006000830152602082019050919050565b6000611f8060108361265b565b91507f5061757361626c653a20706175736564000000000000000000000000000000006000830152602082019050919050565b6000611fc0601e8361265b565b91507f4e6f742073656e64696e672074686520636f727265637420616d6f756e7400006000830152602082019050919050565b6000612000600c8361265b565b91507f437265617465206f6666657200000000000000000000000000000000000000006000830152602082019050919050565b600061204060428361265b565b91507f6f66666572207072696365206d757374206265206174206c656173742031303060008301527f30303030303030303030205745492c20692e652e20302e30303030303120455460208301527f48200000000000000000000000000000000000000000000000000000000000006040830152606082019050919050565b60006120cc60038361265b565b91507f42757900000000000000000000000000000000000000000000000000000000006000830152602082019050919050565b600061210c60208361265b565b91507f4f776e61626c653a2063616c6c6572206973206e6f7420746865206f776e65726000830152602082019050919050565b600061214c600c8361265b565b91507f52656d6f7665206f6666657200000000000000000000000000000000000000006000830152602082019050919050565b600061218c60218361265b565b91507f4e6f20616374697665206f6666657220666f72207468697320746f6b656e496460008301527f2e000000000000000000000000000000000000000000000000000000000000006020830152604082019050919050565b60006121f260148361265b565b91507f596f75277265206e6f7420746865206f776e65720000000000000000000000006000830152602082019050919050565b6000612232601f8361265b565b91507f5265656e7472616e637947756172643a207265656e7472616e742063616c6c006000830152602082019050919050565b61226e816126aa565b82525050565b61227d816126aa565b82525050565b60006020820190506122986000830184611d45565b92915050565b60006060820190506122b36000830186611d36565b6122c06020830185611d45565b6122cd6040830184612274565b949350505050565b60006080820190506122ea6000830187611d36565b6122f76020830186611d45565b6123046040830185612274565b6123116060830184612274565b95945050505050565b600060408201905061232f6000830185611d45565b61233c6020830184611d45565b9392505050565b600060a0820190506123586000830188611d45565b6123656020830187612274565b6123726040830186612274565b61237f6060830185612274565b61238c6080830184611db2565b9695505050505050565b600060208201905081810360008301526123b08184611d54565b905092915050565b60006020820190506123cd6000830184611db2565b92915050565b600060208201905081810360008301526123ec81611dc1565b9050919050565b6000602082019050818103600083015261240c81611e01565b9050919050565b6000602082019050818103600083015261242c81611e67565b9050919050565b6000602082019050818103600083015261244c81611ecd565b9050919050565b6000602082019050818103600083015261246c81611f33565b9050919050565b6000602082019050818103600083015261248c81611f73565b9050919050565b600060208201905081810360008301526124ac81611fb3565b9050919050565b600060608201905081810360008301526124cc81611ff3565b90506124db6020830185611d45565b6124e86040830184612274565b9392505050565b6000602082019050818103600083015261250881612033565b9050919050565b60006060820190508181036000830152612528816120bf565b90506125376020830185611d45565b6125446040830184612274565b9392505050565b60006020820190508181036000830152612564816120ff565b9050919050565b600060608201905081810360008301526125848161213f565b90506125936020830185611d45565b6125a06040830184612274565b9392505050565b600060208201905081810360008301526125c08161217f565b9050919050565b600060208201905081810360008301526125e0816121e5565b9050919050565b6000602082019050818103600083015261260081612225565b9050919050565b600060208201905061261c6000830184612274565b92915050565b6000819050602082019050919050565b600081519050919050565b6000602082019050919050565b600082825260208201905092915050565b600082825260208201905092915050565b60006126778261268a565b9050919050565b60008115159050919050565b600073ffffffffffffffffffffffffffffffffffffffff82169050919050565b6000819050919050565b60006126bf826126c6565b9050919050565b60006126d1826126d8565b9050919050565b60006126e38261268a565b9050919050565b60006126f5826126aa565b91507fffffffffffffffffffffffffffffffffffffffffffffffffffffffffffffffff82141561272857612727612733565b5b600182019050919050565b7f4e487b7100000000000000000000000000000000000000000000000000000000600052601160045260246000fd5b61276b8161266c565b811461277657600080fd5b50565b6127828161267e565b811461278d57600080fd5b50565b612799816126aa565b81146127a457600080fd5b5056fea26469706673582212204d08f74dba443e46371cd6e0a5d618e7b65f25afdeef7fe7e810441c6ccca5d564736f6c63430008000033",
  "linkReferences": {},
  "deployedLinkReferences": {}
}