{
  "_format": "hh-sol-artifact-1",
  "contractName": "MonkeyMarketplace",
  "sourceName": "contracts/MonkeyMarketplace.sol",
  "abi": [
    {
      "inputs": [
        {
          "internalType": "address",
          "name": "_constructorMonkeyContractAddress",
          "type": "address"
        }
      ],
      "stateMutability": "nonpayable",
      "type": "constructor"
    },
    {
      "anonymous": false,
      "inputs": [
        {
          "indexed": false,
          "internalType": "string",
          "name": "TxType",
          "type": "string"
        },
        {
          "indexed": false,
          "internalType": "address",
          "name": "owner",
          "type": "address"
        },
        {
          "indexed": false,
          "internalType": "uint256",
          "name": "tokenId",
          "type": "uint256"
        }
      ],
      "name": "MarketTransaction",
      "type": "event"
    },
    {
      "anonymous": false,
      "inputs": [
        {
          "indexed": true,
          "internalType": "address",
          "name": "previousOwner",
          "type": "address"
        },
        {
          "indexed": true,
          "internalType": "address",
          "name": "newOwner",
          "type": "address"
        }
      ],
      "name": "OwnershipTransferred",
      "type": "event"
    },
    {
      "anonymous": false,
      "inputs": [
        {
          "indexed": false,
          "internalType": "address",
          "name": "account",
          "type": "address"
        }
      ],
      "name": "Paused",
      "type": "event"
    },
    {
      "anonymous": false,
      "inputs": [
        {
          "indexed": false,
          "internalType": "address",
          "name": "account",
          "type": "address"
        }
      ],
      "name": "Unpaused",
      "type": "event"
    },
    {
      "anonymous": false,
      "inputs": [
        {
          "indexed": false,
          "internalType": "address",
          "name": "seller",
          "type": "address"
        },
        {
          "indexed": false,
          "internalType": "address",
          "name": "buyer",
          "type": "address"
        },
        {
          "indexed": false,
          "internalType": "uint256",
          "name": "price",
          "type": "uint256"
        },
        {
          "indexed": false,
          "internalType": "uint256",
          "name": "tokenId",
          "type": "uint256"
        }
      ],
      "name": "monkeySold",
      "type": "event"
    },
    {
      "inputs": [
        {
          "internalType": "uint256",
          "name": "_tokenId",
          "type": "uint256"
        }
      ],
      "name": "buyMonkey",
      "outputs": [],
      "stateMutability": "payable",
      "type": "function"
    },
    {
      "inputs": [],
      "name": "getAllTokenOnSale",
      "outputs": [
        {
          "internalType": "uint256[]",
          "name": "listOfTokenIdsOnSale",
          "type": "uint256[]"
        }
      ],
      "stateMutability": "view",
      "type": "function"
    },
    {
      "inputs": [
        {
          "internalType": "uint256",
          "name": "_tokenId",
          "type": "uint256"
        }
      ],
      "name": "getOffer",
      "outputs": [
        {
          "internalType": "address",
          "name": "seller",
          "type": "address"
        },
        {
          "internalType": "uint256",
          "name": "price",
          "type": "uint256"
        },
        {
          "internalType": "uint256",
          "name": "index",
          "type": "uint256"
        },
        {
          "internalType": "uint256",
          "name": "tokenId",
          "type": "uint256"
        },
        {
          "internalType": "bool",
          "name": "active",
          "type": "bool"
        }
      ],
      "stateMutability": "view",
      "type": "function"
    },
    {
      "inputs": [],
      "name": "owner",
      "outputs": [
        {
          "internalType": "address",
          "name": "",
          "type": "address"
        }
      ],
      "stateMutability": "view",
      "type": "function"
    },
    {
      "inputs": [],
      "name": "pause",
      "outputs": [],
      "stateMutability": "nonpayable",
      "type": "function"
    },
    {
      "inputs": [],
      "name": "paused",
      "outputs": [
        {
          "internalType": "bool",
          "name": "",
          "type": "bool"
        }
      ],
      "stateMutability": "view",
      "type": "function"
    },
    {
      "inputs": [
        {
          "internalType": "uint256",
          "name": "_tokenId",
          "type": "uint256"
        }
      ],
      "name": "removeOffer",
      "outputs": [],
      "stateMutability": "nonpayable",
      "type": "function"
    },
    {
      "inputs": [],
      "name": "renounceOwnership",
      "outputs": [],
      "stateMutability": "nonpayable",
      "type": "function"
    },
    {
      "inputs": [],
      "name": "savedMainContractAddress",
      "outputs": [
        {
          "internalType": "address",
          "name": "",
          "type": "address"
        }
      ],
      "stateMutability": "view",
      "type": "function"
    },
    {
      "inputs": [],
      "name": "savedMarketContractAddress",
      "outputs": [
        {
          "internalType": "address",
          "name": "",
          "type": "address"
        }
      ],
      "stateMutability": "view",
      "type": "function"
    },
    {
      "inputs": [
        {
          "internalType": "uint256",
          "name": "_price",
          "type": "uint256"
        },
        {
          "internalType": "uint256",
          "name": "_tokenId",
          "type": "uint256"
        }
      ],
      "name": "setOffer",
      "outputs": [],
      "stateMutability": "nonpayable",
      "type": "function"
    },
    {
      "inputs": [],
      "name": "showLengthOfOffersArray",
      "outputs": [
        {
          "internalType": "uint256",
          "name": "length",
          "type": "uint256"
        }
      ],
      "stateMutability": "view",
      "type": "function"
    },
    {
      "inputs": [
        {
          "internalType": "uint256",
          "name": "arrayPosition",
          "type": "uint256"
        }
      ],
      "name": "showOfferArrayEntry",
      "outputs": [
        {
          "internalType": "address",
          "name": "seller",
          "type": "address"
        },
        {
          "internalType": "uint256",
          "name": "price",
          "type": "uint256"
        },
        {
          "internalType": "uint256",
          "name": "index",
          "type": "uint256"
        },
        {
          "internalType": "uint256",
          "name": "tokenId",
          "type": "uint256"
        },
        {
          "internalType": "bool",
          "name": "active",
          "type": "bool"
        }
      ],
      "stateMutability": "view",
      "type": "function"
    },
    {
      "inputs": [
        {
          "internalType": "address",
          "name": "newOwner",
          "type": "address"
        }
      ],
      "name": "transferOwnership",
      "outputs": [],
      "stateMutability": "nonpayable",
      "type": "function"
    },
    {
      "inputs": [],
      "name": "unpause",
      "outputs": [],
      "stateMutability": "nonpayable",
      "type": "function"
    }
  ],
  "bytecode": "0x60806040523480156200001157600080fd5b5060405162002d1238038062002d12833981810160405281019062000037919062000359565b6000620000496200033a60201b60201c565b9050806000806101000a81548173ffffffffffffffffffffffffffffffffffffffff021916908373ffffffffffffffffffffffffffffffffffffffff1602179055508073ffffffffffffffffffffffffffffffffffffffff16600073ffffffffffffffffffffffffffffffffffffffff167f8be0079c531659141344cd1fd0a4f28419497f9722a3daafe3b4186f6b6457e060405160405180910390a350600180819055506000600260006101000a81548160ff02191690831515021790555080600260016101000a81548173ffffffffffffffffffffffffffffffffffffffff021916908373ffffffffffffffffffffffffffffffffffffffff1602179055508073ffffffffffffffffffffffffffffffffffffffff16600260019054906101000a900473ffffffffffffffffffffffffffffffffffffffff1673ffffffffffffffffffffffffffffffffffffffff1663daa97fae6040518163ffffffff1660e01b815260040160206040518083038186803b158015620001ca57600080fd5b505afa158015620001df573d6000803e3d6000fd5b505050506040513d601f19601f8201168201806040525081019062000205919062000359565b73ffffffffffffffffffffffffffffffffffffffff16146200025e576040517f08c379a000000000000000000000000000000000000000000000000000000000815260040162000255906200043c565b60405180910390fd5b80600360006101000a81548173ffffffffffffffffffffffffffffffffffffffff021916908373ffffffffffffffffffffffffffffffffffffffff160217905550600260019054906101000a900473ffffffffffffffffffffffffffffffffffffffff1673ffffffffffffffffffffffffffffffffffffffff16638aac2f333060016040518363ffffffff1660e01b8152600401620002ff9291906200040f565b600060405180830381600087803b1580156200031a57600080fd5b505af11580156200032f573d6000803e3d6000fd5b5050505050620004c9565b600033905090565b6000815190506200035381620004af565b92915050565b6000602082840312156200036c57600080fd5b60006200037c8482850162000342565b91505092915050565b62000390816200046f565b82525050565b620003a18162000483565b82525050565b6000620003b66036836200045e565b91507f434f4e5354525543544f523a204d6f6e6b657920636f6e74726163742061646460008301527f72657373206d757374206265207468652073616d652e000000000000000000006020830152604082019050919050565b600060408201905062000426600083018562000385565b62000435602083018462000396565b9392505050565b600060208201905081810360008301526200045781620003a7565b9050919050565b600082825260208201905092915050565b60006200047c826200048f565b9050919050565b60008115159050919050565b600073ffffffffffffffffffffffffffffffffffffffff82169050919050565b620004ba816200046f565b8114620004c657600080fd5b50565b61283980620004d96000396000f3fe6080604052600436106100e85760003560e01c80637d3e0ec21161008a57806395a0f9c71161005957806395a0f9c7146102a5578063d10186ee146102ce578063dfcaaa95146102f9578063f2fde38b14610324576100e8565b80637d3e0ec21461020f5780638456cb591461023a5780638da5cb5b14610251578063941b055b1461027c576100e8565b806349b3709f116100c657806349b3709f146101865780635c975abb146101b1578063615fc0e2146101dc578063715018a6146101f8576100e8565b80633f4ba83a146100ed5780633f50b441146101045780634579268a14610145575b600080fd5b3480156100f957600080fd5b5061010261034d565b005b34801561011057600080fd5b5061012b60048036038101906101269190611d15565b6103d3565b60405161013c95949392919061239f565b60405180910390f35b34801561015157600080fd5b5061016c60048036038101906101679190611d15565b61056a565b60405161017d95949392919061239f565b60405180910390f35b34801561019257600080fd5b5061019b6106b3565b6040516101a891906123f2565b60405180910390f35b3480156101bd57600080fd5b506101c661096c565b6040516101d39190612414565b60405180910390f35b6101f660048036038101906101f19190611d15565b610983565b005b34801561020457600080fd5b5061020d610d99565b005b34801561021b57600080fd5b50610224610ed3565b60405161023191906122df565b60405180910390f35b34801561024657600080fd5b5061024f610ef9565b005b34801561025d57600080fd5b50610266610f7f565b60405161027391906122df565b60405180910390f35b34801561028857600080fd5b506102a3600480360381019061029e9190611d3e565b610fa8565b005b3480156102b157600080fd5b506102cc60048036038101906102c79190611d15565b6115e1565b005b3480156102da57600080fd5b506102e361185a565b6040516102f091906122df565b60405180910390f35b34801561030557600080fd5b5061030e611880565b60405161031b9190612663565b60405180910390f35b34801561033057600080fd5b5061034b60048036038101906103469190611c9a565b611909565b005b610355611ab2565b73ffffffffffffffffffffffffffffffffffffffff16610373610f7f565b73ffffffffffffffffffffffffffffffffffffffff16146103c9576040517f08c379a00000000000000000000000000000000000000000000000000000000081526004016103c0906125a7565b60405180910390fd5b6103d1611aba565b565b60008060008060006103e3611ab2565b73ffffffffffffffffffffffffffffffffffffffff16610401610f7f565b73ffffffffffffffffffffffffffffffffffffffff1614610457576040517f08c379a000000000000000000000000000000000000000000000000000000000815260040161044e906125a7565b60405180910390fd5b600060058781548110610493577f4e487b7100000000000000000000000000000000000000000000000000000000600052603260045260246000fd5b90600052602060002090600502016040518060a00160405290816000820160009054906101000a900473ffffffffffffffffffffffffffffffffffffffff1673ffffffffffffffffffffffffffffffffffffffff1673ffffffffffffffffffffffffffffffffffffffff1681526020016001820154815260200160028201548152602001600382015481526020016004820160009054906101000a900460ff161515151581525050905080600001518160200151826040015183606001518460800151955095509550955095505091939590929450565b60008060008060006006600087815260200190815260200160002060040160009054906101000a900460ff166105d5576040517f08c379a00000000000000000000000000000000000000000000000000000000081526004016105cc90612603565b60405180910390fd5b6000600660008881526020019081526020016000206040518060a00160405290816000820160009054906101000a900473ffffffffffffffffffffffffffffffffffffffff1673ffffffffffffffffffffffffffffffffffffffff1673ffffffffffffffffffffffffffffffffffffffff1681526020016001820154815260200160028201548152602001600382015481526020016004820160009054906101000a900460ff161515151581525050905080600001518160200151826040015183606001518460800151955095509550955095505091939590929450565b6060600080600090505b60058054905081101561074a5760058181548110610704577f4e487b7100000000000000000000000000000000000000000000000000000000600052603260045260246000fd5b906000526020600020906005020160040160009054906101000a900460ff161561073757818061073390612746565b9250505b808061074290612746565b9150506106bd565b5060008114156107cc57600067ffffffffffffffff811115610795577f4e487b7100000000000000000000000000000000000000000000000000000000600052604160045260246000fd5b6040519080825280602002602001820160405280156107c35781602001602082028036833780820191505090505b50915050610969565b60008167ffffffffffffffff81111561080e577f4e487b7100000000000000000000000000000000000000000000000000000000600052604160045260246000fd5b60405190808252806020026020018201604052801561083c5781602001602082028036833780820191505090505b5090506000805b600580549050811015610961576005818154811061088a577f4e487b7100000000000000000000000000000000000000000000000000000000600052603260045260246000fd5b906000526020600020906005020160040160009054906101000a900460ff161561094e57600581815481106108e8577f4e487b7100000000000000000000000000000000000000000000000000000000600052603260045260246000fd5b906000526020600020906005020160030154838381518110610933577f4e487b7100000000000000000000000000000000000000000000000000000000600052603260045260246000fd5b602002602001018181525050818061094a90612746565b9250505b808061095990612746565b915050610843565b508193505050505b90565b6000600260009054906101000a900460ff16905090565b600260015414156109c9576040517f08c379a00000000000000000000000000000000000000000000000000000000081526004016109c090612643565b60405180910390fd5b60026001819055506109d961096c565b15610a19576040517f08c379a0000000000000000000000000000000000000000000000000000000008152600401610a10906124cf565b60405180910390fd5b6000600660008381526020019081526020016000206040518060a00160405290816000820160009054906101000a900473ffffffffffffffffffffffffffffffffffffffff1673ffffffffffffffffffffffffffffffffffffffff1673ffffffffffffffffffffffffffffffffffffffff1681526020016001820154815260200160028201548152602001600382015481526020016004820160009054906101000a900460ff1615151515815250509050600115158160800151151514610b15576040517f08c379a0000000000000000000000000000000000000000000000000000000008152600401610b0c906124af565b60405180910390fd5b34816020015114610b5b576040517f08c379a0000000000000000000000000000000000000000000000000000000008152600401610b52906124ef565b60405180910390fd5b60008160000151905060006005836040015181548110610ba4577f4e487b7100000000000000000000000000000000000000000000000000000000600052603260045260246000fd5b906000526020600020906005020160040160006101000a81548160ff02191690831515021790555060066000848152602001908152602001600020600080820160006101000a81549073ffffffffffffffffffffffffffffffffffffffff02191690556001820160009055600282016000905560038201600090556004820160006101000a81549060ff02191690555050610c3d611bff565b9150600260019054906101000a900473ffffffffffffffffffffffffffffffffffffffff1673ffffffffffffffffffffffffffffffffffffffff166369e9cae18233866040518463ffffffff1660e01b8152600401610c9e939291906122fa565b600060405180830381600087803b158015610cb857600080fd5b505af1158015610ccc573d6000803e3d6000fd5b505050508073ffffffffffffffffffffffffffffffffffffffff166108fc349081150290604051600060405180830381858888f19350505050158015610d16573d6000803e3d6000fd5b507fd99e4fad9ad6313b1feb588fa8e605e3a9873172f2024330c35dd2b4041a43863384604051610d4892919061256b565b60405180910390a17f9f1cc9f631ef4adfe7b8fb5180733fe8e804f452ee94cd404396f67e515136a481333486604051610d859493929190612331565b60405180910390a150506001808190555050565b610da1611ab2565b73ffffffffffffffffffffffffffffffffffffffff16610dbf610f7f565b73ffffffffffffffffffffffffffffffffffffffff1614610e15576040517f08c379a0000000000000000000000000000000000000000000000000000000008152600401610e0c906125a7565b60405180910390fd5b600073ffffffffffffffffffffffffffffffffffffffff1660008054906101000a900473ffffffffffffffffffffffffffffffffffffffff1673ffffffffffffffffffffffffffffffffffffffff167f8be0079c531659141344cd1fd0a4f28419497f9722a3daafe3b4186f6b6457e060405160405180910390a360008060006101000a81548173ffffffffffffffffffffffffffffffffffffffff021916908373ffffffffffffffffffffffffffffffffffffffff160217905550565b600360009054906101000a900473ffffffffffffffffffffffffffffffffffffffff1681565b610f01611ab2565b73ffffffffffffffffffffffffffffffffffffffff16610f1f610f7f565b73ffffffffffffffffffffffffffffffffffffffff1614610f75576040517f08c379a0000000000000000000000000000000000000000000000000000000008152600401610f6c906125a7565b60405180910390fd5b610f7d611b5c565b565b60008060009054906101000a900473ffffffffffffffffffffffffffffffffffffffff16905090565b610fb061096c565b15610ff0576040517f08c379a0000000000000000000000000000000000000000000000000000000008152600401610fe7906124cf565b60405180910390fd5b3373ffffffffffffffffffffffffffffffffffffffff16600260019054906101000a900473ffffffffffffffffffffffffffffffffffffffff1673ffffffffffffffffffffffffffffffffffffffff16636352211e836040518263ffffffff1660e01b81526004016110629190612663565b60206040518083038186803b15801561107a57600080fd5b505afa15801561108e573d6000803e3d6000fd5b505050506040513d601f19601f820116820180604052508101906110b29190611cc3565b73ffffffffffffffffffffffffffffffffffffffff1614611108576040517f08c379a00000000000000000000000000000000000000000000000000000000081526004016110ff9061246f565b60405180910390fd5b600260019054906101000a900473ffffffffffffffffffffffffffffffffffffffff1673ffffffffffffffffffffffffffffffffffffffff1663e985e9c533306040518363ffffffff1660e01b8152600401611165929190612376565b60206040518083038186803b15801561117d57600080fd5b505afa158015611191573d6000803e3d6000fd5b505050506040513d601f19601f820116820180604052508101906111b59190611cec565b6111f4576040517f08c379a00000000000000000000000000000000000000000000000000000000081526004016111eb9061244f565b60405180910390fd5b64e8d4a5100082101561123c576040517f08c379a00000000000000000000000000000000000000000000000000000000081526004016112339061254b565b60405180910390fd5b6000600660008381526020019081526020016000206040518060a00160405290816000820160009054906101000a900473ffffffffffffffffffffffffffffffffffffffff1673ffffffffffffffffffffffffffffffffffffffff1673ffffffffffffffffffffffffffffffffffffffff1681526020016001820154815260200160028201548152602001600382015481526020016004820160009054906101000a900460ff16151515158152505090506001151581608001511515141561140a57600581604001518154811061133c577f4e487b7100000000000000000000000000000000000000000000000000000000600052603260045260246000fd5b9060005260206000209060050201600080820160006101000a81549073ffffffffffffffffffffffffffffffffffffffff02191690556001820160009055600282016000905560038201600090556004820160006101000a81549060ff0219169055505060066000838152602001908152602001600020600080820160006101000a81549073ffffffffffffffffffffffffffffffffffffffff02191690556001820160009055600282016000905560038201600090556004820160006101000a81549060ff021916905550505b60006040518060a001604052803373ffffffffffffffffffffffffffffffffffffffff1681526020018581526020016005805490508152602001848152602001600115158152509050806006600085815260200190815260200160002060008201518160000160006101000a81548173ffffffffffffffffffffffffffffffffffffffff021916908373ffffffffffffffffffffffffffffffffffffffff16021790555060208201518160010155604082015181600201556060820151816003015560808201518160040160006101000a81548160ff021916908315150217905550905050600581908060018154018082558091505060019003906000526020600020906005020160009091909190915060008201518160000160006101000a81548173ffffffffffffffffffffffffffffffffffffffff021916908373ffffffffffffffffffffffffffffffffffffffff16021790555060208201518160010155604082015181600201556060820151816003015560808201518160040160006101000a81548160ff02191690831515021790555050507fd99e4fad9ad6313b1feb588fa8e605e3a9873172f2024330c35dd2b4041a438633846040516115d392919061250f565b60405180910390a150505050565b6115e961096c565b15611629576040517f08c379a0000000000000000000000000000000000000000000000000000000008152600401611620906124cf565b60405180910390fd5b6000600660008381526020019081526020016000206040518060a00160405290816000820160009054906101000a900473ffffffffffffffffffffffffffffffffffffffff1673ffffffffffffffffffffffffffffffffffffffff1673ffffffffffffffffffffffffffffffffffffffff1681526020016001820154815260200160028201548152602001600382015481526020016004820160009054906101000a900460ff16151515158152505090503373ffffffffffffffffffffffffffffffffffffffff16816000015173ffffffffffffffffffffffffffffffffffffffff161461174c576040517f08c379a000000000000000000000000000000000000000000000000000000000815260040161174390612623565b60405180910390fd5b6000600582604001518154811061178c577f4e487b7100000000000000000000000000000000000000000000000000000000600052603260045260246000fd5b906000526020600020906005020160040160006101000a81548160ff02191690831515021790555060066000838152602001908152602001600020600080820160006101000a81549073ffffffffffffffffffffffffffffffffffffffff02191690556001820160009055600282016000905560038201600090556004820160006101000a81549060ff021916905550507fd99e4fad9ad6313b1feb588fa8e605e3a9873172f2024330c35dd2b4041a4386338360405161184e9291906125c7565b60405180910390a15050565b600460009054906101000a900473ffffffffffffffffffffffffffffffffffffffff1681565b600061188a611ab2565b73ffffffffffffffffffffffffffffffffffffffff166118a8610f7f565b73ffffffffffffffffffffffffffffffffffffffff16146118fe576040517f08c379a00000000000000000000000000000000000000000000000000000000081526004016118f5906125a7565b60405180910390fd5b600580549050905090565b611911611ab2565b73ffffffffffffffffffffffffffffffffffffffff1661192f610f7f565b73ffffffffffffffffffffffffffffffffffffffff1614611985576040517f08c379a000000000000000000000000000000000000000000000000000000000815260040161197c906125a7565b60405180910390fd5b600073ffffffffffffffffffffffffffffffffffffffff168173ffffffffffffffffffffffffffffffffffffffff1614156119f5576040517f08c379a00000000000000000000000000000000000000000000000000000000081526004016119ec9061248f565b60405180910390fd5b8073ffffffffffffffffffffffffffffffffffffffff1660008054906101000a900473ffffffffffffffffffffffffffffffffffffffff1673ffffffffffffffffffffffffffffffffffffffff167f8be0079c531659141344cd1fd0a4f28419497f9722a3daafe3b4186f6b6457e060405160405180910390a3806000806101000a81548173ffffffffffffffffffffffffffffffffffffffff021916908373ffffffffffffffffffffffffffffffffffffffff16021790555050565b600033905090565b611ac261096c565b611b01576040517f08c379a0000000000000000000000000000000000000000000000000000000008152600401611af89061242f565b60405180910390fd5b6000600260006101000a81548160ff0219169083151502179055507f5db9ee0a495bf2e6ff9c91a7834c1ba4fdd244a5e8aa4e537bd38aeae4b073aa611b45611ab2565b604051611b5291906122df565b60405180910390a1565b611b6461096c565b15611ba4576040517f08c379a0000000000000000000000000000000000000000000000000000000008152600401611b9b906124cf565b60405180910390fd5b6001600260006101000a81548160ff0219169083151502179055507f62e78cea01bee320cd4e420270b5ea74000d11b0c9f74754ebdbfc544b05a258611be8611ab2565b604051611bf591906122df565b60405180910390a1565b6040518060a00160405280600073ffffffffffffffffffffffffffffffffffffffff1681526020016000815260200160008152602001600081526020016000151581525090565b600081359050611c55816127be565b92915050565b600081519050611c6a816127be565b92915050565b600081519050611c7f816127d5565b92915050565b600081359050611c94816127ec565b92915050565b600060208284031215611cac57600080fd5b6000611cba84828501611c46565b91505092915050565b600060208284031215611cd557600080fd5b6000611ce384828501611c5b565b91505092915050565b600060208284031215611cfe57600080fd5b6000611d0c84828501611c70565b91505092915050565b600060208284031215611d2757600080fd5b6000611d3584828501611c85565b91505092915050565b60008060408385031215611d5157600080fd5b6000611d5f85828601611c85565b9250506020611d7085828601611c85565b9150509250929050565b6000611d8683836122c1565b60208301905092915050565b611d9b81612710565b82525050565b611daa816126c8565b82525050565b6000611dbb8261268e565b611dc581856126a6565b9350611dd08361267e565b8060005b83811015611e01578151611de88882611d7a565b9750611df383612699565b925050600181019050611dd4565b5085935050505092915050565b611e17816126da565b82525050565b6000611e2a6014836126b7565b91507f5061757361626c653a206e6f74207061757365640000000000000000000000006000830152602082019050919050565b6000611e6a603c836126b7565b91507f4d61726b6574706c6163652061646472657373206e65656473206f706572617460008301527f6f72207374617475732066726f6d206d6f6e6b6579206f776e65722e000000006020830152604082019050919050565b6000611ed06030836126b7565b91507f4f6e6c79206d6f6e6b6579206f776e65722063616e20736574206f666665722060008301527f666f72207468697320746f6b656e4964000000000000000000000000000000006020830152604082019050919050565b6000611f366026836126b7565b91507f4f776e61626c653a206e6577206f776e657220697320746865207a65726f206160008301527f64647265737300000000000000000000000000000000000000000000000000006020830152604082019050919050565b6000611f9c601f836126b7565b91507f4e6f20616374697665206f6666657220666f722074686973206d6f6e6b6579006000830152602082019050919050565b6000611fdc6010836126b7565b91507f5061757361626c653a20706175736564000000000000000000000000000000006000830152602082019050919050565b600061201c601e836126b7565b91507f4e6f742073656e64696e672074686520636f727265637420616d6f756e7400006000830152602082019050919050565b600061205c600c836126b7565b91507f437265617465206f6666657200000000000000000000000000000000000000006000830152602082019050919050565b600061209c6042836126b7565b91507f6f66666572207072696365206d757374206265206174206c656173742031303060008301527f30303030303030303030205745492c20692e652e20302e30303030303120455460208301527f48200000000000000000000000000000000000000000000000000000000000006040830152606082019050919050565b60006121286003836126b7565b91507f42757900000000000000000000000000000000000000000000000000000000006000830152602082019050919050565b60006121686020836126b7565b91507f4f776e61626c653a2063616c6c6572206973206e6f7420746865206f776e65726000830152602082019050919050565b60006121a8600c836126b7565b91507f52656d6f7665206f6666657200000000000000000000000000000000000000006000830152602082019050919050565b60006121e86021836126b7565b91507f4e6f20616374697665206f6666657220666f72207468697320746f6b656e496460008301527f2e000000000000000000000000000000000000000000000000000000000000006020830152604082019050919050565b600061224e6014836126b7565b91507f596f75277265206e6f7420746865206f776e65720000000000000000000000006000830152602082019050919050565b600061228e601f836126b7565b91507f5265656e7472616e637947756172643a207265656e7472616e742063616c6c006000830152602082019050919050565b6122ca81612706565b82525050565b6122d981612706565b82525050565b60006020820190506122f46000830184611da1565b92915050565b600060608201905061230f6000830186611d92565b61231c6020830185611da1565b61232960408301846122d0565b949350505050565b60006080820190506123466000830187611d92565b6123536020830186611da1565b61236060408301856122d0565b61236d60608301846122d0565b95945050505050565b600060408201905061238b6000830185611da1565b6123986020830184611da1565b9392505050565b600060a0820190506123b46000830188611da1565b6123c160208301876122d0565b6123ce60408301866122d0565b6123db60608301856122d0565b6123e86080830184611e0e565b9695505050505050565b6000602082019050818103600083015261240c8184611db0565b905092915050565b60006020820190506124296000830184611e0e565b92915050565b6000602082019050818103600083015261244881611e1d565b9050919050565b6000602082019050818103600083015261246881611e5d565b9050919050565b6000602082019050818103600083015261248881611ec3565b9050919050565b600060208201905081810360008301526124a881611f29565b9050919050565b600060208201905081810360008301526124c881611f8f565b9050919050565b600060208201905081810360008301526124e881611fcf565b9050919050565b600060208201905081810360008301526125088161200f565b9050919050565b600060608201905081810360008301526125288161204f565b90506125376020830185611da1565b61254460408301846122d0565b9392505050565b600060208201905081810360008301526125648161208f565b9050919050565b600060608201905081810360008301526125848161211b565b90506125936020830185611da1565b6125a060408301846122d0565b9392505050565b600060208201905081810360008301526125c08161215b565b9050919050565b600060608201905081810360008301526125e08161219b565b90506125ef6020830185611da1565b6125fc60408301846122d0565b9392505050565b6000602082019050818103600083015261261c816121db565b9050919050565b6000602082019050818103600083015261263c81612241565b9050919050565b6000602082019050818103600083015261265c81612281565b9050919050565b600060208201905061267860008301846122d0565b92915050565b6000819050602082019050919050565b600081519050919050565b6000602082019050919050565b600082825260208201905092915050565b600082825260208201905092915050565b60006126d3826126e6565b9050919050565b60008115159050919050565b600073ffffffffffffffffffffffffffffffffffffffff82169050919050565b6000819050919050565b600061271b82612722565b9050919050565b600061272d82612734565b9050919050565b600061273f826126e6565b9050919050565b600061275182612706565b91507fffffffffffffffffffffffffffffffffffffffffffffffffffffffffffffffff8214156127845761278361278f565b5b600182019050919050565b7f4e487b7100000000000000000000000000000000000000000000000000000000600052601160045260246000fd5b6127c7816126c8565b81146127d257600080fd5b50565b6127de816126da565b81146127e957600080fd5b50565b6127f581612706565b811461280057600080fd5b5056fea2646970667358221220c6845888b137dbbb8a5ed4ba4e5c2252664b03242acba5b18f84a03af3782f8764736f6c63430008000033",
  "linkReferences": {},
  "deployedLinkReferences": {}
}