{
  "_format": "hh-sol-artifact-1",
  "contractName": "MonkeyMarketplace",
  "sourceName": "contracts/MonkeyMarketplace.sol",
  "abi": [
    {
      "inputs": [
        {
          "internalType": "address",
          "name": "_constructorMonkeyContractAddress",
          "type": "address"
        }
      ],
      "stateMutability": "nonpayable",
      "type": "constructor"
    },
    {
      "anonymous": false,
      "inputs": [
        {
          "indexed": false,
          "internalType": "string",
          "name": "TxType",
          "type": "string"
        },
        {
          "indexed": false,
          "internalType": "address",
          "name": "owner",
          "type": "address"
        },
        {
          "indexed": false,
          "internalType": "uint256",
          "name": "tokenId",
          "type": "uint256"
        }
      ],
      "name": "MarketTransaction",
      "type": "event"
    },
    {
      "anonymous": false,
      "inputs": [
        {
          "indexed": true,
          "internalType": "address",
          "name": "previousOwner",
          "type": "address"
        },
        {
          "indexed": true,
          "internalType": "address",
          "name": "newOwner",
          "type": "address"
        }
      ],
      "name": "OwnershipTransferred",
      "type": "event"
    },
    {
      "anonymous": false,
      "inputs": [
        {
          "indexed": false,
          "internalType": "address",
          "name": "account",
          "type": "address"
        }
      ],
      "name": "Paused",
      "type": "event"
    },
    {
      "anonymous": false,
      "inputs": [
        {
          "indexed": false,
          "internalType": "address",
          "name": "account",
          "type": "address"
        }
      ],
      "name": "Unpaused",
      "type": "event"
    },
    {
      "anonymous": false,
      "inputs": [
        {
          "indexed": false,
          "internalType": "address",
          "name": "seller",
          "type": "address"
        },
        {
          "indexed": false,
          "internalType": "address",
          "name": "buyer",
          "type": "address"
        },
        {
          "indexed": false,
          "internalType": "uint256",
          "name": "price",
          "type": "uint256"
        },
        {
          "indexed": false,
          "internalType": "uint256",
          "name": "tokenId",
          "type": "uint256"
        }
      ],
      "name": "monkeySold",
      "type": "event"
    },
    {
      "inputs": [
        {
          "internalType": "uint256",
          "name": "_tokenId",
          "type": "uint256"
        }
      ],
      "name": "buyMonkey",
      "outputs": [],
      "stateMutability": "payable",
      "type": "function"
    },
    {
      "inputs": [],
      "name": "getAllTokenOnSale",
      "outputs": [
        {
          "internalType": "uint256[]",
          "name": "listOfTokenIdsOnSale",
          "type": "uint256[]"
        }
      ],
      "stateMutability": "view",
      "type": "function"
    },
    {
      "inputs": [
        {
          "internalType": "uint256",
          "name": "_tokenId",
          "type": "uint256"
        }
      ],
      "name": "getOffer",
      "outputs": [
        {
          "internalType": "address",
          "name": "seller",
          "type": "address"
        },
        {
          "internalType": "uint256",
          "name": "price",
          "type": "uint256"
        },
        {
          "internalType": "uint256",
          "name": "index",
          "type": "uint256"
        },
        {
          "internalType": "uint256",
          "name": "tokenId",
          "type": "uint256"
        },
        {
          "internalType": "bool",
          "name": "active",
          "type": "bool"
        }
      ],
      "stateMutability": "view",
      "type": "function"
    },
    {
      "inputs": [
        {
          "internalType": "uint256",
          "name": "_tokenId",
          "type": "uint256"
        }
      ],
      "name": "isTokenOnSale",
      "outputs": [
        {
          "internalType": "bool",
          "name": "tokenIsOnSale",
          "type": "bool"
        }
      ],
      "stateMutability": "view",
      "type": "function"
    },
    {
      "inputs": [],
      "name": "owner",
      "outputs": [
        {
          "internalType": "address",
          "name": "",
          "type": "address"
        }
      ],
      "stateMutability": "view",
      "type": "function"
    },
    {
      "inputs": [],
      "name": "pause",
      "outputs": [],
      "stateMutability": "nonpayable",
      "type": "function"
    },
    {
      "inputs": [],
      "name": "paused",
      "outputs": [
        {
          "internalType": "bool",
          "name": "",
          "type": "bool"
        }
      ],
      "stateMutability": "view",
      "type": "function"
    },
    {
      "inputs": [
        {
          "internalType": "uint256",
          "name": "_tokenId",
          "type": "uint256"
        }
      ],
      "name": "removeOffer",
      "outputs": [],
      "stateMutability": "nonpayable",
      "type": "function"
    },
    {
      "inputs": [],
      "name": "renounceOwnership",
      "outputs": [],
      "stateMutability": "nonpayable",
      "type": "function"
    },
    {
      "inputs": [],
      "name": "savedMainContractAddress",
      "outputs": [
        {
          "internalType": "address",
          "name": "",
          "type": "address"
        }
      ],
      "stateMutability": "view",
      "type": "function"
    },
    {
      "inputs": [],
      "name": "savedMarketContractAddress",
      "outputs": [
        {
          "internalType": "address",
          "name": "",
          "type": "address"
        }
      ],
      "stateMutability": "view",
      "type": "function"
    },
    {
      "inputs": [
        {
          "internalType": "uint256",
          "name": "_price",
          "type": "uint256"
        },
        {
          "internalType": "uint256",
          "name": "_tokenId",
          "type": "uint256"
        }
      ],
      "name": "setOffer",
      "outputs": [],
      "stateMutability": "nonpayable",
      "type": "function"
    },
    {
      "inputs": [],
      "name": "showLengthOfOffersArray",
      "outputs": [
        {
          "internalType": "uint256",
          "name": "length",
          "type": "uint256"
        }
      ],
      "stateMutability": "view",
      "type": "function"
    },
    {
      "inputs": [
        {
          "internalType": "uint256",
          "name": "arrayPosition",
          "type": "uint256"
        }
      ],
      "name": "showOfferArrayEntry",
      "outputs": [
        {
          "internalType": "address",
          "name": "seller",
          "type": "address"
        },
        {
          "internalType": "uint256",
          "name": "price",
          "type": "uint256"
        },
        {
          "internalType": "uint256",
          "name": "index",
          "type": "uint256"
        },
        {
          "internalType": "uint256",
          "name": "tokenId",
          "type": "uint256"
        },
        {
          "internalType": "bool",
          "name": "active",
          "type": "bool"
        }
      ],
      "stateMutability": "view",
      "type": "function"
    },
    {
      "inputs": [
        {
          "internalType": "address",
          "name": "newOwner",
          "type": "address"
        }
      ],
      "name": "transferOwnership",
      "outputs": [],
      "stateMutability": "nonpayable",
      "type": "function"
    },
    {
      "inputs": [],
      "name": "unpause",
      "outputs": [],
      "stateMutability": "nonpayable",
      "type": "function"
    }
  ],
  "bytecode": "0x60806040523480156200001157600080fd5b5060405162002dd238038062002dd2833981810160405281019062000037919062000359565b6000620000496200033a60201b60201c565b9050806000806101000a81548173ffffffffffffffffffffffffffffffffffffffff021916908373ffffffffffffffffffffffffffffffffffffffff1602179055508073ffffffffffffffffffffffffffffffffffffffff16600073ffffffffffffffffffffffffffffffffffffffff167f8be0079c531659141344cd1fd0a4f28419497f9722a3daafe3b4186f6b6457e060405160405180910390a350600180819055506000600260006101000a81548160ff02191690831515021790555080600260016101000a81548173ffffffffffffffffffffffffffffffffffffffff021916908373ffffffffffffffffffffffffffffffffffffffff1602179055508073ffffffffffffffffffffffffffffffffffffffff16600260019054906101000a900473ffffffffffffffffffffffffffffffffffffffff1673ffffffffffffffffffffffffffffffffffffffff1663daa97fae6040518163ffffffff1660e01b815260040160206040518083038186803b158015620001ca57600080fd5b505afa158015620001df573d6000803e3d6000fd5b505050506040513d601f19601f8201168201806040525081019062000205919062000359565b73ffffffffffffffffffffffffffffffffffffffff16146200025e576040517f08c379a000000000000000000000000000000000000000000000000000000000815260040162000255906200043c565b60405180910390fd5b80600360006101000a81548173ffffffffffffffffffffffffffffffffffffffff021916908373ffffffffffffffffffffffffffffffffffffffff160217905550600260019054906101000a900473ffffffffffffffffffffffffffffffffffffffff1673ffffffffffffffffffffffffffffffffffffffff16638aac2f333060016040518363ffffffff1660e01b8152600401620002ff9291906200040f565b600060405180830381600087803b1580156200031a57600080fd5b505af11580156200032f573d6000803e3d6000fd5b5050505050620004c9565b600033905090565b6000815190506200035381620004af565b92915050565b6000602082840312156200036c57600080fd5b60006200037c8482850162000342565b91505092915050565b62000390816200046f565b82525050565b620003a18162000483565b82525050565b6000620003b66036836200045e565b91507f434f4e5354525543544f523a204d6f6e6b657920636f6e74726163742061646460008301527f72657373206d757374206265207468652073616d652e000000000000000000006020830152604082019050919050565b600060408201905062000426600083018562000385565b62000435602083018462000396565b9392505050565b600060208201905081810360008301526200045781620003a7565b9050919050565b600082825260208201905092915050565b60006200047c826200048f565b9050919050565b60008115159050919050565b600073ffffffffffffffffffffffffffffffffffffffff82169050919050565b620004ba816200046f565b8114620004c657600080fd5b50565b6128f980620004d96000396000f3fe6080604052600436106100f35760003560e01c80638456cb591161008a57806395a0f9c71161005957806395a0f9c7146102ed578063d10186ee14610316578063dfcaaa9514610341578063f2fde38b1461036c576100f3565b80638456cb59146102455780638da5cb5b1461025c578063941b055b14610287578063951fbdf0146102b0576100f3565b80635c975abb116100c65780635c975abb146101bc578063615fc0e2146101e7578063715018a6146102035780637d3e0ec21461021a576100f3565b80633f4ba83a146100f85780633f50b4411461010f5780634579268a1461015057806349b3709f14610191575b600080fd5b34801561010457600080fd5b5061010d610395565b005b34801561011b57600080fd5b5061013660048036038101906101319190611dd5565b61041b565b60405161014795949392919061245f565b60405180910390f35b34801561015c57600080fd5b5061017760048036038101906101729190611dd5565b6105b2565b60405161018895949392919061245f565b60405180910390f35b34801561019d57600080fd5b506101a66106fb565b6040516101b391906124b2565b60405180910390f35b3480156101c857600080fd5b506101d16109b4565b6040516101de91906124d4565b60405180910390f35b61020160048036038101906101fc9190611dd5565b6109cb565b005b34801561020f57600080fd5b50610218610de1565b005b34801561022657600080fd5b5061022f610f1b565b60405161023c919061239f565b60405180910390f35b34801561025157600080fd5b5061025a610f41565b005b34801561026857600080fd5b50610271610fc7565b60405161027e919061239f565b60405180910390f35b34801561029357600080fd5b506102ae60048036038101906102a99190611dfe565b610ff0565b005b3480156102bc57600080fd5b506102d760048036038101906102d29190611dd5565b611629565b6040516102e491906124d4565b60405180910390f35b3480156102f957600080fd5b50610314600480360381019061030f9190611dd5565b611656565b005b34801561032257600080fd5b5061032b61191a565b604051610338919061239f565b60405180910390f35b34801561034d57600080fd5b50610356611940565b6040516103639190612723565b60405180910390f35b34801561037857600080fd5b50610393600480360381019061038e9190611d5a565b6119c9565b005b61039d611b72565b73ffffffffffffffffffffffffffffffffffffffff166103bb610fc7565b73ffffffffffffffffffffffffffffffffffffffff1614610411576040517f08c379a000000000000000000000000000000000000000000000000000000000815260040161040890612647565b60405180910390fd5b610419611b7a565b565b600080600080600061042b611b72565b73ffffffffffffffffffffffffffffffffffffffff16610449610fc7565b73ffffffffffffffffffffffffffffffffffffffff161461049f576040517f08c379a000000000000000000000000000000000000000000000000000000000815260040161049690612647565b60405180910390fd5b6000600587815481106104db577f4e487b7100000000000000000000000000000000000000000000000000000000600052603260045260246000fd5b90600052602060002090600502016040518060a00160405290816000820160009054906101000a900473ffffffffffffffffffffffffffffffffffffffff1673ffffffffffffffffffffffffffffffffffffffff1673ffffffffffffffffffffffffffffffffffffffff1681526020016001820154815260200160028201548152602001600382015481526020016004820160009054906101000a900460ff161515151581525050905080600001518160200151826040015183606001518460800151955095509550955095505091939590929450565b60008060008060006006600087815260200190815260200160002060040160009054906101000a900460ff1661061d576040517f08c379a0000000000000000000000000000000000000000000000000000000008152600401610614906126c3565b60405180910390fd5b6000600660008881526020019081526020016000206040518060a00160405290816000820160009054906101000a900473ffffffffffffffffffffffffffffffffffffffff1673ffffffffffffffffffffffffffffffffffffffff1673ffffffffffffffffffffffffffffffffffffffff1681526020016001820154815260200160028201548152602001600382015481526020016004820160009054906101000a900460ff161515151581525050905080600001518160200151826040015183606001518460800151955095509550955095505091939590929450565b6060600080600090505b600580549050811015610792576005818154811061074c577f4e487b7100000000000000000000000000000000000000000000000000000000600052603260045260246000fd5b906000526020600020906005020160040160009054906101000a900460ff161561077f57818061077b90612806565b9250505b808061078a90612806565b915050610705565b50600081141561081457600067ffffffffffffffff8111156107dd577f4e487b7100000000000000000000000000000000000000000000000000000000600052604160045260246000fd5b60405190808252806020026020018201604052801561080b5781602001602082028036833780820191505090505b509150506109b1565b60008167ffffffffffffffff811115610856577f4e487b7100000000000000000000000000000000000000000000000000000000600052604160045260246000fd5b6040519080825280602002602001820160405280156108845781602001602082028036833780820191505090505b5090506000805b6005805490508110156109a957600581815481106108d2577f4e487b7100000000000000000000000000000000000000000000000000000000600052603260045260246000fd5b906000526020600020906005020160040160009054906101000a900460ff16156109965760058181548110610930577f4e487b7100000000000000000000000000000000000000000000000000000000600052603260045260246000fd5b90600052602060002090600502016003015483838151811061097b577f4e487b7100000000000000000000000000000000000000000000000000000000600052603260045260246000fd5b602002602001018181525050818061099290612806565b9250505b80806109a190612806565b91505061088b565b508193505050505b90565b6000600260009054906101000a900460ff16905090565b60026001541415610a11576040517f08c379a0000000000000000000000000000000000000000000000000000000008152600401610a0890612703565b60405180910390fd5b6002600181905550610a216109b4565b15610a61576040517f08c379a0000000000000000000000000000000000000000000000000000000008152600401610a589061256f565b60405180910390fd5b6000600660008381526020019081526020016000206040518060a00160405290816000820160009054906101000a900473ffffffffffffffffffffffffffffffffffffffff1673ffffffffffffffffffffffffffffffffffffffff1673ffffffffffffffffffffffffffffffffffffffff1681526020016001820154815260200160028201548152602001600382015481526020016004820160009054906101000a900460ff1615151515815250509050600115158160800151151514610b5d576040517f08c379a0000000000000000000000000000000000000000000000000000000008152600401610b54906126a3565b60405180910390fd5b34816020015114610ba3576040517f08c379a0000000000000000000000000000000000000000000000000000000008152600401610b9a9061258f565b60405180910390fd5b60008160000151905060006005836040015181548110610bec577f4e487b7100000000000000000000000000000000000000000000000000000000600052603260045260246000fd5b906000526020600020906005020160040160006101000a81548160ff02191690831515021790555060066000848152602001908152602001600020600080820160006101000a81549073ffffffffffffffffffffffffffffffffffffffff02191690556001820160009055600282016000905560038201600090556004820160006101000a81549060ff02191690555050610c85611cbf565b9150600260019054906101000a900473ffffffffffffffffffffffffffffffffffffffff1673ffffffffffffffffffffffffffffffffffffffff166369e9cae18233866040518463ffffffff1660e01b8152600401610ce6939291906123ba565b600060405180830381600087803b158015610d0057600080fd5b505af1158015610d14573d6000803e3d6000fd5b505050508073ffffffffffffffffffffffffffffffffffffffff166108fc349081150290604051600060405180830381858888f19350505050158015610d5e573d6000803e3d6000fd5b507fd99e4fad9ad6313b1feb588fa8e605e3a9873172f2024330c35dd2b4041a43863384604051610d9092919061260b565b60405180910390a17f9f1cc9f631ef4adfe7b8fb5180733fe8e804f452ee94cd404396f67e515136a481333486604051610dcd94939291906123f1565b60405180910390a150506001808190555050565b610de9611b72565b73ffffffffffffffffffffffffffffffffffffffff16610e07610fc7565b73ffffffffffffffffffffffffffffffffffffffff1614610e5d576040517f08c379a0000000000000000000000000000000000000000000000000000000008152600401610e5490612647565b60405180910390fd5b600073ffffffffffffffffffffffffffffffffffffffff1660008054906101000a900473ffffffffffffffffffffffffffffffffffffffff1673ffffffffffffffffffffffffffffffffffffffff167f8be0079c531659141344cd1fd0a4f28419497f9722a3daafe3b4186f6b6457e060405160405180910390a360008060006101000a81548173ffffffffffffffffffffffffffffffffffffffff021916908373ffffffffffffffffffffffffffffffffffffffff160217905550565b600360009054906101000a900473ffffffffffffffffffffffffffffffffffffffff1681565b610f49611b72565b73ffffffffffffffffffffffffffffffffffffffff16610f67610fc7565b73ffffffffffffffffffffffffffffffffffffffff1614610fbd576040517f08c379a0000000000000000000000000000000000000000000000000000000008152600401610fb490612647565b60405180910390fd5b610fc5611c1c565b565b60008060009054906101000a900473ffffffffffffffffffffffffffffffffffffffff16905090565b610ff86109b4565b15611038576040517f08c379a000000000000000000000000000000000000000000000000000000000815260040161102f9061256f565b60405180910390fd5b3373ffffffffffffffffffffffffffffffffffffffff16600260019054906101000a900473ffffffffffffffffffffffffffffffffffffffff1673ffffffffffffffffffffffffffffffffffffffff16636352211e836040518263ffffffff1660e01b81526004016110aa9190612723565b60206040518083038186803b1580156110c257600080fd5b505afa1580156110d6573d6000803e3d6000fd5b505050506040513d601f19601f820116820180604052508101906110fa9190611d83565b73ffffffffffffffffffffffffffffffffffffffff1614611150576040517f08c379a00000000000000000000000000000000000000000000000000000000081526004016111479061252f565b60405180910390fd5b600260019054906101000a900473ffffffffffffffffffffffffffffffffffffffff1673ffffffffffffffffffffffffffffffffffffffff1663e985e9c533306040518363ffffffff1660e01b81526004016111ad929190612436565b60206040518083038186803b1580156111c557600080fd5b505afa1580156111d9573d6000803e3d6000fd5b505050506040513d601f19601f820116820180604052508101906111fd9190611dac565b61123c576040517f08c379a00000000000000000000000000000000000000000000000000000000081526004016112339061250f565b60405180910390fd5b64e8d4a51000821015611284576040517f08c379a000000000000000000000000000000000000000000000000000000000815260040161127b906125eb565b60405180910390fd5b6000600660008381526020019081526020016000206040518060a00160405290816000820160009054906101000a900473ffffffffffffffffffffffffffffffffffffffff1673ffffffffffffffffffffffffffffffffffffffff1673ffffffffffffffffffffffffffffffffffffffff1681526020016001820154815260200160028201548152602001600382015481526020016004820160009054906101000a900460ff161515151581525050905060011515816080015115151415611452576005816040015181548110611384577f4e487b7100000000000000000000000000000000000000000000000000000000600052603260045260246000fd5b9060005260206000209060050201600080820160006101000a81549073ffffffffffffffffffffffffffffffffffffffff02191690556001820160009055600282016000905560038201600090556004820160006101000a81549060ff0219169055505060066000838152602001908152602001600020600080820160006101000a81549073ffffffffffffffffffffffffffffffffffffffff02191690556001820160009055600282016000905560038201600090556004820160006101000a81549060ff021916905550505b60006040518060a001604052803373ffffffffffffffffffffffffffffffffffffffff1681526020018581526020016005805490508152602001848152602001600115158152509050806006600085815260200190815260200160002060008201518160000160006101000a81548173ffffffffffffffffffffffffffffffffffffffff021916908373ffffffffffffffffffffffffffffffffffffffff16021790555060208201518160010155604082015181600201556060820151816003015560808201518160040160006101000a81548160ff021916908315150217905550905050600581908060018154018082558091505060019003906000526020600020906005020160009091909190915060008201518160000160006101000a81548173ffffffffffffffffffffffffffffffffffffffff021916908373ffffffffffffffffffffffffffffffffffffffff16021790555060208201518160010155604082015181600201556060820151816003015560808201518160040160006101000a81548160ff02191690831515021790555050507fd99e4fad9ad6313b1feb588fa8e605e3a9873172f2024330c35dd2b4041a4386338460405161161b9291906125af565b60405180910390a150505050565b60006006600083815260200190815260200160002060040160009054906101000a900460ff169050919050565b61165e6109b4565b1561169e576040517f08c379a00000000000000000000000000000000000000000000000000000000081526004016116959061256f565b60405180910390fd5b6000600660008381526020019081526020016000206040518060a00160405290816000820160009054906101000a900473ffffffffffffffffffffffffffffffffffffffff1673ffffffffffffffffffffffffffffffffffffffff1673ffffffffffffffffffffffffffffffffffffffff1681526020016001820154815260200160028201548152602001600382015481526020016004820160009054906101000a900460ff161515151581525050905060011515816080015115151461179a576040517f08c379a0000000000000000000000000000000000000000000000000000000008152600401611791906126a3565b60405180910390fd5b3373ffffffffffffffffffffffffffffffffffffffff16816000015173ffffffffffffffffffffffffffffffffffffffff161461180c576040517f08c379a0000000000000000000000000000000000000000000000000000000008152600401611803906126e3565b60405180910390fd5b6000600582604001518154811061184c577f4e487b7100000000000000000000000000000000000000000000000000000000600052603260045260246000fd5b906000526020600020906005020160040160006101000a81548160ff02191690831515021790555060066000838152602001908152602001600020600080820160006101000a81549073ffffffffffffffffffffffffffffffffffffffff02191690556001820160009055600282016000905560038201600090556004820160006101000a81549060ff021916905550507fd99e4fad9ad6313b1feb588fa8e605e3a9873172f2024330c35dd2b4041a4386338360405161190e929190612667565b60405180910390a15050565b600460009054906101000a900473ffffffffffffffffffffffffffffffffffffffff1681565b600061194a611b72565b73ffffffffffffffffffffffffffffffffffffffff16611968610fc7565b73ffffffffffffffffffffffffffffffffffffffff16146119be576040517f08c379a00000000000000000000000000000000000000000000000000000000081526004016119b590612647565b60405180910390fd5b600580549050905090565b6119d1611b72565b73ffffffffffffffffffffffffffffffffffffffff166119ef610fc7565b73ffffffffffffffffffffffffffffffffffffffff1614611a45576040517f08c379a0000000000000000000000000000000000000000000000000000000008152600401611a3c90612647565b60405180910390fd5b600073ffffffffffffffffffffffffffffffffffffffff168173ffffffffffffffffffffffffffffffffffffffff161415611ab5576040517f08c379a0000000000000000000000000000000000000000000000000000000008152600401611aac9061254f565b60405180910390fd5b8073ffffffffffffffffffffffffffffffffffffffff1660008054906101000a900473ffffffffffffffffffffffffffffffffffffffff1673ffffffffffffffffffffffffffffffffffffffff167f8be0079c531659141344cd1fd0a4f28419497f9722a3daafe3b4186f6b6457e060405160405180910390a3806000806101000a81548173ffffffffffffffffffffffffffffffffffffffff021916908373ffffffffffffffffffffffffffffffffffffffff16021790555050565b600033905090565b611b826109b4565b611bc1576040517f08c379a0000000000000000000000000000000000000000000000000000000008152600401611bb8906124ef565b60405180910390fd5b6000600260006101000a81548160ff0219169083151502179055507f5db9ee0a495bf2e6ff9c91a7834c1ba4fdd244a5e8aa4e537bd38aeae4b073aa611c05611b72565b604051611c12919061239f565b60405180910390a1565b611c246109b4565b15611c64576040517f08c379a0000000000000000000000000000000000000000000000000000000008152600401611c5b9061256f565b60405180910390fd5b6001600260006101000a81548160ff0219169083151502179055507f62e78cea01bee320cd4e420270b5ea74000d11b0c9f74754ebdbfc544b05a258611ca8611b72565b604051611cb5919061239f565b60405180910390a1565b6040518060a00160405280600073ffffffffffffffffffffffffffffffffffffffff1681526020016000815260200160008152602001600081526020016000151581525090565b600081359050611d158161287e565b92915050565b600081519050611d2a8161287e565b92915050565b600081519050611d3f81612895565b92915050565b600081359050611d54816128ac565b92915050565b600060208284031215611d6c57600080fd5b6000611d7a84828501611d06565b91505092915050565b600060208284031215611d9557600080fd5b6000611da384828501611d1b565b91505092915050565b600060208284031215611dbe57600080fd5b6000611dcc84828501611d30565b91505092915050565b600060208284031215611de757600080fd5b6000611df584828501611d45565b91505092915050565b60008060408385031215611e1157600080fd5b6000611e1f85828601611d45565b9250506020611e3085828601611d45565b9150509250929050565b6000611e468383612381565b60208301905092915050565b611e5b816127d0565b82525050565b611e6a81612788565b82525050565b6000611e7b8261274e565b611e858185612766565b9350611e908361273e565b8060005b83811015611ec1578151611ea88882611e3a565b9750611eb383612759565b925050600181019050611e94565b5085935050505092915050565b611ed78161279a565b82525050565b6000611eea601483612777565b91507f5061757361626c653a206e6f74207061757365640000000000000000000000006000830152602082019050919050565b6000611f2a603c83612777565b91507f4d61726b6574706c6163652061646472657373206e65656473206f706572617460008301527f6f72207374617475732066726f6d206d6f6e6b6579206f776e65722e000000006020830152604082019050919050565b6000611f90603083612777565b91507f4f6e6c79206d6f6e6b6579206f776e65722063616e20736574206f666665722060008301527f666f72207468697320746f6b656e4964000000000000000000000000000000006020830152604082019050919050565b6000611ff6602683612777565b91507f4f776e61626c653a206e6577206f776e657220697320746865207a65726f206160008301527f64647265737300000000000000000000000000000000000000000000000000006020830152604082019050919050565b600061205c601083612777565b91507f5061757361626c653a20706175736564000000000000000000000000000000006000830152602082019050919050565b600061209c601e83612777565b91507f4e6f742073656e64696e672074686520636f727265637420616d6f756e7400006000830152602082019050919050565b60006120dc600c83612777565b91507f437265617465206f6666657200000000000000000000000000000000000000006000830152602082019050919050565b600061211c604283612777565b91507f6f66666572207072696365206d757374206265206174206c656173742031303060008301527f30303030303030303030205745492c20692e652e20302e30303030303120455460208301527f48200000000000000000000000000000000000000000000000000000000000006040830152606082019050919050565b60006121a8600383612777565b91507f42757900000000000000000000000000000000000000000000000000000000006000830152602082019050919050565b60006121e8602083612777565b91507f4f776e61626c653a2063616c6c6572206973206e6f7420746865206f776e65726000830152602082019050919050565b6000612228600c83612777565b91507f52656d6f7665206f6666657200000000000000000000000000000000000000006000830152602082019050919050565b6000612268602083612777565b91507f4e6f20616374697665206f6666657220666f72207468697320746f6b656e49646000830152602082019050919050565b60006122a8602183612777565b91507f4e6f20616374697665206f6666657220666f72207468697320746f6b656e496460008301527f2e000000000000000000000000000000000000000000000000000000000000006020830152604082019050919050565b600061230e601483612777565b91507f596f75277265206e6f7420746865206f776e65720000000000000000000000006000830152602082019050919050565b600061234e601f83612777565b91507f5265656e7472616e637947756172643a207265656e7472616e742063616c6c006000830152602082019050919050565b61238a816127c6565b82525050565b612399816127c6565b82525050565b60006020820190506123b46000830184611e61565b92915050565b60006060820190506123cf6000830186611e52565b6123dc6020830185611e61565b6123e96040830184612390565b949350505050565b60006080820190506124066000830187611e52565b6124136020830186611e61565b6124206040830185612390565b61242d6060830184612390565b95945050505050565b600060408201905061244b6000830185611e61565b6124586020830184611e61565b9392505050565b600060a0820190506124746000830188611e61565b6124816020830187612390565b61248e6040830186612390565b61249b6060830185612390565b6124a86080830184611ece565b9695505050505050565b600060208201905081810360008301526124cc8184611e70565b905092915050565b60006020820190506124e96000830184611ece565b92915050565b6000602082019050818103600083015261250881611edd565b9050919050565b6000602082019050818103600083015261252881611f1d565b9050919050565b6000602082019050818103600083015261254881611f83565b9050919050565b6000602082019050818103600083015261256881611fe9565b9050919050565b600060208201905081810360008301526125888161204f565b9050919050565b600060208201905081810360008301526125a88161208f565b9050919050565b600060608201905081810360008301526125c8816120cf565b90506125d76020830185611e61565b6125e46040830184612390565b9392505050565b600060208201905081810360008301526126048161210f565b9050919050565b600060608201905081810360008301526126248161219b565b90506126336020830185611e61565b6126406040830184612390565b9392505050565b60006020820190508181036000830152612660816121db565b9050919050565b600060608201905081810360008301526126808161221b565b905061268f6020830185611e61565b61269c6040830184612390565b9392505050565b600060208201905081810360008301526126bc8161225b565b9050919050565b600060208201905081810360008301526126dc8161229b565b9050919050565b600060208201905081810360008301526126fc81612301565b9050919050565b6000602082019050818103600083015261271c81612341565b9050919050565b60006020820190506127386000830184612390565b92915050565b6000819050602082019050919050565b600081519050919050565b6000602082019050919050565b600082825260208201905092915050565b600082825260208201905092915050565b6000612793826127a6565b9050919050565b60008115159050919050565b600073ffffffffffffffffffffffffffffffffffffffff82169050919050565b6000819050919050565b60006127db826127e2565b9050919050565b60006127ed826127f4565b9050919050565b60006127ff826127a6565b9050919050565b6000612811826127c6565b91507fffffffffffffffffffffffffffffffffffffffffffffffffffffffffffffffff8214156128445761284361284f565b5b600182019050919050565b7f4e487b7100000000000000000000000000000000000000000000000000000000600052601160045260246000fd5b61288781612788565b811461289257600080fd5b50565b61289e8161279a565b81146128a957600080fd5b50565b6128b5816127c6565b81146128c057600080fd5b5056fea26469706673582212205dd70afe85c3e89c6229ef85db1bc11238ef644d02897b98c09144940bc0c18b64736f6c63430008000033",
  "linkReferences": {},
  "deployedLinkReferences": {}
}