{
  "_format": "hh-sol-artifact-1",
  "contractName": "MonkeyMarketplace",
  "sourceName": "contracts/MonkeyMarketplace.sol",
  "abi": [
    {
      "inputs": [
        {
          "internalType": "address",
          "name": "_constructorMonkeyContractAddress",
          "type": "address"
        }
      ],
      "stateMutability": "nonpayable",
      "type": "constructor"
    },
    {
      "anonymous": false,
      "inputs": [
        {
          "indexed": false,
          "internalType": "string",
          "name": "TxType",
          "type": "string"
        },
        {
          "indexed": false,
          "internalType": "address",
          "name": "owner",
          "type": "address"
        },
        {
          "indexed": false,
          "internalType": "uint256",
          "name": "tokenId",
          "type": "uint256"
        }
      ],
      "name": "MarketTransaction",
      "type": "event"
    },
    {
      "anonymous": false,
      "inputs": [
        {
          "indexed": true,
          "internalType": "address",
          "name": "previousOwner",
          "type": "address"
        },
        {
          "indexed": true,
          "internalType": "address",
          "name": "newOwner",
          "type": "address"
        }
      ],
      "name": "OwnershipTransferred",
      "type": "event"
    },
    {
      "anonymous": false,
      "inputs": [
        {
          "indexed": false,
          "internalType": "address",
          "name": "account",
          "type": "address"
        }
      ],
      "name": "Paused",
      "type": "event"
    },
    {
      "anonymous": false,
      "inputs": [
        {
          "indexed": false,
          "internalType": "address",
          "name": "account",
          "type": "address"
        }
      ],
      "name": "Unpaused",
      "type": "event"
    },
    {
      "anonymous": false,
      "inputs": [
        {
          "indexed": false,
          "internalType": "address",
          "name": "seller",
          "type": "address"
        },
        {
          "indexed": false,
          "internalType": "address",
          "name": "buyer",
          "type": "address"
        },
        {
          "indexed": false,
          "internalType": "uint256",
          "name": "price",
          "type": "uint256"
        },
        {
          "indexed": false,
          "internalType": "uint256",
          "name": "tokenId",
          "type": "uint256"
        }
      ],
      "name": "monkeySold",
      "type": "event"
    },
    {
      "inputs": [
        {
          "internalType": "uint256",
          "name": "_tokenId",
          "type": "uint256"
        }
      ],
      "name": "buyMonkey",
      "outputs": [],
      "stateMutability": "payable",
      "type": "function"
    },
    {
      "inputs": [],
      "name": "getAllTokenOnSale",
      "outputs": [
        {
          "internalType": "uint256[]",
          "name": "listOfTokenIdsOnSale",
          "type": "uint256[]"
        }
      ],
      "stateMutability": "view",
      "type": "function"
    },
    {
      "inputs": [
        {
          "internalType": "uint256",
          "name": "_tokenId",
          "type": "uint256"
        }
      ],
      "name": "getOffer",
      "outputs": [
        {
          "internalType": "address",
          "name": "seller",
          "type": "address"
        },
        {
          "internalType": "uint256",
          "name": "price",
          "type": "uint256"
        },
        {
          "internalType": "uint256",
          "name": "index",
          "type": "uint256"
        },
        {
          "internalType": "uint256",
          "name": "tokenId",
          "type": "uint256"
        },
        {
          "internalType": "bool",
          "name": "active",
          "type": "bool"
        }
      ],
      "stateMutability": "view",
      "type": "function"
    },
    {
      "inputs": [],
      "name": "owner",
      "outputs": [
        {
          "internalType": "address",
          "name": "",
          "type": "address"
        }
      ],
      "stateMutability": "view",
      "type": "function"
    },
    {
      "inputs": [],
      "name": "paused",
      "outputs": [
        {
          "internalType": "bool",
          "name": "",
          "type": "bool"
        }
      ],
      "stateMutability": "view",
      "type": "function"
    },
    {
      "inputs": [
        {
          "internalType": "uint256",
          "name": "_tokenId",
          "type": "uint256"
        }
      ],
      "name": "removeOffer",
      "outputs": [],
      "stateMutability": "nonpayable",
      "type": "function"
    },
    {
      "inputs": [],
      "name": "renounceOwnership",
      "outputs": [],
      "stateMutability": "nonpayable",
      "type": "function"
    },
    {
      "inputs": [],
      "name": "savedMainContractAddress",
      "outputs": [
        {
          "internalType": "address",
          "name": "",
          "type": "address"
        }
      ],
      "stateMutability": "view",
      "type": "function"
    },
    {
      "inputs": [
        {
          "internalType": "uint256",
          "name": "_price",
          "type": "uint256"
        },
        {
          "internalType": "uint256",
          "name": "_tokenId",
          "type": "uint256"
        }
      ],
      "name": "setOffer",
      "outputs": [],
      "stateMutability": "nonpayable",
      "type": "function"
    },
    {
      "inputs": [],
      "name": "showLengthOfOffersArray",
      "outputs": [
        {
          "internalType": "uint256",
          "name": "length",
          "type": "uint256"
        }
      ],
      "stateMutability": "view",
      "type": "function"
    },
    {
      "inputs": [
        {
          "internalType": "uint256",
          "name": "arrayPosition",
          "type": "uint256"
        }
      ],
      "name": "showOfferArrayEntry",
      "outputs": [
        {
          "internalType": "address",
          "name": "seller",
          "type": "address"
        },
        {
          "internalType": "uint256",
          "name": "price",
          "type": "uint256"
        },
        {
          "internalType": "uint256",
          "name": "index",
          "type": "uint256"
        },
        {
          "internalType": "uint256",
          "name": "tokenId",
          "type": "uint256"
        },
        {
          "internalType": "bool",
          "name": "active",
          "type": "bool"
        }
      ],
      "stateMutability": "view",
      "type": "function"
    },
    {
      "inputs": [
        {
          "internalType": "address",
          "name": "newOwner",
          "type": "address"
        }
      ],
      "name": "transferOwnership",
      "outputs": [],
      "stateMutability": "nonpayable",
      "type": "function"
    }
  ],
  "bytecode": "0x60806040523480156200001157600080fd5b50604051620028b2380380620028b28339818101604052810190620000379190620002c5565b600062000049620002a660201b60201c565b9050806000806101000a81548173ffffffffffffffffffffffffffffffffffffffff021916908373ffffffffffffffffffffffffffffffffffffffff1602179055508073ffffffffffffffffffffffffffffffffffffffff16600073ffffffffffffffffffffffffffffffffffffffff167f8be0079c531659141344cd1fd0a4f28419497f9722a3daafe3b4186f6b6457e060405160405180910390a350600180819055506000600260006101000a81548160ff02191690831515021790555080600260016101000a81548173ffffffffffffffffffffffffffffffffffffffff021916908373ffffffffffffffffffffffffffffffffffffffff1602179055508073ffffffffffffffffffffffffffffffffffffffff16600260019054906101000a900473ffffffffffffffffffffffffffffffffffffffff1673ffffffffffffffffffffffffffffffffffffffff1663daa97fae6040518163ffffffff1660e01b815260040160206040518083038186803b158015620001ca57600080fd5b505afa158015620001df573d6000803e3d6000fd5b505050506040513d601f19601f82011682018060405250810190620002059190620002c5565b73ffffffffffffffffffffffffffffffffffffffff16146200025e576040517f08c379a0000000000000000000000000000000000000000000000000000000008152600401620002559062000359565b60405180910390fd5b80600360006101000a81548173ffffffffffffffffffffffffffffffffffffffff021916908373ffffffffffffffffffffffffffffffffffffffff16021790555050620003da565b600033905090565b600081519050620002bf81620003c0565b92915050565b600060208284031215620002d857600080fd5b6000620002e884828501620002ae565b91505092915050565b6000620003006036836200037b565b91507f434f4e5354525543544f523a204d6f6e6b657920636f6e74726163742061646460008301527f72657373206d757374206265207468652073616d652e000000000000000000006020830152604082019050919050565b600060208201905081810360008301526200037481620002f1565b9050919050565b600082825260208201905092915050565b60006200039982620003a0565b9050919050565b600073ffffffffffffffffffffffffffffffffffffffff82169050919050565b620003cb816200038c565b8114620003d757600080fd5b50565b6124c880620003ea6000396000f3fe6080604052600436106100a75760003560e01c80637d3e0ec2116100645780637d3e0ec2146101b75780638da5cb5b146101e2578063941b055b1461020d57806395a0f9c714610236578063dfcaaa951461025f578063f2fde38b1461028a576100a7565b80633f50b441146100ac5780634579268a146100ed57806349b3709f1461012e5780635c975abb14610159578063615fc0e214610184578063715018a6146101a0575b600080fd5b3480156100b857600080fd5b506100d360048036038101906100ce9190611a04565b6102b3565b6040516100e495949392919061204e565b60405180910390f35b3480156100f957600080fd5b50610114600480360381019061010f9190611a04565b61044a565b60405161012595949392919061204e565b60405180910390f35b34801561013a57600080fd5b50610143610593565b60405161015091906120a1565b60405180910390f35b34801561016557600080fd5b5061016e61084c565b60405161017b91906120c3565b60405180910390f35b61019e60048036038101906101999190611a04565b610863565b005b3480156101ac57600080fd5b506101b5610c79565b005b3480156101c357600080fd5b506101cc610db3565b6040516101d99190611f8e565b60405180910390f35b3480156101ee57600080fd5b506101f7610dd9565b6040516102049190611f8e565b60405180910390f35b34801561021957600080fd5b50610234600480360381019061022f9190611a2d565b610e02565b005b34801561024257600080fd5b5061025d60048036038101906102589190611a04565b61143b565b005b34801561026b57600080fd5b506102746116b4565b60405161028191906122f2565b60405180910390f35b34801561029657600080fd5b506102b160048036038101906102ac9190611989565b61173d565b005b60008060008060006102c36118e6565b73ffffffffffffffffffffffffffffffffffffffff166102e1610dd9565b73ffffffffffffffffffffffffffffffffffffffff1614610337576040517f08c379a000000000000000000000000000000000000000000000000000000000815260040161032e90612236565b60405180910390fd5b600060048781548110610373577f4e487b7100000000000000000000000000000000000000000000000000000000600052603260045260246000fd5b90600052602060002090600502016040518060a00160405290816000820160009054906101000a900473ffffffffffffffffffffffffffffffffffffffff1673ffffffffffffffffffffffffffffffffffffffff1673ffffffffffffffffffffffffffffffffffffffff1681526020016001820154815260200160028201548152602001600382015481526020016004820160009054906101000a900460ff161515151581525050905080600001518160200151826040015183606001518460800151955095509550955095505091939590929450565b60008060008060006005600087815260200190815260200160002060040160009054906101000a900460ff166104b5576040517f08c379a00000000000000000000000000000000000000000000000000000000081526004016104ac90612292565b60405180910390fd5b6000600560008881526020019081526020016000206040518060a00160405290816000820160009054906101000a900473ffffffffffffffffffffffffffffffffffffffff1673ffffffffffffffffffffffffffffffffffffffff1673ffffffffffffffffffffffffffffffffffffffff1681526020016001820154815260200160028201548152602001600382015481526020016004820160009054906101000a900460ff161515151581525050905080600001518160200151826040015183606001518460800151955095509550955095505091939590929450565b6060600080600090505b60048054905081101561062a57600481815481106105e4577f4e487b7100000000000000000000000000000000000000000000000000000000600052603260045260246000fd5b906000526020600020906005020160040160009054906101000a900460ff1615610617578180610613906123d5565b9250505b8080610622906123d5565b91505061059d565b5060008114156106ac57600067ffffffffffffffff811115610675577f4e487b7100000000000000000000000000000000000000000000000000000000600052604160045260246000fd5b6040519080825280602002602001820160405280156106a35781602001602082028036833780820191505090505b50915050610849565b60008167ffffffffffffffff8111156106ee577f4e487b7100000000000000000000000000000000000000000000000000000000600052604160045260246000fd5b60405190808252806020026020018201604052801561071c5781602001602082028036833780820191505090505b5090506000805b600480549050811015610841576004818154811061076a577f4e487b7100000000000000000000000000000000000000000000000000000000600052603260045260246000fd5b906000526020600020906005020160040160009054906101000a900460ff161561082e57600481815481106107c8577f4e487b7100000000000000000000000000000000000000000000000000000000600052603260045260246000fd5b906000526020600020906005020160030154838381518110610813577f4e487b7100000000000000000000000000000000000000000000000000000000600052603260045260246000fd5b602002602001018181525050818061082a906123d5565b9250505b8080610839906123d5565b915050610723565b508193505050505b90565b6000600260009054906101000a900460ff16905090565b600260015414156108a9576040517f08c379a00000000000000000000000000000000000000000000000000000000081526004016108a0906122d2565b60405180910390fd5b60026001819055506108b961084c565b156108f9576040517f08c379a00000000000000000000000000000000000000000000000000000000081526004016108f09061215e565b60405180910390fd5b6000600560008381526020019081526020016000206040518060a00160405290816000820160009054906101000a900473ffffffffffffffffffffffffffffffffffffffff1673ffffffffffffffffffffffffffffffffffffffff1673ffffffffffffffffffffffffffffffffffffffff1681526020016001820154815260200160028201548152602001600382015481526020016004820160009054906101000a900460ff16151515158152505090506001151581608001511515146109f5576040517f08c379a00000000000000000000000000000000000000000000000000000000081526004016109ec9061213e565b60405180910390fd5b34816020015114610a3b576040517f08c379a0000000000000000000000000000000000000000000000000000000008152600401610a329061217e565b60405180910390fd5b60008160000151905060006004836040015181548110610a84577f4e487b7100000000000000000000000000000000000000000000000000000000600052603260045260246000fd5b906000526020600020906005020160040160006101000a81548160ff02191690831515021790555060056000848152602001908152602001600020600080820160006101000a81549073ffffffffffffffffffffffffffffffffffffffff02191690556001820160009055600282016000905560038201600090556004820160006101000a81549060ff02191690555050610b1d6118ee565b9150600260019054906101000a900473ffffffffffffffffffffffffffffffffffffffff1673ffffffffffffffffffffffffffffffffffffffff166323b872dd8233866040518463ffffffff1660e01b8152600401610b7e93929190611fa9565b600060405180830381600087803b158015610b9857600080fd5b505af1158015610bac573d6000803e3d6000fd5b505050508073ffffffffffffffffffffffffffffffffffffffff166108fc349081150290604051600060405180830381858888f19350505050158015610bf6573d6000803e3d6000fd5b507fd99e4fad9ad6313b1feb588fa8e605e3a9873172f2024330c35dd2b4041a43863384604051610c289291906121fa565b60405180910390a17f9f1cc9f631ef4adfe7b8fb5180733fe8e804f452ee94cd404396f67e515136a481333486604051610c659493929190611fe0565b60405180910390a150506001808190555050565b610c816118e6565b73ffffffffffffffffffffffffffffffffffffffff16610c9f610dd9565b73ffffffffffffffffffffffffffffffffffffffff1614610cf5576040517f08c379a0000000000000000000000000000000000000000000000000000000008152600401610cec90612236565b60405180910390fd5b600073ffffffffffffffffffffffffffffffffffffffff1660008054906101000a900473ffffffffffffffffffffffffffffffffffffffff1673ffffffffffffffffffffffffffffffffffffffff167f8be0079c531659141344cd1fd0a4f28419497f9722a3daafe3b4186f6b6457e060405160405180910390a360008060006101000a81548173ffffffffffffffffffffffffffffffffffffffff021916908373ffffffffffffffffffffffffffffffffffffffff160217905550565b600360009054906101000a900473ffffffffffffffffffffffffffffffffffffffff1681565b60008060009054906101000a900473ffffffffffffffffffffffffffffffffffffffff16905090565b610e0a61084c565b15610e4a576040517f08c379a0000000000000000000000000000000000000000000000000000000008152600401610e419061215e565b60405180910390fd5b3373ffffffffffffffffffffffffffffffffffffffff16600260019054906101000a900473ffffffffffffffffffffffffffffffffffffffff1673ffffffffffffffffffffffffffffffffffffffff16636352211e836040518263ffffffff1660e01b8152600401610ebc91906122f2565b60206040518083038186803b158015610ed457600080fd5b505afa158015610ee8573d6000803e3d6000fd5b505050506040513d601f19601f82011682018060405250810190610f0c91906119b2565b73ffffffffffffffffffffffffffffffffffffffff1614610f62576040517f08c379a0000000000000000000000000000000000000000000000000000000008152600401610f59906120fe565b60405180910390fd5b600260019054906101000a900473ffffffffffffffffffffffffffffffffffffffff1673ffffffffffffffffffffffffffffffffffffffff1663e985e9c533306040518363ffffffff1660e01b8152600401610fbf929190612025565b60206040518083038186803b158015610fd757600080fd5b505afa158015610feb573d6000803e3d6000fd5b505050506040513d601f19601f8201168201806040525081019061100f91906119db565b61104e576040517f08c379a0000000000000000000000000000000000000000000000000000000008152600401611045906120de565b60405180910390fd5b64e8d4a51000821015611096576040517f08c379a000000000000000000000000000000000000000000000000000000000815260040161108d906121da565b60405180910390fd5b6000600560008381526020019081526020016000206040518060a00160405290816000820160009054906101000a900473ffffffffffffffffffffffffffffffffffffffff1673ffffffffffffffffffffffffffffffffffffffff1673ffffffffffffffffffffffffffffffffffffffff1681526020016001820154815260200160028201548152602001600382015481526020016004820160009054906101000a900460ff161515151581525050905060011515816080015115151415611264576004816040015181548110611196577f4e487b7100000000000000000000000000000000000000000000000000000000600052603260045260246000fd5b9060005260206000209060050201600080820160006101000a81549073ffffffffffffffffffffffffffffffffffffffff02191690556001820160009055600282016000905560038201600090556004820160006101000a81549060ff0219169055505060056000838152602001908152602001600020600080820160006101000a81549073ffffffffffffffffffffffffffffffffffffffff02191690556001820160009055600282016000905560038201600090556004820160006101000a81549060ff021916905550505b60006040518060a001604052803373ffffffffffffffffffffffffffffffffffffffff1681526020018581526020016004805490508152602001848152602001600115158152509050806005600085815260200190815260200160002060008201518160000160006101000a81548173ffffffffffffffffffffffffffffffffffffffff021916908373ffffffffffffffffffffffffffffffffffffffff16021790555060208201518160010155604082015181600201556060820151816003015560808201518160040160006101000a81548160ff021916908315150217905550905050600481908060018154018082558091505060019003906000526020600020906005020160009091909190915060008201518160000160006101000a81548173ffffffffffffffffffffffffffffffffffffffff021916908373ffffffffffffffffffffffffffffffffffffffff16021790555060208201518160010155604082015181600201556060820151816003015560808201518160040160006101000a81548160ff02191690831515021790555050507fd99e4fad9ad6313b1feb588fa8e605e3a9873172f2024330c35dd2b4041a4386338460405161142d92919061219e565b60405180910390a150505050565b61144361084c565b15611483576040517f08c379a000000000000000000000000000000000000000000000000000000000815260040161147a9061215e565b60405180910390fd5b6000600560008381526020019081526020016000206040518060a00160405290816000820160009054906101000a900473ffffffffffffffffffffffffffffffffffffffff1673ffffffffffffffffffffffffffffffffffffffff1673ffffffffffffffffffffffffffffffffffffffff1681526020016001820154815260200160028201548152602001600382015481526020016004820160009054906101000a900460ff16151515158152505090503373ffffffffffffffffffffffffffffffffffffffff16816000015173ffffffffffffffffffffffffffffffffffffffff16146115a6576040517f08c379a000000000000000000000000000000000000000000000000000000000815260040161159d906122b2565b60405180910390fd5b600060048260400151815481106115e6577f4e487b7100000000000000000000000000000000000000000000000000000000600052603260045260246000fd5b906000526020600020906005020160040160006101000a81548160ff02191690831515021790555060056000838152602001908152602001600020600080820160006101000a81549073ffffffffffffffffffffffffffffffffffffffff02191690556001820160009055600282016000905560038201600090556004820160006101000a81549060ff021916905550507fd99e4fad9ad6313b1feb588fa8e605e3a9873172f2024330c35dd2b4041a438633836040516116a8929190612256565b60405180910390a15050565b60006116be6118e6565b73ffffffffffffffffffffffffffffffffffffffff166116dc610dd9565b73ffffffffffffffffffffffffffffffffffffffff1614611732576040517f08c379a000000000000000000000000000000000000000000000000000000000815260040161172990612236565b60405180910390fd5b600480549050905090565b6117456118e6565b73ffffffffffffffffffffffffffffffffffffffff16611763610dd9565b73ffffffffffffffffffffffffffffffffffffffff16146117b9576040517f08c379a00000000000000000000000000000000000000000000000000000000081526004016117b090612236565b60405180910390fd5b600073ffffffffffffffffffffffffffffffffffffffff168173ffffffffffffffffffffffffffffffffffffffff161415611829576040517f08c379a00000000000000000000000000000000000000000000000000000000081526004016118209061211e565b60405180910390fd5b8073ffffffffffffffffffffffffffffffffffffffff1660008054906101000a900473ffffffffffffffffffffffffffffffffffffffff1673ffffffffffffffffffffffffffffffffffffffff167f8be0079c531659141344cd1fd0a4f28419497f9722a3daafe3b4186f6b6457e060405160405180910390a3806000806101000a81548173ffffffffffffffffffffffffffffffffffffffff021916908373ffffffffffffffffffffffffffffffffffffffff16021790555050565b600033905090565b6040518060a00160405280600073ffffffffffffffffffffffffffffffffffffffff1681526020016000815260200160008152602001600081526020016000151581525090565b6000813590506119448161244d565b92915050565b6000815190506119598161244d565b92915050565b60008151905061196e81612464565b92915050565b6000813590506119838161247b565b92915050565b60006020828403121561199b57600080fd5b60006119a984828501611935565b91505092915050565b6000602082840312156119c457600080fd5b60006119d28482850161194a565b91505092915050565b6000602082840312156119ed57600080fd5b60006119fb8482850161195f565b91505092915050565b600060208284031215611a1657600080fd5b6000611a2484828501611974565b91505092915050565b60008060408385031215611a4057600080fd5b6000611a4e85828601611974565b9250506020611a5f85828601611974565b9150509250929050565b6000611a758383611f70565b60208301905092915050565b611a8a8161239f565b82525050565b611a9981612357565b82525050565b6000611aaa8261231d565b611ab48185612335565b9350611abf8361230d565b8060005b83811015611af0578151611ad78882611a69565b9750611ae283612328565b925050600181019050611ac3565b5085935050505092915050565b611b0681612369565b82525050565b6000611b19603c83612346565b91507f4d61726b6574706c6163652061646472657373206e65656473206f706572617460008301527f6f72207374617475732066726f6d206d6f6e6b6579206f776e65722e000000006020830152604082019050919050565b6000611b7f603083612346565b91507f4f6e6c79206d6f6e6b6579206f776e65722063616e20736574206f666665722060008301527f666f72207468697320746f6b656e4964000000000000000000000000000000006020830152604082019050919050565b6000611be5602683612346565b91507f4f776e61626c653a206e6577206f776e657220697320746865207a65726f206160008301527f64647265737300000000000000000000000000000000000000000000000000006020830152604082019050919050565b6000611c4b601f83612346565b91507f4e6f20616374697665206f6666657220666f722074686973206d6f6e6b6579006000830152602082019050919050565b6000611c8b601083612346565b91507f5061757361626c653a20706175736564000000000000000000000000000000006000830152602082019050919050565b6000611ccb601e83612346565b91507f4e6f742073656e64696e672074686520636f727265637420616d6f756e7400006000830152602082019050919050565b6000611d0b600c83612346565b91507f437265617465206f6666657200000000000000000000000000000000000000006000830152602082019050919050565b6000611d4b604283612346565b91507f6f66666572207072696365206d757374206265206174206c656173742031303060008301527f30303030303030303030205745492c20692e652e20302e30303030303120455460208301527f48200000000000000000000000000000000000000000000000000000000000006040830152606082019050919050565b6000611dd7600383612346565b91507f42757900000000000000000000000000000000000000000000000000000000006000830152602082019050919050565b6000611e17602083612346565b91507f4f776e61626c653a2063616c6c6572206973206e6f7420746865206f776e65726000830152602082019050919050565b6000611e57600c83612346565b91507f52656d6f7665206f6666657200000000000000000000000000000000000000006000830152602082019050919050565b6000611e97602183612346565b91507f4e6f20616374697665206f6666657220666f72207468697320746f6b656e496460008301527f2e000000000000000000000000000000000000000000000000000000000000006020830152604082019050919050565b6000611efd601483612346565b91507f596f75277265206e6f7420746865206f776e65720000000000000000000000006000830152602082019050919050565b6000611f3d601f83612346565b91507f5265656e7472616e637947756172643a207265656e7472616e742063616c6c006000830152602082019050919050565b611f7981612395565b82525050565b611f8881612395565b82525050565b6000602082019050611fa36000830184611a90565b92915050565b6000606082019050611fbe6000830186611a81565b611fcb6020830185611a90565b611fd86040830184611f7f565b949350505050565b6000608082019050611ff56000830187611a81565b6120026020830186611a90565b61200f6040830185611f7f565b61201c6060830184611f7f565b95945050505050565b600060408201905061203a6000830185611a90565b6120476020830184611a90565b9392505050565b600060a0820190506120636000830188611a90565b6120706020830187611f7f565b61207d6040830186611f7f565b61208a6060830185611f7f565b6120976080830184611afd565b9695505050505050565b600060208201905081810360008301526120bb8184611a9f565b905092915050565b60006020820190506120d86000830184611afd565b92915050565b600060208201905081810360008301526120f781611b0c565b9050919050565b6000602082019050818103600083015261211781611b72565b9050919050565b6000602082019050818103600083015261213781611bd8565b9050919050565b6000602082019050818103600083015261215781611c3e565b9050919050565b6000602082019050818103600083015261217781611c7e565b9050919050565b6000602082019050818103600083015261219781611cbe565b9050919050565b600060608201905081810360008301526121b781611cfe565b90506121c66020830185611a90565b6121d36040830184611f7f565b9392505050565b600060208201905081810360008301526121f381611d3e565b9050919050565b6000606082019050818103600083015261221381611dca565b90506122226020830185611a90565b61222f6040830184611f7f565b9392505050565b6000602082019050818103600083015261224f81611e0a565b9050919050565b6000606082019050818103600083015261226f81611e4a565b905061227e6020830185611a90565b61228b6040830184611f7f565b9392505050565b600060208201905081810360008301526122ab81611e8a565b9050919050565b600060208201905081810360008301526122cb81611ef0565b9050919050565b600060208201905081810360008301526122eb81611f30565b9050919050565b60006020820190506123076000830184611f7f565b92915050565b6000819050602082019050919050565b600081519050919050565b6000602082019050919050565b600082825260208201905092915050565b600082825260208201905092915050565b600061236282612375565b9050919050565b60008115159050919050565b600073ffffffffffffffffffffffffffffffffffffffff82169050919050565b6000819050919050565b60006123aa826123b1565b9050919050565b60006123bc826123c3565b9050919050565b60006123ce82612375565b9050919050565b60006123e082612395565b91507fffffffffffffffffffffffffffffffffffffffffffffffffffffffffffffffff8214156124135761241261241e565b5b600182019050919050565b7f4e487b7100000000000000000000000000000000000000000000000000000000600052601160045260246000fd5b61245681612357565b811461246157600080fd5b50565b61246d81612369565b811461247857600080fd5b50565b61248481612395565b811461248f57600080fd5b5056fea26469706673582212203968a86870bd167fd43eb1c571040427c2d230fc7d252f2c6b2fd880d1fb721b64736f6c63430008000033",
  "linkReferences": {},
  "deployedLinkReferences": {}
}